:10000000F0230010518F00004F8F00004F8F000031
:100010004F8F00004F8F00004F8F00000000000046
:100020000000000000000000000000004F8F0000F2
:100030004F8F0000000000004F8F0000A1850000DE
:10004000B1830000B1830000B1830000B1830000E0
:10005000B1830000B1830000B1830000B1830000D0
:10006000B1830000B1830000B1830000B1830000C0
:10007000B18300004D8F00004D8F0000318C0000D7
:100080003D860000558600006D86000085860000D4
:100090004D8F00009D8600004D8F00004D8F0000A9
:1000A0004D8F00004D8F00004D8F00004D8F0000E0
:1000B0004D8F00004D8F00004D8F00004D8F0000D0
:1000C000552243084000904313400343DBB2223AD9
:1000D00098089B00104093430343DBB218091B01AF
:1000E0001843C0B2704700000523F0B520384343E1
:1000F00089B004932D4B00271B78019105932C4B5D
:100100001B7800938423534306932A4B049A019D42
:10011000D318DB5D1C000293059B9C400023E4B2D6
:100120000393009B019A9B18DBB29D4239D0069B3A
:100130000026EA18204BD318079325E00195E4E741
:10014000009B022B18D10299B30019410B000F211B
:100150000B409C00234324310B405C001C4355237F
:100160001C4063001C436400E4B2002A13D0039BCC
:10017000002B01D001231C432000FFF7A1FF8423A3
:100180007343079A0136D054009BF2B29A42D7D3F8
:100190000135EDB2C5E763B2002BEDDA012303931D
:1001A000EAE70137052FC9D109B0F0BD610600109B
:1001B0001B0000109CBC000020120010F8B50A4B78
:1001C00005001B780C0016000C27022B00D0063F00
:1001D0002878002800D1F8BD21003200E419FFF78B
:1001E00083FF0135E4B2F3E71B00001070B50D008A
:1001F00004000A21280008F05BFF303161702800FC
:100200000A2108F0CFFE0A21C0B208F051FFC9B29E
:100210002023002901D03031CBB2237070BD000003
:1002200010B58424CB085C43842324185B009C42D3
:100230000BDA0120023BFF3B19408840C0B2FFF7B8
:100240003FFF024B1A5D1043185510BD20120010DD
:1002500070B5114B01201B78002B1BD00F4A013BBE
:100260001B01D3189D68DC680022002328002100B0
:1002700009F024F8002802D080231B06E418084A5D
:10028000084B2800210009F02DF8030001205A1E18
:100290009341584070BDC046DC050010E0050010D9
:1002A0003EC3D84E7D7F612B704700000023034A78
:1002B0001370034A1370034A13707047DA05001075
:1002C00095060010DB050010024A137859424B4195
:1002D00013707047890600100023044A1370044A03
:1002E00013700122034B1A707047C046930600102A
:1002F000920600108C0600100023044A1370044A72
:1003000013700222034B1A707047C0469306001008
:10031000920600108C0600100023034A1370034A53
:100320001370034A13707047930600109206001072
:100330008C060010024A137859424B4113707047E3
:10034000910600100122034B1A700022024B1A7012
:100350007047C046920600108C0600100122034B25
:100360001A700022024B1A707047C04693060010A4
:100370008C0600100122014B1A707047980600107D
:100380000849094A0B78002B05D01078074B1B1839
:10039000FF20013B1870002301200B7004491370EB
:1003A00008707047A1060010580800103B000010AC
:1003B00099060010024A137859424B411370704756
:1003C0009D0600100222034B1A700022024B1A7085
:1003D0007047C0469D0600108C0600100322034B98
:1003E0001A700022024B1A707047C0469D0600101A
:1003F0008C0600100022014B1A7070479A060010FC
:100400000022034B1A70034B01321A707047C0462A
:1004100058080010A106001000230F4A70B5137091
:100420000E4A10241370002300220D4E0D49300097
:100430000A604B608A60CB60220008F04FFB0A4DD7
:1004400031002200280008F049FB2900220007485B
:1004500008F044FB70BDC046DC05001038130010E6
:100460007013001080130010601300105013001060
:100470000122034B1A700022024B1A707047C046CB
:10048000200000108C0600100023024A1370024A5C
:1004900013707047200000108C0600100122014BE1
:1004A0001A707047A40600100122014B1A707047A1
:1004B0009706001010B5021C202800D92022002029
:1004C00003000649D2B2934200D310BD0C5CFF2C4E
:1004D00001D10133DBB20130F5E7C0465F080010FF
:1004E00070B5074B1D78681CC0B2FFF7E3FF04002E
:1004F0002800FFF7DFFF013C201AC0B270BDC046E4
:100500002813001010B5FFF7D5FF034B185CFE3819
:1005100043425841C0B210BD5F080010034B1A7827
:10052000034B1A700022034B1A7070478A060010A2
:10053000890600109F06001010B50A4B1878FFF7C7
:10054000B9FF0023084A12180848D45CD9B2FF2C1E
:1005500002D0242B03D11900FF23435410BDC454EF
:100560000133F2E7281300105F0800103408001070
:10057000074A002013780021002B07D0013BDBB293
:100580001370044ADB00D318186859687047C046D6
:1005900093190010981900100023034A1370034A9E
:1005A0001370034A13707047A906001091190010C8
:1005B00092190010044A137859424B4113700022DB
:1005C000024B1A707047C0462100001091060010BF
:1005D000054B1A78002A02D000221A7070470121B8
:1005E0001970024BF9E7C046910600102100001077
:1005F0000022014B1A707047A8060010020000206C
:10060000030010B5074C934204D2215C002901D0AD
:10061000FF2800D110BD0130C0B20A29F3D1013347
:10062000DBB2F0E7850000100023054AD15C581CBE
:10063000002901D0FF2B01D1C0B27047C3B2F5E74A
:1006400085000010002318000649CA5C002A01D06A
:10065000FF2B00D170470133DBB20A2AF5D10130FC
:10066000C0B2F2E785000010084B400070B5C45CD2
:100670001B185D7820002900002207F09FFD29004B
:100680000122200007F0E6FD70BDC046DCC000007E
:100690000122F8B508210600100007F0DBFD072451
:1006A000082700223900012007F0D4FD320001257F
:1006B0002241022100202A4007F0CCFD2A00390007
:1006C000280007F0C7FD013CEBD2F8BD002210B5B1
:1006D00004001100022007F0BDFD2000FFF7D8FF45
:1006E00010BD0000A022FF21520010B5094808F0FB
:1006F00016FA202300200021074A013BDBB203C287
:10070000002BFAD1054A1370054A1370054A13707D
:1007100010BDC0465F080010201100102813001003
:100720002A13001029130010F8B5551C86180C0068
:100730001700451908F02BFAC21B310028000132BE
:1007400008F00FFA3470F8BD30B50E4C85B0039345
:1007500023780D4D009001910292072B07D970224A
:1007600028000A4908F0FDF92378013B237020781E
:100770001022431C000169462818237008F0AEF9C6
:1007800005B030BDDC050010E0050010F0050010DC
:1007900010B50B4B197800290BD00A4C0A4B0139C4
:1007A000090110222000591808F098F90FCCFFF722
:1007B000CBFF0023054A1370054A137010BDC046D5
:1007C000DC050010B0060010E0050010DB0500108D
:1007D000DA05001010B5FFF7DBFFFFF7D9FF0122A4
:1007E000034B1A700023034A1370034A137010BDA1
:1007F000A6060010AC0600101F11001030B5002234
:1008000004000D00002385B000940195029203932B
:10081000009801990022039BFFF796FF2000290012
:1008200005B030BDC02010B50249C005FFF7E6FF96
:1008300010BDC046FB210940802110B50020C9052C
:10084000FFF7DCFF10BD00001FB50022002300925F
:10085000019300220020054B019902920393039B10
:100860000200FFF771FF05B000BDC0460000F03F79
:1008700010B5024B0FCBFFF767FF10BDB00600109D
:1008800010B5024B0FCBFFF75FFF10BD40130010F8
:10089000F8B5070020200E001400FFF70BFEA02380
:1008A00005005B0098420BD23800FFF703FE2418C6
:1008B0002A1B044D601C6119401908F052F92E558D
:1008C000F8BDC0465F080010F8B506000120FFF72C
:1008D000F1FD471E04002020FFF7ECFD054D01301F
:1008E000021B7919601908F03CF90022024BEE5501
:1008F0001A70F8BD5F0800108E060010F8B50C4F96
:1009000006003B780D000B4C032B08D92100182260
:100910002000083108F025F93B78013B3B703B781B
:100920005A1CDB00E4183A7026606560F8BDC046CA
:10093000931900109819001010B5094B1B78002B63
:1009400007D0084A013BDB00D31818685968FFF745
:10095000D5FF0023044A1370044A137010BDC0462B
:100960009319001098190010A90600109219001090
:1009700010B5FFF7FDFD002342428B411000190026
:10098000FFF7BCFF10BD000070B5FFF7F1FD0500DB
:100990000C00FFF7EDFD074B1B78002B03D0642202
:1009A000002308F0D7FC2A00230008F0AFFCFFF773
:1009B000A5FF70BD2100001070B5FFF7D9FD0D0037
:1009C0000400FFF7D5FD00196941FFF797FF70BDDF
:1009D00010B5FFF7CDFFFFF7EFFF10BDF8B504002E
:1009E00008F0D5F80023C7B2661EDAB2E118BA42A1
:1009F00003D25A1CB55C202D06D0C2B2D21A2000F8
:100A0000013208F06BF8F8BD1300EEE770B58518F9
:100A100008000C0008F0BBF821000200280008F0D4
:100A20005DF870BDF0B5002489B003221A49019029
:100A300004AF03A83C7108F051F80622174906A834
:100A400008F04CF8E5B20321280008F0ABFA144B8B
:100A5000C6B21E70019BA10059180422380008F08C
:100A60003DF82800032108F023FB03ABC9B25D5C0D
:100A700006ABE05C290080383200C0B20635FFF7D3
:100A800033FB013432003800E9B2FFF797FB062C44
:100A9000D8D109B0F0BDC046A8B90000ACB900007B
:100AA0006106001070B5C2000400002100200E4B4A
:100AB0009B18186059602000FFF7FCFC0B4E0500E6
:100AC000335CFF2B0ED00134E0B2FFF7F3FC0400DF
:100AD0002020FFF7EFFC611E0130021B8919A819C5
:100AE00007F0FCFF70BDC046201100105F08001029
:100AF00010B50C00FFF7DEFC24182020FFF7DAFC0D
:100B0000021B0348611C0918201807F0E7FF10BDFD
:100B10005F080010F8B5124B1F78781CC0B2FFF7C1
:100B20006DFD104D041E104E0CD10A2330702B7039
:100B30006870300008F02BF801220C4B18700C4B39
:100B40001A70F8BD3800FFF759FD241A013C291826
:100B50002200300007F0C2FF00233355E9E7C0460A
:100B6000901300108500001063060010620600104C
:100B70008F060010F7B516001F0002000B00009052
:100B800001913000390009F0E1FA04F025FD00225E
:100B9000154B09F0DDFEC022144BD20509F0D6FA40
:100BA000002204000D0000980199002308F086FB44
:100BB00000280FD0002200233000390008F07EFB0F
:100BC0000022094B002809D0200029000AF02CF946
:100BD00004000D002000290003B0F0BD2000290012
:100BE00008F078FFF4E7C04600806640FB2109402A
:100BF00007B507F0D9F8684601A907F07DF96B46FB
:100C00003C205B7958436B469B79C0180EBD0000B1
:100C100010B507F031F808F00FFF044908F0F4FDB3
:100C20000AF03EFDFFF7EAFD10BDC04600007A4421
:100C30000023F7B5114F124D3B702B70984218D11D
:100C4000104B01241878FFF735FC0F4E3618335D32
:100C5000FF2B0AD06A46137100232800537101A9A3
:100C600001340AF07BFE082CF1D1280007F08FFF39
:100C700038700122054B1A70F7BDC046620600109D
:100C800063060010281300105F0800108F06001084
:100C900010B50B4904000020002C0CDC013464B2B8
:100CA000012C0CD00022074B09F050FAF6E7002285
:100CB000044B09F04DFE013C64B2631CF7D110BD3A
:100CC0000000F03F0000244010B50B4B04001978E1
:100CD00000290AD00139C9B21970084B0901102244
:100CE000591807F0FBFE200010BD0022002302600F
:100CF00043608260C360F6E7DC050010E005001089
:100D000000B58DB06846FFF7DFFF04A8FFF7DCFFF2
:100D1000009A019B0498059908F0DCFE029A039B57
:100D2000089009910698079908F0D4FE0A900B9153
:100D30000A9A089809990B9BFFF706FD0DB000BDB4
:100D400010B500200249FFF759FDFFF7D9FF10BD8C
:100D50000000F03FF0B589B06846FFF7B5FF009C92
:100D6000019D029E039F22002B003000390009F0F4
:100D7000EDF932003B0009F0EBFD22002B0008F0FA
:100D8000A9FE02000B000020114909F0DFF9320032
:100D9000049005913B002000290009F0D7F92200BA
:100DA0002B0009F0D5FD32003B0008F093FE020055
:100DB0000B000020074909F0C9F906900791069A2F
:100DC00004980599079BFFF7BFFC09B0F0BDC0462A
:100DD0000000F03F0000F0BFF0B593B006A8FFF7A9
:100DE00073FF069B079C0AA800930194089C099D29
:100DF000FFF76AFF0A9E0B9F0C9A0D9B00980199C2
:100E00000292039332003B0009F0A2FD029A039B79
:100E1000049005912000290009F09AFD02000B00C2
:100E2000049805990AF000F832000E900F913B00EB
:100E30002000290009F08CFD029A039B04000D009C
:100E40000098019909F084FD02000B0020002900A0
:100E500008F040FE10901191109A0E980F99119B76
:100E6000FFF772FC13B0F0BD10B5FFF773FFFFF78B
:100E7000B3FF10BD064B10B50FCBFFF765FC054B5C
:100E800018780AF0E7FBFFF7B9FCFFF7EDFF10BD9C
:100E9000501300103813001010B5FFF779FCFFF75E
:100EA0009BFF10BD00B589B06846FFF70DFF009AA3
:100EB000019B80200399049205930006029A0B1867
:100EC0000692079304980599069A079BFFF73CFC46
:100ED00009B000BD00B589B06846FFF7F5FE029A7B
:100EE000039B04920593009A019B06920793049832
:100EF0000599069A079BFFF727FC09B000BD000083
:100F00001FB5064C6846FFF7DFFE69461022200039
:100F100007F0E4FD0FCCFFF717FC1FBD40130010D6
:100F200000B589B004A8FFF7CFFE049805990AF030
:100F30002BFB40B2FFF7ACFE002200230090019192
:100F400002920393009800220199039BFFF7FCFB98
:100F5000FFF742FF09B000BDF0B504003E4D8DB073
:100F60000A281CD13D4B1B78002B18D13C4B1A781A
:100F7000002A01D101321A702B78002B0DD1394C87
:100F80002378002B02D06846FFF79EFE0020002148
:100F9000FFF734FC012323702B700DB0F0BD2B78CC
:100FA000002B0ED12F4E3378002B02D06846FFF76E
:100FB0008BFE20000AF04EFBFFF720FC012333706C
:100FC000EAE7274E3578002D21D004A8FFF77CFEF4
:100FD0006B1C68B23370FFF75BFE06000F00200049
:100FE0000AF008FB32003B0009F0B0F8049A059BB8
:100FF00008F070FD00240023089009910A930B94D7
:10100000089809990A9A0B9BFFF79EFBC5E708A869
:10101000FFF75AFE08980999104B00221B78002B05
:1010200018D1114B09F094FC060020000F000AF0C3
:10103000E1FA02000B003000390008F04BFD0024FB
:101040000023049005910693079404980599069A45
:10105000079BD9E7054BE5E7DB050010910600107B
:10106000DA05001095060010000024400000304012
:1010700010B5064B1B78002B03D00122044B1A70CD
:1010800010BD0A20FFF768FFFAE7C046910600107E
:101090008806001010B50920FFF75EFF10BD10B5DF
:1010A0000820FFF759FF10BD10B50720FFF754FFC8
:1010B00010BD000010B5054C0F202378002B00D187
:1010C0000938FFF749FF0023237010BD8806001080
:1010D00010B5054C0E202378002B00D10938FFF7FE
:1010E0003BFF0023237010BD8806001010B5054C8F
:1010F0000D202378002B00D10938FFF72DFF0023A6
:10110000237010BD8806001010B5054C0C20237804
:10111000002B00D10938FFF71FFF0023237010BDFB
:101120008806001010B5054C0B202378002B00D149
:101130000938FFF711FF0023237010BD8806001047
:1011400010B5054C0A202378002B00D10938FFF791
:1011500003FF0023237010BD8806001010B5002087
:10116000FFF7FAFE10BDF0B589B06846FFF7ACFD99
:1011700000980199029C039D04F0C8FC06000F0032
:101180002000290004F0C2FB32003B0009F0E0FB24
:10119000049005912000290004F066FC32003B0019
:1011A00009F0D6FB06900791069A04980599079BCB
:1011B000FFF7CAFA09B0F0BD10B5FFF7D4FFFFF78B
:1011C000E7FAFFF7C7FDFFF79BFDFFF735FBFFF7DA
:1011D0004BFE10BD1FB5074B1B78002B06D0684691
:1011E000FFF772FD0098019905B000BD00200021B5
:1011F000FAE7C046DC05001010B5FFF7EBFF0AF078
:10120000C3F99423421F5B009A4201D2014B18702C
:1012100010BDC0462200001010B5FFF7DBFF08F03C
:10122000E5F808F01FF9FFF7E9FA10BD70B5FFF710
:10123000D1FF05000C00002200232800210008F047
:101240003DF8002802D080231B06E4182800210066
:10125000FFF7D4FA70BD000010B5FFF7BBFFE02226
:101260000B4B120609F0E0FDFFF7C8FA094B0A4ADA
:101270001860596000210020084B18605960002355
:1012800001211370064A1170064A137010BDC04642
:101290004D62603F301300101F11001080060010D7
:1012A000A50600108C06001010B52022002113485E
:1012B00007F035FCFFF78EFF114C20606160FFF7EF
:1012C00089FFFFF79BFA02000B000E490A604B6092
:1012D0002068616809F0A8FD00220B4B08F036FF7A
:1012E00001220A4B18605960094B1A700023094A01
:1012F0001370094A1370094A137010BDD406001008
:10130000C8060010C006001000003F40780600101C
:101310009C0600108C060010AC0600101F11001077
:1013200010B5FFF757FF8022034B120608F00EFF9F
:10133000FFF764FA10BDC0465347E13F10B5FFF711
:1013400049FFE022034B120608F000FFFFF756FAB0
:1013500010BDC04645E2E33F10B5FFF73BFF8022DA
:10136000034B120609F0F4FAFFF748FA10BDC04625
:10137000EB51044010B5FFF72DFF0022024B09F09E
:10138000E7FAFFF73BFA10BD86480E4010B5FFF7AD
:1013900021FF0022054B09F047FDC022044B120635
:1013A00008F0D4FEFFF72AFA10BDC0460000404006
:1013B000CCCCFC3F10B5FFF70DFF8022034B92050C
:1013C00008F0C4FEFFF71AFA10BDC04611A3014091
:1013D00010B5FFF7FFFE0022054B09F0B9FAC02255
:1013E000044BD20508F0B2FEFFF708FA10BDC04664
:1013F00000806640FB210940F7B5FFF7EBFE1D4A70
:101400001D4B08F067FB0D0004000AF0BDF80AF060
:10141000F1F80090019102000B002000290009F072
:1014200003FD0022154B09F093FA0D0004000AF0A9
:10143000ABF80AF0DFF806000F0002000B002000F6
:10144000290009F0F1FC00220C4B09F081FA00227E
:101450000B4B08F07BFE32003B0008F03BFB002208
:10146000074B08F073FE009A019B08F033FBFFF76F
:10147000C5F9F7BDBBBDD7D9DF7CDB3D00005940C6
:1014800000004E40F8B5FFF7A5FE07F091FFC4B28B
:10149000FFF7A0FE07F08CFFC5B200202C1B0B4904
:1014A000E4B20134FFF7AAF9631EDBB29D4200D813
:1014B000F8BDFFF78FFE06000F0020000AF09AF833
:1014C00032003B0009F044FAEBE7C0460000F03F71
:1014D000F8B5FFF77FFEFFF791F907F069FF0124E8
:1014E000C5B2FFF7CFFFAC4200D9F8BDFFF772FEDF
:1014F000060020000F000AF07DF802000B0030000B
:10150000390008F023FE0134FFF778F9E4B2EAE786
:1015100010B5FFF75FFE8022034B120609F018FAA0
:10152000FFF76CF910BDC0465347E13F10B5FFF718
:1015300051FEE022034B120609F00AFAFFF75EF9AA
:1015400010BDC04645E2E33F10B5FFF743FE8022E1
:10155000034B120608F0FAFDFFF750F910BDC04624
:10156000EB51044010B5FFF735FE0022024B08F0A6
:10157000EDFDFFF743F910BD86480E4010B5FFF7AB
:1015800029FEC022054B120609F0E2F90022044BA5
:1015900008F0A0FAFFF732F910BDC046CCCCFC3FF2
:1015A0000000404010B5FFF715FE8022034B920566
:1015B00009F0CEF9FFF722F910BDC04611A3014092
:1015C00010B5FFF707FEC022054BD20509F0C0F9A0
:1015D0000022044B08F0BAFDFFF710F910BDC04619
:1015E000FB21094000806640F0B585B0FFF7F2FDB1
:1015F0000022284B09F0ACF9274A284B08F06AFA78
:101600000022244B04000D0008F0A0FD09F0BCFFEF
:1016100009F0F0FF00221F4B0090019109F098F9AA
:101620000290039102000B002000290009F0FCFB4E
:1016300000221B4B08F08AFD09F0A6FF09F0DAFF33
:101640000022174B06000F0009F082F902000B0080
:101650002000290009F0E8FB029A039B09F0E4FB53
:101660000022104B08F072FD002204000D00300033
:1016700039000D4B08F06AFD009A019B08F02AFA28
:1016800002000B002000290008F024FAFFF7B6F84A
:1016900005B0F0BD0020AC40BBBDD7D9DF7CDB3D41
:1016A00000004E400088C3400000594030B5264A33
:1016B000264B12781B7885B0002A19D0002B0ED04B
:1016C000FFF788FD0022224B09F042F907F08EFE59
:1016D0000B00034335D1FEF7E9FD05B030BD684688
:1016E000FFF7F2FA102269461A4807F0F7F9F4E713
:1016F000002BF4D0184A107800281BD0431EDBB210
:101700001370002BE9D0023840B2FFF7C1FA040091
:101710000D00FFF75FFD22002B0009F019F907F01B
:1017200065FE07F09FFE22002B0008F00FFDFFF77B
:1017300065F8D2E7FFF74EFD0022084B08F006FDE2
:10174000C4E707F08FFEF2E791060010DB050010FA
:101750000000B03FB0060010DA0500100000244081
:1017600010B5FFF737FD07F023FEC0B2072803D8F6
:10177000024B187006F0F8F810BDC0469D0100102D
:1017800010B5FFF727FD07F013FEC0B23F2803D8BE
:10179000024B187006F0E8F810BDC046C81A0010D9
:1017A00010B5040074280CD9212C17D0FEF77EFD4B
:1017B000193CE4B20B2C11D80D4BE340DB0716D4D7
:1017C0000CE00C4B1A78272353430B4A1B189B0041
:1017D0009B5898470A2CEBD9122CE5D10023074AD5
:1017E0001370044A1370064A1370064A137010BD32
:1017F000210C00008C060010C8BA00009D060010E5
:101800009306001092060010F0B52E4AC30085B072
:10181000D3181A685B68040000920193FEF74AFE31
:101820000500FEF743FDFEF7F7FD274B6E1C5F5DDD
:10183000FF2F10D1FFF7CEFC224BE4001C192060D3
:101840006160009A019B09F0EFFA02000B0009F0B9
:101850007FF805B0F0BDFD2F1DD11C4F9E5D3B787C
:101860000235042B07D91A480422411C07F079F9E4
:101870003B78013B3B70154A1378591C1170144A90
:10188000D654104BF6009E1930687168FEF7B6FF0B
:101890002E003500C9E70F4B06221D7827230E497D
:1018A00002A85D4307F01AF900237D19EDB202AAE0
:1018B000D25CAA42EDD00133062BF8D13800FFF7F5
:1018C0006FFFE6E7201100105F08001059080010B4
:1018D0005A0800108C060010B3B90000F8B5202596
:1018E0000024002600272000FEF70CFE00280AD165
:1018F0002000FFF789FF02000B003000390008F0DC
:10190000E9F806000F000134E4B2202CEBD1E0220C
:1019100030003900054B120607F0D0FC002803D137
:10192000013DEDB2002DDBD1F8BDC0464D62503F08
:1019300070B50D4E34782000FEF7BCFD0B4B1B5CE0
:10194000FF2B02D02000FFF7ADF80024084D013D29
:10195000E2B20134295DFF2902D1FFF7BFFF70BD5C
:101960003078FEF795FFF3E7281300105F080010AA
:1019700034080010F7B5012006F0C4F80400222056
:10198000002C1DD12500174B0193019B01221E78CD
:101990005F783000390006F011FC39003000002279
:1019A00006F058FC271D104EFFB2F179B07906F011
:1019B00027FC002805D12800FEF756FE0B4B185DCA
:1019C000FEBD0134E4B2023EA742EED12800FEF78C
:1019D0004BFE019B01350233EDB201930A2DD4D1A8
:1019E000FF20EDE7DCC00000D4C00000ACC0000068
:1019F00070B50024FFF7BEFF0500012006F0FEFDD4
:101A0000FF2D00D000240134E4B2032CF2D170BDCC
:101A100000B50C4B89B01B78012B11D96846FFF734
:101A200053F904A8FFF750F900980199029A039B13
:101A3000FEF78AFE04980599069A079BFEF784FE36
:101A400009B000BDDC05001010B5FFF7E1FFFFF79E
:101A5000C1FB124C20606160FFF7BCFBFEF7CEFEBD
:101A60002268636809F0E0F900220D4B08F070FF6E
:101A700000220C4B08F06AFB0B4B012218605960E6
:101A800000200021094B18605960094B1A7000238F
:101A9000084A1370084A137010BDC046C0060010F3
:101AA0000000E03F0000244078060010800600108F
:101AB000940600108C0600101F11001000B58BB0AA
:101AC000FEF7C6FB002815D006A8FFF7FDF880201A
:101AD0000799069A00060B1802920393002200232E
:101AE00004920593002202980399059BFEF72CFEB1
:101AF0000BB000BD02A8FFF7E7F88020000684467F
:101B0000039B029A0193019961440B000599069287
:101B10000793049A0B180892099306980799089A54
:101B2000099BE3E710B5FFF7C9FFFFF7E9F810BD20
:101B300010B5FEF72DFEFFF76FFBFFF7F3FF10BDAB
:101B400010B500200249FEF759FEFFF7EBFF10BD6C
:101B50000000F03F274B70B50FCBFEF7F5FD264E8A
:101B6000307809F077FDFEF749FEFFF735F9234C91
:101B700020686168A268E368FEF7E6FD204D2868EA
:101B80006968AA68EB68FEF7DFFDFFF725F9FFF744
:101B9000C9FF1C4B0FCBFEF7D7FD307809F05AFD7B
:101BA000FEF72CFEFFF718F920686168A268E36869
:101BB000FEF7CAFDFEF7ECFDFFF70EF9FFF7B2FFE7
:101BC000FFF752F9FEF7E4FD0FCCFEF7BDFDFFF77E
:101BD00003F9FFF773FF0FCDFEF7B6FDFFF790F89F
:101BE000307809F037FDFEF709FEFFF73DF9FFF702
:101BF0000FFF70BD70130010381300105013001049
:101C0000801300106013001010B5FFF7ACFAFEF758
:101C1000BFFDFFF79FF8FFF751FFFFF771F8FEF7E1
:101C20000BFEFFF721F910BD00B5114B8DB01B78ED
:101C3000022B1AD96846FFF747F804A8FFF744F8C3
:101C400008A8FFF741F800980199029A039BFEF754
:101C50007BFD089809990A9A0B9BFEF775FD04987D
:101C60000599069A079BFEF76FFD0DB000BDC046B3
:101C7000DC05001010B5FFF7D7FFFFF7D5FF10BD4B
:101C800010B5FFF7C5FEFEF783FDFFF7F3FFFFF783
:101C9000BFFEFFF747FFFFF7BBFEFFF7E5F80020A9
:101CA0000249FEF7ABFDFFF797F810BD0000594061
:101CB00010B5FFF7ADFEFEF76BFDFFF7DBFF002071
:101CC0000349FEF79BFDFFF7CFF8FFF785F810BD3E
:101CD000000059407FB51025324E3378013B3370F8
:101CE000FEF756FD304CE3686168A2682068FEF795
:101CF0002BFDFFF78DFEFFF715FF6846FEF7E4FFAB
:101D00002A006946200006F0E9FEFEF741FDFEF7D5
:101D10003FFDFFF761F8254CE3686168A268206821
:101D2000FEF712FDFFF774FEFFF7FCFE6846FEF7B4
:101D3000CBFF2A006946200006F0D0FEFFF768FEC0
:101D4000FEF726FDFFF796FFFFF746F8184CE3680D
:101D50006168A2682068FEF7F7FCFFF759FEFFF7FD
:101D6000E1FE6846FEF7B0FF2A006946200006F053
:101D7000B5FE104CE3686168A2682068FEF7E4FCD9
:101D8000FFF746FEFFF7CEFE6846FEF79DFF2A00EE
:101D90006946200006F0A2FE307809F05BFCFEF7F1
:101DA0002DFD7FBD3813001050130010601300107C
:101DB00070130010801300107FB510252E4E33785D
:101DC00001333370FEF7E4FC2C4CE3686168A268D1
:101DD0002068FEF7B9FCFEF793FF6846FEF774FF34
:101DE0002A006946200006F079FEFEF7D1FCFEF7D6
:101DF000CFFCFEF7F1FF224CE3686168A26820681F
:101E0000FEF7A2FCFEF77CFF6846FEF75DFF2A00A6
:101E10006946200006F062FEFFF7FAFDFEF7B8FC07
:101E2000FFF728FFFEF7D8FF164CE3686168A26849
:101E30002068FEF789FCFEF763FF6846FEF744FF63
:101E40002A006946200006F049FE0F4CE3686168ED
:101E5000A2682068FEF778FCFEF752FF6846FEF79E
:101E600033FF2A006946200006F038FE307809F07A
:101E7000F1FBFEF7C3FC7FBD3813001050130010B8
:101E800060130010701300108013001070B5124B17
:101E90001B78002B12D0FEF76BFB05000C00FEF741
:101EA00067FB02000B002800210007F053FA6422B0
:101EB000002307F02BFAFEF721FD70BDFEF758FB5B
:101EC00005000C00FEF754FB02000B002800210067
:101ED00007F040FAEFE7C0462100001010B51A4B9A
:101EE0001B78002B16D0FEF743FB43B2020601D548
:101EF000404243B201200021013B5BB25A1C04D195
:101F0000FEF7FCFCFFF7C2FF10BD020F09011143F1
:101F10000001F1E70D4B1B78002B0FD0FEF728FBDB
:101F20006422002307F0F2F940B2FEF7B1FE00226E
:101F3000074B08F00DFD07F059FAE1E7FEF718FB33
:101F400040B2FEF7A5FEF6E7910600102100001052
:101F50000000594070B50D4B1B78002B03D00C4B83
:101F600001221A7070BD0B4C2378002B0CD10A4D46
:101F70002B78002B01D0FEF7FBFA00200021FEF7A2
:101F8000BDFC01232B702370044BE9E79106001080
:101F9000880600109219001091190010A90600106F
:101FA000F7B5364A364E127833780190002A26D09B
:101FB000002B3FD0FEF7DCFA6422002305000C0062
:101FC00007F0A4F90A22002307F0C4F906000F0065
:101FD000280021000A22002307F098F9002530008C
:101FE0003900D4B200230A220019694107F0B2F97E
:101FF0002B00019A80185941FEF780FC1AE0214914
:1020000015000978019C0091002B17D11E4F3B78D9
:10201000002B01D0FEF7ACFA009B002B0BD0642202
:1020200000232000290007F095F9FEF767FC012343
:102030003B703370F7BD20002900F6E7009B002BB2
:102040000CD0FEF795FA0A22002307F05FF964220C
:1020500000196941002307F07DF9CDE7FEF788FA02
:102060000A4B10221E780023002E01D10A220023E1
:1020700007F070F900196941BEE7C046A9060010D3
:102080009219001021000010911900109106001003
:1020900010B50920FFF784FF10BD10B50820FFF729
:1020A0007FFF10BD10B50720FFF77AFF10BD0000BD
:1020B00010B5054C0F202378002B00D10938FFF70D
:1020C0006FFF0023237010BD8806001010B5054C6B
:1020D0000E202378002B00D10938FFF761FF002381
:1020E000237010BD8806001010B5054C0D20237814
:1020F000002B00D10938FFF753FF0023237010BDD8
:102100008806001010B5054C0C202378002B00D158
:102110000938FFF745FF0023237010BD8806001023
:1021200010B5054C0B202378002B00D10938FFF7A0
:1021300037FF0023237010BD8806001010B5054C32
:102140000A202378002B00D10938FFF729FF00234C
:10215000237010BD8806001010B50020FFF720FF87
:1021600010BDF7B5FEF704FA07000E00FEF700FAFF
:1021700000900191FEF7FCF905000C0038003100D9
:10218000FEF7BCFB28002100FEF7B8FB0098019980
:10219000FEF7B4FBF7BDF8B5FEF7EAF907000E004D
:1021A000FEF7E6F905000C0038003100FEF7A6FB4B
:1021B00028002100FEF7A2FBF8BD0000F0B58DB0AD
:1021C000FEF746F8002810D0FFF704F8C0222C4B89
:1021D000D20508F0BDFB00222A4B07F0B7FF03F041
:1021E00043FCFEF70BFB0DB0F0BD04A8FEF76CFD41
:1021F00006980799049C059D03F088FC06000F00D3
:102200002000290003F030FC3200029003913B00D3
:1022100000201D4907F09AFF0090019102000B0079
:102220003000390007F056FC029A039B08F090FB3F
:102230000022164B08F08CFB08900991C020220068
:102240002B001349C00508F0EFFD03F00DFC009AC8
:10225000019B04000D003000390008F0E5FD22006C
:102260002B0008F075FB0022084B08F071FB0A9068
:102270000B910A9A089809990B9BFEF765FAB2E749
:10228000FB210940008066400000F03F0000E03F75
:10229000FB21F93FF0B58DB0FDF7DAFF002810D033
:1022A000FEF798FFC0222E4BD20508F051FB00220A
:1022B0002C4B07F04BFF03F029FBFEF79FFA0DB004
:1022C000F0BD04A8FEF700FD06980799049E059F3F
:1022D00003F01CFC0400C0200D0032003B0022492A
:1022E000C00508F0A1FD03F0BFFB2200029003919E
:1022F0002B0000201D4907F029FF009001910200EA
:102300000B002000290007F0E5FB029A039B08F070
:102310001FFB0022164B08F01BFB089009913000B0
:10232000390003F0A1FB80231B06CE180700009A9A
:10233000019B2000290008F077FD02000B00380007
:10234000310008F005FB0022094B08F001FB0A9060
:102350000B910A9A089809990B9BFEF7F5F9AEE7DD
:10236000FB21094000806640FB21F93F0000F03F5F
:102370000000E03F70B5064C0500200006F007FCA9
:10238000691C421B6118601906F0A8FB70BDC046AD
:1023900063060010F0B52F4B87B007001878029144
:1023A000FEF788F800231C001D0003900193039B97
:1023B000E918294B5A5CFF2A02D1019807B0F0BDF9
:1023C000FD2A28D1212CF2D85B185B78FA3A1A4002
:1023D0009B0805A931334B70002341320A708B7082
:1023E00022003800FEF712FB029BA21CD2B2002B87
:1023F0000DD01A4B1B78002B09D0023B9D4206D111
:1024000003347F213800E4B2FEF78EF92200023552
:102410001400EDB2CBE7222CC9D8114B661C9B5C93
:10242000F6B23B55029B002B0FD00C4B1B78002BB8
:102430000BD0013B9D4208D1023432007F2138008D
:10244000E4B2FEF771F90196260001353400EDB2D1
:10245000ADE7C046281300105F08001060060010AA
:10246000F0C0000070B500248AB003AD182220210E
:10247000280001AE06F053FB062230001D492C76E1
:1024800006F02CFB1C4B1A78A24210D0335D1B497E
:10249000A2009B002800D2B2C9180134FEF7B6FA98
:1024A000062CF3D12800FEF7BDFA0AB070BD144B1C
:1024B0001C78002C0DD01400335D1249A2009B0043
:1024C0002800D2B2C9180134FEF7A0FA062CF3D1C5
:1024D000E8E70D4A1278002AE4D0335D0B49A200E8
:1024E0009B002800D2B2C9180134FEF78FFA062CDF
:1024F000F3D1D7E7B0BA00009A060010230000100D
:102500009F0600106D000010A70600108501001046
:10251000F0B54A4E8DB03378002B41D0FDF798FED0
:1025200000283DD0FEF756FE337804000D00002B46
:1025300030D0FDF78DFE00282CD0FEF74BFE404B2F
:102540001B78002B0AD0089409950A900B910898E3
:1025500009990A9A0B9BFEF7F7F81FE0C022394B46
:10256000D20508F0F5F90022374B07F0EFFD060021
:102570000F0003F0CBF922002B0008F0E9F90890D6
:1025800009913000390003F06FFA22002B0008F0A7
:10259000DFF9DAE720002900FEF730F90DB0F0BDD1
:1025A0006846FEF791FB009C019D029E039F244B11
:1025B0001B78002B14D000220023049605971600E8
:1025C0001F0006920793069A079B04980599FEF749
:1025D000BBF832003B00089409950A920B93B6E7CA
:1025E00032003B0020002900FEF7C4FA002200233D
:1025F000049005910692079304980599069A079B03
:10260000FEF7A2F822002B002000290008F0A0F914
:10261000320004000D003B003000390008F098F94A
:1026200002000B002000290007F054FA03F0DCFA46
:102630000022002308900991CFE7C046DC05001076
:1026400020000010FB21094000806640F0B58BB0EF
:1026500002A8FEF739FB029E039F049C059D3200F1
:102660003B003000390008F073F92200009001911E
:102670002B002000290008F06BF902000B000098E5
:10268000019907F027FA03F0AFFA03F077FA220076
:10269000069007912B0030003900FEF76BFAC0223C
:1026A000084BD20508F054F90022074B07F04EFD05
:1026B00008900991089A06980799099BFEF744F833
:1026C0000BB0F0BDFB2109400080664010B5FFF75C
:1026D000BDFF00200349FEF791F8FFF7B7FFFEF7B3
:1026E000C3FB10BD0000244010B5FEF729FBFEF728
:1026F0004FF8FEF74DF8FEF74BF8FEF749F80020CB
:102700001849FEF77BF8FEF767FBFFF781F9002019
:102710001549FEF773F8FEF75FFBFEF71BFBFFF7AB
:1027200001FAFEF717FBFEF7EBFAFFF78FFFFFF753
:1027300007FAFEF751FBFFF76BF9FFF787FFFFF78B
:10274000BDF9C0200949C005FEF758F8FFF77EFF24
:10275000FEF7D6FAFEF770F8FEF786FBFEF7D0FA22
:1027600010BDC0460000284000002440FB21194055
:1027700030B58DB06846FEF7A7FA04A8FEF7A4FAB4
:10278000049805990022002306F092FD00240025FC
:1027900000282AD00698079922002B0006F088FD11
:1027A000002822D00098019922002B0006F080FD1D
:1027B000002815D00298039922002B0006F078FD1E
:1027C00000280DD012491022083108A806F086F919
:1027D000089809990A9A0B9BFDF7B6FF0DB030BD1A
:1027E000089409950A940B95F2E704980599069ABE
:1027F000079BFDF7A9FFFFF729FF00980199029AAF
:10280000039BFDF7A1FFFEF7E7FAFEF7ACFCE5E757
:10281000B0BA000010B500200449FDF7EFFFFFF744
:1028200015FFFEF7D9FAFEF79EFC10BD000024400C
:102830001FB56846FEF748FA009801990022002368
:1028400006F036FD002805D000200021FDF7D6FF58
:1028500005B000BD029A039B00980199FDF774FF33
:10286000FFF7F4FE00200449FDF7C8FFFEF7B4FAB5
:10287000FEF779FCECE7C0460000E03F10B5FFF73B
:10288000F9F9FDF785FFFFF7CFF9FEF7A5FA00206C
:102890001B49FDF7B3FFFEF79FFAFFF70FF9FFF7AC
:1028A000E9F9FDF775FFFDF773FFFEF795FAFFF7FE
:1028B000AFF8FFF7B9F9FEF723FAFFF7B9FFFFF713
:1028C000D9F9FDF7B9FFFEF787FAFDF761FFFFF7CA
:1028D000ABF9FEF7C9FAFFF7A7F9FEF7C5FAFFF75C
:1028E000EDF8FDF755FFFFF7C5F9FDF751FFFFF7CD
:1028F0009BF9FEF705FAFFF797F9FFF713F910BDFB
:102900000000104010B5FEF7B5FAFDF741FFFEF7E5
:1029100063FA0E4C207808F09DFEFDF76FFFFEF77E
:102920005BFAFFF7CBF80A4B0FCBFDF70DFFFEF775
:10293000E7F9207808F08EFEFDF760FFFFF700F959
:10294000FEF792FAFFF774FF10BDC046381300106F
:102950006013001010B5FDF71BFFFEF79DFAFFF79F
:10296000ADF8FEF7EDF9FFF763FFFFF751F8FDF75C
:102970006BFFFEF731FAFEF7C3F9FFF767FEFDF7CD
:1029800063FFFFF79BF8FEF727FAFDF761FC0028CD
:102990000CD0FEF71FFC0022054B07F0D9FFC02228
:1029A000044BD20507F0D2FBFDF728FF10BDC0464F
:1029B00000806640FB21094010B5FFF7CBFFFFF711
:1029C0007DF8FDF745FC002806D000200449FDF7FE
:1029D00015FFFEF795F910BDC0200249C005F6E7C6
:1029E00000805640FB21F93F10B5FDF7D1FEFEF700
:1029F00053FAFEF7A5F9FFF71BFFFEF7ABF9FEF759
:102A0000EBF9FFF7A7FF10BD10B5164B1B78002B95
:102A10000AD0FDF7BDFEFFF7F7F8FEF7F9FFFEF766
:102A2000CBFBFEF721FA13E00F4B1B78002B10D0E5
:102A3000FDF7AEFEFEF784F9FEF7EAFFFFF73EF87A
:102A4000FEF77EF9FEF710FAFFF7F2FEFFF7FEFD44
:102A500010BDFDF79DFEFFF7B1FBFEF7D9FFFFF7B5
:102A600019FCDEE7920600109306001010B50D4B1E
:102A70001B78002B02D0FEF79FFB10BD0A4B1B7882
:102A8000002B0CD0FDF784FEFEF706FAFFF758F88E
:102A9000FFF7CEFEFEF734F9FFF7D8FDEDE7FFF7BD
:102AA000F9FBEAE7920600109306001010B50D4BF3
:102AB0001B78002B02D0FFF7A7F810BD0A4B1B783C
:102AC000002B0CD0FDF764FEFEF7E6F9FEF738F9AF
:102AD000FFF7AEFEFEF714F9FFF7B8FDEDE7FFF7DD
:102AE0006DFBEAE79206001093060010F0B58FB078
:102AF0000BAC01900291059220210822200007933F
:102B000006F00DF800232372754B00221B78049306
:102B1000002B3CD000230198029906F0CFFB8022C5
:102B2000029B12069D18002800D11D0029000022DA
:102B30006C4B019806F0C2FB0BAD002808D0302387
:102B40002B702000079A0599FDF738FB0FB0F0BDF8
:102B50000198029906F068FC0F2703000DA81A00DF
:102B60000A4300D103E3A84203D15F4906F017F8F6
:102B7000E7E71E003E4032003032392A00D92732C2
:102B8000013802701B090A0713430909E7E700230C
:102B90000198029906F092FB019D00285CD08022EA
:102BA0000A27029B12069C182100504A504B01989C
:102BB00006F0A2FB00282BD121004E4A4E4B019873
:102BC00006F086FB002807D0002200232100019890
:102BD00006F088FB00281BD1019A23001000210079
:102BE00008F0B4FC002813D10122660076083100F9
:102BF000424B0198524208F0A9FC00282FD1012233
:102C000031003E4B0198524206F062FB002826D16B
:102C100035490BA805F0C3FF0BA8FDF7DFFE384BC5
:102C20001D78022D00D0012506266E430BACF6B2AE
:102C30002078002800D189E72E2800D08FE2059B5C
:102C4000079A5F1BFFB23900FDF74EFAAA00BF18C2
:102C5000FBB205930134EBE70127029CA4E72100B6
:102C6000244A254B019806F029FB00281AD121009F
:102C7000244A254B019806F03FFB002800D185E14E
:102C8000380008F0B7FC02000B0000201F4907F0D5
:102C90005DFA02000B000198210006F00FFB0028EE
:102CA00000D173E1002200232100019806F000FB0F
:102CB000002800D109E130230BAA1370144B1978B6
:102CC000002901D02E2313700123302001E0D054BD
:102CD0000133DCB2A1429FD9082BF8D19CE7C04652
:102CE000910600100000F03FBAB900007DC39425A2
:102CF000AD49B2543EC3D84E7D7F612BFFFFEF7FBD
:102D00001B000010FCA9F1D24D62503FD01263416C
:102D1000DA05001028002100964B002207F018FE6B
:102D20000C0005000398013843B2039300222800E9
:102D30002100914B06F0C2FA0028EBD16B461B7BB9
:102D400000220693280021008B4B06F0D5FA0022C2
:102D50000990002800D0BAE000230299019806F0FB
:102D6000ADFA431E98410723181AC3B20893FDF722
:102D70008FFF02000B002800210007F0E9FD002270
:102D80007E4B06000F0006F0A5FE08F0FDFB3900A3
:102D90000400300008F0F8FB0A2705002000099E17
:102DA000002800D09FE00A27002D00D0A1E0049B5E
:102DB000B34208D220000A2106F07EF904000698EA
:102DC000013043B203936B461D7B089B581B40B2F6
:102DD000FDF75EFF06000F00200008F00BFC3B0033
:102DE000320007F0B3F908F0CFFB3900049030004F
:102DF00008F0CAFB0100200006F044FA039B0C0017
:102E0000002B13DA684240B2FDF742FF06000F00C4
:102E1000200008F0EFFB32003B0007F097F900229A
:102E2000564B06F057FE08F0AFFB04006B46039AC2
:102E30001B7B002A00DA0023089AD31ADBB2039323
:102E40004F4B1B780693002B00D181E04D4B1D7832
:102E5000002D7ED00BAF3D000A264B4B039A1B780A
:102E6000D31A08937B1B0399DAB291424BD80B001B
:102E70000DACE41A2E230A25013C2370049B002B81
:102E80006AD1002200230198029906F017FA00285F
:102E900002D02D23013C2370069B002B04D0394B1C
:102EA0001B78002B00D0B7E6200005F070FE002252
:102EB0000138C0B22018844200D1ADE60378302B2F
:102EC00000D0A9E602700138F5E703902EE728004C
:102ED0002100284B07F03AF9050006980C00013054
:102EE00043B203932AE73900013606F0E5F8F6B25B
:102EF00056E72800390006F0DFF8049B050001338F
:102F0000DBB2049350E7089A2021934205DD31009B
:102F1000200006F0B7F93031C9B2E9712000310064
:102F200006F0CAF8013D04009CE72000390006F0D5
:102F3000A9F9303120003170390006F0BDF80400E5
:102F40000135EDB2039B013EAB42EED10DAC90E7F3
:102F5000069D0A270DAEF5E70498290006F092F9C0
:102F6000013C303104982170290006F0A5F8049046
:102F700084E7C046000024400000F03F0000E03F2E
:102F8000DB0500109E060010DA0500100023002269
:102F90000198029906F092F9431E98410023060019
:102FA0000393002228002100734B06F087F90028C4
:102FB00000D094E00022280021006F4B06F09CF91D
:102FC000002800D096E0039B07300833122B00D86E
:102FD0000820861BF3B20693069BD81E40B2FDF76D
:102FE00057FE02000B002800210007F0B1FC002270
:102FF000624B06000F0006F06DFD08F0C5FA3900BF
:103000000500300008F0C0FA002604000A27280056
:1030100000287BD10A27002C7ED1049BB34207D223
:1030200028000A2106F048F80500039B01330393AA
:103030000698043840B2FDF72BFE06000F0028006A
:1030400008F0D8FA3B00320007F080F808F09CFA4C
:1030500039000400300008F097FA0100280006F05B
:1030600011F9039B0D00DB0F0493039B5E1E01D53A
:103070000126F61A30000A2106F004F90BAF3031B0
:103080003000F9710A2106F017F80B260AABF61882
:10309000002807D00A2106F0F5F80A2630310AABDD
:1030A000B971F618049A2B23013E002A00D002338E
:1030B0000A273370013E002D38D12E230A35337094
:1030C000002C3FD1002200230198029906F0F6F867
:1030D000002800D1A0E52D23013E33709CE5280097
:1030E0002100274B002207F033FC039B05000C0056
:1030F000013B55E728002100214B002207F026F86C
:10310000039B050001330C00039353E7390001369C
:1031100005F0D2FFF6B27BE72000390005F0CCFFC6
:10312000049B04000133DBB2049374E728003900E8
:1031300006F0A8F8303128003170390005F0BCFFE6
:103140000500B7E72000290006F09CF8013E303169
:1031500020003170290005F0AFFF0400B0E7079AA6
:103160000599FCF7C1FF059B9A19D3B271E52800B8
:10317000FDF734FCE5E4C0460000F03F0000E03F0E
:1031800000002440F7B50C0015000090FDF7BAF9D7
:10319000002822D00098FDF78DF9230027001C4E4F
:1031A0002A33DBB2361801937078FF2809D0390032
:1031B0002A00FCF799FF0637019BFFB201369F42B8
:1031C000F2D1144B009A1B78934205D1063C2A0099
:1031D000B220E1B2FCF788FFF7BD009BDA000E4B8E
:1031E0009B181E685F68002200233000390006F03B
:1031F0005FF8002805D02A002100CC20FCF774FFDE
:10320000DFE72B00220030003900FFF76FFCD8E722
:103210005F080010281300102011001070B5174B24
:103220001C78174B1B78002B03D0032C01D9043CCE
:10323000E4B2144B1B78002B03D0002C01D0013CCE
:10324000E4B20025104E2A00200006213570FFF759
:1032500099FF601C2A003B21C0B2FFF793FF0135A4
:10326000201D2A000621C0B205343570FFF78AFF01
:103270002A003B21E0B2FFF785FF70BD2813001044
:103280002A130010291300106106001010B50A4B14
:103290001B78002B03D00948FDF7C4FB10BD084B79
:1032A000084A1B781278134302D0FFF7DBF8F5E7E2
:1032B000FFF7B4FFF2E7C046A3060010BEB9000056
:1032C000A406001097060010F7B5FDF783FF0D0068
:1032D000040004F069FD684601A904F00DFE290010
:1032E000200006F065F86B46C0B218802900200067
:1032F000FDF784FAFEF71CFC802000261B4F1C49BA
:10330000C005FDF77BFAFDF7FBFC30003900FDF747
:1033100075FAFDF761FDFDF75DFF06F049F86B46B4
:10332000290098702000FDF769FA30003900FDF798
:1033300065FAFDF751FDFEF7FBFB80200C49C00547
:10334000FDF75CFAFDF7DCFC30003900FDF756FABA
:10335000FDF742FDFDF73EFF06F02AF86B4600221E
:10336000D87001A9684604F00BFEF7BD0000594073
:10337000E17A743F37B5FDF72DFF0D00040004F02E
:1033800013FD684601A904F0B7FD2900200006F0EE
:103390000FF86B4680222900D20518710B4B2000D4
:1033A00006F098FBFDF72AFAFEF7C2FBFDF712FFC5
:1033B0000022074B07F0CCFA05F0FAFF6B4600221B
:1033C000587101A9684604F0DBFD37BDE17A743F0E
:1033D0000000594013B504F0E7FC01A9684604F069
:1033E0008BFD6B46987806F027FB164906F00CFA21
:1033F0006B46041C188806F01FFB011C201C06F0FD
:1034000065F86B46041CD87806F016FB0E4906F0EA
:10341000FBF9011C201C06F059F8041C684604F056
:10342000DFFD072105F02EFF080006F005FB074928
:1034300006F0EAF9211C06F049F808F031F9FDF729
:10344000DDF913BD0000C84200401C460050C347D0
:1034500013B504F0A9FC01A9684604F04DFD6B46C4
:10346000587906F0E9FA084906F0CEF96B46041CD3
:10347000187906F0E1FA011C201C06F027F808F084
:103480000FF9FDF7BBF913BD0000C84210B5FEF7F8
:10349000AFFA04F023FD04F03CFA0020012105F00E
:1034A0007BF8002004F02EFB002802D1012105F05A
:1034B00073F804F07FFA10BDF8B572B6B120FDF7CD
:1034C00005F90020FDF702F91020FDF7FFF8E020D4
:1034D000FDF7FCF80024144D01222E5D002102208E
:1034E00004F0B8FE01343000FDF7D2F8842CF2D19C
:1034F000B020FDF7EBF80020FDF7E8F81020FDF70D
:10350000E5F88426E020FDF7E1F876002F5D012242
:103510000021022004F09EFE01343800FDF7B8F8C7
:10352000B442F3D162B6F8BD20120010F0B59FB0DE
:1035300005F052FB04F0A6FA0021DE4804F0ACFED0
:103540000021DD4804F0A8FE04F007FB012204215D
:10355000002004F033FE00220421100004F07AFE63
:1035600001220521002004F029FE0022052110007F
:1035700004F070FE002004F065FDA022FF2152003F
:10358000CE4805F0CCFAF022FF21D200CC4805F05D
:10359000C6FAFDF72DFB002306900393C94B1B6869
:1035A000002B52D0842200240021C748520005F08D
:1035B000B6FAC64BC64D1E782C70A64200D1B1E0BB
:1035C000C44DC54B28001C7005F0E1FA0200A04272
:1035D00000D1A2E0C14E7F2128003278FDF7A4F887
:1035E000280022000321FCF7E9FD3078FEF7C2FE37
:1035F0000024012226000627B74B1A70B84BE5B20B
:10360000A919187879430001203003312818C9B26C
:103610000122C0B2FCF768FDB24B1978A94207D16C
:103620007943093101227F20C9B2FCF75DFD0126F3
:103630000134102CE2D1AC4B1B78002B00D1E5E11A
:10364000FFF73AFF00229F4B1A60A849A84F0B785A
:103650000093002B01D100F015FEA64AA64813786E
:10366000C05C3870FF2803D0312B01D800F004FE75
:1036700000230B70FEF7BCF9A04BA14A1B7812780F
:103680001343A04A127813439F4A12781343FF2230
:103690000392002B02D18B4BFE3A1A60FDF7A8FA79
:1036A000069B934EC01A994B1B78984201D922234E
:1036B00033703378FF2B2DD0039A93422AD0FDF735
:1036C00097FA8A4B8D4A1B781278069013438C4ADE
:1036D000127813438B4A127813438B4A12781343A0
:1036E00002D10122774B1A60894B30781B78002B6E
:1036F00005D0804A1378591C11707F4AD054222873
:1037000001D000F0FBFFFF233370FFF7BFFEFDF792
:103710006FFA0690764B1B783FE703217F20FCF77A
:10372000E3FC65E77B4B1F78002F28D001257A4CFE
:103730007A4B2278684FD2009B1818685968032288
:1037400033003E70FFF7D2F92A000321B3203D7009
:10375000FCF7CAFC247814AF61193800C9B2BE70F6
:10376000FCF744FD2A000F213800FCF727FD2A0052
:1037700021216B4BA400E058FCF720FD5BE75A4B7E
:103780001B78002B71D0674E674B1C685D683268F0
:1037900073682000290007F047FB02000B0020009F
:1037A000290006F0D3FC0022604B07F0D1F805F0A9
:1037B000FFFDC3B200935E4B1C685D685D4B20004B
:1037C0001A685B68290007F02FFB02000B0020003D
:1037D000290006F0BBFC0022574B07F0B9F80200A5
:1037E0000B000020544907F01FFB05F0E1FDC3B2B8
:1037F000200001240493384B022229001F703B0053
:10380000FFF774F94B4B3222186859683B00FFF7F9
:103810006DF9314B02221C70434B18685968230024
:10382000FFF764F93068716823003222FFF75EF910
:103830003C000F262500414B6235E15CEDB2711A68
:103840002800C9B2FCF7ECFC013428000499FCF70D
:10385000E7FC202CEED1FF2200981B4B6230C0B257
:103860001A541B1884331A70E5E6354B1C78002C6B
:1038700000D1B4E1334B344A1B781278134302D0A1
:10388000FEF7F0FDD7E6314B1D78002D71D014AC5A
:10389000192220002E4905F021F9022D5CD12000CB
:1038A0002C4905F07CF9DD23237423732000FDF7F8
:1038B000B9F8C0E6984004409C4004405F080010FE
:1038C0009F0900101C000010201200108F0600102D
:1038D0008B060010630600106106001062060010DF
:1038E000D9050010D80500109B060010990600109D
:1038F000AB060010580800103B000010A506001091
:10390000A6060010940600109C060010220000106D
:10391000A106001098060010D306001018C1000080
:1039200038C20000C8060010C00600100000404069
:1039300000070010F806001000003040D406001008
:103940009A060010A4060010970600109D060010AD
:103950004ABA0000D7B90000032DA7D12000DB49E7
:1039600005F01DF9E02323732370013323742371C1
:103970009CE7D74B1A78D74B1B78002B3ED00221FF
:10398000D54B1970D54B1D70002A34D0D44CD54B73
:10399000013A12012478991808684968002C16D158
:1039A0009A189468D5680B00020006F0D1FF220037
:1039B00006000F002B002000290006F0C9FF0200BE
:1039C0000B003000390006F085F802F00DF90123F4
:1039D000C54C0C2223700023FFF788F80021C34B4D
:1039E00021701B788B4203D00A00B220FCF77CFBCD
:1039F0000122B94B37E70C215F20F7E70093002A3B
:103A00007ED108215F200132FCF76EFB002412AD4D
:103A100028000422202105F082F8B54B2C711D7876
:103A20002700A5420FD011AC04F0BEF9200014A964
:103A300004F062FA20220CAB9B181F7801320CAB09
:103A40009B18E5781C780022A44B1A7004F014F936
:103A5000AF231B01984200DBA648A74B984200DA2F
:103A60001800A64BAF21C0180A238900584305F05F
:103A700023FB2C23C0B25B424008181A12ABD8704B
:103A80009B4B12A81B78002B00D1FFE22900FCF70A
:103A9000ADFB12AD00226D212800FCF78FFB012247
:103AA0008E4B1A70924B1E78002E00D13CE33900E9
:103AB0002800FCF79BFB0A21200005F0F9FA2122DF
:103AC0000CAB9B183031197020000A2105F06AFAFE
:103AD0000A21C0B205F0ECFA20221A200CAB9B1888
:103AE000303119700CAB1E3A14A9C01804F0F6FF5F
:103AF00001226D2112A8FCF761FBA1E501230093CF
:103B00006A46734B12781B780492009A9A4262D2EA
:103B100001220499521AD2B2079207996F4A117082
:103B2000009A9B1A013B6F4A1B01D3181E685F68FD
:103B30009C68DD686A4B1B78002B21D132003B006A
:103B40003000390006F004FF22002B000890099194
:103B50002000290006F0FCFE02000B0008980999DD
:103B600005F0B8FF02F040F82200089009912B0000
:103B700030003900FCF7FEFF089E099F04000D008D
:103B8000049B002B02D10122574B1A7008223000EF
:103B90003900079BFEF7AAFF0022534B20001A7042
:103BA00029000022002305F083FB002805D13B22D9
:103BB00020002900079BFEF799FF4C4B1B78002B38
:103BC00009D0049B002B06D10122444BB22004995A
:103BD0001A70FCF789FA009B012B8FD12BE5484B1B
:103BE0001B78002B4AD03D4E2122210015A83470AD
:103BF000149404F094FF012114A8FEF7CBFB0500F8
:103C000014A804F0C4FFC2B2002A10D103217F20FF
:103C1000FCF76AFA012333703A4A11783A4AC9002C
:103C20005218106851680322FEF760FF03E5102D5B
:103C300022D92C000627103CE4B229001039611A61
:103C4000794314AB185D033101340022C9B2E4B2E8
:103C5000FCF74AFAA542F0D2DCE7290061430331C0
:103C60000022C9B20134FCF73FFA112CD2D014ABB8
:103C7000E05C0028F1D1CDE70625F8E7234B1C785E
:103C8000002C02D0FFF702FBD5E4214B1B78002B60
:103C900046D0124D2122210015A82C70149404F056
:103CA0003EFF210014A8FEF775FB31220CAB9B18D8
:103CB0001C70113A0CAB9B181A78002A2AD10321E8
:103CC0005F20FCF711FA01232B70A5E7F0B9000083
:103CD000DC050010890600101B00001061060010B2
:103CE00020000010E00500109E060010DB0500100B
:103CF0008B060010EF0A000034080000CCF7FFFF2D
:103D0000A006001028130010201100109F060010BC
:103D10008D0600102200032114A8FCF74FFAD2E709
:103D2000CA4B1B78002B00D151E1C94B1B78002BEB
:103D300001D0C848BBE5C84B1C78002300939C42C7
:103D400047D11322202114A804F0E9FE33220CAB42
:103D50009B1820211C705F230CAA521813701D3968
:103D6000012214A808E53B4300D098E0BB4B0CA906
:103D70001A7833235B18002A0AD0B94A1278002A2D
:103D800006D10A0032212E23521813700CAA8B1868
:103D90003022013B1A7014A8FCF720FE00250624EF
:103DA00014AE300004F0F3FE854200D2FFE0AD4BCC
:103DB0001B78002B07D0049B002B04D10122190093
:103DC000B220FCF791F9009B012B00D133E40123D1
:103DD00000936B46A04C1B78009A0493237893427F
:103DE000F1D90123049A20219B1ADBB20893089A87
:103DF0009D4B14A81A70132204F091FE3321002267
:103E00000CAB5B181A70009923785B1A013B974939
:103E1000DB00CB181E685F6833009742A3DA3C00D2
:103E200000275E42A741012307938D4B1B78002B8F
:103E300037D033240CAAA4180322002394460CA9DB
:103E40001E325218180061460133DBB2084202D11B
:103E50002021013C21700F253540280030303928C1
:103E600000D9273039073509013C29432070381122
:103E7000070008000E00384301D101F084FB944292
:103E8000E0D8079B002B05D02D23013C23703E4337
:103E900000D180E7764914A804F081FE7BE7079201
:103EA000C3E76E4B1D78002D58D00A220023300046
:103EB000390005F02BFA0A220C0005003900300009
:103EC000002305F023FA32210CAB5B1830321A7054
:103ED00021000A220023280005F018FA31210CAB3A
:103EE0005B1830321A7021000A220023280005F0E6
:103EF0000DFA0F0030212E2306000CAA5218137061
:103F000018AC2D3B32003A4301D101F03CFB212299
:103F10000CA952189442B4D922781D002E2A0AD036
:103F20005522524253430135DBB2EDB2552B02D834
:103F30002023013C2370300039000A22002305F0C1
:103F4000E5F9013C303200233000390022700A22AA
:103F500005F0DCF92B0006000F00D3E733240CAB8F
:103F6000E41855222B00524253430135DBB2EDB227
:103F7000552B02D82023013C2370300039000A223F
:103F8000002305F0C3F9013C303200233000390032
:103F900022700A2205F0BAF9030006000F000B4355
:103FA00001D101F0F0FA14AB9C42DAD869E72100A4
:103FB000705D089A7719FCF797F83B78202B04D0AE
:103FC00006340135E4B2EDB2EAE60334F9E7294BF1
:103FD0001B78002B32D0284B1D78284B1B781D43B3
:103FE00000D04DE4264BEEB21C786719FCF72AFB93
:103FF000874201DBFFF71FFB34191B4BE4B22000A3
:104000001E70FCF7FBFA01340700E0B2FCF7F6FA89
:104010001C49C41B7918013C14AF2200380004F07D
:104020005DFD00233200032138003B55FCF7C6F844
:10403000012D01D1FFF7FFFA0125D3E71248FCF764
:10404000F1FC01232B70FFF7F6FAC046A80600101A
:10405000AA06001009BA00009319001021000010F0
:1040600091060010921900106106001098190010B6
:10407000BAB90000A7060010A406001097060010A9
:10408000901300108500001022BA0000BC4B1B7872
:10409000002B01D0EC238370BA4B1B78002B01D08E
:1040A000DA238370B84B1B78002B05D0B74B1B78F5
:1040B0005A425341BD334370B54B1B78002B01D09E
:1040C00065330370B34B1B78002B27D04823037054
:1040D000B14B1B78002B05D0B04B1B78312B01D88E
:1040E000D8230370AE4BAF4A1B781278134300D12C
:1040F000CFE4AD4B1A78002A00D0CAE40320AB4BC2
:1041000014A91B788A7018409B084130313308701D
:104110004B70023212A804F0E1FCBAE4A44B1B7805
:10412000002BD5D06823D2E704222021280004F0F8
:10413000F6FC9B4B2E711B78002B13D09B4B1F78EA
:104140003800FCF7DFF9041E72D03800FCF7B2F932
:10415000984B0130C018835DFF2B03D0AB5501365F
:10416000042EF8D18F4B944A1B781278134303D056
:104170002800924904F013FD914B1B78002B0DD0C1
:10418000904B14A819780131C9B2FCF72FF81A2006
:104190000CAB022214A9C01804F0A0FC7A4B1B78C7
:1041A000002B01D101F0E7F9874B1B78FF2B01D0E1
:1041B000D623AB70854C002220686168002305F08F
:1041C00077F8002847D1E32212ABDA70804B814A9E
:1041D0001B7812781343804A127813437F4A12786F
:1041E00013437F4A1278134312AA002B01D0E22313
:1041F000D3707C4B1B78002B05D07B4B1B78002B9E
:1042000001D02E23D370794B1B78002B01D0A9232A
:10421000D370774B77491B78002B05D1764B1B78F1
:10422000002B00D164E47549280004F0B8FC5FE479
:1042300001001490212214AE15A804F070FC210096
:104240003000FEF7A7F8335D002B8BD02B550134DF
:10425000042CF8D186E70022A068E168002305F06D
:1042600027F80028AFD05F4B1B78002BAED0644AF4
:104270000CCA1343A7D1A9E701331370FF2303939B
:10428000FFF70CFA544B1C78002C5ED05D4A137873
:104290000133DBB213701D223A70012B01D1FFF7FD
:1042A000FDF9594E34687568022B0CD1FCF792FF6A
:1042B00022002B0005F00EFCE02230607160534CB0
:1042C000534B120613E0032B1BD1FCF783FF002294
:1042D000504B06F03DFB02000B002000290006F0C9
:1042E000A3FDE02230607160484C4B4B1206206801
:1042F000616805F0EFFB20606160FCF77FFAFFF773
:10430000CDF9042B06D1FCF765FF0022414B06F0E6
:104310001FFBCDE7FCF75EFF02000B002000290029
:1043200006F082FD00223D4B05F010FFE022384BE5
:10433000120605F00BFFFCF761FA0122384B1A60F8
:10434000254B009A1A70FF2317E0224B1B78049329
:10435000002B00D1BFE02B4E33780133DBB233703A
:10436000022B5FD808D1FDF753FBE0202849000657
:10437000FCF744FAFCF7C4FC1D233B70FFF78EF9F1
:1043800091060010A20600109A06001020000010EE
:104390008C06001092060010A106001058080010AC
:1043A0009F060010A00600108D06001028130010B4
:1043B000930600105F0800108F0600103BBA000043
:1043C000A7060010901300103B00001040130010CF
:1043D00099060010A6060010A5060010940600100D
:1043E0009C060010A806001021000010880600108E
:1043F000A406001040BA00009706001045BA00005D
:10440000B81900101F1100108006001030130010A2
:104410004D62503F000020404D62603F0000284048
:104420001C000010FDF7F4FAFCF71EFD0020D14936
:10443000FCF7E4F9FCF764FCE020CF490006FCF748
:10444000DDF9FDF7E5FAFCF70FFDFCF7C3FEFCF71D
:10445000D5F907000D00FDF765FB002200233800A9
:104460002900347004F02AFF002802D080231B06A4
:10447000ED18E022C14C38002900BF4B1206267807
:1044800004F01CFF00280AD1142E0AD8FCF780F98A
:10449000FCF77EF9237801332370FFF7FFF8142E21
:1044A0000ED90CA8FCF710FCB5491022083114A84D
:1044B00004F014FB14981599169A179BFCF744F90D
:1044C0000122B04B1A600022AF4B1A70AF4BFF3283
:1044D0001A70FFF7E3F8AE4B1E78002E6BD0AD4B91
:1044E0001C780134E6B21E701D233B70012E01D1F1
:1044F000FFF7D4F8A84B1C685D68022E0CD1FCF7BE
:1045000069FE2B00220005F0E5FAA34B1860596004
:10451000A24B18685968F0E6A14B1A685B680092D4
:104520000193032E10D1FCF755FE22002B0005F05D
:10453000D1FA994B1860596000980199974B1A6805
:104540005B6805F0C7FAD8E6162E20D80022F307DC
:104550001BD58023DB0504920593FCF73BFE049AF0
:10456000059B06F0F5F922002B0005F0B3FA8A4B03
:1045700018605960B01E07F03DF8009A019B06F0E4
:10458000E7F9864B1A685B68DBE7864BE3E7FCF7E5
:1045900021FE0098019922002B0006F0D9F9002293
:1045A000814B05F0D3FDFCF729F90122754B1A6008
:1045B000774B049AC6E67D4D2B78002B00D191E015
:1045C000744B1C780134E4B21C701D233B706B4BA0
:1045D0001A78002A41D1012C01D1FFF75FF86F4909
:1045E0000868496800900191022C0AD1FCF7F2FD9D
:1045F0006F4B186059606F4B1860596000980199B3
:104600007BE6222C24D8FCF7E5FD6A4D06000F005E
:1046100002000B002868696804F064FE002801D0DD
:104620002E606F60624D3200286869683B0004F0BC
:1046300045FE002801D02E606F60A01E06F0DAFF54
:10464000574B1A685B6806F083F9009A019B78E77C
:1046500050490A7001221A70D0E7012C01D1FFF7EE
:104660001DF8212C2ED8534B1C685D68FCF7B2FD59
:1046700002000B002000290006F0D6FB4C4B060080
:104680001A685B680F002000290006F0CDFB0200CD
:104690000B003000390005F059FD0022464B06F0B2
:1046A00057F901F087F93B4B444C1D7804F080FE2C
:1046B0006419023C2070681E06F09CFF384B1A6893
:1046C0005B685CE70CA8FCF7FFFA0CA8FCF7FCFAA7
:1046D00001232C4A2E701360FF223A70384A13705F
:1046E000FEF7DCFF0A20374B03211B78584303F009
:1046F00053FFFDF73FF93870FEF7D0FF324B1C78BF
:10470000002C00D13BE11D2802D0122800D0A5E0EA
:104710002E4B1B780393002B60D02D4B1D78280067
:10472000FBF7C8FE04002800FCF7BCF9294F38004D
:1047300004F02DFA05002020FBF7BCFE264E021BDC
:10474000611E60198919801904F00BFAFE230025F7
:104750003355380004F01BFAA84206D97A5D631C71
:10476000F3185A550135072DF3D10022164B1A7054
:10477000FEF7D0FF0000F0BF4D62503FAC060010C6
:10478000B0BA00001C000010A6060010AB06001016
:10479000940600101F11001080060010C0060010C3
:1047A0007806001000001040000008409C06001031
:1047B000F80600100007001000002E40D40600107C
:1047C0009B060010220000108F0600109F060010AC
:1047D00028130010630600105F080010D44B1B78EC
:1047E000002BC2D0D34B1C782000FBF707FF01340D
:1047F0000700E0B2FBF702FFCF4E0500300004F0E7
:10480000C6F9C4B2FBF710FF691E421BCB4DE0197D
:1048100001324919401904F0A4F97B19180022004B
:104820003100049304F05AF9C54B1B78002B9CD03F
:10483000C44E3378FC180093FBF7F6FE009B611919
:10484000C21B0134D218601904F08BF90A223378A4
:104850000499CA54BA4B039A1A7086E7012804D106
:104860000F22B94B1A70FEF755FF022809D1B74A3B
:1048700013780B2B01D9FEF74DFF01331370FEF7B0
:1048800049FF042809D1B04A1378002B01D1FEF763
:1048900041FF013B1370FEF73DFF052804D10822BC
:1048A000A94B1A70FEF736FF062809D1A64A1378DD
:1048B0000E2B01D9FEF72EFF01331370FEF72AFFEE
:1048C000072804D10022A04B1A70FEF723FF082806
:1048D00009D19E4A1378002B01D1FEF71BFF013B43
:1048E0001370FEF717FF182809D1964A1378002B8A
:1048F00001D1FEF70FFF013B1370FEF70BFF1928E4
:104900000DD1904C8C48257804F041F9854201D3B3
:10491000FEF700FF237801332370FEF7FBFE21280A
:104920000ED1884C2078002801D1FEF7F3FE013823
:10493000C0B2FDF71FFD2378013B2370FEF7EAFEAE
:104940007D4C200004F023F9814B1A780723002ABC
:1049500000D10B33984201D3FEF7DCFE7B4B197874
:10496000794B09011B782033C918764BC9B21A78E4
:10497000501C18702000FBF7D7FEFEF7CBFE754DDC
:104980002A78002A47D01E2802D12C70FEF7C2FEDA
:1049900012280BD1704B1A78704BD2009B181868F4
:1049A0005968FBF72BFF2C70FEF7B4FE082809D1DD
:1049B000694A1378002B01D1FEF7ACFE013B13705E
:1049C000FEF7A8FE022809D1634A1378222B01D9E9
:1049D000FEF7A0FE01331370FEF79CFE09280AD1F2
:1049E0005D4A1378042B03D9053B1370FEF792FE42
:1049F0001470FEF78FFE032801D0FEF78BFE564A97
:104A000013781E2B03D805331370FEF783FE232380
:104A10001370FEF77FFE524B1C78002C02D01A70E8
:104A2000FEF778FE4F490B78002B56D04E4D2B7871
:104A3000002B0ED0021FD1B205290AD8591E062319
:104A40004B439B18494A9B009B5898472C70FEF794
:104A500061FE474D2B78002B26D00438C4B2052CBC
:104A60001ED8322210006043424E434B3100C01822
:104A700004F034F83278414BA400FF2A0BD0002216
:104A80003F481B19B15CFF290AD0415C995401329F
:104A9000042AF7D104E02D221A5500221B195A705E
:104AA00000232B70FEF736FE364C2378002B10D0F7
:104AB0000438C1B2052906D8322251432E480918BC
:104AC0002C4804F00BF8FCF709FF00232370FEF7D5
:104AD00021FEFCF765FEFEF71DFE2B4D2B78002B0B
:104AE00000D1E7E003001D3B012B01D912280DD1B5
:104AF00000232B70FCF7F2FE244B1878FCF784FEA1
:104B0000224B1878FCF780FEFEF704FE1F4B1C7842
:104B1000182850D11E4E3578022D3DD12000FBF7CC
:104B2000C9FC1C4B1B5CFD2BE6D0013D41E0C0469F
:104B3000A7060010901300106306001085000010F7
:104B40009606001062060010D8050010D905001066
:104B50009F06001098060010D306001018C1000030
:104B60009B0600109A0600109D060010C8C20000A7
:104B7000A40600103B0000100807001023000010DE
:104B8000F0C0000097060010A006001028130010C7
:104B9000600600105F080010012DADD92000FBF762
:104BA00089FCD14B5B191B18023B1B78FD2BBCD138
:104BB000023D3570A0E7192815D1CC4B1B78002B8E
:104BC00072D12000FBF776FCC94EC74B35785B19D4
:104BD0001B5CFD2B01D10235EBE7FBF781FC854225
:104BE0008AD20135E5E7212842D1C14D2F78002F27
:104BF00000D181E77E1EF6B2012F34D02000FBF7F2
:104C000059FCB94BDF193F18023F3B78FD2B2AD1E5
:104C100031002000FBF76CFF2978B64B0239187879
:104C2000C9B2FBF765FF2B78013B2B702B78013B5A
:104C3000DBB22B70002B00D05EE7AE4B1E7830004D
:104C4000FBF738FCA84C235CFF2B00D154E7012371
:104C500030002B70FBF72EFC235CFD2B00D04BE7C4
:104C6000FB3B2B7048E731002000FBF741FFDDE7FD
:104C70000B2808D19E4B1A78511C19701221200064
:104C8000FBF706FE38E726280ED19B4B1C709B4B8A
:104C90001A789B4B1A709B4B1A789B4B1A70012207
:104CA0009A4B1A700023DCE7914B1A78511C19704B
:104CB0000100E4E7964A1478002C00D175E1954F85
:104CC0003B780093002B0BD00438C3B2052B03D8DC
:104CD000914B8000C358984700233B70FEF71AFDA4
:104CE0008E4B1B78002B32D0824B1D782800FBF7AF
:104CF000E1FB04002800FBF7D5FE894E300003F0ED
:104D000046FF05002020FBF7D5FB774F021B611EF5
:104D10006019C919C01903F024FFFE23009D3B55FB
:104D2000300003F034FFA84207D96F4A631C9B1878
:104D3000725D5A550135072DF2D10023774A137061
:104D4000FEF76CFA0122774B1A60FEF7E3FC764B14
:104D50001B78002B2BD00438C4B2052C22D8A022FB
:104D6000520010006043714B5F4DC018290003F0E2
:104D7000B5FE1F20FBF79EFB2B5C6D49A400FF2BAB
:104D80000BD00123013C0C192818C25CFF2A09D062
:104D9000E2540133052BF8D104E02D230B550023F9
:104DA0000C1963700023604A1370FEF7B3FC614E68
:104DB0003478002C11D00438C1B2052907D8A022BC
:104DC0005200514359480918474803F087FEFCF741
:104DD00085FD00233370FEF79DFC1E2803D10123BF
:104DE0003B70FEF797FC08280CD1464B414A1C70DB
:104DF0001378032B03D9043B1370FEF78BFC14705C
:104E0000FEF788FC02280CD101223E4B1A70394A69
:104E100013781B2B01D9FEF77DFC04331370FEF7CA
:104E200079FC042812D1334A1378002B01D0013BBE
:104E30001370002331490B701378DB439B0701D0BB
:104E4000FEF768FC01230B70FEF764FC062813D103
:104E5000284A13781E2B01D8013313700121274BE8
:104E600019701178032208001040114201D0FEF79A
:104E700051FC1870FEF74EFC122869D101232B70EB
:104E80001C4B1E78214B1F78002F22D01A4B184D37
:104E90001878184BFD211870194B1A78174B1A7097
:104EA000194B1A78174B1A702A78531C2B70FBF782
:104EB000EFFC2A780F4B31001878531C2B70FBF74E
:104EC000E7FC124B1C70FCF709FDFEF7DFF9FEF75B
:104ED00021FC3000FBF716FB00282DD03800FBF733
:104EE000A7FE2F70FEF716FC5F0800108C0600105E
:104EF0006006001028130010D006001029130010BF
:104F0000D10600102A130010D2060010A2060010CD
:104F10009F060010A306001010C3000090060010AA
:104F2000630600101C000010A40600109F0900106A
:104F30006D00001097060010FBF7D2FAFF2800D191
:104F40000020D34B18703000FCF75EFCFEF7E2FB4C
:104F50001D2811D1CF4B1878FBF7ACFACE4B1B5C58
:104F6000FE2B04D12000FBF763FEFEF7D3FB0120EC
:104F7000FBF75EFEFEF7CEFB212807D1C54B187864
:104F8000FBF790FDFCF7AAFCFEF7C4FB252804D133
:104F90000123C24A1370FEF7BDFB262801D0FEF79D
:104FA000B9FB01233370FEF7B5FBBD4B1F78002F13
:104FB00000D1C0E01E280DD1BA4A1C701178BA4A3F
:104FC0001170B44C2078FCF71FFC2078FCF71CFC17
:104FD000FEF7A0FB1D2809D101232B70FBF780FAF7
:104FE000FF2800D10020AA4B1870EAE7122801D050
:104FF0000B2812D1AD4B12201B78002B00D097E06C
:105000000120FBF757FA04002020FBF753FAA249CE
:105010000200601803F0A5FDD3E7212825D1203830
:10502000FBF748FA04002020FBF744FA9F4D0200EA
:105030002E78994B002E14D0661E9E19012C07D98C
:1050400031000232A01E121B181803F047FDB8E70A
:10505000013219193000121B03F040FD00232B70A0
:10506000AFE7021B19191800EFE70A2822D8202001
:10507000FBF720FA8D4F04003D78002D0DD0012064
:10508000FBF718FA844F451E0134221AE919C0199A
:1050900003F067FD33787B5593E77F4D02002900CD
:1050A000834803F05EFD33782B70FF236B70FE3B6B
:1050B0003B7086E70F283BD80120FBF7FBF90090F7
:1050C0000220FBF7F7F904002020FBF7F3F90700B3
:1050D000009B714DE31A03935B190200290018002D
:1050E000049303F03EFD039A6119280003F0F6FCD7
:1050F000009B6100DE19361BC91A321B4919601961
:1051000003F0ECFC039B3200581E0499401903F095
:10511000E5FCA61EBA1C601E121B7119401903F093
:1051200020FD0022634B1B78AB55604B1A7048E79B
:10513000FBF7CAFB45E7604C2578002D00D102E162
:105140005E4C2378002B0BD00438C3B2052B03D858
:105150005B4B8000C358984700232370FEF7DAFAB0
:105160001E2803D101232370FEF7D4FA21284BD146
:10517000544B1B78002B43D0534B1B78002B29D06A
:10518000FBF7F6F9FA220023920007000E0004F064
:10519000BDF80B0005000C00034303D1FBF7FCF93D
:1051A000FEF7B8FA380031006422002304F0AEF8AC
:1051B000D3B20A93002364220B932800002321001A
:1051C00004F0C8F80A9B0B9CC0186141FBF796FBE2
:1051D000FEF7A0FAFBF7CCF93C4B10221C78002319
:1051E0009C4200D1063A04F091F80B00034303D12E
:1051F000FBF7D2F9FEF78EFAFBF780FBFEF78AFA8F
:10520000FBF7B6F9FEF786FA1F2809D1304B1B7859
:10521000022B01D9FCF7A5FFFBF7BEF9FEF77AFADE
:10522000132811D1FBF7A4F904F01CF900F0DCFC01
:105230000022284B05F08CFB04F0D8F8FBF75EFB4E
:10524000FBF7AAF9FEF766FA202809D1204B1B7854
:10525000012B01D9FCF79FFFFBF79EF9FEF75AFAE5
:10526000252809D1FBF784F91B4B03C3FBF746FB49
:10527000FBF792F9FEF74EFA26282FD1164B186845
:105280005968FBF73BFBFBF787F9FEF743FAC0468B
:1052900060060010281300105F080010A40600101C
:1052A0008D0600108A060010890600108E06001078
:1052B00061080010AB060010A8060010AA06001036
:1052C00074C3000092190010210000109106001014
:1052D0009319001000002440B819001016281DD1A1
:1052E000AD4C2378012B01D9FCF755FFFBF724FBCC
:1052F0002378022B01D9FCF734FFFCF7C7FDA74B3D
:1053000064201B78002B00D0A5480021FBF7F6FA9B
:10531000FBF73AFBFBF740F9FEF7FCF9122801D93D
:10532000FEF7F8F99F4B8000C358984733780A2B53
:1053300001D8FEF7EFF9122B01D1FEF7EBF9FBF7DD
:105340002BF9FEF7E7F9984E3578002D00D1E4E00F
:10535000964D2B78002B1FD00438C4B2052C03D9EE
:1053600000232B70FEF7D6F98022914B914E20023C
:105370003100C018520003F0B1FB00232021A0002F
:105380008D4C2418F25C21700A2A00D0227001335F
:105390000134042BF6D1E3E7884C217800290FD0A3
:1053A0000438C0B2052807D8802201028048520084
:1053B0000918804803F092FB00232370FEF7AAF936
:1053C0001E2802D13170FEF7A5F9082809D17C4AC0
:1053D0001378002B01D1FEF79DF9013B1370FEF706
:1053E00099F902280BD1FBF72DF9754D2C78013472
:1053F000844201DBFEF78EF92C70FEF78BF9092849
:105400000AD16F4A1378042B03D9053B1370FEF7BA
:1054100081F91170FEF77EF903280ED1FBF712F91E
:10542000674D2C78A31D834203DA05342C70FEF7F8
:1054300071F901382870FEF76DF9122803D1FBF7D6
:1054400069FBFEF767F90F2806D1FBF763FB012222
:105450005C4B1A70FEF75EF9212801D00D281BD194
:10546000574E34782000FBF7C9F801340500E0B24C
:10547000FBF7C4F80400FBF7D7F8021B4D482118CE
:10548000281803F02BFB3378002B01D1FEF742F9EB
:10549000013B3370FEF73EF90E281CD1FBF7D2F822
:1054A000012801D8FEF736F9454B18780130C0B213
:1054B000FBF7A4F83F4D04002B5C002B01D1FEF755
:1054C00029F9FBF7B1F8021B601E6119401903F0BE
:1054D00005FBFEF71FF90C2811D1394B1878FBF7A3
:1054E0008DF80400FBF7A0F8324D021B601C611917
:1054F000401903F036FB0A232B55FEF70BF925283C
:1055000003D101232B70FEF705F9262801D0FEF701
:1055100001F901232370FEF7FDF8072803D10123C9
:105520000B70FEF7F7F808280BD12749274A0878AF
:10553000107000220A7001211970254B1A70FEF7B5
:10554000E9F8092809D1204B204918780870002172
:10555000197001231370FEF7DDF8042803D101232D
:105560002370FEF7D7F8062801D0FEF7D3F8012301
:105570003370FEF7CFF8174B1B78002B01D0FEF7E6
:1055800019FEFEF770FE079B00260027002B01D0B6
:10559000FEF77AFCFEF7FFFB9319001021000010C4
:1055A0001027000028C30000A7060010A406001062
:1055B000911300108500001085010010970600105F
:1055C0009013001096060010890600108A0600103D
:1055D000281300108D060010F8B54E465746454674
:1055E000DE46A34BE0B54E00804689468A467608E3
:1055F0009E421CDD9F4B9E4209DC06D05346002B89
:1056000000DCBAE09C4B9D4A09E00028F6D04246F7
:105610004B464046494604F05DFA03000A00180074
:105620001100F0BCBB46B246A946A046F8BD944B5B
:105630009E4200DDA4E0934B9E4200DC8FE00123FC
:105640005B429B4642464B464046494605F080F940
:1056500002000B0006000F0005F07AF904000D00AF
:10566000894A8A4B05F074F9894A8A4B04F032FA68
:1056700022002B0005F06CF9874A884B04F02AFAC7
:1056800022002B0005F064F9854A864B04F022FACB
:1056900022002B0005F05CF9834A844B04F01AFACF
:1056A00022002B0005F054F9814A824B04F012FAD3
:1056B00032003B0005F04CF97F4A804B06000F009A
:1056C0002000290005F044F97D4A7E4B05F0ACFB33
:1056D00022002B0005F03CF97B4A7C4B05F0A4FB33
:1056E00022002B0005F034F9794A7A4B05F09CFB37
:1056F00022002B0005F02CF9774A784B05F094FB3B
:1057000022002B0005F024F90B005946020001315C
:105710005CD059463000CC00390004F0DBF9424639
:105720004B4605F015F96E4D6E4B2D191C1922686C
:10573000636805F079FB42464B4605F075FB0200B5
:105740000B002868696805F06FFB030050460A00EB
:10575000002800DB63E7802212068A185FE7624AAE
:10576000624B04F0B7F90022614B03F0BBFD002847
:1057700000D164E743464A4651E73F4B5D4A4EE756
:1057800000F014F95C4B04000D009E422FDC5B4BD3
:105790009E4255DC02000B0004F09CF90022544BA1
:1057A00005F042FB802306000F000022DB052000ED
:1057B000290004F08FF90B0002003900300004F0DA
:1057C000C5FC0023804689469B463BE730003900F4
:1057D00004F080F942464B4605F0BAF802000B008F
:1057E0004046494605F020FB03000A0017E7444BFA
:1057F0009E421ADC0022434B05F016FB00220600F5
:105800000F00404B2000290005F0A2F80022384B81
:1058100004F060F90B0002003900300004F096FC3F
:105820000223804689469B460CE70B00020036495E
:10583000002004F08BFC0323804689469B4601E749
:1058400000222B4B05F0F0FA002206000F00284B37
:105850002000290004F03EF90B000200390030005E
:1058600004F074FC0123804689469B46EAE6C04664
:10587000FFFF0F440000F07F182D4454FB21F93F37
:10588000FFFFDB3FFFFF1F3E11DA22E33AAD903FFF
:10589000EB0D76244B7BA93F513DD0A0660DB13F67
:1058A0006E204CC5CD45B73FFF8300922449C23FCF
:1058B0000D5555555555D53F2F6C6A2C44B4A2BF94
:1058C0009AFDDE522DDEAD3F6D9A74AFF2B0B33F5C
:1058D000711623FEC671BC3FC4EB98999999C93FD4
:1058E00090C30000B0C300009C7500883CE4377E84
:1058F0000000F03FFB21F9BFFFFFF23FFFFFE53F54
:10590000FF7F03400000F83F0000F0BFD0B5254AFC
:105910004B0086B05B08934222DD234A934209DDA7
:1059200002000B0005F080FA02000B0010001900C5
:1059300006B0D0BD02AA00F02BFD03231840049A44
:10594000059B012813D0022822D0002819D00298E4
:1059500003990124009401F075FD02000B00E5E7B6
:105960000022002300F0F4FF02000B00DEE70090AD
:105970000298039901F066FD80231B060200CB18F4
:10598000D4E70298039900F0E3FF02000B00CDE793
:105990000298039900F0DCFF80231B060200CB185D
:1059A000C4E7C046FB21E93FFFFFEF7F4B005908EA
:1059B0007047C046F8B504004A000B0008002649AD
:1059C000520D5118270013291ADC002912DB234A33
:1059D00026000A41100018401D00204307D08020F7
:1059E000000308410024C018904326000500300041
:1059F0002900F8BDDB0FD8074B1C28D00024F4E7A2
:105A000033290DDD802226001D00D2009142EED107
:105A100022002000190004F05DF806000D00E6E702
:105A20000F4D2600AC46012562446D42D540AC4680
:105A300062461D002242DAD03322511A323A8A409D
:105A40001419A74200D9581C63469C43CDE7054B67
:105A500000241843C9E7C04601FCFFFFFFFF0F0009
:105A6000EDFBFFFF0000F03FD0B5264A4B0086B0AB
:105A70005B08934222DD244A934209DD02000B00B9
:105A800005F0D2F902000B001000190006B0D0BDDD
:105A900002AA00F07DFC03231840049A059B01280C
:105AA00015D0022823D0002818D00298039900F0BE
:105AB0004FFF80231B060200CB18E5E700230022DE
:105AC0000093002301F0BEFC02000B00DCE702980B
:105AD000039900F03DFF02000B00D5E70124029876
