:10000000F0230010418900003F8900003F89000073
:100010003F8900003F8900003F8900000000000088
:100020000000000000000000000000003F89000008
:100030003F890000000000003F890000917F000020
:10004000A17D0000A17D0000A17D0000A17D000038
:10005000A17D0000A17D0000A17D0000A17D000028
:10006000A17D0000A17D0000A17D0000A17D000018
:10007000A17D00003D8900003D890000218600002F
:100080002D800000458000005D800000758000002C
:100090003D8900008D8000003D8900003D89000001
:1000A0003D8900003D8900003D8900003D89000038
:1000B0003D8900003D8900003D8900003D89000028
:1000C000552243084000904313400343DBB2223AD9
:1000D00098089B00104093430343DBB218091B01AF
:1000E0001843C0B2704700000523F0B520384343E1
:1000F00089B004932D4B00271B78019105932C4B5D
:100100001B7800938423534306932A4B049A019D42
:10011000D318DB5D1C000293059B9C400023E4B2D6
:100120000393009B019A9B18DBB29D4239D0069B3A
:100130000026EA18204BD318079325E00195E4E741
:10014000009B022B18D10299B30019410B000F211B
:100150000B409C00234324310B405C001C4355237F
:100160001C4063001C436400E4B2002A13D0039BCC
:10017000002B01D001231C432000FFF7A1FF8423A3
:100180007343079A0136D054009BF2B29A42D7D3F8
:100190000135EDB2C5E763B2002BEDDA012303931D
:1001A000EAE70137052FC9D109B0F0BD19050010E4
:1001B0000000001054B60000B00F001010B58424E9
:1001C000CB085C43842324185B009C420BDA01209B
:1001D000023BFF3B19408840C0B2FFF771FF024B62
:1001E0001A5D1043185510BDB00F001070B5114BBB
:1001F00001201B78002B1BD00F4A013B1B01D31899
:100200009D68DC68002200232800210008F04EFDD4
:10021000002802D080231B06E418084A084B280057
:10022000210008F057FD030001205A1E9341584059
:1002300070BDC04694040010980400103EC3D84E10
:100240007D7F612B704700000023034A1370034A2F
:100250001370034A13707047920400104C0500108D
:1002600093040010024A137859424B4113707047AF
:10027000410500100023044A1370044A1370012240
:10028000034B1A707047C0464A050010490500101C
:10029000430500100023044A1370044A137002221D
:1002A000034B1A707047C0464A05001049050010FC
:1002B000430500100023034A1370034A1370034AD6
:1002C000137070474A0500104905001043050010DF
:1002D000024A137859424B41137070474805001089
:1002E0000122034B1A700022024B1A707047C0465D
:1002F00049050010430500100122034B1A7000222B
:10030000024B1A707047C0464A05001043050010A2
:100310000849094A0B78002B05D01078074B1B18A9
:10032000FF20013B1870002301200B70044913705B
:100330000870704755050010E40500100B00001010
:100340004D050010024A137859424B411370704713
:10035000510500100222034B1A700022024B1A7042
:100360007047C04651050010430500100322034B9F
:100370001A700022024B1A707047C04651050010D7
:10038000430500100022014B1A7070474E05001003
:100390000022034B1A70034B01321A707047C0469B
:1003A000E40500105505001000230F4A70B51370C6
:1003B0000E4A10241370002300220D4E0D49300008
:1003C0000A604B608A60CB60220008F07FF80A4D1B
:1003D00031002200280008F079F82900220007489F
:1003E00008F074F870BDC04694040010C8100010E6
:1003F0000011001010110010F0100010E01000109B
:10040000044A137859424B4113700022024B1A7070
:100410007047C04608000010430500100122034B3E
:100420001A700022024B1A707047C0460800001074
:10043000430500100023024A1370024A13707047EC
:10044000080000104305001010B5021C202800D938
:100450002022002003000649D2B2934200D310BDEF
:100460000C5CFF2C01D10133DBB20130F5E7C04653
:10047000EB05001070B5074B1D78681CC0B2FFF784
:10048000E3FF04002800FFF7DFFF013C201AC0B2A1
:1004900070BDC046B810001010B5FFF7D5FF034B74
:1004A000185CFE3843425841C0B210BDEB05001045
:1004B000034B1A78034B1A700022034B1A707047D3
:1004C00042050010410500105305001010B50A4BFD
:1004D0001878FFF7B9FF0023084A12180848D45CBF
:1004E000D9B2FF2C02D0242B03D11900FF2343548F
:1004F00010BDC4540133F2E7B8100010EB05001032
:10050000C0050010074A002013780021002B07D0F7
:10051000013BDBB21370044ADB00D318186859683A
:100520007047C04622110010281100100023034A12
:100530001370034A1370034A137070475D0500106F
:100540002011001021110010044A137859424B4128
:1005500013700022024B1A707047C0460900001049
:1005600048050010054B1A78002A02D000221A70A4
:10057000704701211970024BF9E7C0464805001089
:10058000090000100022014B1A7070475C05001032
:10059000084B400070B5C45C1B185D782000290032
:1005A000002207F003FB29000122200007F04AFB8C
:1005B00070BDC04694BA00000122F8B508210600BB
:1005C000100007F03FFB0724082700223900012014
:1005D00007F038FB320001252241022100202A4089
:1005E00007F030FB2A003900280007F02BFB013C04
:1005F000EBD2F8BD002210B504001100022007F074
:1006000021FB2000FFF7D8FF10BD0000A022FF2132
:10061000520010B5094807F07AFF2023002000217E
:10062000074A013BDBB203C2002BFAD1054A137023
:10063000054A1370054A137010BDC046EB05001043
:10064000B00E0010B8100010BA100010B910001051
:10065000F7B50D4B06001B780C000C270192022BFE
:1006600000D0063F0025300007F089FF854200D307
:10067000F7BD2100705D019AE4190135FFF734FDE3
:10068000E4B2EDB2EFE7C04600000010F8B5551C2B
:1006900086180C001700451907F071FFC21B3100C6
:1006A0002800013207F055FF3470F8BD30B50E4C0C
:1006B00085B0039323780D4D009001910292072B92
:1006C00007D9702228000A4907F043FF2378013B2D
:1006D000237020781022431C0001694628182370DB
:1006E00007F0F4FE05B030BD94040010980400102B
:1006F000A804001010B50B4B197800290BD00A4C38
:100700000A4B0139090110222000591807F0DEFEBA
:100710000FCCFFF7CBFF0023054A1370054A137077
:1007200010BDC04694040010680500109804001025
:10073000930400109204001010B5FFF7DBFFFFF7E1
:10074000D9FF0122034B1A700023034A1370034A96
:10075000137010BD5B05001060050010AB0E00109B
:1007600030B5002204000D00002385B000940195EF
:1007700002920393009801990022039BFFF796FFD2
:100780002000290005B030BDC02010B50249C005C9
:10079000FFF7E6FF10BDC046FB21094010B5024B34
:1007A0000FCBFFF783FF10BD6805001010B5024B9B
:1007B0000FCBFFF77BFF10BDD0100010F8B507007E
:1007C00020200E001400FFF73FFEA02305005B0071
:1007D00098420BD23800FFF737FE24182A1B044D2D
:1007E000601C6119401907F0B4FE2E55F8BDC046D3
:1007F000EB050010F8B506000120FFF725FE471EA7
:1008000004002020FFF720FE054D0130021B79195E
:10081000601907F09EFE0022024BEE551A70F8BDDB
:10082000EB05001045050010F8B50C4F06003B78AD
:100830000D000B4C032B08D9210018222000083191
:1008400007F087FE3B78013B3B703B785A1CDB008E
:10085000E4183A7026606560F8BDC04622110010A9
:100860002811001010B5094B1B78002B07D0084A3F
:10087000013BDB00D31818685968FFF7D5FF002348
:10088000044A1370044A137010BDC04622110010B0
:10089000281100105D0500102111001010B5FFF7A0
:1008A00031FE002342428B4110001900FFF7BCFFCC
:1008B00010BD000070B5FFF725FE05000C00FFF726
:1008C00021FE074B1B78002B03D06422002308F085
:1008D00039FA2A00230008F011FAFFF7A5FF70BDCE
:1008E0000900001070B5FFF70DFE0D000400FFF7C2
:1008F00009FE00196941FFF797FF70BD10B5FFF7BA
:10090000CDFFFFF7EFFF10BDF8B5040007F037FE8D
:100910000023C7B2661EDAB2E118BA4203D25A1CEB
:10092000B55C202D06D0C2B2D21A2000013207F0E9
:10093000CDFDF8BD1300EEE7F0B5002489B0032229
:100940001A49019004AF03A83C7107F0BFFD0622CD
:10095000174906A807F0BAFDE5B20321280008F000
:1009600019F8144BC6B21E70019BA100591804223D
:10097000380007F0ABFD2800032108F091F803AB25
:10098000C9B25D5C06ABE05C290080383200C0B2C1
:100990000635FFF7A9FB013432003800E9B2FFF752
:1009A00057FE062CD8D109B0F0BDC04698B3000060
:1009B0009CB300001905001070B5C20004000021AE
:1009C00000200E4B9B18186059602000FFF73CFD7B
:1009D0000B4E0500335CFF2B0ED00134E0B2FFF765
:1009E00033FD04002020FFF72FFD611E0130021BA4
:1009F0008919A81907F06AFD70BDC046B00E001035
:100A0000EB05001010B50C00FFF71EFD2418202088
:100A1000FFF71AFD021B0348611C0918201807F094
:100A200055FD10BDEB050010F7B516001F000200C4
:100A30000B00009001913000390009F07FF804F0BC
:100A4000C3FA0022154B09F07BFCC022144BD205DF
:100A500009F074F8002204000D00009801990023A9
:100A600008F024F900280FD00022002330003900BC
:100A700008F01CF90022094B002809D020002900A9
:100A800009F0CAFE04000D002000290003B0F0BDEB
:100A90002000290008F016FDF4E7C04600806640FB
:100AA000FB21094010B506F0DFFD08F0BDFC04494C
:100AB00008F0A2FB0AF0ECFAFFF752FE10BDC046A8
:100AC00000007A440023F7B5114F124D3B702B7094
:100AD000984218D1104B01241878FFF7B5FC0F4E3F
:100AE0003618335DFF2B0AD06A46137100232800A5
:100AF000537101A901340AF029FC082CF1D1280016
:100B000007F03DFD38700122054B1A70F7BDC04655
:100B10001A0500101B050010B8100010EB0500109E
:100B20004605001010B50B4904000020002C0CDC19
:100B3000013464B2012C0CD00022074B08F0FEFFF8
:100B4000F6E70022044B09F0FBFB013C64B2631C96
:100B5000F7D110BD0000F03F0000244010B50B4B52
:100B60000400197800290AD00139C9B21970084B5C
:100B700009011022591807F0A9FC200010BD00221D
:100B80000023026043608260C360F6E794040010B3
:100B90009804001000B58DB06846FFF7DFFF04A889
:100BA000FFF7DCFF009A019B0498059908F08AFC86
:100BB000029A039B089009910698079908F082FC15
:100BC0000A900B910A9A089809990B9BFFF76EFD02
:100BD0000DB000BDF0B589B06846FFF7BFFF009CBF
:100BE000019D029E039F22002B003000390008F077
:100BF000A5FF32003B0009F0A3FB22002B0008F008
:100C000061FC02000B000020114908F097FF320040
:100C1000049005913B002000290008F08FFF22007E
:100C20002B0009F08DFB32003B0008F04BFC02006A
:100C30000B000020074908F081FF06900791069AF3
:100C400004980599079BFFF731FD09B0F0BDC04638
:100C50000000F03F0000F0BFF0B593B006A8FFF72A
:100C60007DFF069B079C0AA800930194089C099DA0
:100C7000FFF774FF0A9E0B9F0C9A0D9B0098019939
:100C80000292039332003B0009F05AFB029A039B45
:100C9000049005912000290009F052FB02000B008E
:100CA0000498059909F0B8FD32000E900F913B00B1
:100CB0002000290009F044FB029A039B04000D0068
:100CC0000098019909F03CFB02000B00200029006C
:100CD00008F0F8FB10901191109A0E980F99119B43
:100CE000FFF7E4FC13B0F0BD10B5FFF773FFFFF79B
:100CF000B3FF10BD064B10B50FCBFFF7D7FC054B6C
:100D000018780AF09FF9FFF72BFDFFF7EDFF10BDF4
:100D1000E0100010C810001010B5FFF7EBFCFFF753
:100D20009BFF10BD00B589B06846FFF717FF009A1A
:100D3000019B80200399049205930006029A0B18E8
:100D40000692079304980599069A079BFFF7AEFC55
:100D500009B000BD00B589B06846FFF7FFFE029AF2
:100D6000039B04920593009A019B069207930498B3
:100D70000599069A079BFFF799FC09B000BD000092
:100D80001FB5064C6846FFF7E9FE694610222000B1
:100D900007F09CFB0FCCFFF789FC1FBDD0100010A3
:100DA00000B589B004A8FFF7D9FE049805990AF0A8
:100DB000E3F840B2FFF7B6FE002200230090019155
:100DC00002920393009800220199039BFFF76EFCA7
:100DD000FFF742FF09B000BDF0B504003E4D8DB0F5
:100DE0000A281CD13D4B1B78002B18D13C4B1A789C
:100DF000002A01D101321A702B78002B0DD1394C09
:100E00002378002B02D06846FFF7A8FE00200021BF
:100E1000FFF7A6FC012323702B700DB0F0BD2B78DB
:100E2000002B0ED12F4E3378002B02D06846FFF7EF
:100E300095FE20000AF006F9FFF792FC01233370BB
:100E4000EAE7274E3578002D21D004A8FFF786FE6B
:100E50006B1C68B23370FFF765FE06000F002000C0
:100E60000AF0C0F832003B0008F068FE049A059BC7
:100E700008F028FB00240023089009910A930B94A2
:100E8000089809990A9A0B9BFFF710FCC5E708A878
:100E9000FFF764FE08980999104B00221B78002B7D
:100EA00018D1114B09F04CFA060020000F000AF08F
:100EB00099F802000B003000390008F003FB002411
:100EC0000023049005910693079404980599069AC7
:100ED000079BD9E7054BE5E7930400104805001090
:100EE000920400104C050010000024400000304027
:100EF00010B5064B1B78002B03D00122044B1A704F
:100F000010BD0A20FFF768FFFAE7C0464805001049
:100F10004005001010B50920FFF75EFF10BD10B5A9
:100F20000820FFF759FF10BD10B50720FFF754FF49
:100F300010BD000010B5054C0F202378002B00D108
:100F40000938FFF749FF0023237010BD400500104A
:100F500010B5054C0E202378002B00D10938FFF77F
:100F60003BFF0023237010BD4005001010B5054C59
:100F70000D202378002B00D10938FFF72DFF002327
:100F8000237010BD4005001010B5054C0C202378CF
:100F9000002B00D10938FFF71FFF0023237010BD7D
:100FA0004005001010B5054C0B202378002B00D114
:100FB0000938FFF711FF0023237010BD4005001012
:100FC00010B5054C0A202378002B00D10938FFF713
:100FD00003FF0023237010BD4005001010B5002052
:100FE000FFF7FAFE10BDF0B589B06846FFF7B6FD11
:100FF00000980199029C039D04F080FA06000F00FE
:101000002000290004F07AF932003B0009F098F939
:10101000049005912000290004F01EFA32003B00E4
:1010200009F08EF906900791069A04980599079B96
:10103000FFF73CFB09B0F0BD10B5FFF7D4FFFFF799
:1010400059FBFFF7C7FDFFF7A5FD80210020C9056B
:10105000FFF786FBFFF748FE10BD00001FB5074BEA
:101060001B78002B06D06846FFF778FD00980199A1
:1010700005B000BD00200021FAE7C046940400102E
:1010800010B5FFF7EBFF09F077FF9423421F5B00D9
:101090009A4201D2014B187010BDC0460A000010E0
:1010A00010B5FFF7DBFF07F099FE07F0D3FEFFF75F
:1010B00057FB10BD70B5FFF7D1FF05000C000022F3
:1010C00000232800210007F0F1FD002802D0802332
:1010D0001B06E41828002100FFF742FB70BD00004A
:1010E00010B5FFF7BBFFE0220B4B120609F094FB93
:1010F000FFF736FB094B0A4A1860596000210020AF
:10110000084B18605960002301211370064A1170C2
:10111000064A137010BDC0464D62603FC0100010FB
:10112000AB0E0010380500105A05001043050010E2
:1011300010B51B4C20220021200007F0E8F9002305
:101140001A000F2B29D823700133DBB20134202B76
:10115000F7D1FFF783FF134C20606160FFF77EFF3C
:10116000FFF7FEFA02000B000F490A604B6020688F
:10117000616809F051FB00220C4B08F0DFFC0122F2
:101180000B4B186059600B4B1A7000230A4A1370FE
:101190000A4A13700A4A137010BD2270D4E7C04681
:1011A0008B050010800500107805001000003F40FE
:1011B00030050010500500104305001060050010B8
:1011C000AB0E001010B5FFF749FF8022034B12064B
:1011D00008F0B4FCFFF7C4FA10BDC0465347E13F26
:1011E00010B5FFF73BFFE022034B120608F0A6FC08
:1011F000FFF7B6FA10BDC04645E2E33F10B5FFF772
:101200002DFF8022034B120609F09AF8FFF7A8FA87
:1012100010BDC046EB51044010B5FFF71FFF002280
:10122000024B09F08DF8FFF79BFA10BD86480E407F
:1012300010B5FFF713FF0022054B09F0EDFAC022AD
:10124000044B120608F07AFCFFF78AFA10BDC0467C
:1012500000004040CCCCFC3F10B5FFF7FFFE8022E1
:10126000034B920508F06AFCFFF77AFA10BDC046FE
:1012700011A3014010B5FFF7F1FE0022054B09F064
:101280005FF8C022044BD20508F058FCFFF768FA5B
:1012900010BDC04600806640FB210940F7B5FFF74E
:1012A000DDFE1D4A1D4B08F00DF90D00040009F08C
:1012B00063FE09F097FE0090019102000B002000F0
:1012C000290009F0A9FA0022154B09F039F80D00A0
:1012D000040009F051FE09F085FE06000F0002002F
:1012E0000B002000290009F097FA00220C4B09F0AE
:1012F00027F800220B4B08F021FC32003B0008F0DD
:10130000E1F80022074B08F019FC009A019B08F055
:10131000D9F8FFF725FAF7BDBBBDD7D9DF7CDB3D98
:101320000000594000004E40F8B5FFF797FE07F067
:1013300037FDC4B2FFF792FE07F032FDC5B20020C0
:101340002C1B0B49E4B20134FFF70AFA631EDBB22F
:101350009D4200D8F8BDFFF781FE06000F00200077
:1013600009F040FE32003B0008F0EAFFEBE7C04620
:101370000000F03FF8B5FFF771FEFFF7F1F907F055
:101380000FFD0124C5B2FFF7CFFFAC4200D9F8BD75
:10139000FFF764FE060020000F0009F023FE0200A4
:1013A0000B003000390008F0C9FB0134FFF7D8F911
:1013B000E4B2EAE710B5FFF751FE8022034B1206B4
:1013C00008F0BEFFFFF7CCF910BDC0465347E13F20
:1013D00010B5FFF743FEE022034B120608F0B0FF02
:1013E000FFF7BEF910BDC04645E2E33F10B5FFF779
:1013F00035FE8022034B120608F0A0FBFFF7B0F980
:1014000010BDC046EB51044010B5FFF727FE002287
:10141000024B08F093FBFFF7A3F910BD86480E407E
:1014200010B5FFF71BFEC022054B120608F088FF1F
:101430000022044B08F046F8FFF792F910BDC046B1
:10144000CCCCFC3F0000404010B5FFF707FE8022E7
:10145000034B920508F074FFFFF782F910BDC046F8
:1014600011A3014010B5FFF7F9FDC022054BD205CD
:1014700008F066FF0022044B08F060FBFFF770F9EC
:1014800010BDC046FB21094000806640F0B585B024
:10149000FFF7E4FD0022284B08F052FF274A284BB3
:1014A00008F010F80022244B04000D0008F046FB61
:1014B00009F062FD09F096FD00221F4B009001919A
:1014C00008F03EFF0290039102000B00200029006B
:1014D00009F0A2F900221B4B08F030FB09F04CFD8B
:1014E00009F080FD0022174B06000F0008F028FFCE
:1014F00002000B002000290009F08EF9029A039BDC
:1015000009F08AF90022104B08F018FB00220400B1
:101510000D00300039000D4B08F010FB009A019BC4
:1015200007F0D0FF02000B002000290007F0CAFFDF
:10153000FFF716F905B0F0BD0020AC40BBBDD7D910
:10154000DF7CDB3D00004E400088C3400000594076
:1015500030B5264A264B12781B7885B0002A19D060
:10156000002B0ED0FFF77AFD0022224B08F0E8FE98
:1015700007F034FC0B00034335D1FEF765FE05B0E0
:1015800030BD6846FFF7EAFA102269461A4806F0AD
:101590009DFFF4E7002BF4D0184A107800281BD0E8
:1015A000431EDBB21370002BE9D0023840B2FFF7C4
:1015B000B9FA04000D00FFF751FD22002B0008F0DE
:1015C000BFFE07F00BFC07F045FC22002B0008F0E3
:1015D000B5FAFFF7C5F8D2E7FFF740FD0022084B48
:1015E00008F0ACFAC4E707F035FCF2E74805001054
:1015F000930400100000B03F680500109204001032
:101600000000244010B5FFF729FD07F0C9FBC0B268
:10161000072803D8024B187005F09EFE10BDC04687
:101620005500001010B5FFF719FD07F0B9FBC0B267
:101630003F2803D8024B187005F08EFE10BDC0463F
:101640005812001010B5040074280CD9212C17D0A2
:10165000FEF7FAFD193CE4B20B2C11D80D4BE34018
:10166000DB0716D40CE00C4B1A78272353430B4AA4
:101670001B189B009B5898470A2CEBD9122CE5D1DC
:101680000023074A1370044A1370064A1370064A6F
:10169000137010BD210C00004305001080B4000041
:1016A000510500104A05001049050010F0B52E4AFA
:1016B000C30085B0D3181A685B68040000920193D8
:1016C000FEF7C2FE0500FEF7BFFDFEF76DFE274BDD
:1016D0006E1C5F5DFF2F10D1FFF7C0FC224BE400B2
:1016E0001C1920606160009A019B09F095F80200C6
:1016F0000B0008F025FE05B0F0BDFD2F1DD11C4FDD
:101700009E5D3B780235042B07D91A480422411C00
:1017100006F01FFF3B78013B3B70154A1378591CBC
:101720001170144AD654104BF6009E193068716837
:10173000FFF716F82E003500C9E70F4B06221D787B
:1017400027230E4902A85D4306F0C0FE00237D1941
:10175000EDB202AAD25CAA42EDD00133062BF8D139
:101760003800FFF76FFFE6E7B00E0010EB05001042
:10177000E5050010E605001043050010A3B30000C6
:10178000F8B520250024002600272000FEF784FE5F
:1017900000280AD12000FFF789FF02000B0030006B
:1017A000390007F08FFE06000F000134E4B2202C50
:1017B000EBD1E02230003900054B120607F076FA33
:1017C000002803D1013DEDB2002DDBD1F8BDC046AC
:1017D0004D62503F70B50D4E34782000FEF734FE58
:1017E0000B4B1B5CFF2B02D02000FFF7E5F8002419
:1017F000084D013DE2B20134295DFF2902D1FFF716
:10180000BFFF70BD3078FEF7D9FFF3E7B8100010C6
:10181000EB050010C0050010F7B5012005F06AFEC9
:1018200004002220002C1DD12500174B0193019BA1
:1018300001221E785F783000390006F0B7F93900D0
:101840003000002206F0FEF9271D104EFFB2F1799C
:10185000B07906F0CDF9002805D12800FEF798FEF2
:101860000B4B185DFEBD0134E4B2023EBC42EED12A
:101870002800FEF78DFE019B01350233EDB2019386
:101880000A2DD4D1FF20EDE794BA00008CBA0000F5
:1018900064BA000070B50024FFF7BEFF05000A20FF
:1018A00006F0A4FBFF2DF6D10134E4B2032CF3D1F2
:1018B00070BD000000B50C4B89B01B78012B11D90D
:1018C0006846FFF74BF904A8FFF748F9009801991B
:1018D000029A039BFEF7EAFE04980599069A079B75
:1018E000FEF7E4FE09B000BD9404001010B5FFF748
:1018F000E1FFFFF7B3FB124C20606160FFF7AEFB26
:10190000FEF72EFF2268636808F086FF00220D4B69
:1019100008F016FD00220C4B08F010F90B4B0122C9
:101920001860596000200021094B18605960094B6C
:101930001A700023084A1370084A137010BDC0467D
:10194000780500100000E03F000024403005001042
:10195000380500104B05001043050010AB0E0010B9
:1019600000B58BB0FEF742FC002815D006A8FFF7A3
:10197000F5F880200799069A00060B180292039347
:101980000022002304920593002202980399059BEC
:10199000FEF78CFE0BB000BD02A8FFF7DFF8802039
:1019A00000068446039B029A0193019961440B004F
:1019B000059906920793049A0B18089209930698C2
:1019C0000799089A099BE3E710B5FFF7C9FFFFF7EE
:1019D000E1F810BD10B5FEF78DFEFFF761FBFFF7D4
:1019E000F3FF10BD274B70B50FCBFEF75FFE264E01
:1019F000307809F027FBFEF7B3FEFFF72DF9234CF3
:101A000020686168A268E368FEF750FE204D2868F0
:101A10006968AA68EB68FEF749FEFFF71DF9FFF752
:101A2000D3FF1C4B0FCBFEF741FE307809F00AFBC9
:101A3000FEF796FEFFF710F920686168A268E36878
:101A4000FEF734FEFEF756FEFFF706F9FFF7BCFF80
:101A5000FFF74AF9FEF74EFE0FCCFEF727FEFFF721
:101A6000FBF8FFF77DFF0FCDFEF720FEFFF792F8A2
:101A7000307809F0E7FAFEF773FEFFF735F9FFF764
:101A800019FF70BD00110010C8100010E010001008
:101A900010110010F010001010B5FFF7A4FAFEF7B7
:101AA00029FEFFF797F8FFF75BFFFFF773F8802138
:101AB0000020C905FEF754FEFFF716F910BD00001F
:101AC00000B5114B8DB01B78022B1AD96846FFF771
:101AD00045F804A8FFF742F808A8FFF73FF8009878
:101AE0000199029A039BFEF7E1FD089809990A9A69
:101AF0000B9BFEF7DBFD04980599069A079BFEF702
:101B0000D5FD0DB000BDC0469404001010B5FFF720
:101B1000D7FFFFF7D5FF10BD10B5FFF7CBFEFEF7DF
:101B2000E9FDFFF7F3FFFFF7C5FEFFF74DFFFFF7F6
:101B3000C1FEFFF7D9F800200249FEF711FEFFF7BA
:101B40008BF810BD0000594010B5FFF7B3FEFEF74B
:101B5000D1FDFFF7DBFF00200349FEF701FEFFF791
:101B6000C3F8FFF779F810BD000059407FB5102584
:101B7000324E3378013B3370FEF7BCFD304CE368E6
:101B80006168A2682068FEF791FDFFF793FEFFF7FA
:101B90001BFF6846FEF7E2FF2A006946200006F0B8
:101BA00095FCFEF7A7FDFEF7A5FDFFF755F8254CC0
:101BB000E3686168A2682068FEF778FDFFF77AFEA7
:101BC000FFF702FF6846FEF7C9FF2A0069462000BA
:101BD00006F07CFCFFF76EFEFEF78CFDFFF796FF2C
:101BE000FFF73AF8184CE3686168A2682068FEF7CE
:101BF0005DFDFFF75FFEFFF7E7FE6846FEF7AEFF0D
:101C00002A006946200006F061FC104CE368616818
:101C1000A2682068FEF74AFDFFF74CFEFFF7D4FEEE
:101C20006846FEF79BFF2A006946200006F04EFC3E
:101C3000307809F007FAFEF793FD7FBDC810001059
:101C4000E0100010F0100010001100101011001032
:101C50007FB510252E4E337801333370FEF74AFDE1
:101C60002C4CE3686168A2682068FEF71FFDFEF750
:101C700091FF6846FEF772FF2A006946200006F0D1
:101C800025FCFEF737FDFEF735FDFEF7E5FF224C9C
:101C9000E3686168A2682068FEF708FDFEF77AFF36
:101CA0006846FEF75BFF2A006946200006F00EFC3E
:101CB000FFF700FEFEF71EFDFFF728FFFEF7CCFF43
:101CC000164CE3686168A2682068FEF7EFFCFEF737
:101CD00061FF6846FEF742FF2A006946200006F0D1
:101CE000F5FB0F4CE3686168A2682068FEF7DEFC34
:101CF000FEF750FF6846FEF731FF2A0069462000D4
:101D000006F0E4FB307809F09DF9FEF729FD7FBD70
:101D1000C8100010E0100010F010001000110010AA
:101D20001011001070B5124B1B78002B12D0FEF76B
:101D3000E9FB05000C00FEF7E5FB02000B002800A4
:101D4000210006F0FFFF6422002306F0D7FFFEF714
:101D50006BFD70BDFEF7D6FB05000C00FEF7D2FB55
:101D600002000B002800210006F0ECFFEFE7C04660
:101D70000900001010B51A4B1B78002B16D0FEF787
:101D8000C1FB43B2020601D5404243B2012000210B
:101D9000013B5BB25A1C04D1FEF746FDFFF7C2FFC0
:101DA00010BD020F090111430001F1E70D4B1B7833
:101DB000002B0FD0FEF7A6FB6422002306F09EFF47
:101DC00040B2FEF7AFFE0022074B08F0B9FA07F069
:101DD00005F8E1E7FEF796FB40B2FEF7A3FEF6E753
:101DE00048050010090000100000594070B50D4B67
:101DF0001B78002B03D00C4B01221A7070BD0B4CCA
:101E00002378002B0CD10A4D2B78002B01D0FEF744
:101E100079FB00200021FEF707FD01232B702370C2
:101E2000044BE9E74805001040050010211100109F
:101E3000201100105D050010F7B5364A364E1278B5
:101E400033780190002A26D0002B3FD0FEF75AFBB2
:101E50006422002305000C0006F050FF0A22002334
:101E600006F070FF06000F00280021000A22002360
:101E700006F044FF002530003900D4B200230A22C6
:101E80000019694106F05EFF2B00019A8018594144
:101E9000FEF7CAFC1AE0214915000978019C00915F
:101EA000002B17D11E4F3B78002B01D0FEF72AFBE9
:101EB000009B002B0BD0642200232000290006F099
:101EC00041FFFEF7B1FC01233B703370F7BD2000EA
:101ED0002900F6E7009B002B0CD0FEF713FB0A222B
:101EE000002306F00BFF642200196941002306F06D
:101EF00029FFCDE7FEF706FB0A4B10221E780023D0
:101F0000002E01D10A22002306F01CFF00196941AE
:101F1000BEE7C0465D050010211100100900001049
:101F2000201100104805001010B50920FFF784FFAC
:101F300010BD10B50820FFF77FFF10BD10B50720BA
:101F4000FFF77AFF10BD000010B5054C0F20237875
:101F5000002B00D10938FFF76FFF0023237010BD5D
:101F60004005001010B5054C0E202378002B00D141
:101F70000938FFF761FF0023237010BD40050010F2
:101F800010B5054C0D202378002B00D10938FFF740
:101F900053FF0023237010BD4005001010B5054C01
:101FA0000C202378002B00D10938FFF745FF0023D0
:101FB000237010BD4005001010B5054C0B20237890
:101FC000002B00D10938FFF737FF0023237010BD25
:101FD0004005001010B5054C0A202378002B00D1D5
:101FE0000938FFF729FF0023237010BD40050010BA
:101FF00010B50020FFF720FF10BDF7B5FEF782FAFD
:1020000007000E00FEF77EFA00900191FEF77AFAC3
:1020100005000C0038003100FEF706FC2800210006
:10202000FEF702FC00980199FEF7FEFBF7BDF8B53C
:10203000FEF768FA07000E00FEF764FA05000C00D0
:1020400038003100FEF7F0FB28002100FEF7ECFB22
:10205000F8BD0000F0B58DB0FEF7C8F8002810D02C
:10206000FEF7FCFFC0222C4BD20508F069F90022D4
:102070002A4B07F063FD03F0EFF9FEF771FB0DB09B
:10208000F0BD04A8FEF76AFD06980799049C059D1B
:1020900003F034FA06000F002000290003F0DCF9F9
:1020A0003200029003913B0000201D4907F046FDDD
:1020B0000090019102000B003000390007F002FA95
:1020C000029A039B08F03CF90022164B08F038F9FD
:1020D00008900991C02022002B001349C00508F088
:1020E0009BFB03F0B9F9009A019B04000D0030003E
:1020F000390008F091FB22002B0008F021F90022A2
:10210000084B08F01DF90A900B910A9A0898099952
:102110000B9BFEF7CBFAB2E7FB210940008066403B
:102120000000F03F0000E03FFB21F93FF0B58DB02B
:10213000FEF75CF8002810D0FEF790FFC0222E4B6F
:10214000D20508F0FDF800222C4B07F0F7FC03F055
:10215000D5F8FEF705FB0DB0F0BD04A8FEF7FEFCB8
:1021600006980799049E059F03F0C8F90400C02053
:102170000D0032003B002249C00508F04DFB03F082
:102180006BF92200029003912B0000201D4907F0FB
:10219000D5FC0090019102000B002000290007F0FF
:1021A00091F9029A039B08F0CBF80022164B08F035
:1021B000C7F8089009913000390003F04DF98023E9
:1021C0001B06CE180700009A019B2000290008F08A
:1021D00023FB02000B003800310008F0B1F80022A8
:1021E000094B08F0ADF80A900B910A9A08980999E2
:1021F0000B9BFEF75BFAAEE7FB21094000806640CF
:10220000FB21F93F0000F03F0000E03F70B5064CB5
:102210000500200006F0B3F9691C421B6118601923
:1022200006F054F970BDC0461B050010F0B5314BE7
:1022300087B0070018780291FEF706F900231C000A
:102240001D0003900193039BE9182B4B5A5CFF2A56
:1022500002D1019807B0F0BDFD2A2CD1212CF2D873
:102260005B185B78FA3A1A409B0805AE31337370FD
:1022700000234132B3703270300006F080F9310033
:102280000200381906F022F9029BA21CD2B2002BE0
:102290000DD01A4B1B78002B09D0023B9D4206D172
:1022A00003347F213800E4B2FEF7F0F92200023552
:1022B0001400EDB2C7E7222CC5D8114B661C9B5CFD
:1022C000F6B23B55029B002B0FD00C4B1B78002B1A
:1022D0000BD0013B9D4208D1023432007F213800EF
:1022E000E4B2FEF7D3F90196260001353400EDB2D1
:1022F000A9E7C046B8100010EB0500101805001043
:10230000A8BA0000F0B54A4E8DB03378002B41D00A
:10231000FDF76CFF00283DD0FEF7A0FE33780400E7
:102320000D00002B30D0FDF761FF00282CD0FEF708
:1023300095FE404B1B78002B0AD0089409950A9013
:102340000B91089809990A9A0B9BFEF7AFF91FE0C9
:10235000C022394BD20507F0F3FF0022374B07F0BC
:10236000EDFB06000F0002F0C9FF22002B0007F072
:10237000E7FF089009913000390003F06DF8220062
:102380002B0007F0DDFFDAE720002900FEF7E8F96F
:102390000DB0F0BD6846FEF7E1FB009C019D029E7A
:1023A000039F244B1B78002B14D00022002304969B
:1023B000059716001F0006920793069A079B04983C
:1023C0000599FEF773F932003B00089409950A92CB
:1023D0000B93B6E732003B0020002900FEF724FBF8
:1023E0000022002304900591069207930498059912
:1023F000069A079BFEF75AF922002B0020002900BD
:1024000007F09EFF320004000D003B003000390051
:1024100007F096FF02000B002000290007F052F899
:1024200003F0DAF80022002308900991CFE7C046B4
:102430009404001008000010FB2109400080664051
:10244000F0B58BB002A8FEF789FB029E039F049CA7
:10245000059D32003B003000390007F071FF22007B
:10246000009001912B002000290007F069FF020075
:102470000B000098019907F025F803F0ADF803F080
:1024800075F82200069007912B0030003900FEF706
:10249000CBFAC022084BD20507F052FF0022074BAF
:1024A00007F04CFB08900991089A06980799099B38
:1024B000FEF7FCF80BB0F0BDFB2109400080664040
:1024C00010B5FFF7BDFF00200349FEF749F9FFF7FC
:1024D000B7FFFEF709FC10BD0000244070B50024D2
:1024E000234D20002900FEF73BF9FEF753FBFEF7D2
:1024F00001F9FEF7FFF8FEF7FDF8FEF7FBF8002004
:102500001C49FEF72DF9FEF7A7FBFFF7D3F90020D2
:102510001949FEF725F9FEF79FFBFEF75BFBFFF776
:1025200053FAFEF757FBFEF735FBFFF789FF29004B
:102530002000FEF715F9FFF747FAFEF78DFBFFF7CE
:10254000B9F9FFF77DFFFFF70BFAC0200B49C00573
:10255000FEF706F9FFF774FFFEF71CFB8021002051
:10256000C905FEF7FDF8FEF7BFFBFEF713FB70BDD4
:102570000000F03F0000284000002440FB211940EB
:1025800030B58DB06846FEF7E9FA04A8FEF7E6FA22
:10259000049805990022002306F082FB0024002500
:1025A000002829D00698079922002B0006F078FB16
:1025B000002821D00098019922002B0006F070FB22
:1025C000002814D00298039922002B0006F068FB23
:1025D00000280CD01022124908A805F077FF0898AF
:1025E00009990A9A0B9BFEF761F80DB030BD08946B
:1025F00009950A940B95F2E704980599069A079BAA
:10260000FEF754F8FFF71CFF00980199029A039B0C
:10261000FEF74CF8FEF720FBFEF7E5FCE5E7C046C9
:1026200068B4000010B500200449FEF799F8FFF7E0
:1026300007FFFEF711FBFEF7D6FC10BD000024409B
:102640001FB56846FEF78AFA009801990022002318
:1026500006F026FB002805D000200021FEF780F8B8
:1026600005B000BD029A039B00980199FEF71EF881
:10267000FFF7E6FE00200449FEF772F8FEF7ECFAD9
:10268000FEF7B1FCECE7C0460000E03F10B5FFF7F5
:102690003DFAFEF72FF8FFF713FAFEF7DDFA0020F8
:1026A0001D49FEF75DF8FEF7D7FAFFF759F9FFF776
:1026B0002DFAFEF71FF8FEF71DF8FEF7CDFAFFF72B
:1026C000F9F8FFF7FDF9FEF765FAFFF7B9FFFFF735
:1026D0001DFA80210020C905FEF742F8FEF7BCFA7A
:1026E000FEF708F8FFF7ECF9FEF7FEFAFFF7E8F956
:1026F000FEF7FAFAFFF734F9FDF7FCFFFFF706FAE9
:10270000FDF7F8FFFFF7DCF9FEF744FAFFF7D8F919
:10271000FFF75AF910BDC0460000104010B5FEF793
:10272000E9FAFDF7E7FFFEF797FA104C207808F07A
:1027300089FCFEF715F8FEF78FFAFFF711F90C4B3D
:102740000FCBFDF7B3FFFEF725FA207808F07AFCEF
:10275000FEF706F800200749FEF702F8FFF734F904
:10276000FEF7C2FAFFF76CFF10BDC046C81000109C
:10277000F01000100000F03FF0B50024224D89B0A9
:10278000FDF7B8FF0026FEF7C7FA0027FFF7E8F8C5
:1027900020002900FDF7E4FFFEF7FCF9FFF750FFEA
:1027A000FFF788F800200096019702940395020035
:1027B0000199039BFDF77AFFFEF74EFAFEF7EAF95F
:1027C000FFF73EFE00200496059706940795020049
:1027D0000599079BFDF76AFFFFF7C2F8FEF73CFA81
:1027E000FDF704FD00280CD0FEF738FC0022074B53
:1027F00007F0A6FDC022064BD20507F09FF9FDF7B2
:10280000AFFF09B0F0BDC0460000F03F0080664059
:10281000FB21094010B5FFF7AFFFFFF7A1F8FDF767
:10282000E5FC002806D000200449FDF799FFFEF7DB
:10283000B1F910BDC0200249C005F6E7008056403E
:10284000FB21F93F10B5FDF755FFFEF765FA0020B3
:102850000649FDF785FFFEF79DF9FFF7F1FEFEF74C
:10286000B9F9FEF7F9F9FFF787FF10BD0000F03F57
:1028700010B51A4B1B78002B0AD0FDF73BFFFFF772
:102880000BF9FFF717F8FEF7D7FBFEF72DFA1BE061
:10289000134B1B78002B18D0FDF72CFF002011499B
:1028A000FDF75EFFFEF776F9FFF704F8FFF758F83B
:1028B00000200C49FDF754FFFEF76CF9FEF714FAFF
:1028C000FFF7BEFEFFF7BCFD10BDFDF713FFFFF7DE
:1028D000C1FBFEF7EFFFFFF729FCD6E74905001023
:1028E0004A0500100000F03F10B50F4B1B78002B7D
:1028F00002D0FEF7A1FB10BD0C4B1B78002B10D0B3
:10290000FDF7F8FEFEF708FA00200949FDF728FF59
:10291000FFF75AF8FFF794FEFEF73CF9FFF790FD3A
:10292000E9E7FFF703FCE6E7490500104A05001058
:102930000000F03F10B50F4B1B78002B02D0FFF7C3
:10294000ABF810BD0C4B1B78002B10D0FDF7D2FE5E
:10295000FEF7E2F900200949FDF702FFFEF71AF938
:10296000FFF76EFEFEF716F9FFF76AFDE9E7FFF7DE
:1029700071FBE6E7490500104A0500100000F03F32
:10298000F0B58FB00BAD0190029104922021082286
:102990002800089305F0BBFD00232B72784B002222
:1029A0001B780593002B3CD000230198029906F078
:1029B0007DF98022029B12069C18002800D11C0081
:1029C000210000226F4B019806F070F90BAC002833
:1029D00008D0302323702800089A0499FDF738FEA8
:1029E0000FB0F0BD0198029906F016FA0F27030008
:1029F0000DA81A000A4300D10FE3A04203D1624997
:102A000005F0C5FDE7E71E003E4032003032392AAE
:102A100000D92732013802701B090A07134309093C
:102A2000E7E700230198029906F040F9019D00288C
:102A300062D080220A27029B12069C182100534A6A
:102A4000534B019806F050F900282BD12100514A30
:102A5000514B019806F034F9002807D000220023DA
:102A60002100019806F036F900281BD1019A2300B5
:102A70001000210008F062FA002813D1012266003C
:102A800076083100454B0198524208F057FA002869
:102A900035D101223100414B0198524206F010F924
:102AA00000282CD138490BA805F071FD0BAD28008A
:102AB000FDF72AFF0626280005F061FD059B8342ED
:102AC00000D38DE7364B1C78631E9C41059B013477
:102AD000E85C2E2800D097E2049B089A1F1BFFB2E7
:102AE000A40039003F19FDF7FFFAFBB20493059BE0
:102AF0000133DBB20593DEE70127029C9EE721004C
:102B0000244A254B019806F0D1F800281AD121005B
:102B1000244A254B019806F0E7F8002800D187E108
:102B2000380008F05FFA02000B0000201F4907F090
:102B300005F802000B000198210006F0B7F8002804
:102B400000D175E1002200232100019806F0A8F8C9
:102B5000002800D10CE130230BAA1370144B197814
:102B6000002901D02E2313700123302001E0D0541E
:102B70000133DCB2A14299D9082BF8D196E7C046BF
:102B8000480500100000F03FAAB300007DC3942563
:102B9000AD49B2543EC3D84E7D7F612BFFFFEF7F1E
:102BA00041050010FCA9F1D24D62503FD0126341A3
:102BB0009204001028002100974B002207F0C0FB70
:102BC0000C0005000398013843B20393002228004B
:102BD0002100924B06F06AF80028EBD16B461B7B74
:102BE00000220793280021008C4B06F07DF800227C
:102BF0000690002800D0BDE000230299019806F05D
:102C000055F8431E98410723181AC3B20993FDF7DC
:102C100089FF02000B002800210007F091FB002231
:102C20007F4B06000F0006F04DFC08F0A5F93900B7
:102C30000500300008F0A0F90A2706002800002847
:102C400000D0A3E004000A27002E00D0A6E0069BD7
:102C50009C4208D228000A2105F026FF05000798AB
:102C6000013043B203936B461B7B0793079A099B82
:102C7000981A40B2FDF756FF06000F00280008F032
:102C8000B1F93B00320006F059FF08F075F9390040
:102C90000690300008F070F90100280005F0EAFF06
:102CA000039B0C00002B14DA079B584240B2FDF73F
:102CB00039FF06000F00200008F094F932003B00B5
:102CC00006F03CFF0022564B06F0FCFB08F054F9DE
:102CD00004006B46039A1B7B002A00DA0023099A42
:102CE000D31ADBB203934F4B1B780793002B00D111
:102CF00081E04D4B1D78002D7ED00BAE35000A27AC
:102D00004A4B039A1B78D31A0993731B0399DAB2BF
:102D100091424BD80B000DACE41A2E230A25013C3E
:102D20002370069B002B6AD1002200230198029990
:102D300005F0BCFF002802D02D23013C2370079B27
:102D4000002B04D0384B1B78002B00D0AEE62000BF
:102D500005F015FC00220138C0B22018844200D1D1
:102D6000A4E60378302B00D0A0E602700138F5E726
:102D700003902BE728002100274B06F0DFFE05001B
:102D800007980C00013043B2039327E7390005F0A0
:102D90008BFE069B0133DBB2069350E7300039000F
:102DA00005F082FE01340600E4B24DE7099A2021C5
:102DB000934205DD3900200005F05CFF3031C9B2D7
:102DC000E9712000390005F06FFE013D04009CE729
:102DD0002000390005F04EFF3031200031703900FD
:102DE00005F062FE04000135EDB2039B013EAB42EB
:102DF000EED10DAC90E7079D0A270DAEF5E70698DA
:102E0000290005F037FF013C303106982170290078
:102E100005F04AFE069084E7000024400000F03FE1
:102E20000000E03F930400105205001092040010CF
:102E3000002300220198029905F038FF431E9841B3
:102E4000002306000393002228002100754B05F0A3
:102E50002DFF002800D097E0002228002100714BB0
:102E600005F042FF002800D099E0039B07300833AB
:102E7000122B00D80820861BF3B20693069BD81E9F
:102E800040B2FDF74FFE02000B002800210007F0C2
:102E900057FA654B002206000F0006F013FB08F0FE
:102EA0006BF839000500300008F066F800230600D2
:102EB0000A272800079300287DD104000A27002E46
:102EC00000D080E0079B9C4207D228000A2105F031
:102ED000EBFD0500039B013303930698043840B2D1
:102EE000FDF720FE06000F00280008F07BF83B00ED
:102EF000320006F023FE08F03FF8390004003000ED
:102F000008F03AF80100280005F0B4FE039B0D001C
:102F1000DB0F0693039B5E1E01D50126F61A3000D7
:102F20000A2105F0A7FE0BAF30313000F9710A21FC
:102F300005F0BAFD0B260AABF618002807D00A21C7
:102F400005F098FE0A2630310AABB971F618069AD8
:102F50002B23013E002A00D002330A273370013EA2
:102F6000002D38D12E230A353370002C3FD100229A
:102F700000230198029905F099FE002800D195E5FB
:102F80002D23013E337091E528002100274B0022BC
:102F900007F0D6F9039B05000C00013B52E728001F
:102FA0002100224B002206F0C9FD039B05000133DE
:102FB0000C00039350E7390005F076FD079B0133C1
:102FC000DBB2079377E73000390005F06DFD01347F
:102FD0000600E4B273E72800390005F04BFE3031FB
:102FE00028003170390005F05FFD0500B7E72000CB
:102FF000290005F03FFE013E3031200031702900EC
:1030000005F052FD0400B0E77443089A0499FDF7F7
:103010006BF8049B1C19E3B268E52000FDF774FC13
:10302000D9E4C0460000F03F0000E03F000024402B
:10303000F7B50C0015000090FDF72EFA002822D0FD
:103040000098FDF701FA230027001C4E2A33DBB25B
:10305000361801937078FF2809D039002A00FDF74F
:1030600043F80637019BFFB201369F42F2D1144B61
:10307000009A1B78934205D1063C2A00B220E1B2A7
:10308000FDF732F8F7BD009BDA000E4B9B181E6867
:103090005F68002200233000390005F001FE00289F
:1030A00005D02A002100CC20FDF71EF8DFE72B0019
:1030B000220030003900FFF763FCD8E7EB05001071
:1030C000B8100010B00E0010F8B5184B1C78184B53
:1030D0001B78002B03D0032C01D9043CE4B2154B20
:1030E0001B78002B03D0002C01D0013CE4B2002659
:1030F0000125114B114F3200200006211D703E703A
:10310000FFF796FF601932003B21C0B2FFF790FF36
:10311000201D2A000621C0B205343D70FFF788FF4C
:103120002A003B21E0B2FFF783FFF8BDB810001082
:10313000BA100010B910001000000010190500109E
:10314000F0B53D4B8DB01C78002C04D03B48FDF70A
:10315000F3FB0DB0F0BD3A4F3A4A3B781278134377
:103160002CD002AD18222021280005F0D0F93649D4
:10317000062268462C76103105F0A8F96B461E5DD4
:10318000324BB6009E19300005F0F9F90200A0009C
:1031900031002818013405F099F9062CEED12800E9
:1031A000FDF7CAFB01222A4B6D211A703B78294892
:1031B000002B00D12848FDF74BFACAE70126274B20
:1031C0001E70FFF781FF224B1E70254B1D782800D3
:1031D000FDF762F9041E14D02800FDF735F9214DE2
:1031E00034002D180536285DFF28B2D03100614328
:1031F00067310122C9B20134FCF776FF052CF2D108
:10320000A7E701002122029002AD03A805F07FF993
:1032100021002800FFF70AF80626285D002898D02C
:10322000310061436D310122C9B20134FCF75CFF0A
:10323000042CF2D18DE7C04658050010AEB3000053
:10324000590500105705001068B400003D0000103B
:1032500019050010C7B30000CCB300000000001037
:10326000B8100010EB050010F7B5FDF7F7FE0D00E4
:10327000040004F091FA684601A904F035FB290026
:10328000200005F08DFD6B46C0B21880290020009B
:10329000FDF766FAFEF79EFB802000261B4F1C49B7
:1032A000C005FDF75DFAFDF775FC30003900FDF74C
:1032B00057FAFDF7D1FCFDF7D1FE05F071FD6B4625
:1032C000290098702000FDF74BFA30003900FDF717
:1032D00047FAFDF7C1FCFEF77DFB80200C49C005D5
:1032E000FDF73EFAFDF756FC30003900FDF738FADD
:1032F000FDF7B2FCFDF7B2FE05F052FD6B46002271
:10330000D87001A9684604F033FBF7BD00005940AE
:10331000E17A743F37B5FDF7A1FE0D00040004F01B
:103320003BFA684601A904F0DFFA2900200005F005
:1033300037FD6B4680222900D20518710B4B200007
:1033400006F0C0F8FDF70CFAFEF744FBFDF786FE29
:103350000022074B06F0F4FF05F022FD6B46002229
:10336000587101A9684604F003FB37BDE17A743F48
:103370000000594013B504F00FFA01A9684604F0A3
:10338000B3FA6B46987806F04FF8164905F034FF0B
:103390006B46041C188806F047F8011C201C05F039
:1033A0008DFD6B46041CD87806F03EF80E4905F0FA
:1033B00023FF011C201C05F081FD041C684604F05D
:1033C00007FB072105F056FC080006F02DF8074919
:1033D00005F012FF211C05F071FD07F059FEFDF705
:1033E000BFF913BD0000C84200401C460050C3474F
:1033F00013B504F0D1F901A9684604F075FA6B46DB
:10340000587906F011F8084905F0F6FE6B46041CE1
:10341000187906F009F8011C201C05F04FFD07F093
:1034200037FEFDF79DF913BD0000C84207B504F053
:10343000B3F9684601A904F057FA6B463C205B7962
:1034400058436B469B79C0180EBD10B5FEF722FAA3
:1034500004F03CFA03F055FF0020012104F094FD34
:10346000002004F047F8002802D1012104F08CFD6F
:1034700003F098FF03F084FF03F08CFF10BD000001
:10348000F8B572B6B120FDF7B5F80020FDF7B2F837
:103490001020FDF7AFF8E020FDF7ACF80024144D44
:1034A00001222E5D0021022004F0CCFB013430000B
:1034B000FDF782F8842CF2D1B020FDF79BF80020B4
:1034C000FDF798F81020FDF795F88426E020FDF729
:1034D00091F876002F5D01220021022004F0B2FB5A
:1034E00001343800FDF768F8B442F3D162B6F8BD94
:1034F000B00F0010F0B59DB005F066F803F0BAFF0C
:103500000021D14804F0C0FB0021D04804F0BCFBEE
:1035100004F01BF801220421002004F047FB0022E4
:103520000421100004F08EFB01220521002004F08C
:103530003DFB00220521100004F084FB002004F074
:1035400079FAA022FF215200C14804F0E0FFF022E6
:10355000FF21D200BF4804F0DAFFFFF767FF002326
:1035600006900393BC4B1B68002B58D0842200218B
:10357000BA48520004F0CBFFB94B1E78002E00D1A0
:10358000C3E00026B74CB84B20001E7004F0F7FFD4
:103590000100B04200D1AAE0B44D7F2120002A787A
:1035A000FDF774F8200032000321FDF751F8287868
:1035B000FEF72CFE0026012234000627AA4B1A70C3
:1035C000AB4AF3B21578AB4A2D01203511785D195D
:1035D000EDB2994200D08FE07943CCB2E11C0122D8
:1035E000B220C9B2FCF780FD210009310122280078
:1035F000C9B20F34FCF778FDE1B20122AF20FCF72D
:1036000073FD02240136102EDAD19B4B1B78002B60
:1036100000D1A7E1FFF734FF00228F4B1A609749D2
:10362000974F0B780093002B01D100F0B2FD954A23
:1036300095481378C05C3870FF2803D0312B01D82F
:1036400000F0A1FD00230B70FEF724F98F4B904A88
:103650001B78127813438F4A127813438E4A1278DC
:103660001343FF220392002B02D17B4BFE3A1A60D8
:10367000FFF7DCFE069B824EC01A884B1B789842EF
:1036800001D9222333703378FF2B2DD0039A934234
:103690002AD0FFF7CBFE794B7C4A1B781278069034
:1036A00013437B4A127813437A4A127813437A4AB7
:1036B0001278134302D10122674B1A60784B30789D
:1036C0001B78002B05D06F4A1378591C11706E4A75
:1036D000D054222801D000F06AFFFF233370FFF797
:1036E000B4FEFFF7A3FE0690654B1B7839E7020096
:1036F0007F20FCF7F9FC5DE71919794303310122BA
:103700002800C9B2FCF7F0FC7CE75B4B1B78002B70
:1037100071D0644B1C685D68634B20001A685B685D
:10372000290007F079F802000B002000290006F0BC
:1037300005FA00225D4B06F003FE05F031FBC3B233
:103740005B4F00935B4B1C685D683A687B682000A8
:10375000290007F061F802000B002000290006F0A4
:10376000EDF90022544B06F0EBFD02000B000020A7
:10377000514907F051F805F013FBC3B220000124B2
:103780000493394B02221E7029003300FFF7F8F82A
:103790003868796833003222FFF7F2F8324B0222A0
:1037A0001C70404B186859682300FFF7E9F83E4B3E
:1037B0003222186859682300FFF7E2F834000F2618
:1037C00025003E4B6235E15CEDB2711A2800C9B2AA
:1037D000FCF7F4FC013428000499FCF7EFFC202CE2
:1037E000EED1FF2200981D4B6230C0B21A541B1854
:1037F00084331A7009E7324B1C78002C00D176E232
:10380000304B1D78002D65D012AC192220002E49B6
:1038100004F05CFE022D0AD120002C4904F0B7FE12
:10382000DD23237423732000FDF786F8EDE6032DD6
:10383000F9D12000264904F0AAFEE0232373237067
:10384000013323742371EEE7984004409C40044008
:10385000EB0500102B07001004000010B00F001043
:10386000460500101B050010190500101A05001070
:1038700091040010900400104F0500104D05001039
:103880005F050010E40500100B0000105A05001041
:103890005B0500104B050010500500100A000010D9
:1038A000550500107805001080050010000040400C
:1038B000B0050010B8050010000030408B05001066
:1038C0004E050010510500104FB40000D1B30000A8
:1038D000EAB30000A74B1A78A74B1B78002B00D146
:1038E00042E10221A54B1970002A37D0A44B013ABE
:1038F00012019A18A34B106851681B78002B15D140
:103900009468D5680B00020006F01AFD220006003C
:103910000F002B002000290006F012FD02000B0012
:103920003000390005F0CEFD01F056FE0123964C23
:103930000C2223700023FFF723F80021934B217002
:103940001B788B4200D160E602228C4BB2201A70A9
:103950000A008F4B1970FCF7C7FB56E60C215F205D
:10396000FCF7C2FB0122854B894C1A70002323709F
:1039700003F07AFEAF231B01984200DB8548864B9B
:10398000984200DA1800854BAF21C0180A2389003D
:10399000584305F089F8C0B243082C204042C01AB1
:1039A00000227F21C0B2FCF79FFB7D4B1B78002BD0
:1039B00004D000227921EC20FCF796FB794B1B7890
:1039C000002B04D000227921DA20FCF78DFB764B06
:1039D0001B78002B08D06B4B0022187873214342D0
:1039E0005841BD30FCF780FB704B1878002805D09B
:1039F000653000226D21C0B2FCF776FB6C4B1A7863
:103A0000002A00D1B7E300226D214820FCF76CFBAF
:103A1000684B1B78002B08D0674B1B78312B04D8E0
:103A200000226D21D820FCF75FFB644B644A1B78B1
:103A30001278134311D0634B1A78002A0DD1032159
:103A4000614B12A81B78827019409B0841313133B9
:103A5000017043706D21FCF7FBFD01232370524C74
:103A60002378002B03D0594912A804F090FD554B40
:103A70001B78002B03D0564912A804F088FD4F4B49
:103A80001B78002B03D0534912A804F080FD4C4B47
:103A90001B78002B03D0504912A804F078FD4F4B3F
:103AA0001B78002B03D04E4912A804F070FD0122B0
:103AB0006D2112A8FCF7CCFD2478002C10D0494DC4
:103AC000002228686968002305F0EAF800280FD072
:103AD000A868E9680022002305F0E2F8002807D072
:103AE0003E4B1B78002B08D03F4A0CCA134304D02E
:103AF00001227F21E320FCF7F7FA002C08D03B4B92
:103B00001B78FF2B04D001227F21D620FCF7ECFA92
:103B1000374B384A1B7812781343374A12781343CD
:103B2000364A12781343364A1278134304D00122DE
:103B30007F21E220FCF7D8FA284B1B78002B08D015
:103B4000304B1B78002B04D001227F212E20FCF764
:103B5000CBFA2D4B1B78002B00D15BE501227F2196
:103B6000A920FCF7C1FA55E50093002A50D108219D
:103B70000132F4E69404001041050010000000102A
:103B80009804001008000010520500109304001063
:103B900019050010EF0A000034080000CCF7FFFF01
:103BA00048050010560500104E0500104305001092
:103BB0004905001055050010E405001053050010DC
:103BC0005405001044050010B810001037B4000070
:103BD0003CB4000041B4000045B400005C05001096
:103BE0004AB40000D0100010481100100B00001063
:103BF0004D0500105B0500105A0500104B05001024
:103C0000500500100900001040050010012300932A
:103C10006A46D54B12781B780492009A934262D977
:103C200001220499521AD2B207920799CF4A117011
:103C3000009A9B1A013BCE4A1B01D3181E685F688D
:103C40009C68DD68CB4B1B78002B21D132003B00F8
:103C50003000390006F074FB22002B000890099117
:103C60002000290006F06CFB02000B00089809995F
:103C700005F028FC01F0B0FC2200089009912B000F
:103C800030003900FCF7D0FE089E099F04000D00AB
:103C9000049B002B02D10122B74B1A70082230007E
:103CA0003900079BFEF76CFE0022B34B20001A7010
:103CB00029000022002304F0F3FF002805D13B2255
:103CC00020002900079BFEF75BFEAC4B1B78002B06
:103CD00009D0049B002B06D10122A44BB2200499E9
:103CE0001A70FCF701FA009B012B8FD18DE4A44BD5
:103CF0001B78002B4AD09D4E2122210013A834703E
:103D0000129404F004FC012112A8FEF78FFA0500BA
:103D100012A804F034FCC2B2002A10D103217F2083
:103D2000FCF7E2F901233370964A1178964AC900EC
:103D30005218106851680322FEF722FE65E4102D28
:103D400022D92C000627103CE4B229001039611A50
:103D5000794312AB185D033101340022C9B2E4B2D9
:103D6000FCF7C2F9A542F0D2DCE729006143033138
:103D70000022C9B20134FCF7B7F9112CD2D012AB32
:103D8000E05C0028F1D1CDE70625F8E77F4B1C78F1
:103D9000002C02D0FFF7D4F937E47D4B1B78002BC1
:103DA00020D0724D2122210013A82C70129404F00F
:103DB000AEFB210012A8FEF739FA29220CAB9B18A2
:103DC0001C700CAB1A7E002A06D103215F20FCF781
:103DD0008BF901232B70A7E72200032112A8FCF71F
:103DE00037FCF6E76B4B1B78002B00D17CE16A4B6C
:103DF0001B78002B01D0694816E5694A00931278B8
:103E0000002A4AD12021133212A804F080FB2B2172
:103E100000230CAA521813700CAA5F3313762839AA
:103E2000012212A8FCF714FCFFF7EFFB3B4300D084
:103E3000C2E05C4B0CA91A782B235B18002A0AD02D
:103E4000594A1278002A06D10A002A212E23521834
:103E500013700CAA8B183022013B1A7012A8FCF7C1
:103E600053FD0025062412AE300004F088FB854285
:103E700000D229E14D4B1B78002B07D0049B002B6F
:103E800004D101221900B220FCF72EF9009B012B6E
:103E900001D1FFF7BAFB012300936B46404C1B781E
:103EA000009A049323789342F0D90123049A2021A5
:103EB0009B1ADBB20893089A2C4B12A81A70132293
:103EC00004F025FB2B2100220CAB5B181A70009923
:103ED00023785B1A013B3649DB00CB181E685F680C
:103EE00033009742A2DA3C0000275E42A74101233B
:103EF00007932D4B1B78002B60D02B240CAAA41801
:103F00000322002394460CA9163252181800614669
:103F10000133DBB2084202D12021013C21700F2580
:103F2000354028003030392800D927303907350985
:103F3000013C294320703811070008000E00384367
:103F400001D101F023F89442E0D8079B002B05D063
:103F50002D23013C23703E4300D17FE7154912A871
:103F600004F015FB7AE7C046940400101905001010
:103F7000980400100800001052050010930400106F
:103F800054050010B8100010B00E001053050010BA
:103F9000440500105C0500105E05001003B400002D
:103FA0002211001009000010480500102111001016
:103FB00028110010AAB3000007929AE7E04B1D7881
:103FC000002D58D00A2200233000390004F096FE5C
:103FD0000A220C00050039003000002304F08EFE98
:103FE0002A210CAB5B1830321A7021000A22002300
:103FF000280004F083FE29210CAB5B1830321A70C4
:1040000021000A220023280004F078FE0F00282156
:104010002E2306000CAA5218137016AC2D3B32004A
:104020003A4301D100F0B2FF19220CA95218944270
:104030008BD922781D002E2A0AD055225242534392
:104040000135DBB2EDB2552B02D82023013C2370A1
:10405000300039000A22002304F050FE013C3032C7
:1040600000233000390022700A2204F047FE2B00A2
:1040700006000F00D3E72B240CABE41855222B00CD
:10408000524253430135DBB2EDB2552B02D8202307
:10409000013C2370300039000A22002304F02EFE78
:1040A000013C303200233000390022700A2204F033
:1040B00025FE030006000F000B4301D100F066FF50
:1040C00012AB9C42DAD840E72100705D089A77195C
:1040D000FCF70AF83B78202B04D006340135E4B213
:1040E000EDB2C0E60334F9E7012512AC9548FCF7C0
:1040F00023FC03F051FB210011A803F0F5FB924BC8
:104100002A0075213A201D70FBF7EEFF20780A2166
:1041100004F0C6FC3031C8B22A007021FBF7E4FF7E
:1041200026780A21300004F035FCC0B22070092E38
:1041300008D90A2104F0B4FC3031C8B22A006A213F
:10414000FBF7D2FF60780A2104F0AAFC303101228B
:10415000C8B27F21FBF7C8FF0A21607804F01AFC7F
:10416000C0B20A21607004F09BFC3031C8B2012259
:104170007921FFF7F0FB754B1B78002B00D147E44A
:104180006D21682042E401331370FF230393FFF78E
:104190006FFA6F4B1C78002C5ED06E4A1378013397
:1041A000DBB213701D223A70012B01D1FFF760FAC8
:1041B000694E34687568022B0CD1FCF74FFF220062
:1041C0002B0005F07FF9E02230607160634C644B96
:1041D000120613E0032B1BD1FCF740FF0022614BBA
:1041E00006F0AEF802000B002000290006F014FBD8
:1041F000E02230607160594C5B4B120620686168A8
:1042000005F060F920606160FCF7AAFAFFF730FA68
:10421000042B06D1FCF722FF0022524B06F090F847
:10422000CDE7FCF71BFF02000B002000290006F081
:10423000F3FA00224D4B05F081FCE022484B1206B8
:1042400005F07CFCFCF78CFA0122494B1A60404BCC
:10425000009A1A70FF2317E0464B1B780493002B3B
:1042600000D191E03B4E33780133DBB23370022B47
:104270000DD808D1FDF71EFBE02039490006FCF7F8
:104280006FFAFCF787FC1D233B70FFF7F1F9FDF790
:1042900011FBFCF729FD00203749FCF761FAFCF718
:1042A00079FCE0202E490006FCF75AFAFDF702FBE4
:1042B000FCF71AFDFCF7D2FEFCF752FA07000D00DE
:1042C000FDF782FB0022002338002900347004F03F
:1042D000EDFC002802D080231B06ED18E022274CBD
:1042E000380029001E4B1206267804F0DFFC002857
:1042F0000AD1142E0AD8FCF7FDF9FCF7FBF9237854
:1043000001332370FFF7B4F9142E0DD90CA8FCF774
:1043100025FC10221A4912A804F0D8F81298139913
:10432000149A159BFCF7C2F90122114B1A60002266
:10433000104B1A70134BFF321A70FFF799F9C046F1
:10434000090000101CB40000190500104A050010F7
:104350005A050010AB0E001038050010C0100010F8
:104360004D62503F000020404D62603F00002840F9
:10437000040000105B0500100000F0BF6005001095
:1043800068B400005F050010D04B1E78002E6BD083
:10439000CF4B1C780134E6B21E701D233B70012EFA
:1043A00001D1FFF765F9CB4B1C685D68022E0CD17B
:1043B000FCF754FE2B00220005F084F8C54B186072
:1043C0005960C54B186859681EE7C44B1A685B688A
:1043D00000920193032E10D1FCF740FE22002B0027
:1043E00005F070F8BB4B1860596000980199BA4B02
:1043F0001A685B6805F066F806E7162E20D80022DA
:10440000F3071BD58023DB0504920593FCF726FEFA
:10441000049A059B05F094FF22002B0005F052F84A
:10442000AC4B18605960B01E06F0DCFD009A019B91
:1044300005F086FFA84B1A685B68DBE7A84BE3E74B
:10444000FCF70CFE0098019922002B0005F078FF84
:104450000022A44B05F072FBFCF782F90122A24B6B
:104460001A609A4B049AF4E6A04D2B78002B00D1E9
:1044700091E0974B1C780134E4B21C701D233B7013
:104480009B4B1A78002A41D1012C01D1FFF7F0F89B
:1044900091490868496800900191022C0AD1FCF703
:1044A000DDFD944B18605960934B1860596000987B
:1044B0000199A9E6222C24D8FCF7D0FD8E4D0600E8
:1044C0000F0002000B002868696804F003FC002854
:1044D00001D02E606F60874D3200286869683B000C
:1044E00004F0E4FB002801D02E606F60A01E06F0EF
:1044F00079FD7A4B1A685B6805F022FF009A019BF0
:1045000078E773490A7001221A70D0E7012C01D1B3
:10451000FFF7AEF8212C2ED8774B1C685D68FCF7AE
:104520009DFD02000B002000290006F075F9714B7B
:1045300006001A685B680F002000290006F06CF97D
:1045400002000B003000390005F0F8FA00226B4B36
:1045500005F0F6FE00F026FF5D4B694C1D7804F077
:104560001FFC6419023C2070681E06F03BFD5B4B8B
:104570001A685B685CE70CA8FCF7F0FA0CA8FCF77B
:10458000EDFA0123584A2E701360FF223A705D4AFB
:104590001370FFF76DF80A205B4B03211B7858431B
:1045A00003F0F2FCFDF738F93870FFF761F8574B6C
:1045B0001A78002A00D1D8E01D2801D0122832D163
:1045C000534B1B78002B04D10023504A1370FFF784
:1045D0008BF8504B1D782800FBF736FF04002800AD
:1045E000FCF7EAF94C4E300003F0C9FF050020202B
:1045F000FBF72AFF494F021B611E6019C919C01938
:1046000003F0A7FFFE2300253B55300003F0B7FF62
:10461000A842D9D9414A631C9B18725D5A5501358D
:10462000072DF2D1D0E7012804D10F223C4B1A709C
:10463000FFF75AF8022807D13A4A13780B2B01D911
:10464000FFF752F80133C1E7354A042818D005288E
:1046500002D10822324BEAE7062806D1304A137805
:104660000E2B01D9FFF740F8ECE7072802D1002212
:104670002B4BDCE72B4A082802D0182807D12A4AFE
:104680001378002B01D1FFF72FF8013B9EE7192883
:104690000DD1254C2048257803F071FF854201D3C8
:1046A000FFF722F8237801332370FFF71DF8212844
:1046B0003CD11D4C2078002801D1FFF715F80138B6
:1046C000C0B2FDF7A3FD2378013BEDE74B050010D9
:1046D000AB0E0010380500107805001030050010F2
:1046E00000001040000008400400001050050010B9
:1046F00060050010B0050010B805001000002E4045
:104700008B0500104F0500100A0000104605001030
:1047100053050010B81000101B050010EB05001029
:1047200090040010910400101A050010CA4C2000DB
:1047300003F025FFC94B1A780723002A00D10B3359
:10474000984201D3FEF7D0FFC54B1978C54B2031F5
:104750001B781B01C918C44BC9B21A78501C1870B9
:104760002000FBF793FFFEF7BFFFC04B1C78002C27
:1047700000D05CE7BE490B78002B16D0BD4D2B78DE
:10478000002B0ED0021FD1B205290AD8591E0623CC
:104790004B439B18B84A9B009B5898472C70FEF7D8
:1047A000A3FFFCF74FFFFEF79FFFB44D2B78002BC4
:1047B00000D1AEE003001D3B012B01D912280DD121
:1047C00000232B70FCF7DCFFAD4B1878FCF76EFF75
:1047D000AB4B1878FCF76AFFFEF786FFA84B1C78F6
:1047E00018281BD1A74E3578022D08D12000FBF7E1
:1047F0002BFEA54B1B5CFD2BE6D0013D0CE0012DF3
:10480000E2D92000FBF720FE9F4B5B191B18023BEF
:104810001B78FD2BF1D1023D3570D5E7192815D154
:104820009A4B1B78002B6ED12000FBF70DFE954EA6
:10483000954B35781B185B5DFD2B01D10235EBE7FD
:10484000FBF718FEA842BFD90135E5E721283ED184
:104850008C4D2F78002FB7D07E1EF6B2012F31D0AD
:104860002000FBF7F1FD884BDF193F18023F3B7832
:10487000FD2B27D131002000FCF7C4F82978804BAC
:1048800002391878C9B2FCF7BDF82B78013B2B70C0
:104890002B78013BDBB22B70002B95D1784B1E7827
:1048A0003000FBF7D1FD784C235CFF2B8CD001232B
:1048B00030002B70FBF7C8FD235CFD2B84D1FB3B44
:1048C0002B7081E731002000FCF79CF8E0E70B2813
:1048D00008D16C4B1A78511C197012212000FBF77B
:1048E0006DFF71E726280ED1694B1C70694B1A7851
:1048F000694B1A70694B1A78694B1A700122694B1F
:104900001A700023DCE75F4B1A78511C1970010004
:10491000E4E7524A1478002C00D171E1624C23780C
:104920000093002B09D00438C3B2052B03D85F4B8A
:104930008000C35898470023B6E65D4B1B78002BD8
:1049400032D04F4B1D782800FBF77EFD0400280075
:10495000FCF732F8404E300003F011FE0500202035
:10496000FBF772FD484F021B611E6019C919C0197F
:1049700003F0EFFDFE23009D3B55300003F0FFFDEB
:10498000A84207D9404A631C9B18725D5A550135ED
:10499000072DF2D10023464A1370FEF795FB012242
:1049A000444B1A60FEF7A0FE434F3B78002B2AD001
:1049B0000438C4B2052C22D8A02252001000604353
:1049C0003E4B314DC018290003F080FD1F20FBF73E
:1049D0003BFD2B5C3A49A400FF2B0BD00123013C8B
:1049E0000C192818C25CFF2A09D0E2540133052BA8
:1049F000F8D104E02D230B5500230C19637000231C
:104A00003B70FEF771FE2F4E3378002B11D0043827
:104A1000C1B2052907D8A0225200514327480918DE
:104A2000194803F053FDFCF7ABFE00233370FEF78B
:104A30005BFE1E2801D1012336E6082844D100215F
:104A4000164B0F4A19701378032B01D9043BBDE5AF
:104A50001170FEF749FEC0461B05001053050010FB
:104A600090040010910400101A0500104F0500106A
:104A70004E05001051050010D0BA0000540500107A
:104A8000B810001018050010EB05001043050010C9
:104A900088050010B910001089050010BA10001028
:104AA0008A050010560500105805001018BB0000BC
:104AB0004705001004000010590500102B070010D6
:104AC0003D0000105705001002280AD10122D24BE8
:104AD0001A70D24A13781B2B01D9FEF705FE043356
:104AE00074E5042812D1CD4A1378002B01D0013B84
:104AF00013700023CA490B701378DB439B0701D066
:104B0000FEF7F2FD01230B70FEF7EEFD062813D130
:104B1000C24A13781E2B01D8013313700121C04BF8
:104B200019701178032208001040114201D0FEF7DD
:104B3000DBFD1870FEF7D8FD12283DD101232B7044
:104B4000B84BB64F1E783C78002E21D0B64BB74DEF
:104B50001878B74BFD211A78B14B38701A70B54BE5
:104B60001A78AD4B1A702A78531C2B70FBF726FE6F
:104B70002A782100531C38782B70FBF71FFE002386
:104B8000A84A1370FCF7FCFDFEF7DAFAFEF7ACFD5D
:104B90002000FBF781FC071E05D03000FBF792FFD9
:104BA0002E70FEF7A1FDFBF765FCFF2800D1380051
:104BB0009E4B187020000DE61D280DD1974B1878DC
:104BC000FBF742FC9C4B1B5C0020FE2B00D001201D
:104BD000FBF778FFFEF788FD212807D18F4B187867
:104BE000FBF7EAFEFCF7CCFDFEF77EFD252801D1A0
:104BF000012305E7262801D0FEF776FD012315E7FE
:104C00008E4B1F78002F00D1BDE01E280AD18C4AA0
:104C10001C7011788B4A1170804C2078FCF746FD8F
:104C20002078D7E51D2809D101232B70FBF722FC42
:104C3000FF2800D100207D4B1870EDE7122801D02D
:104C40000B2812D1804B12201B78002B00D097E04C
:104C50000120FBF7F9FB04002020FBF7F5FB764968
:104C60000200601803F075FCD6E7212825D1203812
:104C7000FBF7EAFB04002020FBF7E6FB724D020085
:104C80002E786D4B002E14D0661E9E19012C07D96C
:104C900031000232A01E121B181803F017FCBBE7EC
:104CA000013219193000121B03F010FC00232B7085
:104CB000B2E7021B19191800EFE70A2822D82020B2
:104CC000FBF7C2FB604F04003D78002D0DD00120A2
:104CD000FBF7BAFB584F451E0134221AE919C019D7
:104CE00003F037FC33787B5596E7534D02002900DB
:104CF000564803F02EFC33782B70FF236B70FE3B7D
:104D00003B7089E70F283BD80120FBF79DFB009003
:104D10000220FBF799FB04002020FBF795FB07001E
:104D2000009B454DE31A03935B190200290018000C
:104D3000049303F00EFC039A6119280003F0C6FBEC
:104D4000009B6100DE19361BC91A321B4919601914
:104D500003F0BCFB039B3200581E0499401903F07A
:104D6000B5FBA61EBA1C601E121B7119401903F078
:104D7000F0FB0022364B1B78AB55334B1A704BE7D8
:104D8000FBF738FD48E7334C2578002D00D1DDE0F6
:104D9000314C2378002B07D00438C3B2052B00D93F
:104DA000C9E52E4B8000C4E51E2800D143E621282A
:104DB0006DD12B4B1B78002B65D02A4B1B78002B19
:104DC00052D0FBF79FFBFA220023920007000E004F
:104DD00003F094FF0B0005000C00034303D1FBF725
:104DE000A5FBFEF781FC642200233800310003F0AC
:104DF00085FFD3B20A93002321000B936422002382
:104E0000280003F09FFF0A9B0B9CC0186141FBF731
:104E10000BFDFEF769FCC046BA100010B810001078
:104E2000B910001056050010880500101805001074
:104E3000890500108A050010EB05001044050010DC
:104E4000420500104105001045050010ED05001059
:104E50005F0500105C0500105E0500107CBB0000C3
:104E60002111001009000010FBF74CFB4C4B1022E5
:104E70001C7800239C4200D1063A03F03FFF0B0050
:104E80000343C4D1ABE7FBF73DFBFEF72DFC1F2826
:104E900006D1444B1B78022BA1D9FDF7AEF89EE753
:104EA00013280ED1FBF72EFB03F0D4FF00F094FB88
:104EB00000223D4B05F044FA03F090FFFBF7B4FCF1
:104EC0008DE7202806D1374B1B78012B87D9FDF7BA
:104ED000AEF884E7252804D1FBF714FB334B03C35A
:104EE000ECE7262803D1314B18685968E6E7162805
:104EF0001AD12C4C2378012B01D9FDF798F8FBF738
:104F0000B1FC2378022B01D9FDF777F8FCF70AFFF3
:104F1000274B64201B78002B00D026480021FBF78C
:104F200083FCFBF7C7FC5AE7122801D9FEF7DCFB2C
:104F3000214B8000C358984733780A2B01D8FEF7DD
:104F4000D3FB122B01D1FEF7CFFB48E7072800D196
:104F5000D8E508280AD11949194A087810700022A2
:104F60000A7001211970174BFFF761FB092808D15E
:104F7000124B134918780870002119700123FFF7AC
:104F800025FB042801D0FEF7AFFB54E5079B002664
:104F90000027002B01D0FEF7DBFFFEF75FFFC046C6
:104FA0004805001022110010000024404811001094
:104FB000090000101027000030BB00004105001060
:104FC00042050010B8100010F8B54E465746454649
:104FD000DE46A34BE0B54E00804689468A467608F9
:104FE0009E421CDD9F4B9E4209DC06D05346002B9F
:104FF00000DCBAE09C4B9D4A09E00028F6D042460E
:105000004B464046494604F05DFA03000A0018008A
:105010001100F0BCBB46B246A946A046F8BD944B71
:105020009E4200DDA4E0934B9E4200DC8FE0012312
:105030005B429B4642464B464046494605F080F956
:1050400002000B0006000F0005F07AF904000D00C5
:10505000894A8A4B05F074F9894A8A4B04F032FA7E
:1050600022002B0005F06CF9874A884B04F02AFADD
:1050700022002B0005F064F9854A864B04F022FAE1
:1050800022002B0005F05CF9834A844B04F01AFAE5
:1050900022002B0005F054F9814A824B04F012FAE9
:1050A00032003B0005F04CF97F4A804B06000F00B0
:1050B0002000290005F044F97D4A7E4B05F0ACFB49
:1050C00022002B0005F03CF97B4A7C4B05F0A4FB49
:1050D00022002B0005F034F9794A7A4B05F09CFB4D
:1050E00022002B0005F02CF9774A784B05F094FB51
:1050F00022002B0005F024F90B0059460200013173
:105100005CD059463000CC00390004F0DBF942464F
:105110004B4605F015F96E4D6E4B2D191C19226882
:10512000636805F079FB42464B4605F075FB0200CB
:105130000B002868696805F06FFB030050460A0001
:10514000002800DB63E7802212068A185FE7624AC4
:10515000624B04F0B7F90022614B03F0BBFD00285D
:1051600000D164E743464A4651E73F4B5D4A4EE76C
:1051700000F014F95C4B04000D009E422FDC5B4BE9
:105180009E4255DC02000B0004F09CF90022544BB7
:1051900005F042FB802306000F000022DB05200003
:1051A000290004F08FF90B0002003900300004F0F0
:1051B000C5FC0023804689469B463BE7300039000A
:1051C00004F080F942464B4605F0BAF802000B00A5
:1051D0004046494605F020FB03000A0017E7444B10
:1051E0009E421ADC0022434B05F016FB002206000B
:1051F0000F00404B2000290005F0A2F80022384B98
:1052000004F060F90B0002003900300004F096FC55
:105210000223804689469B460CE70B000200364974
:10522000002004F08BFC0323804689469B4601E75F
:1052300000222B4B05F0F0FA002206000F00284B4D
:105240002000290004F03EF90B0002003900300074
:1052500004F074FC0123804689469B46EAE6C0467A
:10526000FFFF0F440000F07F182D4454FB21F93F4D
:10527000FFFFDB3FFFFF1F3E11DA22E33AAD903F15
:10528000EB0D76244B7BA93F513DD0A0660DB13F7D
:105290006E204CC5CD45B73FFF8300922449C23FE5
:1052A0000D5555555555D53F2F6C6A2C44B4A2BFAA
:1052B0009AFDDE522DDEAD3F6D9A74AFF2B0B33F72
:1052C000711623FEC671BC3FC4EB98999999C93FEA
:1052D00098BB0000B8BB00009C7500883CE4377E9A
:1052E0000000F03FFB21F9BFFFFFF23FFFFFE53F6A
:1052F000FF7F03400000F83F0000F0BFD0B5254A13
:105300004B0086B05B08934222DD234A934209DDBD
:1053100002000B0005F080FA02000B0010001900DB
:1053200006B0D0BD02AA00F02BFD03231840049A5A
:10533000059B012813D0022822D0002819D00298FA
:1053400003990124009401F075FD02000B00E5E7CC
:105350000022002300F0F4FF02000B00DEE70090C3
:105360000298039901F066FD80231B060200CB180A
:10537000D4E70298039900F0E3FF02000B00CDE7A9
:105380000298039900F0DCFF80231B060200CB1873
:10539000C4E7C046FB21E93FFFFFEF7F4B00590800
:1053A0007047C046F8B504004A000B0008002649C3
:1053B000520D5118270013291ADC002912DB234A49
:1053C00026000A41100018401D00204307D080200D
:1053D000000308410024C018904326000500300057
:1053E0002900F8BDDB0FD8074B1C28D00024F4E7B8
:1053F00033290DDD802226001D00D2009142EED11E
:1054000022002000190004F05DF806000D00E6E718
:105410000F4D2600AC46012562446D42D540AC4696
:1054200062461D002242DAD03322511A323A8A40B3
:105430001419A74200D9581C63469C43CDE7054B7D
:1054400000241843C9E7C04601FCFFFFFFFF0F001F
:10545000EDFBFFFF0000F03FD0B5264A4B0086B0C1
:105460005B08934222DD244A934209DD02000B00CF
:1054700005F0D2F902000B001000190006B0D0BDF3
:1054800002AA00F07DFC03231840049A059B012822
:1054900015D0022823D0002818D00298039900F0D4
:1054A0004FFF80231B060200CB18E5E700230022F4
:1054B0000093002301F0BEFC02000B00DCE7029821
:1054C000039900F03DFF02000B00D5E7012402988C
:1054D0000399009401F0AEFC02000B00CCE701241C
:1054E00002980399009401F0A5FC80231B0602009A
:1054F000CB18C1E7FB21E93FFFFFEF7FF8B50400C0
:105500000D0000F091F806000F002000290001F0C6
:1055100079FD00280FD0200029000F4A0F4B03F01F
:10552000D9FB00280AD1200029000D4A0D4B03F0B9
:10553000BDFB002809D130003900F8BD05F000FF9F
:1055400022230026084F0360F5E705F0F9FE222329
:10555000002600270360EEE7EF39FAFE422E864070
:1055600051302DD5104987C00000F07FF8B50400F8
:105570000D0000F00BFA220006000F002B002000A7
:10558000290005F0DBFC002815D1002200232000B3
:10559000290003F09FFB00280DD1002200232000EA
:1055A000290003F07DFB002808D005F0C9FE222366
:1055B0000026074F036030003900F8BD05F0C0FE3B
:1055C00021230360034801F0C3FD06000F00F2E74A
:1055D0000000F0FFD8BB0000F8B504000D0000F09B
:1055E000D7FD220006000F002B002000290005F047
:1055F000A5FC002807D1002200232000290003F089
:1056000055FB002802D130003900F8BD05F098FEA6
:1056100021230022036000231000190004F08EFAF9
:1056200006000F00EFE7C046F0B5D64600B54B00C8
:105630000E00CC0FB549070088B05B088B420FD92C
:10564000B3498B4229D93203120B024300D040E107
:1056500005003300002C00D11CE10025002319E1D6
:10566000AC4A934200D91BE1AB4A934200D9BCE05B
:10567000AA4AAB4B310003F025FF0022A94B03F0EF
:1056800029FB002800D1B0E00022A64B38003100F1
:1056900003F018FF05000B00FCE03100A24AA34B09
:1056A00003F018FB002800D016E138003100A04AB2
:1056B000A04B03F0FBFA002800D021E19E48E40053
:1056C00004199E4A9E4B3800310004F039FE2268CE
:1056D000636803F0F7FE05F04FFC824605F082FC9C
:1056E000984A994B04000D0004F02AFE02000B00BA
:1056F0003800310005F090F8944A02900391944BE1
:105700002000290004F01CFE04900591049A059BDA
:105710000298039905F080F802000B0007000E00C4
:105720000090019104F00CFE04000D00894A8A4BA0
:1057300004F006FE894A8A4B05F06EF822002B0021
:1057400004F0FEFD874A884B03F0BCFE22002B00CC
:1057500004F0F6FD854A864B05F05EF822002B002A
:1057600004F0EEFD834A844B03F0ACFE22002B00D4
:1057700004F0E6FD0B0002000098019905F04CF8DA
:10578000534604000D0006940795002B61D00200DB
:105790000B000098019904F0D3FD0F008021060052
:1057A00022002B000020C90505F036F802000B008E
:1057B0003000390004F0C2F902000B00049805998A
:1057C00005F02AF8029A039B05F026F80B00020068
:1057D0005449002005F020F8684B9A4500DA81E032
:1057E000544624050500631854E03A00330038009D
:1057F000310004F0A5FD04000D00564A564B04F09C
:105800009FFD564A564B05F007F822002B0004F086
:1058100097FD544A544B03F055FE22002B0004F030
:105820008FFD524A524B04F0F7FF22002B0004F088
:1058300087FD504A504B03F045FE22002B0004F038
:105840007FFD02000B003800310004F0E5FF0690F8
:105850000791069A079B3800310004F071FD802300
:105860000D000400069807990022DB0504F0D4FF20
:1058700002000B002000290004F060F93A00330018
:1058800004F0CAFF0B0002002649002004F0C4FF08
:1058900005000B002800190008B080BCBA46F0BD16
:1058A000374A934200D909E7364BE5005B191A687D
:1058B0005B68310004F0B0FF029003910120324B8D
:1058C000001B5B191A685B6804920593031B9A46D8
:1058D0001CE702003300D9E6002001F08BFB050035
:1058E0000B00D7E7FA24A4005444240563181900D8
:1058F000B82300225B0404F023FD05000B00C9E778
:10590000002001F06FFB05000B00C3E7412E86402D
:10591000FFFFEF7F422ED63FFFFFEF3D9C750088D3
:105920003CE4377E0000F03FEF39FAFE422E86401D
:1059300051302DD5104987C0E0BB0000FE822B6599
:105940004715F73F0000E0FE422EE63F763C7935F2
:10595000EF39EA3DD0A4BE726937663EF16BD2C51D
:1059600041BDBB3E2CDE25AF6A56113F93BDBE162E
:105970006CC1663F3E5555555555C53F03FCFFFF6D
:10598000B1A2F03FF0BB000000BC0000F0B5D6466D
:105990004F4646468022C0B50B0088B05203914264
:1059A00055DA4A005208024300D1EBE0002900DA40
:1059B00023E1D64B002204F0C3FC3625D44C0B0067
:1059C0006D42A34247DCD34C1A151B031B0B9846B0
:1059D000A4468024D04B640343442340CF4C62440C
:1059E00052195C4045461B1599462543CB4B29006F
:1059F0009144002204F010FF434602331B030600CB
:105A00000F0000221B0B022B2FDC002303F048F9B0
:105A1000002800D1BDE04B46002B00D148E14846AC
:105A200005F0E0FABE4ABF4B04000D0004F088FC0C
:105A3000BD4A06000F0020002900BC4B04F080FC8A
:105A400002000B003000390003F03CFD07E0B04CD1
:105A50000025A342B7DD02000B0003F033FD08B0C0
:105A6000E0BCBA46B146A846F0BD8023DB0503F092
:105A700029FD02000B003000390004F05FF804003B
:105A800048460D0005F0AEFA22002B000490059167
:105A9000200029000294039504F052FCA44B02005C
:105AA00043449A460B000090019104F049FC040025
:105AB0000D00A04AA04B04F043FCA04AA04B03F009
:105AC00001FD22002B0004F03BFC9E4A9E4B03F09C
:105AD000F9FC22002B0004F033FC9C4A9C4B03F0A1
