:10000000F0230010659000006390000063900000F2
:100010006390000063900000639000000000000007
:1000200000000000000000000000000063900000DD
:10003000639000000000000063900000B58600009F
:10004000C5840000C5840000C5840000C58400008C
:10005000C5840000C5840000C5840000C58400007C
:10006000C5840000C5840000C5840000C58400006C
:10007000C58400006190000061900000458D000083
:100080005187000069870000818700009987000080
:1000900061900000B1870000619000006190000055
:1000A000619000006190000061900000619000008C
:1000B000619000006190000061900000619000007C
:1000C000552243084000904313400343DBB2223AD9
:1000D00098089B00104093430343DBB218091B01AF
:1000E0001843C0B2704700000523F0B520384343E1
:1000F00089B004932D4B00271B78019105932C4B5D
:100100001B7800938423534306932A4B049A019D42
:10011000D318DB5D1C000293059B9C400023E4B2D6
:100120000393009B019A9B18DBB29D4239D0069B3A
:100130000026EA18204BD318079325E00195E4E741
:10014000009B022B18D10299B30019410B000F211B
:100150000B409C00234324310B405C001C4355237F
:100160001C4063001C436400E4B2002A13D0039BCC
:10017000002B01D001231C432000FFF7A1FF8423A3
:100180007343079A0136D054009BF2B29A42D7D3F8
:100190000135EDB2C5E763B2002BEDDA012303931D
:1001A000EAE70137052FC9D109B0F0BD610600109B
:1001B0001B000010B4BE000020120010F8B50A4B5E
:1001C00005001B780C0016000C27022B00D0063F00
:1001D0002878002800D1F8BD21003200E419FFF78B
:1001E00083FF0135E4B2F3E71B00001010B584244F
:1001F000CB085C43842324185B009C420BDA01206B
:10020000023BFF3B19408840C0B2FFF759FF024B49
:100210001A5D1043185510BD2012001070B5114B17
:1002200001201B78002B1BD00F4A013B1B01D31868
:100230009D68DC68002200232800210009F0C8F82E
:10024000002802D080231B06E418084A084B280027
:10025000210009F0D1F8030001205A1E93415840B3
:1002600070BDC046DC050010E00500103EC3D84E4E
:100270007D7F612B704700000023034A1370034AFF
:100280001370034A13707047DA05001095060010CA
:10029000DB050010024A137859424B411370704736
:1002A000890600100023044A1370044A13700122C7
:1002B000034B1A707047C046930600109206001058
:1002C0008C0600100023044A1370044A13700222A3
:1002D000034B1A707047C046930600109206001038
:1002E0008C0600100023034A1370034A1370034A5C
:1002F0001370704793060010920600108C060010D1
:10030000024A137859424B4113707047910600100E
:100310000122034B1A700022024B1A707047C0462C
:10032000920600108C0600100122034B1A70002266
:10033000024B1A707047C046930600108C060010DE
:100340000122014B1A707047980600100849094AAB
:100350000B78002B05D01078074B1B18FF20013BB2
:100360001870002301200B70044913700870704747
:10037000A1060010580800103B000010990600105C
:10038000024A137859424B41137070479D06001082
:100390000222034B1A700022024B1A707047C046AB
:1003A0009D0600108C0600100322034B1A700022D9
:1003B000024B1A707047C0469D0600108C06001054
:1003C0000022014B1A7070479A0600100022034B5E
:1003D0001A70034B01321A707047C046580800105B
:1003E000A106001000230F4A70B513700E4A1024A6
:1003F0001370002300220D4E0D4930000A604B603F
:100400008A60CB60220008F0F3FB0A4D3100220025
:10041000280008F0EDFB29002200074808F0E8FB5F
:1004200070BDC046DC0500103813001070130010BA
:100430008013001060130010501300100122034BB2
:100440001A700022024B1A707047C046200000103C
:100450008C0600100023024A1370024A1370704782
:10046000200000108C0600100122014B1A7070470A
:10047000A50600100122014B1A7070479706001064
:1004800010B5021C202800D92022002003000649B4
:10049000D2B2934200D310BD0C5CFF2C01D10133CA
:1004A000DBB20130F5E7C0465F08001070B5074BBE
:1004B0001D78681CC0B2FFF7E3FF04002800FFF7B7
:1004C000DFFF013C201AC0B270BDC04628130010E7
:1004D00010B5FFF7D5FF034B185CFE384342584177
:1004E000C0B210BD5F080010034B1A78034B1A709E
:1004F0000022034B1A7070478A060010890600100C
:100500009F06001010B50A4B1878FFF7B9FF0023BB
:10051000084A12180848D45CD9B2FF2C02D0242B08
:1005200003D11900FF23435410BDC4540133F2E733
:10053000281300105F08001034080010074A00203C
:1005400013780021002B07D0013BDBB21370044A63
:10055000DB00D318186859687047C046931900101B
:10056000981900100023034A1370034A1370034ABA
:1005700013707047AA06001091190010921900100C
:10058000044A137859424B4113700022024B1A70EF
:100590007047C0462100001091060010054B1A78E4
:1005A000002A02D000221A70704701211970024BF4
:1005B000F9E7C04691060010210000100022014B0F
:1005C0001A707047A906001002000020030010B541
:1005D000074C934204D2215C002901D0FF2800D1AE
:1005E00010BD0130C0B20A29F3D10133DBB2F0E70C
:1005F000850000100023054AD15C581C002901D059
:10060000FF2B01D1C0B27047C3B2F5E785000010DF
:10061000002318000649CA5C002A01D0FF2B00D134
:1006200070470133DBB20A2AF5D10130C0B2F2E7DC
:1006300085000010084B400070B5C45C1B185D7845
:1006400020002900002207F043FE2900012220009B
:1006500007F08AFE70BDC046F4C200000122F8B562
:1006600008210600100007F07FFE0724082700225B
:100670003900012007F078FE3200012522410221D5
:1006800000202A4007F070FE2A003900280007F0F9
:100690006BFE013CEBD2F8BD002210B50400110046
:1006A000022007F061FE2000FFF7D8FF10BD000018
:1006B000A022FF21520010B5094808F0BAFA202301
:1006C00000200021074A013BDBB203C2002BFAD114
:1006D000054A1370054A1370054A137010BDC046D1
:1006E0005F08001020110010281300102A130010BA
:1006F00029130010F8B5551C86180C001700451971
:1007000008F0CFFAC21B31002800013208F0B3FA1A
:100710003470F8BD30B50E4C85B0039323780D4D81
:10072000009001910292072B07D9702228000A49F4
:1007300008F0A1FA2378013B237020781022431C93
:10074000000169462818237008F052FA05B030BD40
:10075000DC050010E0050010F005001010B50B4B93
:10076000197800290BD00A4C0A4B013909011022D3
:100770002000591808F03CFA0FCCFFF7CBFF0023FC
:10078000054A1370054A137010BDC046DC05001001
:10079000B0060010E0050010DB050010DA050010BF
:1007A00010B5FFF7DBFFFFF7D9FF0122034B1A70EB
:1007B0000023034A1370034A137010BDA7060010EC
:1007C000AD0600101F11001030B5002204000D000E
:1007D000002385B00094019502920393009801993B
:1007E0000022039BFFF796FF2000290005B030BDD3
:1007F000C02010B50249C005FFF7E6FF10BDC04696
:10080000FB210940802110B50020C905FFF7DCFF5E
:1008100010BD00001FB500220023009201930022AA
:100820000020054B019902920393039B0200FFF7FE
:1008300071FF05B000BDC0460000F03F10B5024B8F
:100840000FCBFFF767FF10BDB006001010B5024BCD
:100850000FCBFFF75FFF10BD40130010F8B5070086
:1008600020200E001400FFF70BFEA02305005B0004
:1008700098420BD23800FFF703FE24182A1B044DC0
:10088000601C6119401908F0F6F92E55F8BDC046F4
:100890005F080010F8B506000120FFF7F1FD471EC4
:1008A00004002020FFF7ECFD054D0130021B7919F3
:1008B000601908F0E0F90022024BEE551A70F8BDFD
:1008C0005F0800108E060010F8B50C4F06003B784C
:1008D0000D000B4C032B08D92100182220000831F1
:1008E00008F0C9F93B78013B3B703B785A1CDB00B0
:1008F000E4183A7026606560F8BDC0469319001090
:100900009819001010B5094B1B78002B07D0084A26
:10091000013BDB00D31818685968FFF7D5FF0023A7
:10092000044A1370044A137010BDC0469319001096
:1009300098190010AA0600109219001010B5FFF7C0
:10094000FDFD002342428B4110001900FFF7BCFF60
:1009500010BD000070B5FFF7F1FD05000C00FFF7BA
:10096000EDFD074B1B78002B03D06422002308F019
:100970007BFD2A00230008F053FDFFF7A5FF70BDA3
:100980002100001070B5FFF7D9FD0D000400FFF73E
:10099000D5FD00196941FFF797FF70BD10B5FFF74E
:1009A000CDFFFFF7EFFF10BD70B5FFF7C7FD0500E6
:1009B0000C00FFF7C3FD28402140C043C943FFF7A7
:1009C00083FF70BDF8B504000025074E8322330075
:1009D00083331F7831000548013508F04CF9377032
:1009E000A542F2D1F8BDC04620120010211200101D
:1009F000F8B5040008F055F90023C7B2661EDAB254
:100A0000E118BA4203D25A1CB55C202D06D0C2B2FE
:100A1000D21A2000013208F0EBF8F8BD1300EEE71F
:100A200070B5851808000C0008F03BF921000200A1
:100A3000280008F0DDF870BDF0B5002489B003226D
:100A40001A49019004AF03A83C7108F0D1F80622BE
:100A5000174906A808F0CCF8E5B20321280008F0F1
:100A60002BFB144BC6B21E70019BA1005918042227
:100A7000380008F0BDF82800032108F0A3FB03AB01
:100A8000C9B25D5C06ABE05C290080383200C0B2C0
:100A90000635FFF729FB013432003800E9B2FFF7D1
:100AA0008DFB062CD8D109B0F0BDC046BCBA000001
:100AB000C0BA00006106001070B5C2000400002139
:100AC00000200E4B9B18186059602000FFF7D8FCDF
:100AD0000B4E0500335CFF2B0ED00134E0B2FFF764
:100AE000CFFC04002020FFF7CBFC611E0130021B6D
:100AF0008919A81908F07CF870BDC04620110010B3
:100B00005F08001010B50C00FFF7BAFC2418202075
:100B1000FFF7B6FC021B0348611C0918201808F0F7
:100B200067F810BD5F080010F8B505000026064CF8
:100B300083222778200005498334013608F058F8CD
:100B40002770AE42F3D1F8BD201200102112001020
:100B5000F8B5124B1F78781CC0B2FFF735FD104D69
:100B6000041E104E0CD10A2330702B7068703000B8
:100B700008F097F801220C4B18700C4B1A70F8BD56
:100B80003800FFF721FD241A013C2918220030000B
:100B900008F02EF800233355E9E7C0469013001003
:100BA0008500001063060010620600108F0600101A
:100BB00010B58424C2B0640022006846044908F0DD
:100BC00017F822006946034808F012F842B010BD39
:100BD000C0BB000020120010F7B516001F00020075
:100BE0000B00009001913000390009F039FB04F04E
:100BF0007DFD0022154B09F035FFC022144BD205B4
:100C000009F02EFB002204000D000098019900233A
:100C100008F0DEFB00280FD000220023300039004E
:100C200008F0D6FB0022094B002809D0200029003B
:100C30000AF084F904000D002000290003B0F0BD83
:100C40002000290008F0D0FFF4E7C046008066408D
:100C5000FB21094013B507F031F901A9684607F0F7
:100C6000D5F96B46587908F071FF084908F056FE2F
:100C70006B46041C187908F069FF011C201C08F061
:100C8000AFFC0AF097FDFFF79FFD13BD0000C842BF
:100C900010B507F07BF808F059FF044908F03EFE54
:100CA0000AF088FDFFF790FD10BDC04600007A44B1
:100CB0000023F7B5114F124D3B702B70984218D19D
:100CC000104B01241878FFF7DBFB0F4E3618335D0D
:100CD000FF2B0AD06A46137100232800537101A923
:100CE00001340AF0C5FE082CF1D1280007F0D9FF25
:100CF00038700122054B1A70F7BDC046620600101D
:100D000063060010281300105F0800108F06001003
:100D100010B50B4904000020002C0CDC013464B237
:100D2000012C0CD00022074B09F09AFAF6E70022BA
:100D3000044B09F097FE013C64B2631CF7D110BD6F
:100D40000000F03F0000244010B50B4B0400197860
:100D500000290AD00139C9B21970084B09011022C3
:100D6000591807F045FF200010BD00220023026043
:100D700043608260C360F6E7DC050010E005001008
:100D800000B58DB06846FFF7DFFF04A8FFF7DCFF72
:100D9000009A019B0498059908F026FF029A039B8C
:100DA000089009910698079908F01EFF0A900B9188
:100DB0000A9A089809990B9BFFF7ACFC0DB000BD8F
:100DC00010B500200249FFF7FFFCFFF7D9FF10BD67
:100DD0000000F03FF0B589B06846FFF7B5FF009C12
:100DE000019D029E039F22002B003000390009F074
:100DF00037FA32003B0009F035FE22002B0008F0E4
:100E0000F3FE02000B000020114909F029FA32001C
:100E1000049005913B002000290009F021FA2200EE
:100E20002B0009F01FFE32003B0008F0DDFE02003F
:100E30000B000020074909F013FA06900791069A63
:100E400004980599079BFFF765FC09B0F0BDC04603
:100E50000000F03F0000F0BFF0B593B006A8FFF728
:100E600073FF069B079C0AA800930194089C099DA8
:100E7000FFF76AFF0A9E0B9F0C9A0D9B0098019941
:100E80000292039332003B0009F0ECFD029A039BAF
:100E9000049005912000290009F0E4FD02000B00F8
:100EA000049805990AF04AF832000E900F913B0021
:100EB0002000290009F0D6FD029A039B04000D00D2
:100EC0000098019909F0CEFD02000B0020002900D6
:100ED00008F08AFE10901191109A0E980F99119BAC
:100EE000FFF718FC13B0F0BD10B5FFF773FFFFF765
:100EF000B3FF10BD064B10B50FCBFFF70BFC054B36
:100F000018780AF031FCFFF75FFCFFF7EDFF10BD2A
:100F1000501300103813001010B5FFF71FFCFFF737
:100F20009BFF10BD10B500200249FFF74DFCFFF7F5
:100F300093FF10BD0000594000B589B06846FFF727
:100F400003FF009A019B80200399049205930006F9
:100F5000029A0B180692079304980599069A079B24
:100F6000FFF7D8FB09B000BD00B589B06846FFF7B0
:100F7000EBFE029A039B04920593009A019B069252
:100F8000079304980599069A079BFFF7C3FB09B0DE
:100F900000BD00001FB5064C6846FFF7D5FE694648
:100FA0001022200007F024FE0FCCFFF7B3FB1FBD7B
:100FB0004013001000B589B004A8FFF7C5FE0498DF
:100FC00005990AF06BFB40B2FFF7A2FE0022002356
:100FD0000090019102920393009800220199039BD3
:100FE000FFF798FBFFF738FF09B000BDF0B504002C
:100FF0003E4D8DB00A281CD13D4B1B78002B18D1DB
:101000003C4B1A78002A01D101321A702B78002B40
:101010000DD1394C2378002B02D06846FFF794FE9F
:1010200000200021FFF7D0FB012323702B700DB0AF
:10103000F0BD2B78002B0ED12F4E3378002B02D031
:101040006846FFF781FE20000AF08EFBFFF7BCFB2D
:1010500001233370EAE7274E3578002D21D004A80C
:10106000FFF772FE6B1C68B23370FFF751FE06008B
:101070000F0020000AF048FB32003B0009F0F0F8B6
:10108000049A059B08F0B0FD002400230890099104
:101090000A930B94089809990A9A0B9BFFF73AFB5D
:1010A000C5E708A8FFF750FE08980999104B0022E1
:1010B0001B78002B18D1114B09F0D4FC060020003E
:1010C0000F000AF021FB02000B003000390008F08D
:1010D0008BFD002400230490059106930794049847
:1010E0000599069A079BD9E7054BE5E7DB05001054
:1010F00091060010DA05001095060010000024404B
:101100000000304010B5064B1B78002B03D00122A5
:10111000044B1A7010BD0A20FFF768FFFAE7C046BB
:10112000910600108806001010B50920FFF75EFF39
:1011300010BD10B50820FFF759FF10BD10B50720EE
:10114000FFF754FF10BD000010B5054C0F202378A9
:10115000002B00D10938FFF749FF0023237010BD91
:101160008806001010B5054C0E202378002B00D106
:101170000938FFF73BFF0023237010BD88060010DD
:1011800010B5054C0D202378002B00D10938FFF74E
:101190002DFF0023237010BD8806001010B5054CEC
:1011A0000C202378002B00D10938FFF71FFF002304
:1011B000237010BD8806001010B5054C0B20237855
:1011C000002B00D10938FFF711FF0023237010BD59
:1011D0008806001010B5054C0A202378002B00D19A
:1011E0000938FFF703FF0023237010BD88060010A5
:1011F00010B50020FFF7FAFE10BDF0B589B06846C3
:10120000FFF7A2FD00980199029C039D04F008FDE0
:1012100006000F002000290004F002FC32003B0011
:1012200009F020FC049005912000290004F0A6FCA0
:1012300032003B0009F016FC06900791069A0498CC
:101240000599079BFFF766FA09B0F0BD10B5FFF7E7
:10125000D4FFFFF783FAFFF7BDFDFFF791FDFFF71E
:10126000D1FAFFF741FE10BD1FB5074B1B78002BCD
:1012700006D06846FFF768FD0098019905B000BDEB
:1012800000200021FAE7C046DC05001010B5FFF78A
:10129000EBFF0AF003FA9423421F5B009A4201D24B
:1012A000014B187010BDC0462200001010B5FFF7AA
:1012B000DBFF08F025F908F05FF9FFF785FA10BDAC
:1012C00070B5FFF7D1FF05000C00002200232800B5
:1012D000210008F07DF8002802D080231B06E418C6
:1012E00028002100FFF770FA70BD000010B5FFF76D
:1012F000BBFFE0220B4B120609F020FEFFF764FA59
:10130000094B0A4A1860596000210020084B1860F8
:101310005960002301211370064A1170064A1370A8
:1013200010BDC0464D62603F301300101F11001009
:1013300080060010A60600108C06001010B52022B2
:101340000021134807F075FCFFF78EFF114C206059
:101350006160FFF789FFFFF737FA02000B000E49C3
:101360000A604B602068616809F0E8FD00220B4BC1
:1013700008F076FF01220A4B18605960094B1A7079
:101380000023094A1370094A1370094A137010BDEB
:10139000D4060010C8060010C006001000003F4030
:1013A000780600109C0600108C060010AD06001098
:1013B0001F11001010B5FFF757FF8022034B1206D4
:1013C00008F04EFFFFF700FA10BDC0465347E13F5B
:1013D00010B5FFF749FFE022034B120608F040FF6B
:1013E000FFF7F2F910BDC04645E2E33F10B5FFF745
:1013F0003BFF8022034B120609F034FBFFF7E4F9B0
:1014000010BDC046EB51044010B5FFF72DFF002280
:10141000024B09F027FBFFF7D7F910BD86480E40B5
:1014200010B5FFF721FF0022054B09F087FDC02210
:10143000044B120608F014FFFFF7C6F910BDC046B2
:1014400000004040CCCCFC3F10B5FFF70DFF8022E0
:10145000034B920508F004FFFFF7B6F910BDC04634
:1014600011A3014010B5FFF7FFFE0022054B09F064
:10147000F9FAC022044BD20508F0F2FEFFF7A4F9F6
:1014800010BDC04600806640FB210940F7B5FFF75C
:10149000EBFE1D4A1D4B08F0A7FB0D0004000AF0EF
:1014A000FDF80AF031F90090019102000B002000D4
:1014B000290009F043FD0022154B09F0D3FA0D0075
:1014C00004000AF0EBF80AF01FF906000F00020012
:1014D0000B002000290009F031FD00220C4B09F01F
:1014E000C1FA00220B4B08F0BBFE32003B0008F0B3
:1014F0007BFB0022074B08F0B3FE009A019B08F02B
:1015000073FBFFF761F9F7BDBBBDD7D9DF7CDB3DCE
:101510000000594000004E40F8B5FFF7A5FE060058
:101520000F00FFF7A1FE07F0EBFF05000C003000F5
:10153000390007F0E5FF28402140C043C94308F0C7
:101540001BF8FFF741F9F8BDF8B5FFF78DFE07F07E
:10155000B9FFC4B2FFF788FE07F0B4FFC5B20020A0
:101560002C1B0B49E4B20134FFF72EF9631EDBB2EA
:101570009D4200D8F8BDFFF777FE06000F0020005F
:101580000AF0C2F832003B0009F06CFAEBE7C04603
:101590000000F03FF8B5FFF767FEFFF715F907F019
:1015A00091FF0124C5B2FFF7CFFFAC4200D9F8BDCF
:1015B000FFF75AFE060020000F000AF0A5F802000F
:1015C0000B003000390008F04BFE0134FFF7FCF847
:1015D000E4B2EAE710B5FFF747FE8022034B12069C
:1015E00009F040FAFFF7F0F810BDC0465347E13F5D
:1015F00010B5FFF739FEE022034B120609F032FA6C
:10160000FFF7E2F810BDC04645E2E33F10B5FFF733
:101610002BFE8022034B120608F022FEFFF7D4F8BF
:1016200010BDC046EB51044010B5FFF71DFE00226F
:10163000024B08F015FEFFF7C7F810BD86480E40B4
:1016400010B5FFF711FEC022054B120609F00AFA89
:101650000022044B08F0C8FAFFF7B6F810BDC046E8
:10166000CCCCFC3F0000404010B5FFF7FDFD8022D0
:10167000034B920509F0F6F9FFF7A6F810BDC04636
:1016800011A3014010B5FFF7EFFDC022054BD205B5
:1016900009F0E8F90022044B08F0E2FDFFF794F8A6
:1016A00010BDC046FB21094000806640F0B585B002
:1016B000FFF7DAFD0022284B09F0D4F9274A284B1E
:1016C00008F092FA0022244B04000D0008F0C8FD37
:1016D00009F0E4FF0AF018F800221F4B0090019176
:1016E00009F0C0F90290039102000B0020002900CC
:1016F00009F024FC00221B4B08F0B2FD09F0CEFFDC
:101700000AF002F80022174B06000F0009F0AAF9B0
:1017100002000B002000290009F010FC029A039B34
:1017200009F00CFC0022104B08F09AFD0022040086
:101730000D00300039000D4B08F092FD009A019B1E
:1017400008F052FA02000B002000290008F04CFAC1
:10175000FFF73AF805B0F0BD0020AC40BBBDD7D9CB
:10176000DF7CDB3D00004E400088C3400000594054
:1017700030B5264A264B12781B7885B0002A19D03E
:10178000002B0ED0FFF770FD0022224B09F06AF902
:1017900007F0B6FE0B00034335D1FEF76DFD05B033
:1017A00030BD6846FFF7D0FA102269461A4807F0A4
:1017B0001FFAF4E7002BF4D0184A107800281BD049
:1017C000431EDBB21370002BE9D0023840B2FFF7A2
:1017D0009FFA04000D00FFF747FD22002B0009F0DF
:1017E00041F907F08DFE07F0C7FE22002B0008F03C
:1017F00037FDFEF7E9FFD2E7FFF736FD0022084B81
:1018000008F02EFDC4E707F0B7FEF2E791060010DE
:10181000DB0500100000B03FB0060010DA05001034
:101820000000244010B5FFF71FFD07F04BFEC0B2CB
:10183000072803D8024B187006F020F910BDC046E7
:101840009D01001010B5FFF70FFD07F03BFEC0B281
:101850003F2803D8024B187006F010F910BDC0469F
:10186000C81A001010B5040074280CD9212C17D008
:10187000FEF702FD193CE4B20B2C11D80D4BE340EE
:10188000DB0716D40CE00C4B1A78272353430B4A82
:101890001B189B009B5898470A2CEBD9122CE5D1BA
:1018A0000023074A1370044A1370064A1370064A4D
:1018B000137010BD210C00008C060010E0BC00006D
:1018C0009D0600109306001092060010F0B52E4AF7
:1018D000C30085B0D3181A685B68040000920193B6
:1018E000FEF7CEFD0500FEF7C7FCFEF77BFD274B9C
:1018F0006E1C5F5DFF2F10D1FFF7B6FC224BE4009A
:101900001C1920606160009A019B09F017FB02001E
:101910000B0009F0A7F805B0F0BDFD2F1DD11C4F3D
:101920009E5D3B780235042B07D91A480422411CDE
:1019300007F0A1F93B78013B3B70154A1378591C1D
:101940001170144AD654104BF6009E193068716815
:10195000FEF73AFF2E003500C9E70F4B06221D782F
:1019600027230E4902A85D4307F042F900237D19A1
:10197000EDB202AAD25CAA42EDD00133062BF8D117
:101980003800FFF76FFFE6E7201100105F08001036
:10199000590800105A0800108C060010C7BA000041
:1019A000F8B520250024002600272000FEF790FD32
:1019B00000280AD12000FFF789FF02000B00300049
:1019C000390008F011F906000F000134E4B2202CB0
:1019D000EBD1E02230003900054B120607F0F8FC8D
:1019E000002803D1013DEDB2002DDBD1F8BDC0468A
:1019F0004D62503F70B50D4E34782000FEF740FD2B
:101A00000B4B1B5CFF2B02D02000FFF755F8002486
:101A1000084D013DE2B20134295DFF2902D1FFF7F3
:101A2000BFFF70BD3078FEF719FFF3E728130010F1
:101A30005F08001034080010F7B5012006F0ECF83C
:101A400004002220002C1DD12500174B0193019B7F
:101A500001221E785F783000390006F039FC390029
:101A60003000002206F080FC271D104EFFB2F179F5
:101A7000B07906F04FFC002805D12800FEF7DAFD0A
:101A80000B4B185DFEBD0134E4B2023EA742EED11D
:101A90002800FEF7CFFD019B01350233EDB2019323
:101AA0000A2DD4D1FF20EDE7F4C20000ECC2000003
:101AB000C4C2000070B50024FFF7BEFF050001207E
:101AC00006F026FEFF2D00D000240134E4B2032CE2
:101AD000F2D170BD00B50C4B89B01B78012B11D928
:101AE0006846FFF731F904A8FFF72EF9009801992D
:101AF000029A039BFEF70EFE04980599069A079B2F
:101B0000FEF708FE09B000BDDC05001010B5FFF7B8
:101B1000E1FFFFF7A9FB124C20606160FFF7A4FB17
:101B2000FEF752FE2268636809F008FA00220D4BA6
:101B300008F098FF00220C4B08F092FB0B4B01229F
:101B40001860596000200021094B18605960094B4A
:101B50001A700023084A1370084A137010BDC0465B
:101B6000C00600100000E03F00002440780600108E
:101B700080060010940600108C0600101F11001043
:101B800000B58BB0FEF74AFB002815D006A8FFF77A
:101B9000DBF880200799069A00060B18029203933F
:101BA0000022002304920593002202980399059BCA
:101BB000FEF7B0FD0BB000BD02A8FFF7C5F880200E
:101BC00000068446039B029A0193019961440B002D
:101BD000059906920793049A0B18089209930698A0
:101BE0000799089A099BE3E710B5FFF7C9FFFFF7CC
:101BF000C7F810BD10B5FEF7B1FDFFF757FBFFF7B3
:101C0000F3FF10BD10B500200249FEF7DDFDFFF720
:101C1000EBFF10BD0000F03F274B70B50FCBFEF778
:101C200079FD264E307809F09FFDFEF7CDFDFFF7D8
:101C300013F9234C20686168A268E368FEF76AFD27
:101C4000204D28686968AA68EB68FEF763FDFFF716
:101C500003F9FFF7C9FF1C4B0FCBFEF75BFD307894
:101C600009F082FDFEF7B0FDFFF7F6F82068616825
:101C7000A268E368FEF74EFDFEF770FDFFF7ECF893
:101C8000FFF7B2FFFFF730F9FEF768FD0FCCFEF764
:101C900041FDFFF7E1F8FFF773FF0FCDFEF73AFDC7
:101CA000FFF76EF8307809F05FFDFEF78DFDFFF766
:101CB0001BF9FFF70FFF70BD7013001038130010F1
:101CC00050130010801300106013001010B5FFF7C0
:101CD00094FAFEF743FDFFF77DF8FFF751FFFFF79A
:101CE0004FF8FEF78FFDFFF7FFF810BD00B5114B61
:101CF0008DB01B78022B1AD96846FFF725F804A887
:101D0000FFF722F808A8FFF71FF800980199029A38
:101D1000039BFEF7FFFC089809990A9A0B9BFEF7B4
:101D2000F9FC04980599069A079BFEF7F3FC0DB0A1
:101D300000BDC046DC05001010B5FFF7D7FFFFF768
:101D4000D5FF10BD10B5FFF7C5FEFEF707FDFFF785
:101D5000F3FFFFF7BFFEFFF747FFFFF7BBFEFFF7FD
:101D6000C3F8FFF7DFF810BD7FB51025324E33788A
:101D7000013B3370FEF7F2FC304CE3686168A26807
:101D80002068FEF7C7FCFFF7A5FEFFF72DFF6846AA
:101D9000FEF7DAFF2A006946200006F029FFFEF769
:101DA000DDFCFEF7DBFCFFF757F8254CE3686168C4
:101DB000A2682068FEF7AEFCFFF78CFEFFF714FF69
:101DC0006846FEF7C1FF2A006946200006F010FFB2
:101DD000FFF780FEFEF7C2FCFFF7AEFFFFF73CF80F
:101DE000184CE3686168A2682068FEF793FCFFF76F
:101DF00071FEFFF7F9FE6846FEF7A6FF2A00694666
:101E0000200006F0F5FE104CE3686168A2682068C7
:101E1000FEF780FCFFF75EFEFFF7E6FE6846FEF782
:101E200093FF2A006946200006F0E2FE307809F0B0
:101E30009BFCFEF7C9FC7FBD381300105013001047
:101E40006013001070130010801300107FB5102570
:101E50002E4E337801333370FEF780FC2C4CE36850
:101E60006168A2682068FEF755FCFEF789FF6846A6
:101E7000FEF76AFF2A006946200006F0B9FEFEF769
:101E80006DFCFEF76BFCFEF7E7FF224CE368616830
:101E9000A2682068FEF73EFCFEF772FF6846FEF778
:101EA00053FF2A006946200006F0A2FEFFF712FE4B
:101EB000FEF754FCFFF740FFFEF7CEFF164CE36839
:101EC0006168A2682068FEF725FCFEF759FF6846A6
:101ED000FEF73AFF2A006946200006F089FE0F4C03
:101EE000E3686168A2682068FEF714FCFEF748FF0B
:101EF0006846FEF729FF2A006946200006F078FEB2
:101F0000307809F031FCFEF75FFC7FBD381300101C
:101F10005013001060130010701300108013001095
:101F200070B5124B1B78002B12D0FEF707FB050093
:101F30000C00FEF703FB02000B002800210007F055
:101F400093FA6422002307F06BFAFEF7BDFC70BD24
:101F5000FEF7F4FA05000C00FEF7F0FA02000B00A1
:101F60002800210007F080FAEFE7C04621000010AA
:101F700010B51A4B1B78002B16D0FEF7DFFA43B2D0
:101F8000020601D5404243B201200021013B5BB271
:101F90005A1C04D1FEF798FCFFF7C2FF10BD020FD8
:101FA000090111430001F1E70D4B1B78002B0FD005
:101FB000FEF7C4FA6422002307F032FA40B2FEF7BB
:101FC000A7FE0022074B08F04DFD07F099FAE1E764
:101FD000FEF7B4FA40B2FEF79BFEF6E7910600105A
:101FE000210000100000594070B50D4B1B78002BEC
:101FF00003D00C4B01221A7070BD0B4C2378002BC0
:102000000CD10A4D2B78002B01D0FEF797FA002057
:102010000021FEF759FC01232B702370044BE9E7E4
:1020200091060010880600109219001091190010F6
:10203000AA060010F7B5364A364E1278337801906A
:10204000002A26D0002B3FD0FEF778FA6422002326
:1020500005000C0007F0E4F90A22002307F004FA57
:1020600006000F00280021000A22002307F0D8F9FB
:10207000002530003900D4B200230A22001969413A
:1020800007F0F2F92B00019A80185941FEF71CFC69
:102090001AE0214915000978019C0091002B17D105
:1020A0001E4F3B78002B01D0FEF748FA009B002B17
:1020B0000BD0642200232000290007F0D5F9FEF799
:1020C00003FC01233B703370F7BD20002900F6E7C5
:1020D000009B002B0CD0FEF731FA0A22002307F0F8
:1020E0009FF9642200196941002307F0BDF9CDE78B
:1020F000FEF724FA0A4B10221E780023002E01D18D
:102100000A22002307F0B0F900196941BEE7C04672
:10211000AA06001092190010210000109119001059
:102120009106001010B50920FFF784FF10BD10B50F
:102130000820FFF77FFF10BD10B50720FFF77AFFDB
:1021400010BD000010B5054C0F202378002B00D1E6
:102150000938FFF76FFF0023237010BD88060010B9
:1021600010B5054C0E202378002B00D10938FFF75D
:1021700061FF0023237010BD8806001010B5054CC8
:102180000D202378002B00D10938FFF753FF0023DF
:10219000237010BD8806001010B5054C0C20237864
:1021A000002B00D10938FFF745FF0023237010BD35
:1021B0008806001010B5054C0B202378002B00D1A9
:1021C0000938FFF737FF0023237010BD8806001081
:1021D00010B5054C0A202378002B00D10938FFF7F1
:1021E00029FF0023237010BD8806001010B50020C1
:1021F000FFF720FF10BDF7B5FEF7A0F907000E00AE
:10220000FEF79CF900900191FEF798F905000C008B
:1022100038003100FEF758FB28002100FEF754FB80
:1022200000980199FEF750FBF7BDF8B5FEF786F967
:1022300007000E00FEF782F905000C00380031009F
:10224000FEF742FB28002100FEF73EFBF8BD000030
:10225000F0B58DB0FDF7E2FF002810D0FFF704F8CD
:10226000C0222C4BD20508F0FDFB00222A4B07F0C0
:10227000F7FF03F083FCFEF7A7FA0DB0F0BD04A84A
:10228000FEF762FD06980799049C059D03F0C8FCC3
:1022900006000F002000290003F070FC32000290BD
:1022A00003913B0000201D4907F0DAFF00900191E7
:1022B00002000B003000390007F096FC029A039BE5
:1022C00008F0D0FB0022164B08F0CCFB08900991D7
:1022D000C02022002B001349C00508F02FFE03F098
:1022E0004DFC009A019B04000D003000390008F0FD
:1022F00025FE22002B0008F0B5FB0022084B08F059
:10230000B1FB0A900B910A9A089809990B9BFEF76A
:1023100001FAB2E7FB210940008066400000F03F6F
:102320000000E03FFB21F93FF0B58DB0FDF776FFEF
:10233000002810D0FEF798FFC0222E4BD20508F0DF
:1023400091FB00222C4B07F08BFF03F069FBFEF79B
:102350003BFA0DB0F0BD04A8FEF7F6FC069807990D
:10236000049E059F03F05CFC0400C0200D003200B9
:102370003B002249C00508F0E1FD03F0FFFB22000D
:10238000029003912B0000201D4907F069FF009087
:10239000019102000B002000290007F025FC029AA1
:1023A000039B08F05FFB0022164B08F05BFB0890D4
:1023B00009913000390003F0E1FB80231B06CE18A1
:1023C0000700009A019B2000290008F0B7FD0200D9
:1023D0000B003800310008F045FB0022094B08F0E3
:1023E00041FB0A900B910A9A089809990B9BFEF7FA
:1023F00091F9AEE7FB21094000806640FB21F93FDF
:102400000000F03F0000E03F70B5064C05002000E2
:1024100006F047FC691C421B6118601906F0E8FBD6
:1024200070BDC0466306001070B50D0004000A219F
:10243000280006F0C7FE303120236170092D0AD92B
:102440000A21280006F038FE0A21C0B206F0BAFEC2
:102450000B003033DBB2237070BD000010B5FFF706
:1024600039FBFEF77BF9FFF767FC00200349FEF715
:10247000ABF9FEF739FDFEF7EFFC10BD0000594047
:10248000F0B52F4B87B0070018780291FDF7F8FFE1
:1024900000231C001D0003900193039BE918294BA6
:1024A0005A5CFF2A02D1019807B0F0BDFD2A28D15D
:1024B000212CF2D85B185B78FA3A1A409B0805A9E0
:1024C00031334B70002341320A708B702200380088
:1024D000FEF7A6FA029BA21CD2B2002B0DD01A4B1B
:1024E0001B78002B09D0023B9D4206D103347F218B
:1024F0003800E4B2FEF7FEF8220002351400EDB217
:10250000CBE7222CC9D8114B661C9B5CF6B23B551D
:10251000029B002B0FD00C4B1B78002B0BD0013BE8
:102520009D4208D1023432007F213800E4B2FEF728
:10253000E1F80196260001353400EDB2ADE7C04662
:10254000281300105F0800106006001008C3000088
:1025500070B500248AB003AD18222021280006F0AF
:1025600068FB204901AE0622300008312C7606F0C7
:102570003FFB1D4B1A78A24210D0335D1B49A200CD
:102580009B002800D2B2C9180134FEF749FA062C84
:10259000F3D12800FEF750FA0AB070BD144B1C7836
:1025A000002C0DD01400335D1249A2009B002800BE
:1025B000D2B2C9180134FEF733FA062CF3D1E8E79A
:1025C0000D4A1278002AE4D0335D0C49A2009B002A
:1025D0002800D2B2C9180134FEF722FA062CF3D132
:1025E000D7E7C046C0BC00009A06001023000010C8
:1025F0009F0600106D000010A80600108501001055
:10260000F0B54A4E8DB03378002B41D0FDF706FE71
:1026100000283DD0FEF728FE337804000D00002B83
:1026200030D0FDF7FBFD00282CD0FEF71DFE404BFF
:102630001B78002B0AD0089409950A900B910898F2
:1026400009990A9A0B9BFEF765F81FE0C022394BE7
:10265000D20508F007FA0022374B07F001FE06000A
:102660000F0003F0DDF922002B0008F0FBF90890C1
:1026700009913000390003F081FA22002B0008F0A4
:10268000F1F9DAE720002900FEF79EF80DB0F0BD61
:102690006846FEF759FB009C019D029E039F244B58
:1026A0001B78002B14D000220023049605971600F7
:1026B0001F0006920793069A079B04980599FEF758
:1026C00029F832003B00089409950A920B93B6E76B
:1026D00032003B0020002900FEF77EFA0022002392
:1026E000049005910692079304980599069A079B12
:1026F000FEF710F822002B002000290008F0B2F9A4
:10270000320004000D003B003000390008F0AAF947
:1027100002000B002000290007F066FA03F0EEFA31
:102720000022002308900991CFE7C046DC05001085
:1027300020000010FB21094000806640F0B58BB0FE
:1027400002A8FEF701FB029E039F049C059D320038
:102750003B003000390008F085F92200009001911B
:102760002B002000290008F07DF902000B000098E2
:10277000019907F039FA03F0C1FA03F089FA22004F
:10278000069007912B0030003900FEF725FAC02291
:10279000084BD20508F066F90022074B07F060FDF0
:1027A00008900991089A06980799099BFDF7B2FFCE
:1027B0000BB0F0BDFB2109400080664010B5FFF76B
:1027C000BDFF00200349FDF7FFFFFFF7B7FFFEF74E
:1027D0008BFB10BD0000244010B5FEF7F1FAFDF7A9
:1027E000BDFFFDF7BBFFFDF7B9FFFDF7B7FF002009
:1027F0001849FDF7E9FFFEF72FFBFFF76BF9002003
:102800001549FDF7E1FFFEF727FBFEF7E3FAFFF7B7
:10281000EBF9FEF7DFFAFEF7B3FAFFF78FFFFFF7EA
:10282000F1F9FEF719FBFFF755F9FFF787FFFFF7FF
:10283000A7F9C0200949C005FDF7C6FFFFF77EFFD5
:10284000FEF79EFAFDF7DEFFFEF74EFBFEF798FA65
:1028500010BDC0460000284000002440FB21194064
:1028600030B58DB06846FEF76FFA04A8FEF76CFA33
:10287000049805990022002306F0A4FD00240025F9
:1028800000282AD00698079922002B0006F09AFD0E
:10289000002822D00098019922002B0006F092FD1A
:1028A000002815D00298039922002B0006F08AFD1B
:1028B00000280DD01022124908A8891806F098F9AE
:1028C000089809990A9A0B9BFDF724FF0DB030BDBB
:1028D000089409950A940B95F2E704980599069ACD
:1028E000079BFDF717FFFFF729FF00980199029A50
:1028F000039BFDF70FFFFEF7AFFAFEF77EFCE5E75F
:10290000C0BC000010B5FFF7E5F800200D49FDF749
:102910005BFFFEF7E9FAFDF721FFFFF7E7F9FEF7A6
:102920004FFAFFF7D7F8FFF79BFFFDF717FFFFF709
:1029300069F9FFF7CFF8FEF7D7FAFFF7CBF8FEF704
:10294000D3FA10BD0000594010B500200449FDF72E
:102950003BFFFFF7F3FEFEF77FFAFEF74EFC10BDDC
:10296000000024401FB56846FEF7EEF90098019973
:102970000022002306F026FD002805D000200021BB
:10298000FDF722FF05B000BD029A039B0098019954
:10299000FDF7C0FEFFF7D2FE00200449FDF714FF4B
:1029A000FEF75AFAFEF729FCECE7C0460000E03FCC
:1029B00010B5FFF78FF8FDF725FFFEF795FAFDF745
:1029C000CDFEFDF7CBFEFEF747FAFFF7B5F9FFF7AF
:1029D0000BF9FFF7C7FFFDF7C1FEFFF7ADF9FFF7F2
:1029E000CFF8FDF7BBFEFFF7A7F9FEF7C9F9FFF730
:1029F0007DF9FFF76FF8FFF7F7F810BD10B5FEF798
:102A000079FAFDF7ABFEFEF727FA0E4C207808F0B6
:102A1000ABFEFDF7D9FEFEF71FFAFFF7B1F80A4B40
:102A20000FCBFDF777FEFEF7ABF9207808F09CFEA0
:102A3000FDF7CAFEFFF7E6F8FEF756FAFFF792FF3A
:102A400010BDC046381300106013001010B5FDF71C
:102A500085FEFEF761FAFFF793F8FEF7B1F9FFF78D
:102A600081FFFFF737F8FDF7D5FEFEF7F5F9FEF722
:102A700087F9FFF763FEFDF7CDFEFFF781F8FEF75C
:102A8000EBF9FDF7CBFB00280CD0FEF7EDFB0022A5
:102A9000054B07F0E7FFC022044BD20507F0E0FB2F
:102AA000FDF792FE10BDC04600806640FB21094044
:102AB00010B5FFF7CBFFFFF763F8FDF7AFFB00287A
:102AC00006D000200449FDF77FFEFEF759F910BD3E
:102AD000C0200249C005F6E700805640FB21F93FBF
:102AE00010B5FDF73BFEFEF717FAFEF769F9FFF7A1
:102AF00039FFFEF76FF9FEF7AFF9FFF7A7FF10BD3B
:102B000010B5164B1B78002B0AD0FDF727FEFFF7F8
:102B1000DDF8FEF7DFFFFEF799FBFEF7E5F913E0BE
:102B20000F4B1B78002B10D0FDF718FEFEF748F96D
:102B3000FEF7D0FFFFF724F8FEF742F9FEF7D4F9CD
:102B4000FFF710FFFFF7FAFD10BDFDF707FEFFF7D7
:102B50007FFBFEF7BFFFFFF7E7FBDEE79206001003
:102B60009306001010B50D4B1B78002B02D0FEF71A
:102B70006DFB10BD0A4B1B78002B0CD0FDF7EEFD52
:102B8000FEF7CAF9FFF73EF8FFF7ECFEFEF7F8F89C
:102B9000FFF7D4FDEDE7FFF7C7FBEAE79206001069
:102BA0009306001010B50D4B1B78002B02D0FFF7D9
:102BB0008DF810BD0A4B1B78002B0CD0FDF7CEFD15
:102BC000FEF7AAF9FEF7FCF8FFF7CCFEFEF7D8F8FF
:102BD000FFF7B4FDEDE7FFF73BFBEAE792060010D5
:102BE00093060010F0B58FB00BAC019002910592E6
:102BF000202108222000079306F01BF800232372EF
:102C0000754B00221B780493002B3CD000230198C5
:102C1000029906F0DDFB8022029B12069D18002817
:102C200000D11D00290000226C4B019806F0D0FB5A
:102C30000BAD002808D030232B702000079A05998F
:102C4000FDF7BCFA0FB0F0BD0198029906F076FCD2
:102C50000F2703000DA81A000A4300D103E3A8427E
:102C600003D15F4906F025F8E7E71E003E40320039
:102C70003032392A00D92732013802701B090A077D
:102C800013430909E7E700230198029906F0A0FB26
:102C9000019D00285CD080220A27029B12069C1806
:102CA0002100504A504B019806F0B0FB00282BD170
:102CB00021004E4A4E4B019806F094FB002807D0A5
:102CC000002200232100019806F096FB00281BD16A
:102CD000019A23001000210008F0C2FC002813D143
:102CE0000122660076083100424B0198524208F0FA
:102CF000B7FC00282FD1012231003E4B01985242EF
:102D000006F070FB002826D135490BA805F0D1FF4D
:102D10000BA8FDF76DFE384B1D78022D00D0012564
:102D200006266E430BACF6B22078002800D189E766
:102D30002E2800D08FE2059B079A5F1BFFB2390057
:102D4000FDF7D2F9AA00BF18FBB205930134EBE7F7
:102D50000127029CA4E72100244A254B019806F094
:102D600037FB00281AD12100244A254B019806F090
:102D70004DFB002800D185E1380008F0C5FC0200B9
:102D80000B0000201F4907F06BFA02000B000198AE
:102D9000210006F01DFB002800D173E10022002372
:102DA0002100019806F00EFB002800D109E1302334
:102DB0000BAA1370144B1978002901D02E2313701D
:102DC0000123302001E0D0540133DCB2A1429FD96D
:102DD000082BF8D19CE7C046910600100000F03F98
:102DE000CEBA00007DC39425AD49B2543EC3D84E3F
:102DF0007D7F612BFFFFEF7F1B000010FCA9F1D24C
:102E00004D62503FD0126341DA05001028002100C6
:102E1000964B002207F026FE0C00050003980138AF
:102E200043B20393002228002100914B06F0D0FA10
:102E30000028EBD16B461B7B002206932800210063
:102E40008B4B06F0E3FA00220990002800D0BAE08C
:102E500000230299019806F0BBFA431E984107230C
:102E6000181AC3B20893FDF753FF02000B002800A5
:102E7000210007F0F7FD00227E4B06000F0006F050
:102E8000B3FE08F00BFC39000400300008F006FC2B
:102E90000A2705002000099E002800D09FE00A278D
:102EA000002D00D0A1E0049BB34208D220000A21EB
:102EB00006F08CF904000698013043B203936B4688
:102EC0001D7B089B581B40B2FDF722FF06000F0038
:102ED000200008F019FC3B00320007F0C1F908F0AF
:102EE000DDFB39000490300008F0D8FB0100200021
:102EF00006F052FA039B0C00002B13DA684240B232
:102F0000FDF706FF06000F00200008F0FDFB320071
:102F10003B0007F0A5F90022564B06F065FE08F0CD
:102F2000BDFB04006B46039A1B7B002A00DA0023DA
:102F3000089AD31ADBB203934F4B1B780693002BEE
:102F400000D181E04D4B1D78002D7ED00BAF3D00B0
:102F50000A264B4B039A1B78D31A08937B1B0399C1
:102F6000DAB291424BD80B000DACE41A2E230A259D
:102F7000013C2370049B002B6AD10022002301989E
:102F8000029906F025FA002802D02D23013C237077
:102F9000069B002B04D0394B1B78002B00D0B7E6E2
:102FA000200005F07EFE00220138C0B220188442C5
:102FB00000D1ADE60378302B00D0A9E602700138CD
:102FC000F5E703902EE728002100284B07F048F989
:102FD000050006980C00013043B203932AE739003C
:102FE000013606F0F3F8F6B256E72800390006F08D
:102FF000EDF8049B05000133DBB2049350E7089A17
:103000002021934205DD3100200006F0C5F9303162
:10301000C9B2E9712000310006F0D8F8013D040082
:103020009CE72000390006F0B7F9303120003170FC
:10303000390006F0CBF804000135EDB2039B013EE8
:10304000AB42EED10DAC90E7069D0A270DAEF5E739
:103050000498290006F0A0F9013C30310498217051
:10306000290006F0B3F8049084E7C046000024402D
:103070000000F03F0000E03FDB0500109E0600105E
:10308000DA050010002300220198029906F0A0F949
:10309000431E9841002306000393002228002100CC
:1030A000734B06F095F9002800D094E00022280028
:1030B00021006F4B06F0AAF9002800D096E0039B90
:1030C00007300833122B00D80820861BF3B2069372
:1030D000069BD81E40B2FDF71BFE02000B00280025
:1030E000210007F0BFFC0022624B06000F0006F033
:1030F0007BFD08F0D3FA39000500300008F0CEFA65
:10310000002604000A27280000287BD10A27002C6B
:103110007ED1049BB34207D228000A2106F056F85C
:103120000500039B013303930698043840B2FDF772
:10313000EFFD06000F00280008F0E6FA3B00320021
:1031400007F08EF808F0AAFA39000400300008F001
:10315000A5FA0100280006F01FF9039B0D00DB0F04
:103160000493039B5E1E01D50126F61A30000A2146
:1031700006F012F90BAF30313000F9710A2106F078
:1031800025F80B260AABF618002807D00A2106F00E
:1031900003F90A2630310AABB971F618049A2B23C9
:1031A000013E002A00D002330A273370013E002D71
:1031B00038D12E230A353370002C3FD10022002352
:1031C0000198029906F004F9002800D1A0E52D230A
:1031D000013E33709CE528002100274B002207F0B8
:1031E00041FC039B05000C00013B55E72800210032
:1031F000214B002207F034F8039B050001330C003B
:10320000039353E73900013605F0E0FFF6B27BE7A0
:103210002000390005F0DAFF049B04000133DBB223
:10322000049374E72800390006F0B6F8303128001E
:103230003170390005F0CAFF0500B7E7200029000A
:1032400006F0AAF8013E303120003170290005F067
:10325000BDFF0400B0E7079A0599FCF745FF059B01
:103260009A19D3B271E52800FDF7C2FBE5E4C04628
:103270000000F03F0000E03F00002440F7B50C00E4
:1032800015000090FDF724F9002822D00098FDF7E2
:10329000F7F8230027001C4E2A33DBB236180193BF
:1032A0007078FF2809D039002A00FCF71DFF063787
:1032B000019BFFB201369F42F2D1144B009A1B785A
:1032C000934205D1063C2A00B220E1B2FCF70CFF84
:1032D000F7BD009BDA000E4B9B181E685F6800224A
:1032E00000233000390006F06DF8002805D02A00D0
:1032F0002100CC20FCF7F8FEDFE72B002200300095
:103300003900FFF76FFCD8E75F08001028130010A2
:103310002011001070B5174B1C78174B1B78002B31
:1033200003D0032C01D9043CE4B2144B1B78002BCE
:1033300003D0002C01D0013CE4B20025104E2A003D
:10334000200006213570FFF799FF601C2A003B2101
:10335000C0B2FFF793FF0135201D2A000621C0B23D
:1033600005343570FFF78AFF2A003B21E0B2FFF7F2
:1033700085FF70BD281300102A13001029130010B8
:103380006106001010B50A4B1B78002B03D00948CA
:10339000FDF752FB10BD084B084A1B781278134307
:1033A00002D0FFF7D5F8F5E7FFF7B4FFF2E7C04624
:1033B000A3060010D2BA0000A50600109706001060
:1033C000F7B5FDF751FF0D00040004F077FD6846E6
:1033D00001A904F01BFE2900200006F073F88026E6
:1033E0006B461A4FC0B21880F60529002000FDF781
:1033F000EBF9FEF7FFFB30003900FDF7E5F9FDF7CB
:10340000BFFCFDF78FFDFDF72FFF06F05BF86B4665
:10341000290098702000FDF7D7F9FDF783FDFEF72E
:10342000E9FB30003900FDF7CFF9FDF7A9FCFDF706
:1034300079FDFDF719FF06F045F86B460022D870BC
:1034400001A9684604F026FEF7BDC046E17A743F44
:1034500037B5FDF709FF0D00040004F02FFD6846A5
:1034600001A904F0D3FD2900200006F02BF86B46DB
:1034700080222900D20518710B4B200006F0B4FB06
:10348000FDF7A2F9FEF7B6FBFDF7EEFE0022074BB3
:1034900007F0E8FA06F016F86B460022587101A909
:1034A000684604F0F7FD37BDE17A743F00005940EB
:1034B00013B504F003FD01A9684604F0A7FD6B46AF
:1034C000987806F043FB164906F028FA6B46041C70
:1034D000188806F03BFB011C201C06F081F86B46A7
:1034E000041CD87806F032FB0E4906F017FA011CCE
:1034F000201C06F075F8041C684604F0FBFD07214B
:1035000005F04AFF080006F021FB074906F006FA1D
:10351000211C06F065F808F04DF9FDF755F913BDCB
:103520000000C84200401C460050C34707B504F0E5
:10353000C5FC684601A904F069FD6B463C205B7937
:1035400058436B469B79C0180EBD10B5FEF7B2FA12
:1035500004F04EFD04F067FA0020012105F0A6F802
:10356000002004F059FB002802D1012105F09EF84B
:1035700004F0AAFA10BD0000F8B572B6B120FDF74C
:103580008BF80020FDF788F81020FDF785F8E02083
:10359000FDF782F80024144D01222E5D0021022047
:1035A00004F0E2FE01343000FDF758F8842CF2D12B
:1035B000B020FDF771F80020FDF76EF81020FDF740
:1035C0006BF88426E020FDF767F876002F5D012276
:1035D0000021022004F0C8FE01343800FDF73EF857
:1035E000B442F3D162B6F8BD20120010F0B59FB01E
:1035F00005F07CFB04F0D0FA0021DC4804F0D6FE94
:103600000021DB4804F0D2FE04F031FB012204214A
:10361000002004F05DFE00220421100004F0A4FE4E
:1036200001220521002004F053FE00220521100094
:1036300004F09AFE002004F08FFDA022FF2152002A
:10364000CC4805F0F6FAF022FF21D200CA4805F076
:10365000F0FAFFF76BFF002307900393C74B1B683B
:10366000002B50D0C64B1C78002C47D1842221005F
:10367000C448520005F0DDFAC34BC44D1E782C70CF
:10368000002E00D1A9E0C24DC24B28001C7005F0ED
:1036900008FB002800D19AE0BF4E7F212800327835
:1036A000FDF728F8280022000321FCF787FD307879
:1036B000FEF7AAFE01220325B64B1A70B74B012272
:1036C00018782900000120302018C0B2FCF70CFD4A
:1036D000B34B1B78A34206D10635EDB20122290077
:1036E0007F20FCF701FD01340635E4B2EDB2102C69
:1036F000E4D1AC4B1B78002B00D1E6E1FFF73CFF97
:1037000000229E4B1A60A849A84F0B780093002B0B
:1037100001D100F012FEA64AA6481378C05C3870AA
:10372000FF2803D0312B01D800F001FE00230B70DD
:10373000FEF7C0F9A04BA14A1B7812781343A04AA8
:10374000127813439F4A12781343FF220392002BEF
:1037500002D18A4BFE3A1A60FFF7E8FE079B934FAF
:10376000C01A994B1B78984201D922233B703878B4
:10377000FF2829D0039B984226D08B4B8E4A1B787A
:10378000127813438D4A127813438D4A12781343EB
:103790008C4A1278134302D10122784B1A608B4B6A
:1037A0001B78002B05D0824A1378591C1170814A6E
:1037B000D054222801D000F0FFFFFF233B70FFF719
:1037C000C4FEFFF7B3FE0790784B1B7845E7220055
:1037D00003217F20FCF788FC6CE77D4B1F78002FCE
:1037E00028D001257B4C7C4B22786A4FD2009B1855
:1037F00018685968032233003E70FFF7F3F92A0076
:103800000321B3203D70FCF76FFC247814AF6119DD
:103810003800C9B2BE70FEF707FE2A000F2138003B
:10382000FCF7CCFC2A0021216C4BA400E058FCF7EB
:10383000C5FC5EE75B4B1B78002B71D0684E694B73
:103840001C685D68326873682000290007F076FB09
:1038500002000B002000290006F002FD0022624B4E
:1038600007F000F905F02EFEC3B200935F4B1C6811
:103870005D685F4B20001A685B68290007F05EFBFB
:1038800002000B002000290006F0EAFC0022594B40
:1038900007F0E8F802000B000020564907F04EFB45
:1038A00005F010FEC3B2200001240493394B02221C
:1038B00029001F703B00FFF795F94D4B3222186825
:1038C00059683B00FFF78EF9324B02221C70454BC2
:1038D000186859682300FFF785F93068716823007C
:1038E0003222FFF77FF93C000F262500424B62355C
:1038F000E15CEDB2711A2800C9B2FCF777FC013423
:1039000028000499FCF772FC202CEED1FF210098CE
:103910001C4A6230C0B21318843319701154E8E69F
:10392000364B1C78002C00D1B8E1354B354A1B785A
:103930001278134302D0FEF70BFEDAE6324B1D7805
:10394000002D74D014AC19222000304905F050F934
:10395000022D5FD120002E4905F0ABF9DD23237441
:1039600023732000FDF768F8C3E6C0469840044082
:103970009C4004405F0800109F0900101C000010CC
:10398000A4060010201200108F0600108B060010F5
:10399000630600106106001062060010D9050010D1
:1039A000D80500109B06001099060010AC06001008
:1039B000580800103B000010A6060010A7060010D3
:1039C000940600109C06001022000010A1060010B2
:1039D00098060010D306001030C3000050C4000049
:1039E000C8060010C006001000004040000700108C
:1039F000F806001000003040D40600109A060010AF
:103A0000A5060010970600109D0600105EBB000082
:103A1000EBBA0000032DA4D12000CB4905F049F9F1
:103A2000E0232373237001332374237199E7C74A7A
:103A3000C74B12781B78002A3FD00221C54A11706B
:103A4000C54A1570002B34D0013B1A01C34B9B189B
:103A5000C34A186859681278002A15D19C68DD6835
:103A600002000B0006F0FEFF220006000F002B00F4
:103A70002000290006F0F6FF02000B00300039009C
:103A800006F0B2F802F03AF90123B64C0C2223708A
:103A90000023FFF7A7F80021B34B21701B788B425E
:103AA00003D00A00B220FCF71FFB0122A94B1A70B9
:103AB0001FE600220C215F20F5E70092002B7ED14B
:103AC000012208215F20FCF70FFB002412AD280023
:103AD0000422202105F0ADF8A44B2C711D7827009D
:103AE000A5420FD011AC04F0E9F9200014A904F0AC
:103AF0008DFA20220CAB9B181F7801320CAB9B185F
:103B0000E5781C780022944B1A7004F03FF9AF233B
:103B10001B01984200DB9648964B984200DA180049
:103B2000954BAF21C0180A238900584305F04EFB7E
:103B30002C23C0B25B424008181A12ABD8708B4BD2
:103B400012A81B78002B00D1FBE22900FEF76CFCC9
:103B500012AD00226D212800FCF730FB01227E4BC4
:103B60001A70824B1E78002E00D138E339002800ED
:103B7000FEF75AFC0A21200005F024FB21220CABA1
:103B80009B183031197020000A2105F095FA0A219E
:103B9000C0B205F017FB20221A200CAB9B18303165
:103BA00019700CAB1E3A14A9C01805F021F80122B7
:103BB0006D2112A8FCF702FBA0E5012300936A46E1
:103BC000634B12781B780492009A934262D90122C7
:103BD0000499521AD2B2069206995F4A1170009A5D
:103BE0009B1A013B5D4A1B01D3181E685F689C68E5
:103BF000DD685B4B1B78002B21D132003B0030008D
:103C0000390006F02FFF22002B00089009912000B8
:103C1000290006F027FF02000B000898099905F01B
:103C2000E3FF02F06BF82200089009912B003000AE
:103C30003900FCF7D1FF089E099F04000D00049B8A
:103C4000002B02D10122474B1A70082230003900A4
:103C5000069BFEF7C7FF0022424B20001A70290086
:103C60000022002305F0AEFB002805D13B222000F6
:103C70002900069BFEF7B6FF3B4B1B78002B09D0B3
:103C8000049B002B06D10122334BB22004991A70F9
:103C9000FCF72AFA009B012B8FD12AE5374B1B78C2
:103CA000002B4AD02C4E2122210015A834701494E8
:103CB00004F0BFFF012114A8FEF7E2FB050014A8E1
:103CC00004F0EFFFC2B2002A10D103217F20FCF7DD
:103CD0000BFA012333702A4A11782A4AC900521874
:103CE000106851680322FEF77DFF02E5102D22D9EE
:103CF0002C000627103CE4B229001039611A7943E0
:103D000014AB185D033101340022C9B2E4B2FCF7F0
:103D1000EBF9A542F0D2DCE7290061430331002230
:103D2000C9B20134FCF7E0F9112CD2D014ABE05C3D
:103D30000028F1D1CDE70625F8E7134B1C78002CBD
:103D400024D0FFF71FFBD4E404BB00008906001059
:103D5000DC0500101B00001061060010E0050010DB
:103D6000200000109E060010DB0500108B060010DE
:103D7000EF0A000034080000CCF7FFFFA006001097
:103D800028130010201100109F060010D94B1B783B
:103D9000002B21D0D84D2122210015A82C7014947D
:103DA00004F047FF210014A8FEF76AFB31220CAB98
:103DB0009B181C70113A0CAB9B181B780022032136
:103DC000002B05D15F20FCF78FF901232B7082E7D0
:103DD00014A8FCF7F3F9F8E7C84B1B78002B00D1C7
:103DE00050E1C74B1B78002B01D0C648BAE5C64A44
:103DF00000931478002C47D11322202114A804F03A
:103E000018FF33220CAB9B1820211C705F230CAAD7
:103E1000521813701D39012214A808E53B4300D045
:103E200098E0BA4B0CA91A7833235B18002A0AD001
:103E3000B74A1278002A06D10A0032212E235218DE
:103E400013700CAA8B183022013B1A7014A8FCF7CF
:103E5000CFFD0025062414AE300004F022FF854279
:103E600000D2FFE0AB4B1B78002B07D0049B002B4C
:103E700004D101221900B220FCF736F9009B012B76
:103E800000D136E4012300936B469F4C1B78009AC7
:103E9000049323789342F1D90123049A20219B1A99
:103EA000DBB20893089A944B14A81A70132204F0FA
:103EB000C0FE332100220CAB5B181A7000992378E6
:103EC0005B1A013B9449DB00CB181E685F68330026
:103ED0009742A3DA3C0000275E42A74101230693E4
:103EE0008B4B1B78002B37D033240CAAA418032249
:103EF000002394460CA91E32521818006146013363
:103F0000DBB2084202D12021013C21700F2535404F
:103F100028003030392800D9273039073509013CCD
:103F2000294320703811070008000E00384301D1E2
:103F300001F0B0FB9442E0D8069B002B05D02D2366
:103F4000013C23703E4300D180E7744914A804F07B
:103F5000B0FE7BE70692C3E76C4B1D78002D58D06E
:103F60000A2200233000390005F05AFA0A220C0018
:103F7000050039003000002305F052FA32210CAB65
:103F80005B1830321A7021000A220023280005F045
:103F900047FA31210CAB5B1830321A7021000A222B
:103FA0000023280005F03CFA0F0030212E230600E4
:103FB0000CAA5218137018AC2D3B32003A4301D1B1
:103FC00001F068FB21220CA952189442B4D922783E
:103FD0001D002E2A0AD05522524253430135DBB22E
:103FE000EDB2552B02D82023013C2370300039005C
:103FF0000A22002305F014FA013C3032002330007D
:10400000390022700A2205F00BFA2B0006000F007F
:10401000D3E733240CABE41855222B005242534310
:104020000135DBB2EDB2552B02D82023013C2370C1
:10403000300039000A22002305F0F2F9013C303249
:1040400000233000390022700A2205F0E9F903004C
:1040500006000F000B4301D101F01CFB14AB9C4286
:10406000DAD869E72100705D089A7719FCF73CF807
:104070003B78202B04D006340135E4B2EDB2EAE6F9
:104080000334F9E7264B1B78002B53D0254B1D78C2
:10409000254B1B781D4300D04DE4244BEEB21C7819
:1040A0006719FCF7B5FA874201DBFFF722FB3419E9
:1040B000114BE4B220001E70FCF786FA01340700B1
:1040C000E0B2FCF781FA1A49C41B7918013C14AF1D
:1040D0002200380004F08CFD002332000321380058
:1040E0003B55FCF76BF8012D01D1FFF702FB0125D1
:1040F000D3E7C0468D06001061060010A906001027
:10410000AB0600101DBB0000931900102100001029
:10411000910600109219001098190010CEBA0000F4
:10412000A8060010A50600109706001090130010B6
:1041300085000010C048FCF77FFC01232B70FFF7BF
:10414000D8FABE4B1B78002B01D0EC238370BC4BFC
:104150001B78002B01D0DA238370BA4B1B78002B1D
:1041600005D0B94B1B785A425341BD334370B74B0E
:104170001B78002B01D065330370B54B1B78002BE7
:1041800027D048230370B34B1B78002B05D0B24BCC
:104190001B78312B01D8D8230370B04BB04A1B7861
:1041A0001278134300D1D3E4AE4B1A78002A00D022
:1041B000CEE40320AC4B14A91B788A7018409B08EE
:1041C0004130313308704B70023212A804F010FDF8
:1041D000BEE4A64B1B78002BD5D06823D2E704227F
:1041E0002021280004F025FD9C4B2E711B78002B0C
:1041F00013D09D4B1F783800FCF76AF9041E72D06B
:104200003800FCF73DF99A4B0130C018835DFF2B55
:1042100003D0AB550136042EF8D1914B954A1B784B
:104220001278134303D02800934904F042FD934BC6
:104230001B78002B0DD0924B14A819780131C9B20C
:10424000FEF7F2F81A200CAB022214A9C01804F0F1
:10425000CFFC7C4B1B78002B01D101F013FA894B6A
:104260001B78FF2B01D0D623AB70874C002220682F
:104270006168002305F0A6F8002847D1E32212ABBD
:10428000DA70824B824A1B7812781343814A127883
:104290001343814A12781343804A1278134312AAB7
:1042A000002B01D0E223D3707D4B1B78002B05D06F
:1042B0007C4B1B78002B01D02E23D3707A4B1B78BC
:1042C000002B01D0A923D370784B79491B78002BA0
:1042D00005D1784B1B78002B00D168E47649280083
:1042E00004F0E7FC63E401001490212214AE15A849
:1042F00004F09FFC21003000FEF7C2F8335D002B74
:104300008BD02B550134042CF8D186E70022A0680D
:10431000E168002305F056F80028AFD0604B1B7809
:10432000002BAED0654A0CCA1343A7D1A9E70133CD
:104330001370FF230393FFF70FFA564B1C78002CE2
:104340005ED05F4A13780133DBB213701D223A70DE
:10435000012B01D1FFF700FA5A4E34687568022B21
:104360000CD1FCF781FF22002B0005F03DFCE02280
:1043700030607160544C554B120613E0032B1BD177
:10438000FCF772FF0022524B06F06CFB02000B00A0
:104390002000290006F0D2FDE022306071604A4C16
:1043A0004C4B12062068616805F01EFC20606160BD
:1043B000FCF70AFAFFF7D0F9042B06D1FCF754FFFB
:1043C0000022434B06F04EFBCDE7FCF74DFF020009
:1043D0000B002000290006F0B1FD00223E4B05F045
:1043E0003FFFE022394B120605F03AFFFCF7ECF9EB
:1043F00001223A4B1A60274B009A1A70FF2317E0EC
:10440000234B1B780493002B00D1C2E02C4E337851
:104410000133DBB23370022B62D808D1FDF75AFBAF
:10442000E0202A490006FCF7CFF9FCF7A9FC1D2380
:104430003B70FFF791F9C04636BB000091060010B3
:10444000A20600109A060010200000108C06001032
:1044500092060010A1060010580800109F060010D8
:10446000A00600108D0600102813001093060010FF
:104470005F0800108F0600104FBB0000A806001058
:10448000901300103B00001040130010990600101C
:10449000A7060010A6060010940600109C06001047
:1044A000A90600102100001088060010A5060010C3
:1044B00054BB00009706001059BB0000B81900104B
:1044C0001F11001080060010301300104D62503F85
:1044D000000020404D62603F000028401C0000109A
:1044E000FDF7F8FAFCF700FD0020D149FCF76CF964
:1044F000FCF746FCE020CF490006FCF765F9FDF724
:10450000E9FAFCF7F1FCFCF7AFFEFCF75DF90700F8
:104510000D00FDF769FB00220023380029003470EC
:1045200004F056FF002802D080231B06ED18E0227D
:10453000C14C38002900BF4B1206267804F048FF12
:1045400000280AD1142E0AD8FCF708F9FCF706F95E
:10455000237801332370FFF7FFF8142E0ED90CA82F
:10456000FCF7F2FB1022B54914A8891804F040FBAF
:1045700014981599169A179BFCF7CCF80122B04BAA
:104580001A600022AF4B1A70AF4BFF321A70FFF760
:10459000E3F8AE4B1E78002E6BD0AD4B1C78013487
:1045A000E6B21E701D233B70012E01D1FFF7D4F837
:1045B000A84B1C685D68022E0CD1FCF755FE2B0041
:1045C000220005F011FBA34B18605960A24B18683C
:1045D0005968EDE6A14B1A685B6800920193032EBF
:1045E00010D1FCF741FE22002B0005F0FDFA994B9B
:1045F0001860596000980199974B1A685B6805F03C
:10460000F3FAD5E6162E20D80022F3071BD5802317
:10461000DB0504920593FCF727FE049A059B06F040
:1046200021FA22002B0005F0DFFA8A4B186059604E
:10463000B01E07F069F8009A019B06F013FA864B4A
:104640001A685B68DBE7864BE3E7FCF70DFE009A30
:10465000019B2000290006F005FA0022814B05F09D
:10466000FFFDFCF7B1F80122754B1A60774B049AF5
:10467000C3E67D4D2B78002B00D191E0744B1C7864
:104680000134E4B21C701D233B706B4B1A78002A76
:1046900041D1012C01D1FFF75FF86F4908684968E3
:1046A00000900191022C0AD1FCF7DEFD6F4B1860DF
:1046B00059606F4B186059600098019978E6222C78
:1046C00024D8FCF7D1FD6A4D06000F0002000B0054
:1046D0002868696804F090FE002801D02E606F60A1
:1046E000624D3200286869683B0004F071FE0028C2
:1046F00001D02E606F60A01E07F006F8574B1A68B5
:104700005B6806F0AFF9009A019B78E750490A70A0
:1047100001221A70D0E7012C01D1FFF71DF8212CDE
:104720002ED8534B1C685D68FCF79EFD02000B0001
:104730002000290006F002FC4C4B06001A685B685A
:104740000F002000290006F0F9FB02000B003000EA
:10475000390005F085FD0022464B06F083F901F093
:10476000B3F93B4B444C1D7804F0ACFE6419023C99
:104770002070681E06F0C8FF384B1A685B685CE75B
:104780000CA8FCF7E1FA0CA8FCF7DEFA01232C4A8E
:104790002E701360FF223A70384A1370FEF7DCFF68
:1047A0000A20374B03211B78584303F07FFFFDF7A6
:1047B00043F93870FEF7D0FF324B1C78002C00D143
:1047C0003BE11D2802D0122800D0A5E02E4B1B781B
:1047D0000393002B60D02D4B1D782800FBF750FE73
:1047E00004002800FCF768F9294F380004F059FA52
:1047F00005002020FBF744FE264E021B611E6019B7
:104800008919801904F037FAFE2300253355380042
:1048100004F047FAA84206D97A5D631CF3185A558A
:104820000135072DF3D10022164B1A70FEF7C9FF90
:104830000000F0BF4D62503FAD060010C0BC00004C
:104840001C000010A7060010AC0600109406001013
:104850001F11001080060010C0060010780600101E
:1048600000001040000008409C060010F8060010F0
:104870000007001000002E40D40600109B06001018
:10488000220000108F0600109F0600102813001051
:10489000630600105F080010D44B1B78002BC2D0B9
:1048A000D34B1C782000FBF78FFE01340700E0B2E9
:1048B000FBF78AFECF4E0500300004F0F2F9C4B2D7
:1048C000FBF798FE691E421BCB4DE01901324919D6
:1048D000401904F0D0F97B1918002200310004932C
:1048E00004F086F9C54B1B78002B9CD0C44E33785E
:1048F000FC180093FBF77EFE009B6119C21B01347C
:10490000D218601904F0B7F90A2233780499CA540E
:10491000BA4B039A1A7086E7012804D10F22B94BCB
:104920001A70FEF74EFF022809D1B74A13780B2BF5
:1049300001D9FEF746FF01331370FEF742FF04284A
:1049400009D1B04A1378002B01D1FEF73AFF013BA1
:104950001370FEF736FF052804D10822A94B1A7000
:10496000FEF72FFF062809D1A64A13780E2B01D98E
:10497000FEF727FF01331370FEF723FF072804D14A
:104980000022A04B1A70FEF71CFF082809D19E4A8E
:104990001378002B01D1FEF714FF013B1370FEF7D3
:1049A00010FF182809D1964A1378002B01D1FEF781
:1049B00008FF013B1370FEF704FF19280DD1904C3E
:1049C0008C48257804F06DF9854201D3FEF7F9FE95
:1049D000237801332370FEF7F4FE21280ED1884C92
:1049E0002078002801D1FEF7ECFE0138C0B2FDF7B7
:1049F0000BFD2378013B2370FEF7E3FE7D4C200086
:104A000004F04FF9814B1A780723002A00D10B33A9
:104A1000984201D3FEF7D5FE7B4B1978794B0901FB
:104A20001B782033C918764BC9B21A78501C1870FD
:104A30002000FBF75FFEFEF7C4FE754D2A78002AC2
:104A400047D01E2802D12C70FEF7BBFE12280BD1D6
:104A5000704B1A78704BD2009B1818685968FBF796
:104A6000B3FE2C70FEF7ADFE082809D1694A137811
:104A7000002B01D1FEF7A5FE013B1370FEF7A1FE4E
:104A8000022809D1634A1378222B01D9FEF799FE37
:104A900001331370FEF795FE09280AD15D4A137899
:104AA000042B03D9053B1370FEF78BFE1470FEF741
:104AB00088FE032801D0FEF784FE564A13781E2B89
:104AC00003D805331370FEF77CFE23231370FEF723
:104AD00078FE524B1C78002C02D01A70FEF771FE43
:104AE0004F4E3378002B58D04E4D2B78002B0ED0E4
:104AF000021FD1B205290AD8591E06234B439B1821
:104B0000494A9B009B5898472C70FEF75AFE474B2A
:104B10001B78002B27D00438C4B2052C1ED83222B3
:104B200010006043424D434B2900C01804F060F868
:104B30002A78414BA400FF2A0BD000223F481B19C2
:104B4000A95CFF290AD0415C99540132042AF7D1AB
:104B500004E02D221A5500221B195A700022334BF3
:104B60001A70FEF72EFE364B1B78002B11D004383E
:104B7000C1B2052906D8322251432E4809182C48C3
:104B800004F036F8FCF70CFF00222D4B1A70FEF7EC
:104B900018FEFCF767FEFEF714FE2A4D2B78002B5B
:104BA00000D1E3E003001D3B274E012B01D9122861
:104BB0000BD100232B70FCF7F3FE3078FCF786FE58
:104BC0003078FCF783FEFEF7FCFD3478182850D1CE
:104BD0001E4F3D78022D3DD12000FBF751FC1C4BB0
:104BE0001B5CFD2BE9D0013D41E0C046A80600104A
:104BF0009013001063060010850000109606001048
:104C000062060010D8050010D90500109F0600109C
:104C100098060010D306001030C300009B06001059
:104C20009A0600109D060010E0C40000A5060010C2
:104C30003B000010080700102300001008C300000C
:104C400097060010A0060010281300106006001040
:104C50005F080010012DB0D92000FBF711FCD24BEA
:104C60005B191B18023B1B78FD2BBCD1023D3D702C
:104C7000A3E7192815D1CD4B1B78002B70D120004C
:104C8000FBF7FEFBCA4FC84B3D781B185B5DFD2B45
:104C900001D10235EBE7FBF709FCA8428DD90135BC
:104CA000E5E7212840D1C24D2F78002F85D07B1E0B
:104CB000DBB20093012F32D02000FBF7E1FBBA4BAF
:104CC000DF193F18023F3B78FD2B28D120000099C7
:104CD000FBF718FF297830780239C9B2FBF712FFC9
:104CE0002B78013B2B702B78013BDBB22B70002B18
:104CF00000D062E737783800FBF7C2FBAA4C235C90
:104D0000FF2B00D159E7012338002B70FBF7B8FBCC
:104D1000235CFD2B00D050E7FB3B2B704DE72000C0
:104D20000099FBF7EFFEDEE70B2808D1A04B1A78BD
:104D3000511C197012212000FBF790FD3DE7262839
:104D40000ED19C4B1C709C4B1A789C4B1A709C4B40
:104D50001A789C4B1A7001229B4B1A700023DCE7D7
:104D6000934B1A78511C19700100E4E7974C237893
:104D7000002B00D16EE1964E33780093002B0BD0C0
:104D80000438C3B2052B03D8924B8000C358984710
:104D900000233370FEF715FD8F4B1B78002B31D0AD
:104DA0008E4B1D782800FBF76BFB04002800FBF7F7
:104DB00083FE8B4F380003F074FF05002020FBF7C3
:104DC0005FFB794E021B611E60198919801903F07F
:104DD00052FFFE23009D3355380003F062FF8542E9
:104DE00006D27A5D631CF3185A550135072DF3D1AD
:104DF0000023794A1370FEF78DFA0122794B1A606D
:104E0000FEF7DFFC784B1B78002B29D00438C4B2A6
:104E1000052C00D9A2E6A022520010006043734B7B
:104E2000614DC018290003F0E3FE1F20FBF728FBAB
:104E30002B5C6F49A400FF2B0CD00123013C0C1903
:104E40002818C25CFF2A00D188E6E2540133052B02
:104E5000F7D183E62D230B5500230C1963707DE6F3
:104E6000644B1C78002C0BD00438C1B2052900D942
:104E700088E6A022520051435C4809184A487FE660
:104E80001E2803D101233370FEF79BFC08280CD1A8
:104E90004B4B524A1C701378032B03D9043B1370FD
:104EA000FEF78FFC1470FEF78CFC02280CD1012257
:104EB000434B1A70494A13781B2B01D9FEF781FC2A
:104EC00004331370FEF77DFC042812D1434A137893
:104ED000002B01D0013B1370002337490B7013786E
:104EE000DB439B0701D0FEF76CFC01230B70FEF740
:104EF00068FC062813D1394A13781E2B01D80133D8
:104F0000137001212C4B19701178032208001040F6
:104F1000114201D0FEF755FC1870FEF752FC122822
:104F20006AD101232B702D4B1E78274B1F78002F41
:104F300022D0204B1E4D1878284BFD2118701F4B96
:104F40001A781D4B1A701F4B1A781D4B1A702A784D
:104F5000531C2B70FBF782FC2A78204B3100187809
:104F6000531C2B70FBF77AFC174B1C70FCF718FDD9
:104F7000FEF708FAFEF725FC3000FBF7A9FA002837
:104F800005D03800FBF794FE2F70FEF71AFCFBF7F4
:104F90008DFAFF2800D10020054B18703000FCF777
:104FA00095FCFEF70EFCC0465F0800108C06001052
:104FB00060060010D006001029130010D106001062
:104FC0002A130010D2060010A20600109F0600103F
:104FD000A306001028C5000090060010281300103A
:104FE000630600101C000010A50600109F090010A9
:104FF0006D000010970600101D2811D1CA4B1878BB
:10500000FBF73EFAC94B1B5CFE2B04D12000FBF7DB
:105010004FFEFEF7D6FB0120FBF74AFEFEF7D1FB61
:10502000212807D1C04B1878FBF746FDFCF7B8FCE8
:10503000FEF7C7FB252804D10122BD4B1A70FEF7ED
:10504000C0FB262801D0FEF7BCFB0122B94B1A7029
:10505000FEF7B7FBB8490A78002A00D1C1E01E2844
:105060000DD1B64A0B701078B54A1070AE4C20784E
:10507000FCF72CFC2078FCF729FCFEF7A2FB1D288E
:1050800009D101232B70FBF711FAFF2800D1002072
:10509000AC4B1870EAE7122801D00B2812D1AA4BAA
:1050A00012201B78002B00D098E00120FBF7E8F9D4
:1050B00004002020FBF7E4F99C490200601803F08B
:1050C000DAFDD3E7212825D12038FBF7D9F90400F0
:1050D0002020FBF7D5F99C4D02002E78934B002E33
:1050E00014D0661E9E19012C07D931000232A01E71
:1050F000121B181803F07CFDB8E7013219193000B3
:10510000121B03F075FD00232B70AFE7021B19196A
:105110001800EFE70A2823D88B4E2020337800931D
:10512000FBF7AEF9009B0400804D002B0CD0012052
:10513000FBF7A6F90134461E221AA919281803F014
:105140009AFD3B78AB5591E7020029007F4803F0B8
:1051500092FD3B782B70FF236B70FE3B337085E72D
:105160000F283BD80120FBF78BF900900220FBF7BA
:1051700087F904002020FBF783F90700009B6B4DA3
:10518000E31A03935B19020029001800049303F04B
:1051900072FD039A6119280003F02AFD009B61004B
:1051A000DE19361BC91A321B4919601903F020FD9C
:1051B000039B3200581E0499401903F019FDA61EE6
:1051C000BA1C601E121B7119401903F054FD002215
:1051D0005F4B1B78AB555C4B1A7047E7FBF75AFBEC
:1051E00044E75C4D2B78002B00D1F7E05A4C237834
:1051F000002B0BD00438C3B2052B03D8574B8000CB
:10520000C358984700232370FEF7DBFA1E2803D10A
:1052100001232370FEF7D5FA212847D1504B1B7884
:10522000002B3FD04F4B1B78002B29D0FBF786F982
:10523000FA220023920007000E0004F0F1F80B00A0
:1052400005000C00034303D1FBF78CF9FEF7B9FA14
:10525000380031006422002304F0E2F8D3B20A934C
:10526000002364220B9328000023210004F0FCF8A3
:105270000A9B0B9CC0186141FBF726FBFEF7A1FAC5
:10528000FBF75CF9384B10221C7800239C4200D1BC
:10529000063A04F0C5F80B000343D5D0FBF714FB26
:1052A000FEF78FFAFBF74AF9FEF78BFA1F2806D1B3
:1052B0002E4B1B78022BC7D9FCF79DFFC4E71328A0
:1052C00011D1FBF73BF904F057F900F017FD00226C
:1052D000274B05F0C7FB04F013F9FBF7F5FAFBF7D2
:1052E00041F9FEF76EFA202806D1204B1B78012BDE
:1052F000AAD9FCF79AFFA7E7252809D1FBF71EF9E1
:105300001C4B03C3FBF7E0FAFBF72CF9FEF759FA45
:10531000262831D1174B18685968FBF7D5FAFBF7E7
:1053200021F9FEF74EFAC046281300105F0800105E
:10533000A5060010970600108D0600108A060010C2
:1053400089060010600600108E060010610800102B
:10535000AC060010A9060010AB0600108CC50000BA
:1053600092190010210000109106001093190010EE
:1053700000002440B819001016281DD1CA4C23780B
:10538000012B01D9FCF751FFFBF7BCFA2378022B64
:1053900001D9FCF730FFFCF7C3FDC44B64201B7838
:1053A000002B00D0C2480021FBF78EFAFBF7D2FA9F
:1053B000FBF7D8F8FEF705FA122801D9FEF701FA33
:1053C000BC4B8000C35898473B780A2B01D8FEF7A6
:1053D000F8F9122B01D1FEF7F4F935E7B64F3B7817
:1053E000002B3FD01E2803D100233B70FEF7E9F9C4
:1053F000132804D11238FBF797FBFEF7E2F90F28C8
:1054000004D10E38FBF7DEFAFEF7DBF9142804D1DD
:105410000F38FBF789FBFEF7D4F9092804D10438CB
:10542000FBF7D0FAFEF7CDF9152804D10B38FBF7BE
:105430007BFBFEF7C6F9082804D10230FBF7C2FA5D
:10544000FEF7BFF9162804D10238FBF76DFBFEF713
:10545000B8F9072801D0FEF7B4F90D30FBF7B2FA1E
:10546000FEF7AFF9954A1378002B00D1D6E0944BA4
:105470001B78002B1ED00438C4B2052C01D9FFF7CD
:105480006DFB80228F4B904D20022900C0185200E6
:1054900003F0AEFB00232021A0008C4C2418EA5C12
:1054A00021700A2A00D0227001330134042BF6D176
:1054B000FFF754FB864C217800290FD00438C0B286
:1054C000052807D8802201027E48520009187E482C
:1054D00003F08EFB00232370FEF773F91E2802D120
:1054E0001170FEF76EF9082809D17A4A1378002B5B
:1054F00001D1FEF766F9013B1370FEF762F902284D
:105500000BD1FBF785F8734D2C780134844201DB15
:10551000FEF757F92C70FEF754F909280AD16D4AA5
:105520001378042B03D9053B1370FEF74AF9117069
:10553000FEF747F903280ED1FBF76AF8654D2C7882
:10554000A31D834203DA05342C70FEF73AF90138C3
:105550002870FEF736F9122803D1FBF7F9FAFEF7A7
:1055600030F90F2806D1FBF7F3FA01225A4B1A70D3
:10557000FEF727F9212801D00D281BD1554E34788C
:105580002000FBF721F801340500E0B2FBF71CF81E
:105590000400FBF72FF8021B4B482118281803F0D2
:1055A00027FB3378002B01D1FEF70BF9013B337059
:1055B000FEF707F90E281CD1FBF72AF8012801D8BD
:1055C000FEF7FFF8434B18780130C0B2FAF7FCFF42
:1055D0003D4D04002B5C002B01D1FEF7F2F8FBF7E8
:1055E00009F8021B601E6119401903F001FBFEF768
:1055F000E8F80C2800D01DE5364B1878FAF7E4FFE0
:105600000400FAF7F7FF304D021B601C61194019C6
:1056100003F031FB0A232B55FEF7D3F8072803D1FB
:1056200001233370FEF7CDF808280AD12B4A2C4805
:105630001478137001220A702A4A04701370FEF75E
:10564000C0F8092808D1254A25491078137001238C
:1056500008702370FEF7B5F8042803D101232B70DE
:10566000FEF7AFF8052805D101233B70FBF7A0FA40
:10567000FEF7A7F8062801D0FEF7A3F80123137060
:10568000FEF79FF8184B1B78002B01D0FEF7EDFDBD
:10569000FEF744FE069B00260027002B01D0FEF7F4
:1056A0004EFCFEF7D3FBC0469319001021000010FA
:1056B0001027000040C50000A4060010A806001036
:1056C000A506001091130010850000108501001040
:1056D000970600109013001096060010890600101F
:1056E0008A060010281300108D060010F8B54E46EB
:1056F00057464546DE46A34BE0B54E0080468946F8
:105700008A4676089E421CDD9F4B9E4209DC06D0ED
:105710005346002B00DCBAE09C4B9D4A09E0002870
:10572000F6D042464B464046494604F05DFA030037
:105730000A0018001100F0BCBB46B246A946A046BC
:10574000F8BD944B9E4200DDA4E0934B9E4200DCEA
:105750008FE001235B429B4642464B46404649460A
:1057600005F080F902000B0006000F0005F07AF941
:1057700004000D00894A8A4B05F074F9894A8A4B66
:1057800004F032FA22002B0005F06CF9874A884BAE
:1057900004F02AFA22002B0005F064F9854A864BB2
:1057A00004F022FA22002B0005F05CF9834A844BB6
:1057B00004F01AFA22002B0005F054F9814A824BBA
:1057C00004F012FA32003B0005F04CF97F4A804B9E
:1057D00006000F002000290005F044F97D4A7E4BA9
:1057E00005F0ACFB22002B0005F03CF97B4A7C4B1A
:1057F00005F0A4FB22002B0005F034F9794A7A4B1E
:1058000005F09CFB22002B0005F02CF9774A784B21
:1058100005F094FB22002B0005F024F90B005946FB
:10582000020001315CD059463000CC00390004F050
:10583000DBF942464B4605F015F96E4D6E4B2D19BE
:105840001C192268636805F079FB42464B4605F057
:1058500075FB02000B002868696805F06FFB030008
:1058600050460A00002800DB63E7802212068A18EF
:105870005FE7624A624B04F0B7F90022614B03F024
:10588000BBFD002800D164E743464A4651E73F4B41
:105890005D4A4EE700F014F95C4B04000D009E4297
:1058A0002FDC5B4B9E4255DC02000B0004F09CF9A0
:1058B0000022544B05F042FB802306000F0000221B
:1058C000DB052000290004F08FF90B0002003900ED
:1058D000300004F0C5FC0023804689469B463BE728
:1058E0003000390004F080F942464B4605F0BAF822
:1058F00002000B004046494605F020FB03000A0069
:1059000017E7444B9E421ADC0022434B05F016FB7E
:10591000002206000F00404B2000290005F0A2F8ED
:105920000022384B04F060F90B000200390030000F
:1059300004F096FC0223804689469B460CE70B0048
:1059400002003649002004F08BFC03238046894680
:105950009B4601E700222B4B05F0F0FA00220600DF
:105960000F00284B2000290004F03EF90B00020034
:105970003900300004F074FC0123804689469B46C0
:10598000EAE6C046FFFF0F440000F07F182D4454A4
:10599000FB21F93FFFFFDB3FFFFF1F3E11DA22E350
:1059A0003AAD903FEB0D76244B7BA93F513DD0A003
:1059B000660DB13F6E204CC5CD45B73FFF830092C9
:1059C0002449C23F0D5555555555D53F2F6C6A2C6E
:1059D00044B4A2BF9AFDDE522DDEAD3F6D9A74AF86
:1059E000F2B0B33F711623FEC671BC3FC4EB989969
:1059F0009999C93FA8C50000C8C500009C750088DA
:105A00003CE4377E0000F03FFB21F9BFFFFFF23F8F
:105A1000FFFFE53FFF7F03400000F83F0000F0BFBD
:105A2000D0B5254A4B0086B05B08934222DD234A5D
:105A3000934209DD02000B0005F080FA02000B0022
:105A40001000190006B0D0BD02AA00F02BFD032300
:105A50001840049A059B012813D0022822D0002860
:105A600019D0029803990124009401F075FD0200F9
:105A70000B00E5E70022002300F0F4FF02000B001A
:105A8000DEE700900298039901F066FD80231B0673
:105A90000200CB18D4E70298039900F0E3FF02005C
:105AA0000B00CDE70298039900F0DCFF80231B0672
:105AB0000200CB18C4E7C046FB21E93FFFFFEF7FA0
:105AC0004B0059087047C046F8B504004A000B0067
:105AD00008002649520D5118270013291ADC002905
