:10000000F02300103D7400003B7400003B740000BE
:100010003B7400003B7400003B74000000000000D3
:100020000000000000000000000000003B74000021
:100030003B740000000000003B740000756A000083
:1000400085680000856800008568000085680000FC
:1000500085680000856800008568000085680000EC
:1000600085680000856800008568000085680000DC
:100070008568000039740000397400001D710000AB
:10008000116B0000296B0000416B0000596B0000F0
:1000900039740000716B000039740000397400007D
:1000A000397400003974000039740000397400009C
:1000B000397400003974000039740000397400008C
:1000C0000523F0B52038434387B00393284B002520
:1000D0001B780493274B1E78842353430593039A7C
:1000E000254B0020D3185B5D049A019393400A00CE
:1000F000DBB202907018C0B2824234D00598141856
:100100001E4820180700002420E01100E7E7022E17
:1001100018D10198A30018410F231840830003430E
:10012000332003405800184355231840430003432D
:1001300060465B00DBB200280FD00298002801D097
:10014000012003438420604301343B54E0B28446E1
:10015000B042DCD30132D2B2CCE758B20028F1DA97
:1001600001200290EEE70135052DCED107B0F0BD9C
:1001700049050010020000109C9A00006008001061
:100180007047000070B5114B01201B78002B1BD06D
:100190000F4A013B1B01D3189D68DC680022002335
:1001A0002800210007F00AFB002802D080231B064C
:1001B000E418084A084B2800210007F013FB03004D
:1001C00001205A1E9341584070BDC046A304001040
:1001D000A80400103EC3D84E7D7F612B0023064A41
:1001E0001370064A1370064A1370064A1370064AC3
:1001F0001370064A137070476A050010A1040010BE
:100200006D0500106C0500106F050010A2040010B1
:10021000002210B5024B1A70FFF7E0FF10BDC04678
:10022000A3040010024A137859424B4113707047DF
:10023000680500100023044A1370044A1370012259
:10024000034B1A707047C0466D0500106C05001016
:100250006A0500100023044A1370044A1370022236
:10026000034B1A707047C0466D0500106C050010F6
:100270006A0500100023034A1370034A1370034AEF
:10028000137070476D0500106C0500106A050010B2
:100290000122034B1A700022024B1A707047C046AD
:1002A0006C0500106A0500100122034B1A70002231
:1002B000024B1A707047C0466D0500106A050010A9
:1002C000024A137859424B4113707047740500106D
:1002D000094B0A4A1978002907D0002119701178B2
:1002E000074B5B18FF21013B19700121054B197069
:1002F000002313707047C046770500101A060010DF
:10030000E8050010700500100122034B1A7000224E
:10031000024B1A707047C046770500101A0600108D
:10032000F8B500250E4B10241D70002200230D4E41
:100330000D4930000A604B608A60CB60220006F0F5
:1003400042FE0A4F31002200380006F03CFE390020
:100350002200074806F037FE064B1D70F8BDC04668
:1003600078090010B0090010C0090010A0090010A1
:10037000900900106A0500100022014B1A707047A6
:1003800071050010044A137859424B411370002242
:10039000024B1A707047C046080000106A05001032
:1003A0000122034B1A700022024B1A707047C0469C
:1003B000080000106A0500100023024A1370024A68
:1003C00013707047080000106A050010054B4018B4
:1003D000197800224018092801DD0A380132C0B21C
:1003E0001A707047900400100022054B401A1978CB
:1003F000401A904201DA0A300132C0B21A707047D6
:10040000900400100122F8B508210600100006F043
:100410008BF90724082700223900012006F084F90F
:10042000320001252241022100202A4006F07CF9F9
:100430002A003900280006F077F9013CEBD2F8BD1C
:10044000002210B504001100022006F06DF9200012
:10045000FFF7D8FF10BD0000F0B5002489B002AB53
:100460000322264901901C7303A806F0ACFD062266
:10047000234906A806F0A7FD0327E5B239002800A6
:1004800007F010F81F4BC6B21E70019BA10059184F
:10049000042204A806F097FD2800390007F088F828
:1004A00003ABC9B25D5C06ABE05C29008038063561
:1004B0003200C0B2FFF704FEEBB20025009304A89F
:1004C00006F0DAFD854204D30134062CD5D109B0FB
:1004D000F0BD082202AB9B18585D0B4B0C211B781A
:1004E000022B00D006216943009B32005918C9B283
:1004F0000135FFF7E5FDEDB2E1E7C0466898000081
:100500006C9800004905001002000010F7B51600B5
:100510001F0002000B00009001913000390007F02D
:1005200087FE03F071FA0022154B08F083FAC0220F
:10053000144BD20507F07CFE002204000D00009849
:100540000199002307F03AF900280FD00022002378
:100550003000390007F032F90022094B002809D099
:100560002000290008F0D2FC04000D002000290022
:1005700003B0F0BD2000290007F01EFBF4E7C046E1
:1005800000806640FB21094030B50E4C85B00393D6
:1005900023780D4D009001910292072B07D970220C
:1005A00028000A4906F052FD2378013B2370207889
:1005B0001022431C000169462818237006F003FD31
:1005C00005B030BDA3040010A8040010B80400104A
:1005D00010B50B4B197800290BD00A4C0A4B013986
:1005E000090110222000591806F0EDFC0FCCFFF78E
:1005F000CBFF0023054A1370054A137010BDC04697
:10060000A304001080050010A8040010A20400102C
:10061000A104001010B5FFF7DBFFFFF7D9FF01229F
:10062000044B1A700023044A1370044A1370044ADE
:10063000137010BD790500106A0500107B050010CD
:100640005C07001030B5002204000D00002385B0C7
:100650000094019502920393009801990022039B54
:10066000FFF792FF2000290005B030BDC02010B573
:100670000349C005FFF7E6FFFFF7B0FD10BDC04618
:10068000FB21094010B505F00FFD07F047FA0449BA
:1006900007F02CF909F076F8FFF7D4FF10BDC0463B
:1006A00000007A4410B5034B0FCBFFF76DFFFFF747
:1006B00095FD10BD8005001010B5034B0FCBFFF763
:1006C00063FFFFF78BFD10BD8009001000B589B0F6
:1006D000684605F0E5FE6B46987B0A236A4630388B
:1006E0005843D27B303A80183C2250436A46527CB1
:1006F000303A53436A46927C303A9B18C01809B08E
:1007000000BD000010B50B4904000020002C0CDCDB
:10071000013464B2012C0CD00022074B07F088FD95
:10072000F6E70022044B08F085F9013C64B2631C33
:10073000F7D110BD0000F03F0000244010B50B4B76
:100740000400197800290AD00139C9B21970084B80
:1007500009011022591806F036FC200010BD0022B5
:100760000023026043608260C360F6E7A3040010C8
:10077000A804001000B58DB06846FFF7DFFF04A89D
:10078000FFF7DCFF009A019B0498059907F014FA23
:10079000029A039B089009910698079907F00CFAB2
:1007A0000A900B910A9A089809990B9BFFF7ECFEA7
:1007B000FFF714FD0DB000BD00B50D4B89B01B78DF
:1007C000012B11D96846FFF7B9FF04A8FFF7B6FF60
:1007D00000980199029A039BFFF7D6FE04980599A9
:1007E000069A079BFFF7D0FEFFF7F8FC09B000BDA3
:1007F000A3040010F0B589B06846FFF79FFF009C86
:10080000019D029E039F22002B003000390007F05B
:100810000FFD32003B0008F00DF922002B0007F01D
:10082000CBF902000B000020124907F001FD320055
:10083000049005913B002000290007F0F9FC2200FC
:100840002B0008F0F7F832003B0007F0B5F9020082
:100850000B000020084907F0EBFC06900791069A70
:1008600004980599079BFFF78FFEFFF7B7FC09B0C7
:10087000F0BDC0460000F03F0000F0BFF0B593B0FF
:1008800006A8FFF75BFF069B079C0AA8009301944C
:10089000089C099DFFF752FF0A9E0B9F0C9A0D9B27
:1008A000009801990292039332003B0008F0C2F8CD
:1008B000029A039B049005912000290008F0BAF8E1
:1008C00002000B000498059908F020FB32000E90FE
:1008D0000F913B002000290008F0ACF8029A039B1E
:1008E00004000D000098019908F0A4F802000B0024
:1008F0002000290007F060F910901191109A0E98CD
:100900000F99119BFFF740FEFFF768FC13B0F0BD95
:1009100010B5FFF76FFFFFF7B1FF10BD064B10B525
:100920000FCBFFF731FE054B187808F005FFFFF7F6
:1009300089FEFFF7EDFF10BD900900107809001047
:1009400010B5FFF745FEFFF799FF10BD00B58BB05E
:10095000FFF718FC002817D006A8FFF7EFFE80204D
:100960000799069A00060B180292039300220023AF
:1009700004920593002202980399059BFFF704FE59
:10098000FFF72CFC0BB000BD02A8FFF7D7FE8020BC
:1009900000068446039B029A0193019961440B006F
:1009A000059906920793049A0B18089209930698E2
:1009B0000799089A099BE1E710B5FFF7C7FFFFF712
:1009C000D9FE10BD274B70B50FCBFFF7DDFD264ECE
:1009D000307808F0B1FEFFF735FEFFF74FFF234CEC
:1009E00020686168A268E368FFF7CEFD204D2868A3
:1009F0006968AA68EB68FFF7C7FDFFF73FFFFFF7DD
:100A0000DBFF1C4B0FCBFFF7BFFD307808F094FEE7
:100A1000FFF718FEFFF732FF20686168A268E368FD
:100A2000FFF7B2FDFFF7D4FDFFF728FFFFF7C4FF84
:100A3000FFF76EFFFFF7CCFD0FCCFFF7A5FDFFF72B
:100A40001DFFFFF783FF0FCDFFF79EFDFFF792FE1F
:100A5000307808F071FEFFF7F5FDFFF759FFFFF75B
:100A6000ABFE70BDB00900107809001090090010AD
:100A7000C0090010A009001000B589B06846FFF752
:100A80005DFE009A019B8020039904920593000665
:100A9000029A0B180692079304980599069A079BE9
:100AA000FFF772FDFFF79AFB09B000BD1FB5074CB9
:100AB0006846FFF743FE69461022200006F083FADD
:100AC0000FCCFFF761FDFFF789FB1FBD8009001008
:100AD00000B589B004A8FFF731FE0498059908F025
:100AE000C5FD40B2FFF70EFE0022002300900191E9
:100AF00002920393009800220199039BFFF744FDA3
:100B0000FFF7BCFE09B000BDF0B589B06846FFF73D
:100B100015FE00980199029C039D03F00FFA060050
:100B20000F002000290003F009F932003B0007F014
:100B300081FF049005912000290003F0ADF93200F7
:100B40003B0007F077FF06900791069A04980599F5
:100B5000079BFFF719FDFFF741FB09B0F0BD10B58A
:100B6000FFF7D2FFFFF734FDFFF744FEFFF7EEFE7D
:100B7000FFF700FE80210020C905FFF763FDFFF7A6
:100B8000C7FE10BD10B5FFF7BFFFFFF721FDFFF750
:100B900031FEFFF7EFFD80210020C905FFF752FD70
:100BA000FFF7B6FE10BD00001FB5074B1B78002BEA
:100BB00006D06846FFF7C2FD0098019905B000BD58
:100BC00000200021FAE7C046A304001010B5FFF78B
:100BD000EBFF06F039FE06F073FEFFF733FDFFF77B
:100BE000FDFA10BD10B5FFF7F3FCFFF7EFFFFFF7BD
:100BF000E3FEFFF7F3FA10BD70B5FFF7D5FF050070
:100C00000C00002200232800210006F0D7FD002858
:100C100002D080231B06E41828002100FFF712FDF4
:100C2000FFF7DCFA70BD000010B5FFF7BDFFE02252
:100C30000B4B120608F06AF9FFF704FD094B0A4A4C
:100C40001860596000210020084B1860596000238B
:100C500001211370064A1170064A137010BDC04678
:100C60004D62603F700900105C07001060050010C5
:100C7000780500106A05001010B51B4C20220021D9
:100C8000200006F0C1F900231A000F2B29D8237089
:100C90000133DBB20134202BF7D1FFF785FF134C72
:100CA00020606160FFF780FFFFF7CCFC02000B00C3
:100CB0000F490A604B602068616808F027F900223C
:100CC0000C4B07F0B5FA01220B4B186059600B4B27
:100CD0001A7000230A4A13700A4A13700A4A1370E2
:100CE00010BD2270D4E7C046B3050010980500106F
:100CF0009005001000003F405805001073050010DB
:100D00006A0500107B0500105C07001010B5FFF7A6
:100D10004BFF8022044B120607F08AFAFFF792FC81
:100D2000FFF75CFA10BDC0465347E13F10B5FFF72F
:100D30003BFFE022044B120607F07AFAFFF782FC31
:100D4000FFF74CFA10BDC04645E2E33F10B5FFF790
:100D50002BFF8022044B120607F06CFEFFF772FC9B
:100D6000FFF73CFA10BDC046EB51044010B5FFF749
:100D70001BFF0022034B07F05DFEFFF763FCFFF74C
:100D80002DFA10BD86480E4010B5FFF70DFF00226A
:100D9000064B08F0BBF8C022054B120607F048FAD4
:100DA000FFF750FCFFF71AFA10BDC04600004040A4
:100DB000CCCCFC3F10B5FFF7F7FE8022044B920528
:100DC00007F036FAFFF73EFCFFF708FA10BDC04601
:100DD00011A3014010B5FFF7E7FE0022064B07F014
:100DE00029FEC022054BD20507F022FAFFF72AFCA4
:100DF000FFF7F4F910BDC04600806640FB210940B2
:100E0000F7B5FFF7D1FE1E4A1E4B06F0D5FE0D00CA
:100E1000040008F02BFC08F05FFC00900191020038
:100E20000B002000290008F071F80022164B07F093
:100E300001FE0D00040008F019FC08F04DFC06004E
:100E40000F0002000B002000290008F05FF80022CC
:100E50000D4B07F0EFFD00220C4B07F0E9F93200D3
:100E60003B0006F0A9FE0022084B07F0E1F9009ACA
:100E7000019B06F0A1FEFFF7E5FBFFF7AFF9F7BD19
:100E8000BBBDD7D9DF7CDB3D0000594000004E40A0
:100E900010B5FFF791FCFFF787FE124C20606160F0
:100EA000FFF782FEFFF7CEFB2268636808F02EF89A
:100EB00000220D4B07F0BEFD00220C4B07F0B8F9E5
:100EC0000B4B01221860596000200021094B18606B
:100ED0005960094B1A700023084A1370084A1370AE
:100EE00010BDC046900500100000E03F0000244007
:100EF00058050010600500106E0500106A0500100E
:100F00005C070010F8B5FFF74FFE06F07FFCC4B297
:100F1000FFF74AFE06F07AFCC5B200202C1B0C49F4
:100F2000E4B20134FFF78EFB631EDBB29D4202D8B0
:100F3000FFF754F9F8BDFFF737FE06000F00200059
:100F400008F0CAFB32003B0007F074FDE9E7C04639
:100F50000000F03FF8B5FFF727FEFFF773FB06F040
:100F600055FC0124C5B2FFF7CDFFAC4200D9F8BD56
:100F7000FFF71AFE060020000F0008F0ADFB02008C
:100F80000B003000390007F053F90134FFF75AFB2A
:100F9000E4B2EAE710B5FFF707FE8022044B120621
:100FA00007F048FDFFF74EFBFFF718F910BDC046EC
:100FB0005347E13F10B5FFF7F7FDE022044B12065F
:100FC00007F038FDFFF73EFBFFF708F910BDC046FC
:100FD00045E2E33F10B5FFF7E7FD8022044B120620
:100FE00007F026F9FFF72EFBFFF7F8F810BDC04613
:100FF000EB51044010B5FFF7D7FD0022034B07F07B
:1010000017F9FFF71FFBFFF7E9F810BD86480E4000
:1010100010B5FFF7C9FDC022064B120607F00AFD06
:101020000022054B06F0C8FDFFF70CFBFFF7D6F8D2
:1010300010BDC046CCCCFC3F0000404010B5FFF7CF
:10104000B3FD8022044B920507F0F4FCFFF7FAFA97
:10105000FFF7C4F810BDC04611A3014010B5FFF75B
:10106000A3FDC022064BD20507F0E4FC0022054B8D
:1010700007F0DEF8FFF7E6FAFFF7B0F810BDC0465C
:10108000FB21094000806640F0B585B0FFF78CFD7C
:101090000022294B07F0CEFC284A294B06F08CFD94
:1010A0000022254B04000D0007F0C2F808F0DEFA1C
:1010B00008F012FB0022204B0090019107F0BAFCCF
:1010C0000290039102000B002000290007F01EFF90
:1010D00000221C4B07F0ACF808F0C8FA08F0FCFA44
:1010E0000022184B06000F0007F0A4FC02000B00C2
:1010F0002000290007F00AFF029A039B07F006FF71
:101100000022114B07F094F8002204000D0030007B
:1011100039000E4B07F08CF8009A019B06F04CFD4D
:1011200002000B002000290006F046FDFFF78AFAB6
:10113000FFF754F805B0F0BD0020AC40BBBDD7D9D7
:10114000DF7CDB3D00004E400088C340000059407A
:10115000F0B58DB0FFF716F8002812D0FFF724FD88
:10116000C0222C4BD20507F065FC00222A4B07F069
:101170005FF802F091FEFFF765FAFFF72FF80DB068
:10118000F0BD04A8FFF7DAFA06980799049C059DBC
:1011900002F0D4FE06000F002000290002F07CFEC1
:1011A0003200029003913B0000201C4907F040F8F8
:1011B00032003B000090019106F0FEFC029A039B76
:1011C00007F038FC0022164B07F034FC0890099118
:1011D000C02022002B001349C00507F097FE02F043
:1011E0005BFE009A019B04000D003000390007F0FF
:1011F0008DFE22002B0007F01DFC0022084B07F09B
:1012000019FC0A900B910A9A089809990B9BFFF711
:10121000BBF9B2E7FB210940008066400000F03FC7
:101220000000E03FFB21F93FF0B58DB0FEF7AAFFCB
:10123000002812D0FFF7B8FCC0222E4BD20507F0D1
:10124000F9FB00222C4B06F0F3FF02F077FDFFF7CD
:10125000F9F9FEF7C3FF0DB0F0BD04A8FFF76EFA71
:1012600006980799049E059F02F068FE0400C020BE
:101270000D0032003B002149C00507F047FE02F097
:101280000BFE2200029003912B0000201C4906F067
:10129000CFFF22002B000090019106F08DFC029AF6
:1012A000039B07F0C7FB0022164B07F0C3FB089017
:1012B00009913000390002F0EFFD80231B06CE18A3
:1012C0000700009A019B2000290007F01FFE020082
:1012D0000B003800310007F0ADFB0022094B07F08E
:1012E000A9FB0A900B910A9A089809990B9BFFF7A2
:1012F0004BF9AEE7FB21094000806640FB21F93F36
:101300000000F03F0000E03F084B400070B5C45CB7
:101310001B185D7820002900002205F0B9F929008A
:101320000122200005F000FA70BDC0464B9D000070
:1013300030B5214B85B01B78002B33D01F4A107875
:1013400000281DD0431EDBB21370002B25D00238BD
:1013500040B2FFF7D7F904000D00FFF725FC0200AB
:101360000B002000290007F065FB06F06DFA06F07F
:10137000A7FA22002B0006F05BFFFFF763F90CE0F1
:10138000FFF712FC0E4B002206F052FF06F05CFA4B
:101390000B00034303D1FEF721FF05B030BD06F07B
:1013A0008FFAEAE76846FFF7C9F91022694605484F
:1013B00005F009FEF1E7C046A2040010A1040010E8
:1013C000000024408005001000B5124B8DB01B7842
:1013D000022B1CD96846FFF7B1F904A8FFF7AEF954
:1013E00008A8FFF7ABF900980199029A039BFFF751
:1013F000CBF8089809990A9A0B9BFFF7C5F804984F
:101400000599069A079BFFF7BFF8FEF7E7FE0DB0B8
:1014100000BDC046A304001010B5FFF7D5FFFFF7CD
:10142000D3FF10BD10B5FFF7C7F9FFF7D1F8FFF7ED
:10143000F3FFFFF7C1F9FFF7BFFAFFF7BDF9FFF7B9
:1014400067FA00200249FFF7FDF8FFF717FA10BD11
:101450000000594010B5FFF7AFF9FFF7B9F8FFF7F3
:10146000DBFF00200349FFF7EDF8FFF751FAFFF724
:1014700005FA10BD000059407FB51025324E337873
:10148000013B3370FFF7A4F8304CE3686168A26851
:101490002068FFF779F8FFF78FF9FFF78DFA6846B4
:1014A000FFF74CF92A006946200005F08CFDFFF794
:1014B0008FF8FFF78DF8FFF7E1F9254CE3686168D5
:1014C000A2682068FFF760F8FFF776F9FFF774FA73
:1014D0006846FFF733F92A006946200005F073FDDE
:1014E000FFF76AF9FFF774F8FFF796FFFFF7C6F901
:1014F000184CE3686168A2682068FFF745F8FFF7B9
:101500005BF9FFF759FA6846FFF718F92A006946B0
:10151000200005F058FD104CE3686168A26820685F
:10152000FFF732F8FFF748F9FFF746FA6846FFF78A
:1015300005F92A006946200005F045FD307808F0DD
:10154000FBF8FFF77FF87FBD7809001090090010C5
:10155000A0090010B0090010C00900107FB51025C7
:101560002E4E337801333370FFF732F82C4CE3689A
:101570006168A2682068FFF707F8FFF7FBF8684684
:10158000FFF7DCF82A006946200005F01CFDFFF794
:101590001FF8FFF71DF8FFF771F9224CE368616847
:1015A000A2682068FEF7F0FFFFF7E4F86846FFF74F
:1015B000C5F82A006946200005F005FDFFF7FCF894
:1015C000FFF706F8FFF728FFFFF758F9164CE36816
:1015D0006168A2682068FEF7D7FFFFF7CBF868467E
:1015E000FFF7ACF82A006946200005F0ECFC0F4C30
:1015F000E3686168A2682068FEF7C6FFFFF7BAF8E3
:101600006846FFF79BF82A006946200005F0DBFCDE
:10161000307808F091F8FFF715F87FBD78090010D1
:1016200090090010A0090010B0090010C0090010B6
:10163000F0B52E4D04002B788DB0002B10D12C4E20
:101640003378002B02D06846FFF778F8200008F0C6
:1016500073F8FEF7F7FF012333702B700DB0F0BD68
:10166000244E3578002D21D008A8FFF767F86B1CB1
:1016700068B23370FFF746F806000F00200008F04C
:101680002BF832003B0006F0D3FD089A099B06F0C8
:1016900093FA00240023049005910693079404987C
:1016A0000599069A079BFEF76FFFD7E704A8FFF797
:1016B00045F80498059900220F4B07F0BBF9060086
:1016C00020000F0008F008F802000B00300039007D
:1016D00006F072FA00240023089009910A930B94F3
:1016E000089809990A9A0B9BDDE7C046A2040010EE
:1016F0006F050010A10400100000244010B509205F
:10170000FFF796FF10BD10B50820FFF791FF10BD41
:1017100010B50720FFF78CFF10BD10B50620FFF7AE
:1017200087FF10BD10B50520FFF782FF10BD10B573
:101730000420FFF77DFF10BD10B50320FFF778FFF1
:1017400010BD10B50220FFF773FF10BD10B50120CA
:10175000FFF76EFF10BD10B50020FFF769FF10BD49
:1017600030B50D4B85B01A78002A01D101321A70BC
:101770000A4C2378002B0DD1094D2B78002B02D079
:101780006846FEF7DBFF00200021FEF75BFF012328
:101790002B70237005B030BDA1040010A20400100E
:1017A0006F050010F7B5012004F0C4FB04002220EF
:1017B000002C1DD12500174B0193019B01221E789F
:1017C0005F783000390004F063FF390030000022F8
:1017D00004F0AAFF271D104EFFB2F179B07904F092
:1017E00079FF002805D12800FFF78EFD0B4B185D0F
:1017F000FEBD0134E4B2023EBC42EED12800FFF748
:1018000083FD019B01350233EDB201930A2DD4D142
:10181000FF20EDE74B9D0000439D00001B9D000055
:1018200070B50024FFF7BEFF05000A2005F050F94F
:10183000FF2DF6D10134E4B2032CF3D170BD0000CA
:101840008423CA085343181884235B00984208DA9B
:10185000023BFF3B1940063B8B40024A115C0B43A5
:101860001354704760080010F0B54B4E8DB03378BC
:10187000002B43D0FEF786FC00283FD0FFF794F9F9
:10188000337804000D00002B30D0FEF77BFC0028DD
:101890002CD0FFF789F9414B1B78002B0AD0089414
:1018A00009950A900B91089809990A9A0B9BFEF7E3
:1018B0006BFE1FE0C0223A4BD20507F0BBF80022B6
:1018C000384B06F0B5FC06000F0002F037FA220094
:1018D0002B0007F0AFF8089009913000390002F0B2
:1018E000DBFA22002B0007F0A5F8DAE72000290038
:1018F000FEF7A8FEFEF772FC0DB0F0BD6846FEF7DD
:101900001DFF009C019D029E039F244B1B78002B12
:1019100014D0002200230496059716001F0006929B
:101920000793069A079B04980599FEF72DFE32004F
:101930003B00089409950A920B93B4E732003B00F0
:1019400020002900FEF7E2FD00220023049005910B
:101950000692079304980599069A079BFEF714FED2
:1019600022002B002000290007F064F83200040058
:101970000D003B003000390007F05CF802000B005E
:101980002000290006F018F902F046FB002200238F
:1019900008900991CFE7C046A3040010080000108A
:1019A000FB21094000806640F0B58BB002A8FEF72D
:1019B000C5FE029E039F049C059D32003B00300043
:1019C000390007F037F82200009001912B00200029
:1019D000290007F02FF802000B000098019906F08B
:1019E000EBF802F019FB02F0E1FA220006900791F1
:1019F0002B0030003900FEF789FDC022094BD205CB
:101A000007F018F80022084B06F012FC0890099124
:101A1000089A06980799099BFEF7B6FDFEF7DEFBCC
:101A20000BB0F0BDFB2109400080664010B5FFF708
:101A3000BBFF00200349FEF705FEFFF7B5FFFEF7E9
:101A400067FF10BD0000244070B50024234D200026
:101A50002900FEF7F7FDFEF78DFEFEF7B9FDFEF754
:101A6000B7FDFEF7B5FDFEF7B3FD00201C49FEF7FC
:101A7000E9FDFEF703FFFEF79FFE00201949FEF780
:101A8000E1FDFEF7FBFEFEF7B5FEFEF795FFFEF764
:101A9000B1FEFEF76FFEFFF787FF29002000FEF77B
:101AA000D1FDFEF789FFFEF7E9FEFEF785FEFFF7A1
:101AB0007BFFFEF74BFFC0200B49C005FEF7C2FDC0
:101AC000FFF772FFFEF756FE80210020C905FEF7E2
:101AD000B9FDFEF71DFFFEF74DFE70BD0000F03FA3
:101AE0000000284000002440FB21194030B58DB093
:101AF0006846FEF723FE04A8FEF720FE0498059929
:101B00000022002305F054FE0024002500282BD0DD
:101B10000698079922002B0005F04AFE002823D0E2
:101B20000098019922002B0005F042FE002816D0F3
:101B30000298039922002B0005F03AFE00280ED0EF
:101B40001022134908A805F03EFA089809990A9A44
:101B50000B9BFEF719FDFEF741FB0DB030BD08945D
:101B600009950A940B95F0E704980599069A079B46
:101B7000FEF70AFDFFF718FF00980199029A039BF0
:101B8000FEF702FDFEF77AFEFEF7BEFFE5E7C04670
:101B9000B898000010B500200449FEF753FDFFF788
:101BA00003FFFEF76BFEFEF7AFFF10BD0000244001
:101BB0001FB56846FEF7C2FD009801990022002378
:101BC00005F0F6FD002807D000200021FEF73AFDC1
:101BD000FEF704FB05B000BD029A039B0098019933
:101BE000FEF7D2FCFFF7E0FE00200449FEF72AFDD5
:101BF000FEF744FEFEF788FFECE7C0460000E03F3A
:101C000010B5FEF78BFEFEF7E3FCFEF737FE104C37
:101C1000207807F091FDFEF715FDFEF72FFEFEF789
:101C200095FE0C4B0FCBFEF7AFFCFEF7A3FD207823
:101C300007F082FDFEF706FD00200749FEF702FDD2
:101C4000FEF7BAFEFEF764FEFFF7B2FF10BDC04616
:101C500078090010A00900100000F03FF0B5002442
:101C6000224D89B0FEF7B4FC0026FEF769FE00277E
:101C7000FEF76CFE20002900FEF7E4FCFEF77AFD7B
:101C8000FFF796FFFEF798FD00200096019702945B
:101C9000039502000199039BFEF776FCFEF7EEFD2B
:101CA000FEF768FDFFF780FE002004960597069476
:101CB000079502000599079BFEF766FCFEF746FEB6
:101CC000FEF7DCFDFEF75EFA00280CD0FEF76CFF95
:101CD0000022074B06F0AEFEC022064BD20506F0EE
:101CE000A7FAFEF7AFFC09B0F0BDC0460000F03F18
:101CF00000806640FB21094010B5FFF7AFFFFEF7FB
:101D000025FEFEF73FFA002806D000200449FEF722
:101D100099FCFEF72FFD10BDC0200249C005F6E773
:101D200000805640FB21F93F10B5FEF751FCFEF74D
:101D300007FE00200649FEF785FCFEF71BFDFFF7B6
:101D400037FFFEF757FDFEF799FDFFF787FF10BD40
:101D50000000F03F10B51A4B1B78002B0AD0FEF79D
:101D600037FCFEF7FCFEFEF727FDFEF70BFFFEF744
:101D7000CFFD1BE0134B1B78002B18D0FEF728FC7F
:101D800000201149FEF75EFCFEF7F4FCFEF714FD9F
:101D9000FEF7DCFD00200C49FEF754FCFEF7EAFCE0
:101DA000FEF7B6FDFFF704FFFFF7FEFD10BDFEF7DF
:101DB0000FFCFFF7CDF9FEF7FFFCFFF735FAD6E78A
:101DC0006C0500106D0500100000F03F10B50F4BC2
:101DD0001B78002B02D0FEF7D5FE10BD0C4B1B78F4
:101DE000002B10D0FEF7F4FBFEF7AAFD00200949F6
:101DF000FEF728FCFEF7E0FDFFF7DAFEFEF7BAFC7F
:101E0000FFF7D2FDE9E7FFF70FFAE6E76C050010F0
:101E10006D0500100000F03F10B50F4B1B78002B34
:101E200002D0FEF79CFE10BD0C4B1B78002B10D08F
:101E3000FEF7CEFBFEF784FD00200949FEF702FC09
:101E4000FEF798FCFFF7B4FEFEF794FCFFF7ACFD3D
:101E5000E9E7FFF77DF9E6E76C0500106D05001076
:101E60000000F03FF0B58DB000900291039207930F
:101E7000002200230098029905F0A0FC009D002894
:101E800063D080220A27029B12069C1809AE082202
:101E90002021300005F0B8F8002321003372D44A25
:101EA000D44B009805F0A8FC00282BD12100D24A81
:101EB000D24B009805F08CFC002807D000220023AC
:101EC0002100009805F08EFC00281BD1009A230009
:101ED0001000210007F0ACFB002813D1012266009E
:101EE00076083100C64B0098524207F0A1FB00284B
:101EF0002ED101223100C24B0098524205F068FCFD
:101F0000002825D1BF4909A805F0BEF809AF38005F
:101F100005F0B2F83B000022C5B21900954205D089
:101F200001335C1E2478202C00D18FE2C0B2821ACB
:101F30000132380005F047F80025380005F09CF81C
:101F4000854200D285E20DB0F0BD0127029C9DE7DD
:101F50002100A94AA94B009805F030FC00281AD1AD
:101F60002100A94AA94B009805F046FC002800D1A1
:101F700080E1380007F0B0FB02000B000020A4490C
:101F800006F056F902000B000098210005F016FC3F
:101F9000002800D16EE1002200232100009805F006
:101FA00007FC002800D1F3E0302309AA1370994BF5
:101FB0001978002901D02E2313700123302001E06D
:101FC000D0540133DCB2A142A0D9082BF8D19DE74F
:101FD00028002100904B002206F02CFD0C0005008B
:101FE0000198013843B201930022280021008B4B55
:101FF00005F0E4FB0028EBD16B461B79002205932A
:1020000028002100854B05F0F7FB002204900028F2
:1020100000D0BFE000230299009805F0CFFB431EDB
:1020200098410723181AC3B20693FEF76BFB020010
:102030000B002800210006F0FDFC0022784B060072
:102040000F0005F0B9FD07F011FB39000500300065
:1020500007F00CFB0A2706002800002800D0A5E0A6
:1020600004000A27002E00D0A8E0049B9C4208D25E
:1020700028000A2105F0A0FA05000598013043B2B6
:1020800001936B461B790593059A069B981A40B2FB
:10209000FEF738FB06000F00280007F01DFB3B0091
:1020A000320006F0C5F807F0E1FA3900049030007C
:1020B00007F0DCFA0100280005F064FB019B0C002E
:1020C000002B14DA059B584240B2FEF71BFB0600BA
:1020D0000F00200007F000FB32003B0006F0A8F8DC
:1020E00000224F4B05F068FD07F0C0FA04006B4674
:1020F000019A1B79002A00DA0023069AD31ADBB270
:102100000193484B1B780593002B00D1A1E0464B6F
:102110001D78002D00D19DE009AF3D000A263D4B02
:10212000019A1B78D31A06937B1B0199DAB291426C
:102130004CD80B000BACE41A2E230A25013C23706B
:10214000049B002B00D088E0002200230098029915
:1021500005F034FB002802D02D23013C2370059BA1
:10216000002B04D0304B1B78002B00D0CEE6200093
:1021700004F082FF00220138C0B22018844200D14E
:10218000C4E60378302B00D0C0E602700138F5E7D2
:10219000019029E7280021001F4B06F049F80500AF
:1021A00005980C00013043B2019325E7390005F092
:1021B00003FA049B0133DBB204934EE7300039008D
:1021C00005F0FAF901340600E4B24BE7069A202143
:1021D000934205DD3100200005F0D4FA3031C9B258
:1021E000E9712000310005F0E7F9013D04009BE7AB
:1021F0007DC39425AD49B2543EC3D84E7D7F612B3B
:10220000FFFFEF7F73980000FCA9F1D24D62503FB1
:10221000D0126341A1040010000024400000F03FF0
:102220000000E03FA20400107505001020003900F6
:1022300005F0A8FA303120003170390005F0BCF902
:1022400004000135EDB2019B013EAB42EED10BAC77
:1022500071E7059D0A270BAEF5E70498290005F004
:1022600091FA013C303104982170290005F0A4F95D
:10227000049065E7002300220098029905F09EFA79
:10228000431E9841002306000193002228002100EC
:10229000804B05F093FA002800D097E00022280038
:1022A00021007C4B05F0A8FA002800D099E0019BA2
:1022B00007300833122B00D80820861BF3B2049392
:1022C000049BD81E40B2FEF71DFA02000B00280046
:1022D000210006F0AFFB704B002206000F0005F056
:1022E0006BFC07F0C3F939000500300007F0BEF9B8
:1022F000002306000A272800059300287DD104004A
:102300000A27002E00D080E0059B9C4207D22800BF
:102310000A2105F051F90500019B0133019304984E
:10232000043840B2FEF7EEF906000F00280007F06F
:10233000D3F93B00320005F07BFF07F097F9390035
:102340000400300007F092F90100280005F01AFAA5
:10235000019B0D00DB0F0493019B5E1E01D501263E
:10236000F61A30000A2105F00DFA09AF30313000BD
:10237000F9710A2105F020F90B2608ABF6180028A0
:1023800007D00A2105F0FEF90A26303108ABB971F1
:10239000F618049A2B23013E002A00D002330A27A4
:1023A0003370013E002D38D12E230A353370002CB6
:1023B0003FD1002200230098029905F0FFF9002880
:1023C00000D1A3E52D23013E33709FE528002100B5
:1023D000324B002206F02EFB019B05000C00013B56
:1023E00052E7280021002D4B002205F021FF019B20
:1023F000050001330C00019350E7390005F0DCF8CB
:10240000059B0133DBB2059377E73000390005F017
:10241000D3F801340600E4B273E72800390005F070
:10242000B1F9303128003170390005F0C5F80500E8
:10243000B7E72000290005F0A5F9013E3031200062
:102440003170290005F0B8F80400B0E70132D2B2CB
:1024500063E5134B785D1C78631E9C4101342E2884
:102460000DD1039B079A1E1BF6B2A400310036194A
:10247000FDF726FEF3B201350393EDB25DE5079A51
:102480000399FDF71DFE06235C43039B1C19E3B271
:10249000F1E7C0460000F03F0000E03F00002440AC
:1024A00068050010F8B50C001600124BC2009B180E
:1024B00007001868596822003300FFF7D3FC0E4B61
:1024C0001D78BD4214D184227243053CE4B2141934
:1024D000FF220A4B19191A554A708A70CA700121D5
:1024E000FC3A2A40AD08A94014191A5D8A431A55CE
:1024F000F8BDC046600700106809001060080010B1
:1025000010B5FFF78DF903F0F5FE03F01AFC00207B
:10251000012104F0ABFA002003F00CFD002802D1E9
:10252000012104F0A3FA03F05DFC03F049FC03F081
:1025300051FC10BDF0B50123002585B00293039531
:1025400072B602AE50200027336840421843C0B232
:10255000FDF776FF0020FDF773FF1020FDF770FFF9
:10256000E020FDF76DFF1A4BEB180193019B012250
:1025700000210220DC5D04F0D7F84022E309E001ED
:102580001843630113401843203AE30013401843F3
:10259000103A630013401843083A6310134018437D
:1025A000043AE31013401843022364111C402043F3
:1025B000C0B20137FDF726FF842FD7D1842384359D
:1025C00004365B009D42BDD162B605B0F0BDC04689
:1025D00060080010F0B597B004F074FD03F06AFCD9
:1025E0000021CC4804F0C2F80021CB4804F0BEF82A
:1025F00003F0CBFC03F032FE01220421002004F0A2
:1026000047F800220421100004F08EF80122052171
:10261000002004F03DF800220521100004F084F8A9
:1026200004F01AF803F0DCFE002003F075FFFEF75B
:102630004DF8002306900193B84B1B68002B00D186
:1026400085E084220021B648520004F0DDFCB54B41
:102650001B78002B00D101E1B34FB44B1C685D68BF
:102660003A687B682000290006F050FC02000B004D
:102670002000290005F0DCFD0022AD4B06F0DAF960
:1026800005F0C4F8C3B20293AA4B00241D685E682B
:10269000A94B31001A685B68280006F037FC02007D
:1026A0000B002800310005F0C3FD0022A34B06F00B
:1026B000C1F902000B000020A04906F027FC05F03C
:1026C000A5F831000126C3B204939D4B02222800D5
:1026D0001C702300FFF7C6FB974B3222186859681D
:1026E0002300FFF7BFFB964B02221E708F4B18682A
:1026F00059683300FFF7B6FB386879683300322237
:10270000FFF7B0FB0F2726008E4B6236E15CF6B276
:10271000791A3000C9B2FFF793F8013430000499F8
:10272000FFF78EF8202CEED1FF2202987C4B62300E
:10273000C0B21A541B1884331A707A4B1B78002BC2
:1027400000D139E1FFF7F6FE0022744B1A607E4992
:102750000B780293002B00D1F2E27C4A7C4813787C
:10276000C75CFF2F02D0312B00D8ABE200230B70E7
:10277000FFF756F8774B784A1B7812781343774A5D
:1027800012781343764A12781343FF220192002BEA
:1027900002D1624BFE3A1A60FDF798FF069BC01A01
:1027A0000A2800DD22276F4D2B78002B01D101F084
:1027B00013F86D4CFF2F12D0019B9F420FD0FDF7F5
:1027C00085FF0122554B06901A60222F01D000F0A0
:1027D000BAFCFFF795FEFDF779FFDD370690634BF6
:1027E0001A78634B1B78BF2A04D1002B02D1012039
:1027F0006049087060491B0208789B18029000200D
:1028000008705E495B00C85C0132CB185749D2B2F0
:102810000A70217884465B78FF2906D058480170F9
:10282000FF210120217057490870032119400191AF
:10283000012907D154490A7061469A0889010A435F
:102840004A490A707F221A40302A01D000F089FCE0
:102850004D4A1178454A117000F08DFC4B4B1B78A6
:10286000002B00D17EE14A4B1B78002B10D00EAC20
:102870002000484904F008FC942320002372343BD4
:1028800063723533A372093B2373FDF7E5FD54E70B
:10289000414B1A78414B1B78002B00D1EBE002230F
:1028A0003F490B70002A00D182E03E4B013A1201F1
:1028B0009A183D4B106851681B78002B15D194680D
:1028C000D5680B00020006F0B5F8220006000F00E4
:1028D0002B002000290006F0ADF802000B003000AC
:1028E000390005F069F901F097FB00230C22FFF78E
:1028F000B9FA2E4B1B78002B00D11EE702230021D2
:10290000274A922013700A000D4B1970FDF7D8FB6F
:1029100013E7C046984004409C4004400400001067
:102920006008001072050010980500109005001056
:1029300000004040E0050010D805001000003040C5
:1029400049050010B3050010700500101A060010AC
:10295000E805001078050010790500106E050010DC
:10296000730500106B05001009000010B20500107F
:10297000B00500106905001090040010889D00004B
:102980007A0500104A0500101B06001071050010A2
:102990007405001077980000A3040010680500106B
:1029A00002000010A804001008000010A20400108B
:1029B0000C215F20FDF784FBC54B1A78002A00D05C
:1029C000C0E60121C34B1970C34B1A70C34B187872
:1029D000002804D06530C0B26C31FDF771FBC04BEC
:1029E0001A78002A00D165E100226D214820FDF708
:1029F00067FBBC4B1B78002B08D0BB4B1B78312BE3
:102A000004D800226D219620FDF75AFBB74B1B78A6
:102A1000002B08D0B64B002218787321434258414E
:102A20009430FDF74DFB03F03FFBB24B984200DDC5
:102A30001800B14B984200DA18000A24D221AF4B9B
:102A4000FF31C0184443200004F0B6FD3030C0B25E
:102A500000227F21FDF734FBA94B8A209C4205DC34
:102A60000022A84BE00FA34250418B300022792175
:102A7000FDF726FB66E60293002A04D10821013205
:102A800097E7012302936A469F4B127A1B780492C0
:102A9000029A934262D901220499541AE2B207922F
:102AA00007998D4A1170029A9B1A013B974A1B01A4
:102AB000D3181C685D689E68DF688D4B1B78002BFF
:102AC00021D122002B002000290005F0B3FF3200A5
:102AD0003B00089009913000390005F0ABFF02007F
:102AE0000B000898099905F067F801F095FA320093
:102AF000089009913B0020002900FDF707FD089C84
:102B0000099D06000F00049B002B02D10122804B7F
:102B10001A70082220002900079BFFF7A3F9002262
:102B20007B4B30001A7039000022002304F040FE75
:102B3000002805D13B2230003900079BFFF792F9AE
:102B4000744B1B78002B09D0049B002B06D101226B
:102B5000614B922004991A70FDF7B2FA029B012B87
:102B60008FD1EAE56C4B1C78002C3FD00122594BE9
:102B70001A706A4B1C786A4B1B78002B03D0032C0D
:102B800001D9043CE4B2674B1B78002B03D0002C26
:102B900001D0013CE4B2002501274F4E20002A005D
:102BA00006213570FFF77EFC601C2A003C21C0B274
:102BB000FFF778FC201D3A000621C0B205343770BB
:102BC000FFF770FCE0B23A003C21FFF76BFC0320FA
:102BD000524B2A001C786D21204041303570FDF7A2
:102BE0006FFAA0082A00732131308FE6384B1B782A
:102BF000002B5DD00EAD0E222021280004F004FA37
:102C0000494EAC733378002B24D02800474904F098
:102C10003BFA347001222F4B05251A70002204263E
:102C200006272D4B0EAC1A702078002800D184E5C1
:102C300001222900FDF744FA227833002E2A00D021
:102C40003B005D191F230AAA01349B18EDB2A34271
:102C5000EAD172E5364A2024517B2D2604912E219B
:102C600092788C4602920D223249581C575CC0B2B1
:102C70000EA9072F04D9CC54013ACBD30300F3E7B4
:102C8000029D022A02D00D2A0DD1049D072D08D9DC
:102C9000CE54022FF0D1654602330EA90D54D8B29E
:102CA000EAE7CC54F5E7224D555D3035CD54F0E7D9
:102CB0002148EAE5214B1B78002B00D199E66D21D4
:102CC000682094E601331370FF23019364E5C04646
:102CD0006B05001002000010490500106A05001085
:102CE0006C050010770500101A0600107105001021
:102CF00008000010CC0A0000FC08000004F7FFFFE9
:102D0000B60C000072050000A3040010A804001017
:102D100075050010A2040010760500106809001067
:102D20006A090010690900106905001090980000F8
:102D30006004001070040010979800006D050010EA
:102D4000C84D2C78002C5BD0C74A1D27137801335F
:102D5000DBB21370012B00D11EE5C44C26686768F6
:102D6000022B0CD1FDF720FF32003B0004F024FFC2
:102D7000E02220606160BE4BBE4C120613E0032BC4
:102D80001BD1FDF711FF0022BB4B05F053FE0200E3
:102D90000B003000390006F0B9F8E02220606160D5
:102DA000B64BB44C12062068616804F005FF206041
:102DB0006160FDF747FC1D27EEE4042B06D1FDF70B
:102DC000F3FE0022AC4B05F035FECDE7FDF7ECFE3F
:102DD00002000B003000390006F098F80022A84BE2
:102DE00005F026FAE022A24B120605F021FAFDF7C3
:102DF00029FC0122A34B1A60029B2B70FF27CBE416
:102E0000A14B1B780493002B68D0974F3B7801337C
:102E1000DBB23B70022B0DD81D27022B00D0BBE488
:102E2000FDF7CAFCE02092490006FDF70BFCFDF718
:102E3000A1FCB1E4FDF7C0FCFDF76AFD0020934959
:102E4000FDF700FCFDF796FCE02089490006FDF740
:102E5000F9FBFDF7B1FCFDF75BFDFDF7A5FEFDF706
:102E6000F1FB06000D00FDF7A7FD00220023300056
:102E700029003C7004F0A2FC002802D080231B062D
:102E8000ED18E022824C30002900794B1206277899
:102E900004F094FC002809D1142F09D8FDF798FB01
:102EA000FDF796FB23780133237015E0142F0DD91D
:102EB0000AA8FDF743FC102276490EA804F083F817
:102EC0000E980F99109A119BFDF75EFB01226D4B36
:102ED0001A6000226C4B1A70019F5DE46E4B1C78E7
:102EE000002C68D0604B1D271E780136F6B21E708C
:102EF000012E00D150E45D4F3C687D68022E0BD15D
:102F0000FDF752FE2B00220004F056FE634B3860A2
:102F10007960186859684CE7614B1A685B680292DF
:102F20000393032E0FD1FDF73FFE22002B0004F088
:102F300043FE5A4B386079601A685B6802980399BF
:102F400004F03AFE35E7162E20D80022F3071BD5F1
:102F50008023DB0504920593FDF726FE049A059B6A
:102F600005F068FD22002B0004F026FE3F4B1860A0
:102F70005960B01E06F0B0FB029A039B05F05AFDA3
:102F8000464B1A685B68DBE7464BE3E7FDF70CFE50
:102F90000298039922002B0005F04CFD0022424BC1
:102FA00005F046F9FDF74EFB0122364B1A603A4B0D
:102FB000049A1A7022E73D4E3378002B00D1BDE011
:102FC000294B1D271D780135EDB21D70304B1A7845
:102FD000002A71D1012D01D1FFF7DEFB2F490868CE
:102FE000496802900391022D0DD1FDF7DDFD304BB4
:102FF000186059602F4B1860596002980399FDF7CB
:1030000021FBFFF7C9FB222D24D8FDF7CDFD294C6C
:1030100006000F0002000B002068616804F0E2FB6C
:10302000002801D026606760214C3200206861686A
:103030003B0004F0C3FB002801D026606760A81E97
:1030400006F04AFB164B1A685B6805F0F3FC029A1F
:10305000039B75E704490A700122029803991A70CC
:10306000A7E6C046780500105C0700106005001058
:103070004D62503F70090010000020404D62603FDB
:103080000000284004000010790500100000F0BF87
:103090007B050010B89800006E0500109005001028
:1030A0005805001000001040000008407305001093
:1030B000D8050010E0050010012D01D1FFF76CFBD1
:1030C000212D2ED8B74B1E685F68FDF76DFD0200FD
:1030D0000B003000390005F019FFB34B04001A68EB
:1030E0005B680D003000390005F010FF02000B0096
:1030F0002000290005F09CF80022AC4B05F09AFC5A
:1031000000F070FEAA4BAB4C1D7804F07FFB6419F5
:10311000023C2070681E06F0DFFAA74B1A685B6855
:103120002CE70AA8FDF70AFB0AA8FDF707FB012315
:10313000A24A34701360A24A13705FE6FEF732FBB6
:103140000700FFF729FB0020182F04D1287003F097
:10315000E3F9FFF744FB18609A4BDB5D2370FFF740
:103160003EFB102A3AD16246062152000A40D90994
:103170000A4395490A703F221A40142A38D1624600
:103180000C2192000A4099090A439049895C904AAF
:1031900011700320614664461022014004427FD131
:1031A000190091430A00A8290CD18A488A499A3A01
:1031B00004780D78013AD2B205700C7001300131FB
:1031C000002AF5D1102219009143282900D09DE052
:1031D000002282490A7082490A7097E0D02BCAD136
:1031E000804A1178804A11700021784AFFF733FB3A
:1031F000042A1CD0242A24D000200100342A29D0FB
:103200002C2A2DD00C2A3AD03C2A3FD01C2A43D05D
:10321000182ABED164467548A40099090278214352
:103220006C4CA1540F21013A0A400270B1E762468A
:103230000C21012092000A4099090A4363498854ED
:10324000A7E762460C2192000A4099090A43002030
:103250005E49F4E75D4A815401300C28FAD198E7C1
:10326000624A5B4908701078624694000C22224042
:103270009C09224390428CD101220A7089E7614661
:1032800089000A4099090A435849F6E757490A78DC
:1032900001320F200240F0E754490A78013AF8E77A
:1032A00001291ED0022945D019009143282900D0B8
:1032B00044E30E22474D4E4C4E484F492E78013A7A
:1032C00004962678D2B22E700678013526700E78D4
:1032D00001340670049E01300E700131002AEDD1D8
:1032E00014E019009143282900D03EE30022414810
:1032F0003F49414E374D047894550C780470545D25
:1033000001320C70013001310E2AF4D1019A032AE6
:103310002CD1029A012A05D062469B089001324ABC
:10332000034313702D4B1A782D4B002A00D149E22C
:1033300001224DE219009143A82907D10022254915
:10334000254C105D505401320E2AFAD1102219007A
:1033500091432829DAD121490A7850425041087016
:10336000002AD3D101211E4A1170CFE7019A022A07
:10337000D8D162461820D100014058090143D8062F
:10338000400F01381D4D1E4C062806D8002304F0BE
:1033900075F839676A6D71757700144B1B782B705F
:1033A000237033E0E0050010D805001000002E4027
:1033B0005C070010B3050010580500100400001051
:1033C00072050010F49C0000B00500104A050010C2
:1033D0009004001080040010A005001000000010F0
:1033E000010000107A050010B2050010B1050010B0
:1033F0009104001028050010380500107C0500100D
:10340000480500100323237009332B700022C14BA1
:10341000481E24782D781A701E2800D9BBE004F0CD
:1034200037F88500C600C9007B00E7007200EA009B
:10343000F9006800100113015E002C013A013D0102
:1034400054015200A2005C01980075018E004900F1
:103450008C013D0098019B01B3013100BF01C20105
:1034600023700223D1E723700D23CEE72370AA4BEC
:103470001B78CAE7032323700A33C6E702238EE7CB
:103480000D238CE7A54BA64AA54200D24AE7195D59
:10349000105D115518550134E4B2F5E79F4BA14A70
:1034A000A54200D23EE7195D105D11551855013453
:1034B000E4B2F5E70022994BA54200D232E71A5553
:1034C0000134E4B2F8E7974B954AA54200D229E7C8
:1034D000195D105D115518550134E4B2F5E78F4BB5
:1034E0008F4AA54200D21DE7115D19550134E4B29F
:1034F000F7E78C4B894AA54200D213E7115D1955B5
:103500000134E4B2F7E70022854BA54200D209E777
:103510001A550134E4B2F8E7814B824AA54200D241
:1035200000E7115D19550134E4B2F7E700227D4B45
:10353000A54200D2F6E61A550134E4B2F8E7774A1C
:103540001319E1B28D4214D959780134197001333D
:10355000F7E7744A1319E1B28D420AD95978013458
:1035600019700133F7E76E4A1319E1B28D4200D9A1
:10357000AEE000235355D5E6335D002B01D00200A9
:1035800001000134E4B2A542F6D2002A00D1C9E616
:10359000604B1970C6E611000120624EF3E7604BE4
:1035A000195D5E4B185DFCF71FFF0134E4B2A542C4
:1035B000F5D2B7E6012200211600564B58481A7082
:1035C000A54205D2002900D1ACE6524B1A70A9E6FB
:1035D000035D002B01D0310000220134E4B2EFE79B
:1035E0004F4E0020315DFCF7FFFE30550134E4B250
:1035F000A542F5D296E60122464B1A70A54200D2AA
:1036000090E6474E0020315DFCF7EEFE3055013468
:10361000E4B2F3E7414B6DB2A54202DC00221A5539
:1036200080E65A19013A12785A55013D6DB2F3E716
:103630003B4E3A4B315D185DFCF7D6FE30550134F8
:10364000E4B2A542F4D26DE60122324B1A70A542D3
:1036500000D267E6324E0021305DFCF7C5FE3055E2
:103660000134E4B2F3E7335D002B01D00200010026
:103670000134E4B2A542F6D287E70022012011000E
:10368000274EF7E7264E254B315D185DFCF79EFE71
:1036900030550134E4B2A542F4D243E601221D4B79
:1036A0001A70A54200D23DE61D4E0021305DFCF7A8
:1036B0008DFE30550134E4B2F3E71A4B195D174B18
:1036C000185DFCF791FE0134E4B2A542F5D229E67B
:1036D000597801341970013347E70122002116009F
:1036E0000C4B0E481A70A54200D26BE7035D002B0D
:1036F00001D0310000220134E4B2F4E7084E305D1D
:103700000100FCF763FE30550134E4B2A542F5D266
:1037100008E6C04690040010B105001060040010D7
:1037200080040010700400109A4E9B4B305D195DB0
:10373000FCF75AFE30550134E4B2A542F4D2F1E56B
:10374000944E964B305D195DFCF74EFE30550134BA
:10375000E4B2A542F4D2E5E50122914B1A70A542EC
:1037600000D2DFE58B4E0021305DFCF73DFE305589
:103770000134E4B2F3E7874E874B305D195DFCF707
:1037800025FE30550134E4B2A542F4D2CAE5814E9B
:10379000824B305D195DFCF719FE30550134E4B2FF
:1037A000A542F4D2BEE501227D4B1A70A54200D29B
:1037B000B8E5784E0021305DFCF708FE3055013445
:1037C000E4B2F3E71978002903D0012075490860B5
:1037D0001A700197FEF730FFFF2FFAD0019B9F422E
:1037E000F7D0FCF773FF704B704A1B781278069085
:1037F00013436F4A127813436E4A127813436E4A8A
:103800001278134302D10122664B1A606B4B1B786E
:10381000002B05D06A4A1378591C1170694AD75495
:10382000222F06D1FEF76CFEFCF750FFDD37069025
:10383000CFE7654B00221C78002CC9D163490B7877
:10384000002B17D0624D2B78002B07D0092F05D8FD
:10385000604BBA00D35898472C70BAE7742FB8D889
:103860005D4B1A78272353435C4ADB199B009B5816
:103870009847AEE75A4A1478002C3DD0182F01D152
:103880001370A6E7082F08D1564A574913700A78D3
:10389000032A34D9043A0A709BE7022F08D1012287
:1038A000504B1A70504A13781B2B92D80433E7E719
:1038B000042F0ED14C494D4A0B78002B07D0013B09
:1038C000DBB20B70DB439B0701D10123D8E7002358
:1038D000D6E7062F00D07CE7434A13781E2B01D889
:1038E00001331370117803220800404B104011423D
:1038F00000D01DE518706CE7072F02D101230B7073
:1039000067E7092F11D101231370A0222100384845
:10391000520003F079FB374D200005F00DFF013414
:10392000E4B203C5202CF7D153E7082F00D050E7AD
:10393000012002F0F1FD01232B704AE70022A829A3
:1039400000D0E3E411002C4D2C4C2D482D4E515548
:103950009155124E115591550F4E115491550D4ED2
:10396000915501320E2AF1D1D0E4A82900D0CDE43E
:10397000002224482249074E204D047894550C78A3
:103980000470545D01320C70013001310E2AF4D103
:10399000BCE4C046600400107004001080040010F5
:1039A000900400100400001070050010780500104D
:1039B000790500106E0500107305001077050010E2
:1039C0001A060010E80500107205001071050010BD
:1039D00074050010609D00006A050010C898000082
:1039E000760500106A0900106809001069090010C6
:1039F0001C06001060070010A0050010380500101C
:103A00002805001091040010F8B54E46574645466B
:103A1000DE46A34BE0B54E00804689468A467608CE
:103A20009E421CDD9F4B9E4209DC06D05346002B74
:103A300000DCBAE09C4B9D4A09E00028F6D04246E3
:103A40004B464046494604F0B7F803000A00180008
:103A50001100F0BCBB46B246A946A046F8BD944B47
:103A60009E4200DDA4E0934B9E4200DC8FE00123E8
:103A70005B429B4642464B464046494604F0DAFFCD
:103A800002000B0006000F0004F0D4FF04000D003C
:103A9000894A8A4B04F0CEFF894A8A4B04F08CF89D
:103AA00022002B0004F0C6FF874A884B04F084F8FC
:103AB00022002B0004F0BEFF854A864B04F07CF800
:103AC00022002B0004F0B6FF834A844B04F074F804
:103AD00022002B0004F0AEFF814A824B04F06CF808
:103AE00032003B0004F0A6FF7F4A804B06000F0027
:103AF0002000290004F09EFF7D4A7E4B05F006FA67
:103B000022002B0004F096FF7B4A7C4B05F0FEF967
:103B100022002B0004F08EFF794A7A4B05F0F6F96B
:103B200022002B0004F086FF774A784B05F0EEF96F
:103B300022002B0004F07EFF0B00594602000131E9
:103B40005CD059463000CC00390004F035F84246CC
:103B50004B4604F06FFF6E4D6E4B2D191C192268F9
:103B6000636805F0D3F942464B4605F0CFF90200F1
:103B70000B002868696805F0C9F9030050460A007F
:103B8000002800DB63E7802212068A185FE7624A9A
:103B9000624B04F011F80022614B03F023FE002871
:103BA00000D164E743464A4651E73F4B5D4A4EE742
:103BB00000F014F95C4B04000D009E422FDC5B4BBF
:103BC0009E4255DC02000B0003F0F6FF0022544B2E
:103BD00005F09CF9802306000F000022DB05200081
:103BE000290003F0E9FF0B0002003900300004F067
:103BF0001FFB0023804689469B463BE73000390087
:103C000003F0DAFF42464B4604F014FF02000B00BB
:103C10004046494605F07AF903000A0017E7444B8D
:103C20009E421ADC0022434B05F070F90022060088
:103C30000F00404B2000290004F0FCFE0022384B0E
:103C400003F0BAFF0B0002003900300004F0F0FA74
:103C50000223804689469B460CE70B00020036494A
:103C6000002004F0E5FA0323804689469B4601E7DD
:103C700000222B4B05F04AF9002206000F00284BCA
:103C80002000290003F098FF0B00020039003000EB
:103C900004F0CEFA0123804689469B46EAE6C046F8
:103CA000FFFF0F440000F07F182D4454FB21F93F23
:103CB000FFFFDB3FFFFF1F3E11DA22E33AAD903FEB
:103CC000EB0D76244B7BA93F513DD0A0660DB13F53
:103CD0006E204CC5CD45B73FFF8300922449C23FBB
:103CE0000D5555555555D53F2F6C6A2C44B4A2BF80
:103CF0009AFDDE522DDEAD3F6D9A74AFF2B0B33F48
:103D0000711623FEC671BC3FC4EB98999999C93FBF
:103D100088A30000A8A300009C7500883CE4377EBF
:103D20000000F03FFB21F9BFFFFFF23FFFFFE53F3F
:103D3000FF7F03400000F83F0000F0BFD0B5254AE8
:103D40004B0086B05B08934222DD234A934209DD93
:103D500002000B0005F0DAF802000B001000190059
:103D600006B0D0BD02AA00F02BFD03231840049A30
:103D7000059B012813D0022822D0002819D00298D0
:103D800003990124009401F075FD02000B00E5E7A2
:103D90000022002300F0F4FF02000B00DEE7009099
:103DA0000298039901F066FD80231B060200CB18E0
:103DB000D4E70298039900F0E3FF02000B00CDE77F
:103DC0000298039900F0DCFF80231B060200CB1849
:103DD000C4E7C046FB21E93FFFFFEF7F4B005908D6
:103DE0007047C046F8B504004A000B000800264999
:103DF000520D5118270013291ADC002912DB234A1F
:103E000026000A41100018401D00204307D08020E2
:103E1000000308410024C01890432600050030002C
:103E20002900F8BDDB0FD8074B1C28D00024F4E78D
:103E300033290DDD802226001D00D2009142EED1F3
:103E400022002000190003F0B7FE06000D00E6E78F
:103E50000F4D2600AC46012562446D42D540AC466C
:103E600062461D002242DAD03322511A323A8A4089
:103E70001419A74200D9581C63469C43CDE7054B53
:103E800000241843C9E7C04601FCFFFFFFFF0F00F5
:103E9000EDFBFFFF0000F03FD0B5264A4B0086B097
:103EA0005B08934222DD244A934209DD02000B00A5
:103EB00005F02CF802000B001000190006B0D0BD70
:103EC00002AA00F07DFC03231840049A059B0128F8
:103ED00015D0022823D0002818D00298039900F0AA
:103EE0004FFF80231B060200CB18E5E700230022CA
:103EF0000093002301F0BEFC02000B00DCE70298F7
:103F0000039900F03DFF02000B00D5E70124029861
:103F10000399009401F0AEFC02000B00CCE70124F1
:103F200002980399009401F0A5FC80231B0602006F
:103F3000CB18C1E7FB21E93FFFFFEF7FF8B5040095
:103F40000D0000F091F806000F002000290001F09C
:103F500079FD00280FD0200029000F4A0F4B03F0F5
:103F600041FC00280AD1200029000D4A0D4B03F026
:103F700025FC002809D130003900F8BD05F06EFCA1
:103F800022230026084F0360F5E705F067FC222393
:103F9000002600270360EEE7EF39FAFE422E864046
:103FA00051302DD5104987C00000F07FF8B50400CE
:103FB0000D0000F00BFA220006000F002B0020007D
:103FC000290005F035FB002815D100220023200030
:103FD000290003F007FC00280DD100220023200057
:103FE000290003F0E5FB002808D005F037FC222368
:103FF0000026074F036030003900F8BD05F02EFCA5
:1040000021230360034801F0C3FD06000F00F2E71F
:104010000000F0FFC8A30000F8B504000D0000F098
:10402000D7FD220006000F002B002000290005F01C
:10403000FFFA002807D1002200232000290003F006
:10404000BDFB002802D130003900F8BD05F006FCA8
:1040500021230022036000231000190004F0E8F877
:1040600006000F00EFE7C046F0B5D64600B54B009E
:104070000E00CC0FB549070088B05B088B420FD902
:10408000B3498B4229D93203120B024300D040E1DD
:1040900005003300002C00D11CE10025002319E1AC
:1040A000AC4A934200D91BE1AB4A934200D9BCE031
:1040B000AA4AAB4B310003F07FFD0022A94B03F06D
:1040C00091FB002800D1B0E00022A64B380031005F
:1040D00003F072FD05000B00FCE03100A24AA34B87
:1040E00003F080FB002800D016E138003100A04A20
:1040F000A04B03F063FB002800D021E19E48E400C0
:1041000004199E4A9E4B3800310004F093FC22684B
:10411000636803F051FD05F0A9FA824605F0DCFA68
:10412000984A994B04000D0004F084FC02000B0037
:104130003800310004F0EAFE944A02900391944B57
:104140002000290004F076FC04900591049A059B58
:104150000298039904F0DAFE02000B0007000E003B
:104160000090019104F066FC04000D00894A8A4B1E
:1041700004F060FC894A8A4B04F0C8FE22002B0040
:1041800004F058FC874A884B03F016FD22002B00F0
:1041900004F050FC854A864B04F0B8FE22002B0048
:1041A00004F048FC834A844B03F006FD22002B00F8
:1041B00004F040FC0B0002000098019904F0A6FEF8
:1041C000534604000D0006940795002B61D00200B1
:1041D0000B000098019904F02DFC0F0080210600CF
:1041E00022002B000020C90504F090FE02000B0005
:1041F0003000390004F01CF802000B000498059907
:1042000004F084FE029A039B04F080FE0B0002007F
:104210005449002004F07AFE684B9A4500DA81E0A8
:10422000544624050500631854E03A003300380072
:10423000310004F0FFFB04000D00564A564B04F019
:10424000F9FB564A564B04F061FE22002B0004F0A5
:10425000F1FB544A544B03F0AFFC22002B0004F056
:10426000E9FB524A524B04F051FE22002B0004F0AD
:10427000E1FB504A504B03F09FFC22002B0004F05E
:10428000D9FB02000B003800310004F03FFE06901D
:104290000791069A079B3800310004F0CBFB80237E
:1042A0000D000400069807990022DB0504F02EFE9D
:1042B00002000B002000290003F0BAFF3A0033008F
:1042C00004F024FE0B0002002649002004F01EFE2C
:1042D00005000B002800190008B080BCBA46F0BDEC
:1042E000374A934200D909E7364BE5005B191A6853
:1042F0005B68310004F00AFE029003910120324B0A
:10430000001B5B191A685B6804920593031B9A46AD
:104310001CE702003300D9E6002001F08BFB05000A
:104320000B00D7E7FA24A4005444240563181900AD
:10433000B82300225B0404F07DFB05000B00C9E7F5
:10434000002001F06FFB05000B00C3E7412E864003
:10435000FFFFEF7F422ED63FFFFFEF3D9C750088A9
:104360003CE4377E0000F03FEF39FAFE422E8640F3
:1043700051302DD5104987C0D0A30000FE822B6597
:104380004715F73F0000E0FE422EE63F763C7935C8
:10439000EF39EA3DD0A4BE726937663EF16BD2C5F3
:1043A00041BDBB3E2CDE25AF6A56113F93BDBE1604
:1043B0006CC1663F3E5555555555C53F03FCFFFF43
:1043C000B1A2F03FE0A30000F0A30000F0B5D64694
:1043D0004F4646468022C0B50B0088B0520391423A
:1043E00055DA4A005208024300D1EBE0002900DA16
:1043F00023E1D64B002204F01DFB3625D44C0B00E4
:104400006D42A34247DCD34C1A151B031B0B984685
:10441000A4468024D04B640343442340CF4C6244E1
:1044200052195C4045461B1599462543CB4B290044
:104430009144002204F06AFD434602331B03060048
:104440000F0000221B0B022B2FDC002303F0B0F91E
:10445000002800D1BDE04B46002B00D148E1484682
:1044600005F03AF9BE4ABF4B04000D0004F0E2FA31
:10447000BD4A06000F0020002900BC4B04F0DAFA08
:1044800002000B003000390003F096FB07E0B04C4F
:104490000025A342B7DD02000B0003F08DFB08B03E
:1044A000E0BCBA46B146A846F0BD8023DB0503F068
:1044B00083FB02000B003000390003F0B9FE04005A
:1044C00048460D0005F008F922002B0004900591E4
:1044D000200029000294039504F0ACFAA44B0200DA
:1044E00043449A460B000090019104F0A3FA0400A3
:1044F0000D00A04AA04B04F09DFAA04AA04B03F087
:104500005BFB22002B0004F095FA9E4A9E4B03F0C1
:1045100053FB22002B0004F08DFA9C4A9C4B03F0C5
:104520004BFB009A019B04F085FA9A4A0090019196
:10453000994B2000290004F07DFA984A984B03F02B
:104540003BFB22002B0004F075FA964A964B03F0D1
:1045500033FB22002B0004F06DFA0B0002000098E0
:10456000019903F029FB0D004146904B04005B1AB2
:1045700051460B43002B52DD00228D4B3000390099
:1045800004F058FA3B00320004F054FA4B46009015
:104590000191002B59D102000B002000290003F0EB
:1045A0000BFB029A039B04F045FA02000B000098F3
:1045B000019904F0ABFC02000B003000390004F05C
:1045C000A5FC6CE70022002300207A4903F030FEAE
:1045D00065E7794A794B3000390004F02BFA020084
:1045E0000B000020724904F091FC320004000D0021
:1045F0003B003000390004F01DFA0B0002002900D6
:10460000200004F017FA4B4604000D00002B4DD19A
:1046100002000B003000390004F078FC3FE74B4605
:10462000002B68D122002B003000390004F06EFC12
:10463000029A039B04F0FEF9BDE7020004F066FC59
:104640000022002303F0F4FD29E7454A454B049876
:10465000059904F0EFF9009A019B0690079120005C
:10466000290003F0A9FA029A039B04F0E3F93E4AF9
:1046700004000D00049805993C4B04F0DBF902009E
:104680000B002000290003F097FA02000B000098AD
:10469000019904F03BFC32003B0004F037FC0200BF
:1046A0000B000698079904F031FCF8E6484605F03F
:1046B00013F82B4A2B4B0090019104F0BBF92A4AC6
:1046C0000290039100980199284B04F0B3F902007D
:1046D0000B002000290004F019FC32003B0004F01C
:1046E00015FC02000B000298039904F00FFCD6E6BB
:1046F00000200021D3E61A4A1A4B0498059904F0C9
:1047000099F92200009001912B003000390004F04B
:10471000FDFB029A039B04F08DF9134A04000D007F
:1047200004980599114B04F085F902000B00200054
:10473000290004F0EBFB32003B0004F0E7FB020031
:104740000B000098019904F0E1FBA8E6000050433B
:10475000FFFFEF7F01FCFFFF645F09000000F03FF7
:104760000000E0FE422EE63F763C7935EF39EA3D27
:1047700086EBF9FF44523EDF12F1C23FDE03CB96D7
:104780006446C73F599322942449D23F93555555C7
:104790005555E53F9FC678D0099AC33FAF788E1D27
:1047A000C571CC3F04FA97999999D93F51B8060041
:1047B0000000E03F000050C3555555555555D53FB5
:1047C000F0B54E465746DE464546E0B5DF4B4E0057
:1047D000170089468FB076089E4200DC8BE0DC4BE8
:1047E0009E4228DCDB4A002900DC90E1DA4B04F031
:1047F0008DFBD94B04000D009E4200D191E0D74AB9
:10480000D74B04F083FB02000B0020003A607B6072
:10481000290004F07BFBD24BD04A04F077FB012344
:104820009846B860F96040460FB0F0BCBB46B2464F
:10483000A946A046F0BDCB4B9E4200DC8DE0CA4BA2
:104840009E4263DCC94932158846904443461B05A5
:10485000F51A2900040004F009FF04F03DFF0200EE
:104860000B00200029000892099304F04FFB00225E
:10487000BF4B04F0DFF80D00040004F0F7FE060063
:1048800004F02AFF02000B00200029000A920B937B
:1048900004F03CFB0022B64B04F0CCF800220023CD
:1048A0000C900D9102F084FF002800D103E1330049
:1048B0005A1E93410133AF4A39000192022208A8DF
:1048C0000092424600F074FB4B468046002BAADA69
:1048D00080200006844679683A6861440B00F968D4
:1048E0003A607B6061440B00BA68BA60FB60434683
:1048F0005B42984697E702000B003A607B6000231A
:104900000022BA60FB60002398468CE70B0002008F
:1049100004F0FCFA0023B860F960984638607960CA
:1049200081E7D3228E4B520504F0F0FA924A934B62
:1049300004000D0004F0EAFA02000B0020003A60C7
:104940007B60290004F0E2FA8C4B8B4A04F0DEFA1B
:104950000123B860F960984665E7FFF73FFA884A97
:10496000884B04000D0004F065F80022864B03F02C
:1049700023F904F07BFE804604F0AEFE754A764BC8
:104980000490059104F056F802000B002000290065
:1049900004F0BCFA724B02900391049805996F4A97
:1049A00004F048F8434604000D001F2B36DC774A1C
:1049B000013B9B009B58B34230D0029803992200E0
:1049C0002B0004F0A3FA82468B4652465B463A60BF
:1049D0007B600298039952465B4604F097FA2200E6
:1049E0002B0004F093FA030008001A0019000300DA
:1049F000BA60FB604B46002B00DB14E78023802469
:104A00001B069C464346554624065C4460445B4274
:104A100098463D607C60B960F86004E72B0002981E
:104A20000399220004F072FA4B0036155B0D8246A2
:104A30008B46F31A102BC8DD04980599D322484BF6
:104A4000520503F0F7FF04000D0002000B0002986E
:104A5000039904F05BFA02000B0002980399069296
:104A6000079304F053FA22002B0004F04FFA0400DD
:104A70000D0004980599404A404B03F0DBFF2200EB
:104A80002B0004F043FA0B00020004000D0006980E
:104A9000079904F03BFA4B005B0D82468B46F61AF1
:104AA000312E0ADC02000B003A607B60069A079BFD
:104AB000029203938DE70323FDE6B822049805993B
:104AC0002E4B920503F0B6FF04000D0002000B0010
:104AD0000698079904F01AFA02000B000698079945
:104AE0000292039304F012FA22002B0004F00EFA53
:104AF00004000D0004980599254A264B03F09AFFFF
:104B000022002B0004F002FA04000D0055E7124BBE
:104B100003F052F8104B04000D009E423CD00F4AA7
:104B20000F4B03F049F802000B0020003A607B6055
:104B3000290004F0EBF9094A094B03F03DF8012381
:104B40005B429846B860F9606DE6C046FB21E93FDC
:104B50007BD9024000004054FB21F93F3163621AC7
:104B600061B4D03DFB213941FFFFEF7FEAFBFFFF3E
:104B70000000704180A400007370032E8A19A33BCB
:104B800083C8C96D305FE43F0000E03F00A400002F
:104B9000C14920259A837B39D3220A4B520503F061
:104BA0000BF8094A094B04000D0003F005F8020058
:104BB0000B0020003A607B60290004F0A7F9024A4C
:104BC000024BBAE761B4D03D7370032E8A19A33B40
:104BD000F8B5684BCE4647460500020018000C00A9
:104BE00080B50840984200D1A0E0002969DD081591
:104BF00000D177E0604B0903C4188023090B5B03E5
:104C00001943C30703D4D30F490059185200631046
:104C100098464B00D10F5B180021802016248C464B
:104C2000520080030D189D4202DC29185B1B84444E
:104C3000D50F5B00013CEB1852004008002CF1D16D
:104C40000020814680202026000609E08B425ED0AD
:104C5000D50F5B00013E5B1952004008002E16D0B4
:104C600005198B42F2DD0F002C18002D4BDB5B1A6F
:104C7000AA42894149425B1A521BD50F5B00013E93
:104C8000814439005B1952004008002EE8D11343DB
:104C900045D14B465E0863465910384B99466346EA
:104CA0004944DB0702D580231B061E4343461805F3
:104CB000431835001C0028002100C0BCB946B0468E
:104CC000F8BD4B005B082B43F5D0002000293AD1FA
:104CD000D30A190015385205002BF9D0802464033B
:104CE000234241D1802300245B0349002500013485
:104CF0001942FAD020260B001100A240361BF140C9
:104D0000401B194376E7E743FF0FCF19AFE7954202
:104D10009ED82C18002DF6DB1F000023ACE74B4675
:104D200001331DD04E4601367608B4E72A000B0049
:104D30002800210003F07EFE2A00230002F03CFF41
:104D400005000C00B7E72A000B002800210004F042
:104D5000DDF802000B0003F06BFA05000C00AAE777
:104D600001239946CC4496E70125110020266D4287
:104D7000C5E7C0460000F07F01FCFFFF0000E03FF8
:104D8000F0B54746CE4680B587B000920193F9232F
:104D90004F00814688467F089B059F4263DA04F0F6
:104DA00065FC002800D1DAE04A46434648464146C1
:104DB00003F040FE04000D006A4A6B4B03F03AFE1C
:104DC0006A4A6B4B02F0F8FE22002B0003F032FE21
:104DD000684A694B04F09AF822002B0003F02AFE7F
:104DE000664A674B02F0E8FE22002B0003F022FE29
:104DF000644A654B04F08AF822002B0003F01AFE87
:104E0000624A634B02F0D8FE22002B0003F012FE30
:104E1000029003910022200029005E4B03F00AFE5D
:104E2000029A039B06000F002000290003F002FEF7
:104E3000009A019B04000D004846414603F0FAFD2C
:104E400002000B002000290004F060F802000B00B3
:104E50003000390004F05AF802000B0000204E49DF
:104E600004F054F870E002000B0003F0E3FD0400CE
:104E70000D003C4A3C4B03F0DDFD3C4A3C4B02F04C
:104E80009BFE22002B0003F0D5FD3A4A3A4B04F07A
:104E90003DF822002B0003F0CDFD384A384B02F0DC
:104EA0008BFE22002B0003F0C5FD364A364B04F082
:104EB0002DF822002B0003F0BDFD344A344B02F0E4
:104EC0007BFE2B00220003F0B5FD344B02900391D2
:104ED0009F429FDD324B00229F423ADC3149002045
:104EE0007B182D4916001F0004F010F8049005915E
:104EF000002220002900274B03F09CFD32003B00DC
:104F000004F004F8029A039B06000F002000290019
:104F100003F090FD009A019B04000D0048464146B5
:104F200003F088FD02000B002000290003F0EEFFD3
:104F300002000B003000390003F0E8FF02000B0014
:104F40000498059903F0E2FF07B0C0BCB946B0462B
:104F5000F0BD154B002604920593144FC8E70020BE
:104F60000D49F1E7D43888BEE9FAA8BDC4B1B4BD93
:104F70009EEE213EAD529C804F7E923E9015CB1905
:104F8000A001FA3E7751C1166CC1563F4C5555559C
:104F90005555A53F0000E03F0000F03F3233D33FBE
:104FA0000000E93F0000E0FF0000E73F0000D23FC3
:104FB000F0B5DE4657464E464546E0B5DD4CA544C5
:104FC0000D9119001400A49A0A93DB4B9200D25859
:104FD0000B00013B0493230006900892143300DA7F
:104FE000A1E31821E01E02F0E7FA030001339A0062
:104FF0009B1A0590DB00E318059A0793049BD41ACB
:10500000089AD61814D40136A59F22AD361907E0A8
:10501000A300F85804F060FB013403C5B44207D084
:10502000002CF5DA00200021013403C5B442F7D189
:10503000089B002B01DA00F0FDFB0A9922AA8C469E
:105040009346089A72AB62440392069A9946904638
:105050000093049B9A46DB009B4408339844049BCE
:1050600000240025002B13DB5F4600240025069E4C
:105070003A687B6803CE03F0DDFC02000B002000E1
:10508000290002F099FD083F04000D004645EFD1CC
:105090004B4630C3994608239C46073BE3449C4655
:1050A000039BE2449A45DAD10EA804228446524278
:1050B0006244944608998B009C4462468446083BAF
:1050C00063440B93059B0C92A59A980094460300A9
:1050D000634405930A9B8846DA00069B083B9B467F
:1050E0009344DA464346DB001900009A8C46099344
:1050F000130063441E685F684346002B32DD91460F
:105100008E4B4344DB0099440EAB9B4600228C4BF4
:105110003000390003F08EFC04F0A8FA04F0DCFA49
:105120000022884B04000D0003F084FC02000B00F9
:105130003000390003F0EAFE04F098FA5B4601C340
:105140009B464B4620001A685B68290002F034FD3C
:105150000822524294464B46009A06000F00E14452
:105160009A42D3D1079B30001A0039009B4600F0C9
:1051700015FDFF2300229B0504000D0003F05AFCDF
:1051800000F06AFC0022704B03F054FC02000B009C
:105190002000290003F0BAFE04000D0004F066FAB6
:1051A000814604F099FA02000B002000290003F068
:1051B000ADFE5C4606000F00002C00DC85E0434697
:1051C000591E89000EAB5B5818201A00001B0241C3
:1051D000914482409D1A0EAB5D5017231B1B1D414D
:1051E000002D00DD7EE0002200233000390002F0B7
:1051F000DFFA002800D1E9E04346591E089B8B42A4
:105200000FDC0EAA94460022504B0C9843449B009E
:1052100063441C68043B22438342FAD1002A00D035
:1052200023E1089B0EAA013B9B00D358002B00D022
:1052300016E10B9A01331168043A01330029FAD0C0
:10524000012242449346434403930A9B22AA4344C7
:105250009046009ADB0094469844099B6344994623
:105260005B46059A9B00D05804F036FA4346186016
:105270005960049B002B25DB474600240025069E31
:1052800002E00836386879683268736803F0D2FB48
:1052900002000B002000290002F08EFC083F0400F1
:1052A0000D005645EDD14B469C60DD6001239C46C8
:1052B0000733E3449C46039BE044E1449B45CFDD38
:1052C00098460FE700240025EDE7079B002B00D050
:1052D000BDE04346013B9B000EAAD558ED15002DBD
:1052E00000DC80E701239C464346E144002B00DCC0
:1052F0002FE20E9C002C00D09FE04346012B2FD0C4
:10530000012241460FAB1C68002C00D198E0884672
:10531000531C802149049200091B0EA88150984516
:105320001DDD414684469B008900C25861440848FF
:10533000634410E094FDFFFFC8A50000FFFFFF1FBE
:105340000000703E0000704100002040FFFFFF3F62
:10535000FFFFFF001A68821A04C38B42FAD10124AE
:10536000079B002B0EDD012B00D1D1E1022B09D1CF
:1053700043465A1E92000EAB9B580EA903939B0204
:105380009B0A8B50022D00D02DE732003B000020FD
:10539000934903F0BBFD06000F00002C00D122E76B
:1053A000079A00208E4900F0F9FB02000B00300044
:1053B000390003F0ABFD06000F000022002330008F
:1053C000390002F0F5F9002800D015E74B460693A6
:1053D000079B30005A423900049500F0DFFB0022A1
:1053E000804B04000D0002F007FA002800D1EEE126
:1053F0007D4B00222000290003F01CFB04F036F94D
:1054000042460600970004F067F90022754B03F04E
:1054100011FB02000B002000290003F077FD04F0CF
:1054200025F90EAAD0514246079B01321833039248
:10543000079393000EAAD65032E00123002268E7BA
:10544000013204338A4200D05DE7884688E70022B3
:10545000664B02F0D1F9002800D069E10025C2E6D0
:10546000012343449B460393EFE64B460A00069311
:10547000079B0391183B190007930EA89300C3588C
:105480000495002B0CD18446594B43449B00634444
:105490001868043B013A18390028F9D003920791A3
:1054A0000020079A4E4900F079FB039B04000D0091
:1054B000002B00DAC1E10EAA9446D9009E00009BA1
:1054C00066441A008C46624417009346984605913C
:1054D000306804F001F922002B0003F0ABFA424BD4
:1054E0003860796000222000290003F0A3FA043E0E
:1054F0003B0004000D00083F9845E9D10023994680
:105500004AAB0093089B9A46534600240025002B83
:1055100021DB8020374B5F4698460024002500267B
:105520003549C00508E008239C460837E044B145EA
:1055300011DB4346186859683A687B6803F07AFAC9
:1055400002000B002000290002F036FB01360400A7
:105550000D00B245E7DA009A4B4694460822DB007C
:105560006344524294461C605D604B46039A01338B
:10557000E344914501D09946C6E7009B9A46A49B17
:10558000022B3BDC002B00DDE5E01CD100250024D4
:105590005746059E5644326873682800210002F081
:1055A0000BFB330005000C00083E9F42F3D1049B27
:1055B000002B03D080231B069C4664442A00230052
:1055C0000D990A604B600720069B18409B239B00A7
:1055D0009D44F0BCBB46B246A946A046F0BDC046BD
:1055E0000000F03F000070410000703E0000E03F0E
:1055F000FEFFFF3F88A50000FB21F93FA49B032B82
:10560000E1D1039B002B00D12DE1984A059B9446E4
:1056100053441C685D68039B63449B46DB00534412
:105620009846434620001E685F68290032003B0010
:105630000094019502F0C0FA02000B0004000D0076
:105640003000390003F062FC009A019B02F0B4FACA
:1056500043469860D9601C605D6008235B42C14688
:105660009C46E044CA45DCD1039B012B00DCFAE0F8
:105670005B46DB009946D046059EC84456443468D4
:105680007568434620001E685F68290032003B00B1
:105690000094019502F090FA02000B0004000D0046
:1056A0003000390003F032FC009A019B02F084FACA
:1056B00043469860D9601C605D6008235B424646A3
:1056C0009846B044C245DCD14C460027002508343A
:1056D0005444380022686368290002F06DFA083CDF
:1056E00007000D00A642F4D1049B002B7AD14A9BFF
:1056F0004B9C0D993A000B604C605346DC689B68EC
:10570000009301948B60CC602B000A614B615AE7D7
:1057100043465A1E92000EAB9B580EA903935B02A0
:105720005B0A8B502EE6182300225B42059262E44E
:1057300001239C4643460225E144002B00DDD8E5C9
:1057400032003B0000204A4903F0E0FB06000F0056
:1057500049E5002404E6002500245746059E5644EA
:10576000326873682800210002F026FA3300050031
:105770000C00083E9F42F3D1049B002B48D123002C
:105780002A000D990A604B604A984B9903F0BEFBC2
:10579000039B07000E00002B13DD01244CAD3800E5
:1057A0000CCD310002F008FA039B013407000E0013
:1057B000A342F4DA049B002B03D080231B069C46F3
:1057C00066443A0033000D998A60CB60FBE643469D
:1057D000200029009E0003F049FF0EAB985143467C
:1057E00003935DE6802051460006844649680D9883
:1057F00061440B004A9A6446026043605346D9688C
:105800009A6865440B198260C36007614561DAE6F6
:1058100080234A984B990D9A1B06E3185360156034
:1058200023002A0003F072FB039B07000E00002BED
:10583000B3DCC2E772AB009336E4A49B022B06DC18
:10584000002B0DDC00D0BEE600250024AFE6A49BB3
:10585000032B00D0B7E64AAB002700259A4643E762
:105860000025002488E700273D003DE7FFFFFF1FDC
:105870000000F03FF0B5CE46474680B587B00092B5
:105880000193F9224B00814688465B0892059342BA
:1058900007DA4846414603F0E9FE4A4643460028F7
:1058A0004AD04A4643464846414603F0C3F80400FE
:1058B0000D0002000B004846414603F0BBF83B4A8E
:1058C0003B4B06000F002000290003F0B3F8394AD3
:1058D000394B03F01BFB22002B0003F0ABF8374AD7
:1058E000374B02F069F922002B0003F0A3F8354A88
:1058F000354B03F00BFB22002B0003F09BF8334BDE
:10590000334A02F059F90E9B02900391002B1AD1F1
:1059100002000B002000290003F08CF82D4A2E4BCA
:1059200003F0F4FA32003B0003F084F84A464346A1
:1059300002F042F902000B001000190007B0C0BCD1
:10594000B946B046F0BD002200980199234B03F000
:1059500071F8029A039B049005913000390003F01E
:1059600069F802000B000498059903F0CFFA2200B1
:105970002B0003F05FF8009A019B03F0C7FA154A69
:1059800004000D00144B3000390003F053F80200FE
:105990000B002000290002F00FF902000B0048461E
:1059A000414603F0B3FA02000B00C5E77CD5CF5A9D
:1059B0003AD9E53DEB9C2B8AE6E55A3E7DFEB15790
:1059C000E31DC73ED561C119A0012A3F1111813FD6
:1059D000A6F81011495555555555C53F0000E03FF3
:1059E00070B50D001600040003F038FF29000660B2
:1059F000200070BDD0B51900140082B000280ED070
:105A0000802000061B1800920193009A019B200041
:105A100003F010F82222FFF7E3FF02B0D0BD22000E
:105A20000B00F0E7802310B500225B05FFF7E2FFD3
:105A300010BDC046E02310B50022DB05FFF7DAFFFA
:105A400010BDC046034B48009C4640086044C00F50
:105A50007047C04600001080474AF0B54646904661
:105A60004B005B0D98444F46D6464246C0B50500F4
:105A70000C000E000700132A39DC002A26DB3F4BFE
:105A80008446134199460B408A46034317D03C4A4B
:105A90003C4B2800210002F08FF80022002301F087
:105AA000A1FE002809D0002C04DA802643467603A4
:105AB0001E4136194B4600279E43BC46B24651460E
:105AC0006046E0BCBA46B146A846F0BD2C4A2D4B14
:105AD0002800210002F070F80022002301F082FE6D
