:10000000F02300107D9000007B9000007B900000AA
:100010007B9000007B9000007B90000000000000BF
:100020000000000000000000000000007B900000C5
:100030007B900000000000007B900000CD86000057
:10004000DD840000DD840000DD840000DD8400002C
:10005000DD840000DD840000DD840000DD8400001C
:10006000DD840000DD840000DD840000DD8400000C
:10007000DD84000079900000799000005D8D000023
:10008000698700008187000099870000B187000020
:1000900079900000C98700007990000079900000F5
:1000A000799000007990000079900000799000002C
:1000B000799000007990000079900000799000001C
:1000C000552243084000904313400343DBB2223AD9
:1000D00098089B00104093430343DBB218091B01AF
:1000E0001843C0B2704700000523F0B520384343E1
:1000F00089B004932D4B00271B78019105932C4B5D
:100100001B7800938423534306932A4B049A019D42
:10011000D318DB5D1C000293059B9C400023E4B2D6
:100120000393009B019A9B18DBB29D4239D0069B3A
:100130000026EA18204BD318079325E00195E4E741
:10014000009B022B18D10299B30019410B000F211B
:100150000B409C00234324310B405C001C4355237F
:100160001C4063001C436400E4B2002A13D0039BCC
:10017000002B01D001231C432000FFF7A1FF8423A3
:100180007343079A0136D054009BF2B29A42D7D3F8
:100190000135EDB2C5E763B2002BEDDA012303931D
:1001A000EAE70137052FC9D109B0F0BD610600109B
:1001B0001B000010CCBE000020120010F8B50A4B46
:1001C00005001B780C0016000C27022B00D0063F00
:1001D0002878002800D1F8BD21003200E419FFF78B
:1001E00083FF0135E4B2F3E71B00001070B50D008A
:1001F00004000A21280008F0F1FF30316170280066
:100200000A2108F065FF0A21C0B208F0E7FFC9B271
:100210002023002901D03031CBB2237070BD000003
:1002200010B58424CB085C43842324185B009C42D3
:100230000BDA0120023BFF3B19408840C0B2FFF7B8
:100240003FFF024B1A5D1043185510BD20120010DD
:1002500070B5114B01201B78002B1BD00F4A013BBE
:100260001B01D3189D68DC680022002328002100B0
:1002700009F0BAF8002802D080231B06E418084AC7
:10028000084B2800210009F0C3F8030001205A1E82
:100290009341584070BDC046DC050010E0050010D9
:1002A0003EC3D84E7D7F612B704700000023034A78
:1002B0001370034A1370034A13707047DA05001075
:1002C00095060010DB050010024A137859424B4195
:1002D00013707047890600100023044A1370044A03
:1002E00013700122034B1A707047C046930600102A
:1002F000920600108C0600100023044A1370044A72
:1003000013700222034B1A707047C0469306001008
:10031000920600108C0600100023034A1370034A53
:100320001370034A13707047930600109206001072
:100330008C060010024A137859424B4113707047E3
:10034000910600100122034B1A700022024B1A7012
:100350007047C046920600108C0600100122034B25
:100360001A700022024B1A707047C04693060010A4
:100370008C0600100122014B1A707047980600107D
:100380000849094A0B78002B05D01078074B1B1839
:10039000FF20013B1870002301200B7004491370EB
:1003A00008707047A1060010580800103B000010AC
:1003B00099060010024A137859424B411370704756
:1003C0009D0600100222034B1A700022024B1A7085
:1003D0007047C0469D0600108C0600100322034B98
:1003E0001A700022024B1A707047C0469D0600101A
:1003F0008C0600100022014B1A7070479A060010FC
:100400000022034B1A70034B01321A707047C0462A
:1004100058080010A106001000230F4A70B5137091
:100420000E4A10241370002300220D4E0D49300097
:100430000A604B608A60CB60220008F0E5FB0A4D41
:1004400031002200280008F0DFFB290022000748C5
:1004500008F0DAFB70BDC046DC0500103813001050
:100460007013001080130010601300105013001060
:100470000122034B1A700022024B1A707047C046CB
:10048000200000108C0600100023024A1370024A5C
:1004900013707047200000108C0600100122014BE1
:1004A0001A707047A50600100122014B1A707047A0
:1004B0009706001010B5021C202800D92022002029
:1004C00003000649D2B2934200D310BD0C5CFF2C4E
:1004D00001D10133DBB20130F5E7C0465F080010FF
:1004E00070B5074B1D78681CC0B2FFF7E3FF04002E
:1004F0002800FFF7DFFF013C201AC0B270BDC046E4
:100500002813001010B5FFF7D5FF034B185CFE3819
:1005100043425841C0B210BD5F080010034B1A7827
:10052000034B1A700022034B1A7070478A060010A2
:10053000890600109F06001010B50A4B1878FFF7C7
:10054000B9FF0023084A12180848D45CD9B2FF2C1E
:1005500002D0242B03D11900FF23435410BDC454EF
:100560000133F2E7281300105F0800103408001070
:10057000074A002013780021002B07D0013BDBB293
:100580001370044ADB00D318186859687047C046D6
:1005900093190010981900100023034A1370034A9E
:1005A0001370034A13707047AA06001091190010C7
:1005B00092190010044A137859424B4113700022DB
:1005C000024B1A707047C0462100001091060010BF
:1005D000054B1A78002A02D000221A7070470121B8
:1005E0001970024BF9E7C046910600102100001077
:1005F0000022014B1A707047A9060010020000206B
:10060000030010B5074C934204D2215C002901D0AD
:10061000FF2800D110BD0130C0B20A29F3D1013347
:10062000DBB2F0E7850000100023054AD15C581CBE
:10063000002901D0FF2B01D1C0B27047C3B2F5E74A
:1006400085000010002318000649CA5C002A01D06A
:10065000FF2B00D170470133DBB20A2AF5D10130FC
:10066000C0B2F2E785000010084B400070B5C45CD2
:100670001B185D7820002900002207F035FE2900B4
:100680000122200007F07CFE70BDC0460CC30000B4
:100690000122F8B508210600100007F071FE0724BA
:1006A000082700223900012007F06AFE32000125E8
:1006B0002241022100202A4007F062FE2A00390070
:1006C000280007F05DFE013CEBD2F8BD002210B51A
:1006D00004001100022007F053FE2000FFF7D8FFAE
:1006E00010BD0000A022FF21520010B5094808F0FB
:1006F000ACFA202300200021074A013BDBB203C2F1
:10070000002BFAD1054A1370054A1370054A13707D
:1007100010BDC0465F080010201100102813001003
:100720002A13001029130010F8B5551C86180C0068
:100730001700451908F0C1FAC21B31002800013228
:1007400008F0A5FA3470F8BD30B50E4C85B00393AF
:1007500023780D4D009001910292072B07D970224A
:1007600028000A4908F093FA2378013B2370207887
:100770001022431C000169462818237008F044FA2F
:1007800005B030BDDC050010E0050010F0050010DC
:1007900010B50B4B197800290BD00A4C0A4B0139C4
:1007A000090110222000591808F02EFA0FCCFFF78B
:1007B000CBFF0023054A1370054A137010BDC046D5
:1007C000DC050010B0060010E0050010DB0500108D
:1007D000DA05001010B5FFF7DBFFFFF7D9FF0122A4
:1007E000034B1A700023034A1370034A137010BDA1
:1007F000A7060010AD0600101F11001030B5002232
:1008000004000D00002385B000940195029203932B
:10081000009801990022039BFFF796FF2000290012
:1008200005B030BDC02010B50249C005FFF7E6FF96
:1008300010BDC046FB210940802110B50020C9052C
:10084000FFF7DCFF10BD00001FB50022002300925F
:10085000019300220020054B019902920393039B10
:100860000200FFF771FF05B000BDC0460000F03F79
:1008700010B5024B0FCBFFF767FF10BDB00600109D
:1008800010B5024B0FCBFFF75FFF10BD40130010F8
:10089000F8B5070020200E001400FFF70BFEA02380
:1008A00005005B0098420BD23800FFF703FE2418C6
:1008B0002A1B044D601C6119401908F0E8F92E55F7
:1008C000F8BDC0465F080010F8B506000120FFF72C
:1008D000F1FD471E04002020FFF7ECFD054D01301F
:1008E000021B7919601908F0D2F90022024BEE556B
:1008F0001A70F8BD5F0800108E060010F8B50C4F96
:1009000006003B780D000B4C032B08D92100182260
:100910002000083108F0BBF93B78013B3B703B7885
:100920005A1CDB00E4183A7026606560F8BDC046CA
:10093000931900109819001010B5094B1B78002B63
:1009400007D0084A013BDB00D31818685968FFF745
:10095000D5FF0023044A1370044A137010BDC0462B
:100960009319001098190010AA060010921900108F
:1009700010B5FFF7FDFD002342428B411000190026
:10098000FFF7BCFF10BD000070B5FFF7F1FD0500DB
:100990000C00FFF7EDFD074B1B78002B03D0642202
:1009A000002308F06DFD2A00230008F045FDFFF745
:1009B000A5FF70BD2100001070B5FFF7D9FD0D0037
:1009C0000400FFF7D5FD00196941FFF797FF70BDDF
:1009D00010B5FFF7CDFFFFF7EFFF10BDF8B504002E
:1009E0000025074E8322330083331F7831000548EA
:1009F000013508F04CF93770A542F2D1F8BDC04678
:100A00002012001021120010F8B5040008F055F96A
:100A10000023C7B2661EDAB2E118BA4203D25A1CEA
:100A2000B55C202D06D0C2B2D21A2000013208F0E7
:100A3000EBF8F8BD1300EEE770B5851808000C0060
:100A400008F03BF921000200280008F0DDF870BD35
:100A5000F0B5002489B003221A49019004AF03A81D
:100A60003C7108F0D1F80622174906A808F0CCF826
:100A7000E5B20321280008F02BFB144BC6B21E7010
:100A8000019BA10059180422380008F0BDF8280085
:100A9000032108F0A3FB03ABC9B25D5C06ABE05CCD
:100AA000290080383200C0B20635FFF71DFB013443
:100AB00032003800E9B2FFF781FB062CD8D109B02B
:100AC000F0BDC046D4BA0000D8BA000061060010DC
:100AD00070B5C2000400002100200E4B9B18186066
:100AE00059602000FFF7E6FC0B4E0500335CFF2B3E
:100AF0000ED00134E0B2FFF7DDFC04002020FFF748
:100B0000D9FC611E0130021B8919A81908F07CF874
:100B100070BDC046201100105F08001010B50C0019
:100B2000FFF7C8FC24182020FFF7C4FC021B034871
:100B3000611C0918201808F067F810BD5F08001044
:100B4000F8B505000026064C8322277820000549C9
:100B50008334013608F058F82770AE42F3D1F8BD5F
:100B60002012001021120010F8B5124B1F78781CCB
:100B7000C0B2FFF743FD104D041E104E0CD10A23E6
:100B800030702B706870300008F097F801220C4B21
:100B900018700C4B1A70F8BD3800FFF72FFD241A9F
:100BA000013C29182200300008F02EF800233355AC
:100BB000E9E7C0469013001085000010630600109E
:100BC000620600108F06001010B58424C2B06400C5
:100BD00022006846044908F017F8220069460348D5
:100BE00008F012F842B010BDD8BB0000201200106F
:100BF000F7B516001F0002000B00009001913000B5
:100C0000390009F039FB04F07DFD0022154B09F095
:100C100035FFC022144BD20509F02EFB0022040040
:100C20000D0000980199002308F0DEFB00280FD08A
:100C3000002200233000390008F0D6FB0022094BC7
:100C4000002809D0200029000AF084F904000D00D2
:100C50002000290003B0F0BD2000290008F0D0FFDB
:100C6000F4E7C04600806640FB21094007B507F065
:100C700031F9684601A907F0D5F96B463C205B794C
:100C800058436B469B79C0180EBD000010B507F0A5
:100C900089F808F067FF044908F04CFE0AF096FD59
:100CA000FFF7ACFD10BDC04600007A440023F7B545
:100CB000114F124D3B702B70984218D1104B0124EC
:100CC0001878FFF7F7FB0F4E3618335DFF2B0AD06D
:100CD0006A46137100232800537101A901340AF0F8
:100CE000D3FE082CF1D1280007F0E7FF387001226D
:100CF000054B1A70F7BDC04662060010630600106F
:100D0000281300105F0800108F06001010B50B4963
:100D100004000020002C0CDC013464B2012C0CD047
:100D20000022074B09F0A8FAF6E70022044B09F06D
:100D3000A5FE013C64B2631CF7D110BD0000F03F7A
:100D40000000244010B50B4B0400197800290AD08C
:100D50000139C9B21970084B09011022591807F05E
:100D600053FF200010BD0022002302604360826018
:100D7000C360F6E7DC050010E005001000B58DB09B
:100D80006846FFF7DFFF04A8FFF7DCFF009A019B2E
:100D90000498059908F034FF029A039B0890099182
:100DA0000698079908F02CFF0A900B910A9A089868
:100DB00009990B9BFFF7C8FC0DB000BD10B50020D2
:100DC0000249FFF71BFDFFF7D9FF10BD0000F03F00
:100DD000F0B589B06846FFF7B5FF009C019D029E03
:100DE000039F22002B003000390009F045FA320041
:100DF0003B0009F043FE22002B0008F001FF020037
:100E00000B000020114909F037FA320004900591D7
:100E10003B002000290009F02FFA22002B0009F0E6
:100E20002DFE32003B0008F0EBFE02000B0000201C
:100E3000074909F021FA06900791069A0498059946
:100E4000079BFFF781FC09B0F0BDC0460000F03FF2
:100E50000000F0BFF0B593B006A8FFF773FF069B44
:100E6000079C0AA800930194089C099DFFF76AFF5C
:100E70000A9E0B9F0C9A0D9B009801990292039376
:100E800032003B0009F0FAFD029A039B04900591A1
:100E90002000290009F0F2FD02000B0004980599DA
:100EA0000AF058F832000E900F913B002000290004
:100EB00009F0E4FD029A039B04000D0000980199DB
:100EC00009F0DCFD02000B002000290008F098FE6C
:100ED00010901191109A0E980F99119BFFF734FC06
:100EE00013B0F0BD10B5FFF773FFFFF7B3FF10BDF0
:100EF000064B10B50FCBFFF727FC054B18780AF00F
:100F00003FFCFFF77BFCFFF7EDFF10BD5013001017
:100F10003813001010B5FFF73BFCFFF79BFF10BD27
:100F200000B589B06846FFF70DFF009A019B80204D
:100F30000399049205930006029A0B1806920793F0
:100F400004980599069A079BFFF7FEFB09B000BDC0
:100F500000B589B06846FFF7F5FE029A039B04923C
:100F60000593009A019B0692079304980599069AA7
:100F7000079BFFF7E9FB09B000BD00001FB5064C59
:100F80006846FFF7DFFE69461022200007F03CFEAE
:100F90000FCCFFF7D9FB1FBD4013001000B589B07F
:100FA00004A8FFF7CFFE049805990AF083FB40B22E
:100FB000FFF7ACFE00220023009001910292039300
:100FC000009800220199039BFFF7BEFBFFF742FF49
:100FD00009B000BDF0B504003E4D8DB00A281CD10B
:100FE0003D4B1B78002B18D13C4B1A78002A01D1BD
:100FF00001321A702B78002B0DD1394C2378002B3D
:1010000002D06846FFF79EFE00200021FFF7F6FBA6
:10101000012323702B700DB0F0BD2B78002B0ED167
:101020002F4E3378002B02D06846FFF78BFE20004E
:101030000AF0A6FBFFF7E2FB01233370EAE7274E35
:101040003578002D21D004A8FFF77CFE6B1C68B218
:101050003370FFF75BFE06000F0020000AF060FB14
:1010600032003B0009F008F9049A059B08F0C8FD1E
:1010700000240023089009910A930B940898099979
:101080000A9A0B9BFFF760FBC5E708A8FFF75AFE1B
:1010900008980999104B00221B78002B18D1114B8E
:1010A00009F0ECFC060020000F000AF039FB0200FA
:1010B0000B003000390008F0A3FD00240023049049
:1010C00005910693079404980599069A079BD9E71A
:1010D000054BE5E7DB05001091060010DA0500106E
:1010E00095060010000024400000304010B5064B6B
:1010F0001B78002B03D00122044B1A7010BD0A206C
:10110000FFF768FFFAE7C046910600108806001056
:1011100010B50920FFF75EFF10BD10B50820FFF7DE
:1011200059FF10BD10B50720FFF754FF10BD000098
:1011300010B5054C0F202378002B00D10938FFF79C
:1011400049FF0023237010BD8806001010B5054C20
:101150000E202378002B00D10938FFF73BFF002336
:10116000237010BD8806001010B5054C0D202378A3
:10117000002B00D10938FFF72DFF0023237010BD8D
:101180008806001010B5054C0C202378002B00D1E8
:101190000938FFF71FFF0023237010BD88060010D9
:1011A00010B5054C0B202378002B00D10938FFF730
:1011B00011FF0023237010BD8806001010B5054CE8
:1011C0000A202378002B00D10938FFF703FF002302
:1011D000237010BD8806001010B50020FFF7FAFE3E
:1011E00010BDF0B589B06846FFF7ACFD00980199D5
:1011F000029C039D04F020FD06000F002000290042
:1012000004F01AFC32003B0009F038FC0490059110
:101210002000290004F0BEFC32003B0009F02EFC47
:1012200006900791069A04980599079BFFF78CFA98
:1012300009B0F0BD10B5FFF7D4FFFFF7A9FAFFF72B
:10124000C7FDFFF79BFDFFF7F7FAFFF74BFE10BD59
:101250001FB5074B1B78002B06D06846FFF772FDC1
:101260000098019905B000BD00200021FAE7C046B2
:10127000DC05001010B5FFF7EBFF0AF01BFA942312
:10128000421F5B009A4201D2014B187010BDC0464C
:101290002200001010B5FFF7DBFF08F03DF908F061
:1012A00077F9FFF7ABFA10BD70B5FFF7D1FF050076
:1012B0000C00002200232800210008F095F80028E7
:1012C00002D080231B06E41828002100FFF796FABD
:1012D00070BD000010B5FFF7BBFFE0220B4B1206FC
:1012E00009F038FEFFF78AFA094B0A4A186059607C
:1012F00000210020084B1860596000230121137061
:10130000064A1170064A137010BDC0464D62603F18
:10131000301300101F11001080060010A6060010E8
:101320008C06001010B520220021134807F08DFC18
:10133000FFF78EFF114C20606160FFF789FFFFF718
:101340005DFA02000B000E490A604B60206861687C
:1013500009F000FE00220B4B08F08EFF01220A4B21
:1013600018605960094B1A700023094A1370094A22
:101370001370094A137010BDD4060010C80600107F
:10138000C006001000003F40780600109C060010C8
:101390008C060010AD0600101F11001010B5FFF7ED
:1013A00057FF8022034B120608F066FFFFF726FA6C
:1013B00010BDC0465347E13F10B5FFF749FFE0229B
:1013C000034B120608F058FFFFF718FA10BDC0468D
:1013D00045E2E33F10B5FFF73BFF8022034B1206C7
:1013E00009F04CFBFFF70AFA10BDC046EB51044070
:1013F00010B5FFF72DFF0022024B09F03FFBFFF76E
:10140000FDF910BD86480E4010B5FFF721FF002200
:10141000054B09F09FFDC022044B120608F02CFF7B
:10142000FFF7ECF910BDC04600004040CCCCFC3FBB
:1014300010B5FFF70DFF8022034B920508F01CFF4B
:10144000FFF7DCF910BDC04611A3014010B5FFF74E
:10145000FFFE0022054B09F011FBC022044BD20510
:1014600008F00AFFFFF7CAF910BDC04600806640C9
:10147000FB210940F7B5FFF7EBFE1D4A1D4B08F0B5
:10148000BFFB0D0004000AF015F90AF049F90090BD
:10149000019102000B002000290009F05BFD0022F1
:1014A000154B09F0EBFA0D0004000AF003F90AF0FD
:1014B00037F906000F0002000B002000290009F098
:1014C00049FD00220C4B09F0D9FA00220B4B08F021
:1014D000D3FE32003B0008F093FB0022074B08F0DC
:1014E000CBFE009A019B08F08BFBFFF787F9F7BD55
:1014F000BBBDD7D9DF7CDB3D0000594000004E402A
:10150000F8B5FFF7A5FE07F0E9FFC4B2FFF7A0FEAC
:1015100007F0E4FFC5B200202C1B0B49E4B20134F4
:10152000FFF76CF9631EDBB29D4200D8F8BDFFF7F0
:101530008FFE06000F0020000AF0F2F832003B0098
:1015400009F09CFAEBE7C0460000F03FF8B5FFF762
:101550007FFEFFF753F907F0C1FF0124C5B2FFF783
:10156000CFFFAC4200D9F8BDFFF772FE06002000A5
:101570000F000AF0D5F802000B003000390008F027
:101580007BFE0134FFF73AF9E4B2EAE710B5FFF762
:101590005FFE8022034B120609F070FAFFF72EF966
:1015A00010BDC0465347E13F10B5FFF751FEE022A2
:1015B000034B120609F062FAFFF720F910BDC0468E
:1015C00045E2E33F10B5FFF743FE8022034B1206CE
:1015D00008F052FEFFF712F910BDC046EB5104406F
:1015E00010B5FFF735FE0022024B08F045FEFFF76D
:1015F00005F910BD86480E4010B5FFF729FEC02240
:10160000054B120609F03AFA0022044B08F0F8FAEA
:10161000FFF7F4F810BDC046CCCCFC3F00004040C2
:1016200010B5FFF715FE8022034B920509F026FA4C
:10163000FFF7E4F810BDC04611A3014010B5FFF755
:1016400007FEC022054BD20509F018FA0022044B10
:1016500008F012FEFFF7D2F810BDC046FB2109408A
:1016600000806640F0B585B0FFF7F2FD0022284B00
:1016700009F004FA274A284B08F0C2FA0022244B4A
:1016800004000D0008F0F8FD0AF014F80AF048F81C
:1016900000221F4B0090019109F0F0F90290039194
:1016A00002000B002000290009F054FC00221B4B13
:1016B00008F0E2FD09F0FEFF0AF032F80022174BB5
:1016C00006000F0009F0DAF902000B0020002900E3
:1016D00009F040FC029A039B09F03CFC0022104BED
:1016E00008F0CAFD002204000D00300039000D4B47
:1016F00008F0C2FD009A019B08F082FA02000B007C
:101700002000290008F07CFAFFF778F805B0F0BD5A
:101710000020AC40BBBDD7D9DF7CDB3D00004E4094
:101720000088C3400000594030B5264A264B127845
:101730001B7885B0002A19D0002B0ED0FFF788FD4A
:101740000022224B09F09AF907F0E6FE0B00034352
:1017500035D1FEF7ABFD05B030BD6846FFF7F2FAB4
:10176000102269461A4807F04FFAF4E7002BF4D02C
:10177000184A107800281BD0431EDBB21370002BD0
:10178000E9D0023840B2FFF7C1FA04000D00FFF7BC
:101790005FFD22002B0009F071F907F0BDFE07F094
:1017A000F7FE22002B0008F067FDFFF727F8D2E7CD
:1017B000FFF74EFD0022084B08F05EFDC4E707F07E
:1017C000E7FEF2E791060010DB0500100000B03FD5
:1017D000B0060010DA0500100000244010B5FFF735
:1017E00037FD07F07BFEC0B2072803D8024B187004
:1017F00006F050F910BDC0469D01001010B5FFF76E
:1018000027FD07F06BFEC0B23F2803D8024B1870CB
:1018100006F040F910BDC046C81A001010B504000B
:1018200074280CD9212C17D0FEF740FD193CE4B2E6
:101830000B2C11D80D4BE340DB0716D40CE00C4BFE
:101840001A78272353430B4A1B189B009B58984731
:101850000A2CEBD9122CE5D10023074A1370044A55
:101860001370064A1370064A137010BD210C000055
:101870008C060010F8BC00009D06001093060010B6
:1018800092060010F0B52E4AC30085B0D3181A682E
:101890005B68040000920193FEF70CFE0500FEF762
:1018A00005FDFEF7B9FD274B6E1C5F5DFF2F10D1C4
:1018B000FFF7CEFC224BE4001C1920606160009A07
:1018C000019B09F047FB02000B0009F0D7F805B0B7
:1018D000F0BDFD2F1DD11C4F9E5D3B780235042BC2
:1018E00007D91A480422411C07F0D1F93B78013B83
:1018F0003B70154A1378591C1170144AD654104B7A
:10190000F6009E1930687168FEF778FF2E003500EA
:10191000C9E70F4B06221D7827230E4902A85D4315
:1019200007F072F900237D19EDB202AAD25CAA4237
:10193000EDD00133062BF8D13800FFF76FFFE6E753
:10194000201100105F080010590800105A080010FC
:101950008C060010DFBA0000F8B520250024002610
:1019600000272000FEF7CEFD00280AD12000FFF757
:1019700089FF02000B003000390008F041F9060031
:101980000F000134E4B2202CEBD1E022300039000A
:10199000054B120607F028FD002803D1013DEDB2EA
:1019A000002DDBD1F8BDC0464D62503F70B50D4EE5
:1019B00034782000FEF77EFD0B4B1B5CFF2B02D022
:1019C0002000FFF785F80024084D013DE2B2013404
:1019D000295DFF2902D1FFF7BFFF70BD3078FEF708
:1019E00057FFF3E7281300105F08001034080010B9
:1019F000F7B5012006F01CF904002220002C1DD1AF
:101A00002500174B0193019B01221E785F7830005F
:101A1000390006F069FC39003000002206F0B0FC05
:101A2000271D104EFFB2F179B07906F07FFC002837
:101A300005D12800FEF718FE0B4B185DFEBD0134E2
:101A4000E4B2023EA742EED12800FEF70DFE019B54
:101A500001350233EDB201930A2DD4D1FF20EDE719
:101A60000CC3000004C30000DCC2000070B50024F9
:101A7000FFF7BEFF0500012006F056FEFF2D00D047
:101A800000240134E4B2032CF2D170BD00B50C4B3C
:101A900089B01B78012B11D96846FFF753F904A8C8
:101AA000FFF750F900980199029A039BFEF74CFE4C
:101AB00004980599069A079BFEF746FE09B000BDFB
:101AC000DC05001010B5FFF7E1FFFFF7C1FB124C7A
:101AD00020606160FFF7BCFBFEF790FE2268636840
:101AE00009F038FA00220D4B08F0C8FF00220C4B19
:101AF00008F0C2FB0B4B0122186059600020002146
:101B0000094B18605960094B1A700023084A13707A
:101B1000084A137010BDC046C00600100000E03F28
:101B20000000244078060010800600109406001083
:101B30008C0600101F11001000B58BB0FEF788FB5B
:101B4000002815D006A8FFF7FDF880200799069A0F
:101B500000060B18029203930022002304920593BF
:101B6000002202980399059BFEF7EEFD0BB000BD25
:101B700002A8FFF7E7F8802000068446039B029A3C
:101B80000193019961440B00059906920793049A09
:101B90000B180892099306980799089A099BE3E79E
:101BA00010B5FFF7C9FFFFF7E9F810BD10B5FEF754
:101BB000EFFDFFF76FFBFFF7F3FF10BD10B500203F
:101BC0000249FEF71BFEFFF7EBFF10BD0000F03FE0
:101BD000274B70B50FCBFEF7B7FD264E307809F0D6
:101BE000CFFDFEF70BFEFFF735F9234C2068616847
:101BF000A268E368FEF7A8FD204D28686968AA6816
:101C0000EB68FEF7A1FDFFF725F9FFF7C9FF1C4BB5
:101C10000FCBFEF799FD307809F0B2FDFEF7EEFD2F
:101C2000FFF718F920686168A268E368FEF78CFD89
:101C3000FEF7AEFDFFF70EF9FFF7B2FFFFF752F91F
:101C4000FEF7A6FD0FCCFEF77FFDFFF703F9FFF7C8
:101C500073FF0FCDFEF778FDFFF790F8307809F0AD
:101C60008FFDFEF7CBFDFFF73DF9FFF70FFF70BDCE
:101C70007013001038130010501300108013001060
:101C80006013001010B5FFF7ACFAFEF781FDFFF707
:101C90009FF8FFF751FFFFF771F8FEF7CDFDFFF753
:101CA00021F910BD00B5114B8DB01B78022B1AD94C
:101CB0006846FFF747F804A8FFF744F808A8FFF7BD
:101CC00041F800980199029A039BFEF73DFD0898A0
:101CD00009990A9A0B9BFEF737FD04980599069A15
:101CE000079BFEF731FD0DB000BDC046DC050010BE
:101CF00010B5FFF7D7FFFFF7D5FF10BD10B5FFF701
:101D0000C5FEFEF745FDFFF7F3FFFFF7BFFEFFF748
:101D100047FFFFF7BBFEFFF7E5F800200249FEF79B
:101D20006DFDFFF797F810BD0000594010B5FFF7A3
:101D3000ADFEFEF72DFDFFF7DBFF00200349FEF7A8
:101D40005DFDFFF7CFF8FFF785F810BD00005940A3
:101D50007FB51025324E3378013B3370FEF718FD06
:101D6000304CE3686168A2682068FEF7EDFCFFF77D
:101D70008DFEFFF715FF6846FEF7E4FF2A0069466F
:101D8000200006F041FFFEF703FDFEF701FDFFF71F
:101D900061F8254CE3686168A2682068FEF7D4FC0E
:101DA000FFF774FEFFF7FCFE6846FEF7CBFF2A0044
:101DB0006946200006F028FFFFF768FEFEF7E8FC02
:101DC000FFF796FFFFF746F8184CE3686168A268D2
:101DD0002068FEF7B9FCFFF759FEFFF7E1FE684601
:101DE000FEF7B0FF2A006946200006F00DFF104CF8
:101DF000E3686168A2682068FEF7A6FCFFF746FE6C
:101E0000FFF7CEFE6846FEF79DFF2A0069462000D8
:101E100006F0FAFE307809F0B3FCFEF7EFFC7FBD68
:101E200038130010501300106013001070130010CE
:101E3000801300107FB510252E4E33780133337098
:101E4000FEF7A6FC2C4CE3686168A2682068FEF7E8
:101E50007BFCFEF793FF6846FEF774FF2A00694695
:101E6000200006F0D1FEFEF793FCFEF791FCFEF792
:101E7000F1FF224CE3686168A2682068FEF764FC09
:101E8000FEF77CFF6846FEF75DFF2A0069462000EA
:101E900006F0BAFEFFF7FAFDFEF77AFCFFF728FF1F
:101EA000FEF7D8FF164CE3686168A2682068FEF769
:101EB0004BFCFEF763FF6846FEF744FF2A006946C5
:101EC000200006F0A1FE0F4CE3686168A26820685C
:101ED000FEF73AFCFEF752FF6846FEF733FF2A0092
:101EE0006946200006F090FE307809F049FCFEF7C4
:101EF00085FC7FBD381300105013001060130010D4
:101F0000701300108013001070B5124B1B78002B5B
:101F100012D0FEF72DFB05000C00FEF729FB020096
:101F20000B002800210007F0ABFA6422002307F021
:101F300083FAFEF7E3FC70BDFEF71AFB05000C0008
:101F4000FEF716FB02000B002800210007F098FAAC
:101F5000EFE7C0462100001010B51A4B1B78002B8C
:101F600016D0FEF705FB43B2020601D5404243B24C
:101F700001200021013B5BB25A1C04D1FEF7BEFCDC
:101F8000FFF7C2FF10BD020F090111430001F1E785
:101F90000D4B1B78002B0FD0FEF7EAFA64220023CA
:101FA00007F04AFA40B2FEF7B1FE0022074B08F0F4
:101FB00065FD07F0B1FAE1E7FEF7DAFA40B2FEF7A5
:101FC000A5FEF6E791060010210000100000594020
:101FD00070B50D4B1B78002B03D00C4B01221A70EF
:101FE00070BD0B4C2378002B0CD10A4D2B78002BA5
:101FF00001D0FEF7BDFA00200021FEF77FFC01238F
:102000002B702370044BE9E791060010880600103E
:102010009219001091190010AA060010F7B5364A5F
:10202000364E127833780190002A26D0002B3FD00C
:10203000FEF79EFA6422002305000C0007F0FCF96D
:102040000A22002307F01CFA06000F0028002100D6
:102050000A22002307F0F0F9002530003900D4B23D
:1020600000230A220019694107F00AFA2B00019A9D
:1020700080185941FEF742FC1AE021491500097801
:10208000019C0091002B17D11E4F3B78002B01D0F3
:10209000FEF76EFA009B002B0BD064220023200079
:1020A000290007F0EDF9FEF729FC01233B7033709E
:1020B000F7BD20002900F6E7009B002B0CD0FEF7AF
:1020C00057FA0A22002307F0B7F964220019694180
:1020D000002307F0D5F9CDE7FEF74AFA0A4B1022A4
:1020E0001E780023002E01D10A22002307F0C8F930
:1020F00000196941BEE7C046AA06001092190010F7
:1021000021000010911900109106001010B509204F
:10211000FFF784FF10BD10B50820FFF77FFF10BD4B
:1021200010B50720FFF77AFF10BD000010B5054C71
:102130000F202378002B00D10938FFF76FFF002311
:10214000237010BD8806001010B5054C0E202378B2
:10215000002B00D10938FFF761FF0023237010BD69
:102160008806001010B5054C0D202378002B00D1F7
:102170000938FFF753FF0023237010BD88060010B5
:1021800010B5054C0C202378002B00D10938FFF73F
:1021900045FF0023237010BD8806001010B5054CC4
:1021A0000B202378002B00D10938FFF737FF0023DD
:1021B000237010BD8806001010B5054C0A20237846
:1021C000002B00D10938FFF729FF0023237010BD31
:1021D0008806001010B50020FFF720FF10BDF7B5EE
:1021E000FEF7C6F907000E00FEF7C2F90090019154
:1021F000FEF7BEF905000C0038003100FEF77EFB4B
:1022000028002100FEF77AFB00980199FEF776FB83
:10221000F7BDF8B5FEF7ACF907000E00FEF7A8F918
:1022200005000C0038003100FEF768FB2800210093
:10223000FEF764FBF8BD0000F0B58DB0FEF708F8BE
:10224000002810D0FFF704F8C0222C4BD20508F06C
:1022500015FC00222A4B08F00FF803F09BFCFEF758
:10226000CDFA0DB0F0BD04A8FEF76CFD06980799F5
:10227000049C059D03F0E0FC06000F0020002900EF
:1022800003F088FC3200029003913B0000201D49BE
:1022900007F0F2FF0090019102000B0030003900BE
:1022A00007F0AEFC029A039B08F0E8FB0022164BF5
:1022B00008F0E4FB08900991C02022002B0013498C
:1022C000C00508F047FE03F065FC009A019B04007E
:1022D0000D003000390008F03DFE22002B0008F010
:1022E000CDFB0022084B08F0C9FB0A900B910A9A1B
:1022F000089809990B9BFEF727FAB2E7FB210940E2
:10230000008066400000F03F0000E03FFB21F93F05
:10231000F0B58DB0FDF79CFF002810D0FEF798FFB8
:10232000C0222E4BD20508F0A9FB00222C4B07F04F
:10233000A3FF03F081FBFEF761FA0DB0F0BD04A826
:10234000FEF700FD06980799049E059F03F074FCB4
:102350000400C0200D0032003B002249C00508F0F7
:10236000F9FD03F017FC2200029003912B000020DE
:102370001D4907F081FF0090019102000B00200031
:10238000290007F03DFC029A039B08F077FB00222E
:10239000164B08F073FB089009913000390003F0E8
:1023A000F9FB80231B06CE180700009A019B200032
:1023B000290008F0CFFD02000B003800310008F0C2
:1023C0005DFB0022094B08F059FB0A900B910A9A19
:1023D000089809990B9BFEF7B7F9AEE7FB21094076
:1023E00000806640FB21F93F0000F03F0000E03F25
:1023F00070B5064C0500200006F05FFC691C421B0E
:102400006118601906F000FC70BDC046630600103C
:10241000F0B52F4B87B0070018780291FEF74AF805
:1024200000231C001D0003900193039BE918294B16
:102430005A5CFF2A02D1019807B0F0BDFD2A28D1CD
:10244000212CF2D85B185B78FA3A1A409B0805A950
:1024500031334B70002341320A708B7022003800F8
:10246000FEF7EAFA029BA21CD2B2002B0DD01A4B47
:102470001B78002B09D0023B9D4206D103347F21FB
:102480003800E4B2FEF750F9220002351400EDB234
:10249000CBE7222CC9D8114B661C9B5CF6B23B558E
:1024A000029B002B0FD00C4B1B78002B0BD0013B59
:1024B0009D4208D1023432007F213800E4B2FEF799
:1024C00033F90196260001353400EDB2ADE7C04680
:1024D000281300105F0800106006001020C30000E1
:1024E00070B500248AB003AD18222021280006F020
:1024F000ACFB204901AE0622300008312C7606F0F4
:1025000083FB1D4B1A78A24210D0335D1B49A200F9
:102510009B002800D2B2C9180134FEF78DFA062CB0
:10252000F3D12800FEF794FA0AB070BD144B1C7862
:10253000002C0DD01400335D1249A2009B0028002E
:10254000D2B2C9180134FEF777FA062CF3D1E8E7C6
:102550000D4A1278002AE4D0335D0C49A2009B009A
:102560002800D2B2C9180134FEF766FA062CF3D15E
:10257000D7E7C046D8BC00009A0600102300001020
:102580009F0600106D000010A806001085010010C5
:10259000F0B54A4E8DB03378002B41D0FDF758FE90
:1025A00000283DD0FEF754FE337804000D00002BC8
:1025B00030D0FDF74DFE00282CD0FEF749FE404BF1
:1025C0001B78002B0AD0089409950A900B91089863
:1025D00009990A9A0B9BFEF7B7F81FE0C022394B06
:1025E000D20508F04BFA0022374B07F045FE0600F3
:1025F0000F0003F021FA22002B0008F03FFA0890A8
:1026000009913000390003F0C5FA22002B0008F0D0
:1026100035FADAE720002900FEF7F0F80DB0F0BD3A
:102620006846FEF78FFB009C019D029E039F244B92
:102630001B78002B14D00022002304960597160067
:102640001F0006920793069A079B04980599FEF7C8
:102650007BF832003B00089409950A920B93B6E789
:1026600032003B0020002900FEF7C2FA00220023BE
:10267000049005910692079304980599069A079B82
:10268000FEF762F822002B002000290008F0F6F97E
:10269000320004000D003B003000390008F0EEF974
:1026A00002000B002000290007F0AAFA03F032FB19
:1026B0000022002308900991CFE7C046DC050010F6
:1026C00020000010FB21094000806640F0B58BB06F
:1026D00002A8FEF737FB029E039F049C059D320073
:1026E0003B003000390008F0C9F922000090019148
:1026F0002B002000290008F0C1F902000B0000980F
:10270000019907F07DFA03F005FB03F0CDFA2200F2
:10271000069007912B0030003900FEF769FAC022BD
:10272000084BD20508F0AAF90022074B07F0A4FDD8
:1027300008900991089A06980799099BFEF704F8F2
:102740000BB0F0BDFB2109400080664010B5FFF7DB
:10275000BDFF00200349FEF751F8FFF7B7FFFEF772
:10276000C1FB10BD0000244010B5FEF727FBFEF7AB
:102770000FF8FEF70DF8FEF70BF8FEF709F800204A
:102780001849FEF73BF8FEF765FBFFF77FF90020DD
:102790001549FEF733F8FEF75DFBFEF719FBFFF76F
:1027A000FFF9FEF715FBFEF7E9FAFFF78FFFFFF7DA
:1027B00005FAFEF74FFBFFF769F9FFF787FFFFF711
:1027C000BBF9C0200949C005FEF718F8FFF77EFFE6
:1027D000FEF7D4FAFEF730F8FEF784FBFEF7CEFAE8
:1027E00010BDC0460000284000002440FB211940D5
:1027F00030B58DB06846FEF7A5FA04A8FEF7A2FA38
:10280000049805990022002306F0E8FD0024002525
:1028100000282AD00698079922002B0006F0DEFD3A
:10282000002822D00098019922002B0006F0D6FD46
:10283000002815D00298039922002B0006F0CEFD47
:1028400000280DD01022124908A8891806F0DCF9DA
:10285000089809990A9A0B9BFDF776FF0DB030BDD9
:10286000089409950A940B95F2E704980599069A3D
:10287000079BFDF769FFFFF729FF00980199029A6E
:10288000039BFDF761FFFEF7E5FAFEF7AAFCE5E71B
:10289000D8BC000010B500200449FDF7AFFFFFF7DA
:1028A00015FFFEF7D7FAFEF79CFC10BD0000244090
:1028B0001FB56846FEF746FA0098019900220023EA
:1028C00006F08CFD002805D000200021FDF796FFC2
:1028D00005B000BD029A039B00980199FDF734FFF3
:1028E000FFF7F4FE00200449FDF788FFFEF7B2FA77
:1028F000FEF777FCECE7C0460000E03F10B5FFF7BD
:10290000F7F9FDF745FFFFF7CDF9FEF7A3FA002031
:102910001B49FDF773FFFEF79DFAFFF70DF9FFF76F
:10292000E7F9FDF735FFFDF733FFFEF793FAFFF701
:10293000ADF8FFF7B7F9FEF721FAFFF7B9FFFFF798
:10294000D7F9FDF779FFFEF785FAFDF721FFFFF7CD
:10295000A9F9FEF7C7FAFFF7A5F9FEF7C3FAFFF7E3
:10296000EBF8FDF715FFFFF7C3F9FDF711FFFFF7D0
:1029700099F9FEF703FAFFF795F9FFF711F910BD82
:102980000000104010B5FEF7B3FAFDF701FFFEF7A7
:1029900061FA0E4C207808F0F3FEFDF72FFFFEF7EA
:1029A00059FAFFF7C9F80A4B0FCBFDF7CDFEFEF73A
:1029B000E5F9207808F0E4FEFDF720FFFFF7FEF8C8
:1029C000FEF790FAFFF774FF10BDC04638130010F1
:1029D0006013001010B5FDF7DBFEFEF79BFAFFF762
:1029E000ABF8FEF7EBF9FFF763FFFFF74FF8FDF7E2
:1029F0002BFFFEF72FFAFEF7C1F9FFF767FEFDF791
:102A000023FFFFF799F8FEF725FAFDF721FC0028D0
:102A10000CD0FEF71DFC0022054B08F02FF8C02259
:102A2000044BD20507F028FCFDF7E8FE10BDC046B8
:102A300000806640FB21094010B5FFF7CBFFFFF790
:102A40007BF8FDF705FC002806D000200449FDF7BF
:102A5000D5FEFEF793F910BDC0200249C005F6E788
:102A600000805640FB21F93F10B5FDF791FEFEF7BF
:102A700051FAFEF7A3F9FFF71BFFFEF7A9F9FEF7DE
:102A8000E9F9FFF7A7FF10BD10B5164B1B78002B17
:102A90000AD0FDF77DFEFFF7F5F8FEF7F7FFFEF72A
:102AA000C9FBFEF71FFA13E00F4B1B78002B10D069
:102AB000FDF76EFEFEF782F9FEF7E8FFFFF73CF840
:102AC000FEF77CF9FEF70EFAFFF7F2FEFFF7FEFDC8
:102AD00010BDFDF75DFEFFF7AFFBFEF7D7FFFFF779
:102AE00017FCDEE7920600109306001010B50D4BA0
:102AF0001B78002B02D0FEF79DFB10BD0A4B1B7804
:102B0000002B0CD0FDF744FEFEF704FAFFF756F851
:102B1000FFF7CEFEFEF732F9FFF7D8FDEDE7FFF73E
:102B2000F7FBEAE7920600109306001010B50D4B74
:102B30001B78002B02D0FFF7A5F810BD0A4B1B78BD
:102B4000002B0CD0FDF724FEFEF7E4F9FEF736F972
:102B5000FFF7AEFEFEF712F9FFF7B8FDEDE7FFF75E
:102B60006BFBEAE79206001093060010F0B58FB0F9
:102B70000BAC0190029105922021082220000793BE
:102B800006F063F800232372754B00221B78049330
:102B9000002B3CD000230198029906F025FC8022EE
:102BA000029B12069D18002800D11D00290000225A
:102BB0006C4B019806F018FC0BAD002808D03023B0
:102BC0002B702000079A0599FDF7F8FA0FB0F0BDB9
:102BD0000198029906F0BEFC0F2703000DA81A0009
:102BE0000A4300D103E3A84203D15F4906F06DF820
:102BF000E7E71E003E4032003032392A00D9273242
:102C0000013802701B090A0713430909E7E700238B
:102C10000198029906F0E8FB019D00285CD0802213
:102C20000A27029B12069C182100504A504B01981B
:102C300006F0F8FB00282BD121004E4A4E4B01989C
:102C400006F0DCFB002807D00022002321000198B9
:102C500006F0DEFB00281BD1019A230010002100A2
:102C600008F00AFD002813D1012266007608310021
:102C7000424B0198524208F0FFFC00282FD101225C
:102C800031003E4B0198524206F0B8FB002826D195
:102C900035490BA806F019F80BA8FDF7B5FE384B1F
:102CA0001D78022D00D0012506266E430BACF6B22E
:102CB0002078002800D189E72E2800D08FE2059BDC
:102CC000079A5F1BFFB23900FDF70EFAAA00BF1882
:102CD000FBB205930134EBE70127029CA4E7210036
:102CE000244A254B019806F07FFB00281AD12100C9
:102CF000244A254B019806F095FB002800D185E178
:102D0000380008F00DFD02000B0000201F4907F0FD
:102D1000B3FA02000B000198210006F065FB0028C1
:102D200000D173E1002200232100019806F056FB38
:102D3000002800D109E130230BAA1370144B197835
:102D4000002901D02E2313700123302001E0D0543C
:102D50000133DCB2A1429FD9082BF8D19CE7C046D1
:102D6000910600100000F03FE6BA00007DC39425F4
:102D7000AD49B2543EC3D84E7D7F612BFFFFEF7F3C
:102D80001B000010FCA9F1D24D62503FD0126341EC
:102D9000DA05001028002100964B002207F06EFE95
:102DA0000C0005000398013843B203930022280069
:102DB0002100914B06F018FB0028EBD16B461B7BE2
:102DC00000220693280021008B4B06F02BFB0022EB
:102DD0000990002800D0BAE000230299019806F07B
:102DE00003FB431E98410723181AC3B20893FDF74B
:102DF0008DFF02000B002800210007F03FFE00229B
:102E00007E4B06000F0006F0FBFE08F053FC390075
:102E10000400300008F04EFC0A2705002000099E3F
:102E2000002800D09FE00A27002D00D0A1E0049BDD
:102E3000B34208D220000A2106F0D4F90400069813
:102E4000013043B203936B461D7B089B581B40B275
:102E5000FDF75CFF06000F00200008F061FC3B005E
:102E6000320007F009FA08F025FC39000490300020
:102E700008F020FC0100200006F09AFA039B0C00E9
:102E8000002B13DA684240B2FDF740FF06000F0046
:102E9000200008F045FC32003B0007F0EDF900226D
:102EA000564B06F0ADFE08F005FC04006B46039A95
:102EB0001B7B002A00DA0023089AD31ADBB20393A3
:102EC0004F4B1B780693002B00D181E04D4B1D78B2
:102ED000002D7ED00BAF3D000A264B4B039A1B788A
:102EE000D31A08937B1B0399DAB291424BD80B009B
:102EF0000DACE41A2E230A25013C2370049B002B01
:102F00006AD1002200230198029906F06DFA002888
:102F100002D02D23013C2370069B002B04D0394B9B
:102F20001B78002B00D0B7E6200005F0C6FE00227B
:102F30000138C0B22018844200D1ADE60378302BAE
:102F400000D0A9E602700138F5E703902EE72800CB
:102F50002100284B07F090F9050006980C0001307D
:102F600043B203932AE73900013606F03BF9F6B283
:102F700056E72800390006F035F9049B05000133B7
:102F8000DBB2049350E7089A2021934205DD31001B
:102F9000200006F00DFA3031C9B2E971200031008D
:102FA00006F020F9013D04009CE72000390006F0FE
:102FB000FFF9303120003170390006F013F90400B8
:102FC0000135EDB2039B013EAB42EED10DAC90E773
:102FD000069D0A270DAEF5E70498290006F0E8F9EA
:102FE000013C303104982170290006F0FBF8049070
:102FF00084E7C046000024400000F03F0000E03FAE
:10300000DB0500109E060010DA05001000230022E8
:103010000198029906F0E8F9431E98410023060042
:103020000393002228002100734B06F0DDF90028ED
:1030300000D094E00022280021006F4B06F0F2F946
:10304000002800D096E0039B07300833122B00D8ED
:103050000820861BF3B20693069BD81E40B2FDF7EC
:1030600055FE02000B002800210007F007FD00229A
:10307000624B06000F0006F0C3FD08F01BFB390091
:103080000500300008F016FB002604000A2728007F
:1030900000287BD10A27002C7ED1049BB34207D2A3
:1030A00028000A2106F09EF80500039B01330393D4
:1030B0000698043840B2FDF729FE06000F002800EC
:1030C00008F02EFB3B00320007F0D6F808F0F2FAC9
:1030D00039000400300008F0EDFA0100280006F085
:1030E00067F9039B0D00DB0F0493039B5E1E01D564
:1030F0000126F61A30000A2106F05AF90BAF3031DA
:103100003000F9710A2106F06DF80B260AABF618AB
:10311000002807D00A2106F04BF90A2630310AAB05
:10312000B971F618049A2B23013E002A00D002330D
:103130000A273370013E002D38D12E230A35337013
:10314000002C3FD1002200230198029906F04CF98F
:10315000002800D1A0E52D23013E33709CE5280016
:103160002100274B002207F089FC039B05000C007F
:10317000013B55E728002100214B002207F07CF895
:10318000039B050001330C00039353E7390001361C
:1031900006F028F8F6B27BE72000390006F022F8A6
:1031A000049B04000133DBB2049374E72800390068
:1031B00006F0FEF8303128003170390006F012F8C0
:1031C0000500B7E72000290006F0F2F8013E303193
:1031D00020003170290006F005F80400B0E7079AD6
:1031E0000599FCF781FF059B9A19D3B271E5280078
:1031F000FDF70AFCE5E4C0460000F03F0000E03FB8
:1032000000002440F7B50C0015000090FDF77AF996
:10321000002822D00098FDF74DF9230027001C4E0E
:103220002A33DBB2361801937078FF2809D03900B1
:103230002A00FCF759FF0637019BFFB201369F4277
:10324000F2D1144B009A1B78934205D1063C2A0018
:10325000B220E1B2FCF748FFF7BD009BDA000E4B4D
:103260009B181E685F68002200233000390006F0BA
:10327000B5F8002805D02A002100CC20FCF734FF47
:10328000DFE72B00220030003900FFF76FFCD8E7A2
:103290005F080010281300102011001070B5174BA4
:1032A0001C78174B1B78002B03D0032C01D9043C4E
:1032B000E4B2144B1B78002B03D0002C01D0013C4E
:1032C000E4B20025104E2A00200006213570FFF7D9
:1032D00099FF601C2A003B21C0B2FFF793FF013524
:1032E000201D2A000621C0B205343570FFF78AFF81
:1032F0002A003B21E0B2FFF785FF70BD28130010C4
:103300002A130010291300106106001010B50A4B93
:103310001B78002B03D00948FDF79AFB10BD084B22
:10332000084A1B781278134302D0FFF7D9F8F5E763
:10333000FFF7B4FFF2E7C046A3060010EABA0000A8
:10334000A506001097060010F7B5FDF781FF0D00E8
:10335000040004F0BFFD684601A904F063FE2900E3
:10336000200006F0BBF86B46C0B218802900200090
:10337000FDF744FAFEF71AFC802000261B4F1C497B
:10338000C005FDF73BFAFDF7F9FC30003900FDF709
:1033900035FAFDF75FFDFDF75BFF06F09FF86B4622
:1033A000290098702000FDF729FA30003900FDF758
:1033B00025FAFDF74FFDFEF7F9FB80200C49C0050B
:1033C000FDF71CFAFDF7DAFC30003900FDF716FABC
:1033D000FDF740FDFDF73CFF06F080F86B4600224C
:1033E000D87001A9684604F061FEF7BD000059409D
:1033F000E17A743F37B5FDF72BFF0D00040004F0B0
:1034000069FD684601A904F00DFE2900200006F0C0
:1034100065F86B4680222900D20518710B4B2000FD
:1034200006F0EEFBFDF7EAF9FEF7C0FBFDF710FF33
:103430000022074B07F022FB06F050F86B460022F3
:10344000587101A9684604F031FE37BDE17A743F36
:103450000000594013B504F03DFD01A9684604F091
:10346000E1FD6B46987806F07DFB164906F062FA9E
:103470006B46041C188806F075FB011C201C06F026
:10348000BBF86B46041CD87806F06CFB0E4906F0BE
:1034900051FA011C201C06F0AFF8041C684604F029
:1034A00035FE072105F084FF080006F05BFB0749A5
:1034B00006F040FA211C06F09FF808F087F9FDF7A6
:1034C0009DF913BD0000C84200401C460050C34790
:1034D00013B504F0FFFC01A9684604F0A3FD6B4698
:1034E000587906F03FFB084906F024FA6B46041CA5
:1034F000187906F037FB011C201C06F07DF808F057
:1035000065F9FDF77BF913BD0000C84210B5FEF761
:10351000ADFA04F079FD04F092FA0020012105F0E3
:10352000D1F8002004F084FB002802D1012105F02D
:10353000C9F804F0D5FA10BDF8B572B6B120FDF7A0
:10354000C5F80020FDF7C2F81020FDF7BFF8E02015
:10355000FDF7BCF80024144D01222E5D002102204D
:1035600004F00EFF01343000FDF792F8842CF2D104
:10357000B020FDF7ABF80020FDF7A8F81020FDF70C
:10358000A5F88426E020FDF7A1F876002F5D012242
:103590000021022004F0F4FE01343800FDF778F831
:1035A000B442F3D162B6F8BD20120010F0B59FB05E
:1035B00005F0A8FB04F0FCFA0021DE4804F002FF4D
:1035C0000021DD4804F0FEFE04F05DFB0122042131
:1035D000002004F089FE00220421100004F0D0FE37
:1035E00001220521002004F07FFE002205211000A9
:1035F00004F0C6FE002004F0BBFDA022FF21520013
:10360000CE4805F022FBF022FF21D200CC4805F085
:103610001CFBFDF72BFB002306900393C94B1B6893
:10362000002B50D0C84E3778002F47D18422390064
:10363000C648520005F009FBC54BC64D1C782F70DB
:10364000002C00D1ADE0C44CC44B20001F7005F02D
:1036500034FB002800D19EE0C14D7F2120002A7854
:10366000FDF762F820003A000321FCF7A7FD287857
:10367000FEF7BEFE01220324B84B1A70B94B01229B
:1036800018782100000120303818C0B2FCF72CFD5A
:10369000B54B1B78BB4206D10634E4B201222100AF
:1036A0007F20FCF721FD01370634FFB2E4B2102F72
:1036B000E4D1AE4B1B78002B00D1E9E1FFF73CFFD2
:1036C0000022A04B1A60AA49AA4F0B780093002B46
:1036D00001D100F017FEA84AA8481378C05C3870E2
:1036E000FF2803D0312B01D800F006FE00230B7019
:1036F000FEF7BCF9A24BA34A1B7812781343A24AE7
:1037000012781343A14A12781343FF220392002B2D
:1037100002D18C4BFE3A1A60FDF7A8FA069B954E33
:10372000C01A9B4B1B78984201D9222333703378FF
:10373000FF2B2DD0039A93422AD0FDF797FA8C4B9A
:103740008F4A1B781278069013438E4A12781343DF
:103750008D4A127813438D4A1278134302D1012205
:10376000784B1A608B4B30781B78002B05D0824A3F
:103770001378591C1170814AD054222801D001F0CD
:1037800033F8FF233370FFF7C1FEFDF76FFA0690A1
:10379000784B1B7841E73A0003217F20FCF7A4FC1B
:1037A00068E77D4B1F78002F28D001267B4D7C4B8E
:1037B0002A786A4FD2009B181868596803222300A0
:1037C0003C70FFF7D3F932000321B3203E70FCF7C1
:1037D0008BFC2D7814AFA9193800C9B2BC70FCF766
:1037E00005FD32000F213800FCF7E8FC32002121F2
:1037F0006C4BAD00E858FCF7E1FC5AE75B4B1B78DB
:10380000002B71D0684E694B1C685D683268736824
:103810002000290007F09EFB02000B002000290079
:1038200006F02AFD0022624B07F028F905F056FE4B
:10383000C3B200935F4B1C685D685F4B20001A6841
:103840005B68290007F086FB02000B0020002900BE
:1038500006F012FD0022594B07F010F902000B0090
:103860000020564907F076FB05F038FEC3B2200071
:1038700001240493394B022229001F703B00FFF7FB
:1038800075F94D4B3222186859683B00FFF76EF905
:10389000324B02221C70454B186859682300FFF711
:1038A00065F93068716823003222FFF75FF93C0048
:1038B0000F262500424B6235E15CEDB2711A2800FB
:1038C000C9B2FCF7ADFC013428000499FCF7A8FC50
:1038D000202CEED1FF2200981C4B6230C0B21A544B
:1038E0001B1884331A70E4E6364B1C78002C00D188
:1038F0004FE1354B354A1B781278134302D0FEF75F
:10390000EFFDD6E6324B1D78002D74D014AC192291
:103910002000304905F078F9022D5FD120002E49B2
:1039200005F0D3F9DD23237423732000FDF790F80D
:10393000BFE6C046984004409C4004405F08001029
:103940009F0900101C000010A40600102012001097
:103950008F0600108B060010630600106106001031
:1039600062060010D9050010D80500109B06001053
:1039700099060010AC060010580800103B0000101B
:10398000A6060010A7060010940600109C06001062
:1039900022000010A106001098060010D3060010A7
:1039A00048C3000068C40000C8060010C00600102C
:1039B0000000404000070010F806001000003040F2
:1039C000D40600109A060010A506001097060010F5
:1039D0009D06001076BB000003BB0000032DA4D1A0
:1039E0002000BB4905F071F9E023237323700133F4
:1039F0002374237199E7B74AB74B12781B78002AD2
:103A00003ED00221B54A1170B54A1570002B33D053
:103A1000013B1A01B34B9B18B34A186859681278D6
:103A2000002A15D19C68DD6802000B0007F026F81B
:103A3000220006000F002B002000290007F01EF8CE
:103A400002000B003000390006F0DAF802F062F9EB
:103A50000123A64C0C2223700023FFF787F80021D6
:103A6000A34B21701B788B4203D00A00B220FCF7D5
:103A70003BFB0122994B35E700220C215F20F6E742
:103A80000092002B16D1012208215F20FCF72CFBAD
:103A900012AC04222021200005F0D7F80023237166
:103AA000944B1D78002D00D0C8E22C002F00D5E2E9
:103AB000012300936A46884B12781B780492009A7F
:103AC000934262D901220499521AD2B207920799FD
:103AD000834A1170009A9B1A013B824A1B01D3183A
:103AE0001E685F689C68DD687F4B1B78002B21D1C6
:103AF00032003B003000390006F0C0FF22002B00EE
:103B0000089009912000290006F0B8FF02000B0080
:103B10000898099906F074F802F0FCF82200089061
:103B200009912B0030003900FDF762F8089E099FCB
:103B300004000D00049B002B02D101226B4B1A7074
:103B4000082230003900079BFFF710F80022674B6E
:103B500020001A7029000022002305F03FFC0028F5
:103B600005D13B2220002900079BFEF7FFFF604B99
:103B70001B78002B09D0049B002B06D10122584B47
:103B8000B22004991A70FCF7AFFA009B012B8FD179
:103B90008FE5594B1B78002B4AD0514E2122210032
:103BA00015A83470149405F050F8012114A8FEF7FC
:103BB0002FFC050014A805F080F8C2B2002A10D12D
:103BC00003217F20FCF790FA012333704B4A1178D0
:103BD0004B4AC9005218106851680322FEF7C6FF0D
:103BE00067E5102D22D92C000627103CE4B22900ED
:103BF0001039611A794314AB185D03310134002286
:103C0000C9B2E4B2FCF770FAA542F0D2DCE72900B1
:103C1000614303310022C9B20134FCF765FA112C6B
:103C2000D2D014ABE05C0028F1D1CDE70625F8E74F
:103C3000344B1C78002C02D0FFF768FB39E5324B7F
:103C40001B78002B21D0264D2122210015A82C7095
:103C5000149404F0FAFF210014A8FEF7D9FB3122D6
:103C60000CAB9B181C70113A0CAB9B181B780022F4
:103C70000321002B05D15F20FCF736FA01232B70BE
:103C8000A4E714A8FCF79AFAF8E7204B1B78002B5E
:103C900000D177E11E4B1B78002B01D01D4845E673
:103CA0001D4A00931478002C6ED11322202114A8F1
:103CB00004F0CBFF33220CAB9B1820211C705F2338
:103CC0000CAA521813701D39012214A893E5C0469E
:103CD0001CBB000089060010DC0500101B00001052
:103CE00061060010E0050010200000109E06001084
:103CF000DB0500108B060010A00600102813001032
:103D0000201100109F0600108D060010A90600105B
:103D1000AB06001035BB0000931900103B4300D0E8
:103D200098E0B94B0CA91A7833235B18002A0AD003
:103D3000B64A1278002A06D10A0032212E235218E0
:103D400013700CAA8B183022013B1A7014A8FCF7D0
:103D50005BFE0025062414AE300004F0AEFF854261
:103D600000D2FFE0AA4B1B78002B07D0049B002B4E
:103D700004D101221900B220FCF7B6F9009B012BF7
:103D800000D196E4012300936B46A24C1B78009A65
:103D9000049323789342F1D90123049A20219B1A9A
:103DA000DBB20893089A9C4B14A81A70132204F0F3
:103DB0004CFF332100220CAB5B181A70009923785A
:103DC0005B1A013B9549DB00CB181E685F68330026
:103DD0009742A3DA3C0000275E42A74101230793E4
:103DE0008A4B1B78002B37D033240CAAA41803224B
:103DF000002394460CA91E32521818006146013364
:103E0000DBB2084202D12021013C21700F25354050
:103E100028003030392800D9273039073509013CCE
:103E2000294320703811070008000E00384301D1E3
:103E300001F056FC9442E0D8079B002B05D02D23BF
:103E4000013C23703E4300D180E7754914A804F07B
:103E50003CFF7BE70792C3E76B4B1D78002D58D0E2
:103E60000A2200233000390005F0E6FA0A220C008D
:103E7000050039003000002305F0DEFA32210CABDA
:103E80005B1830321A7021000A220023280005F046
:103E9000D3FA31210CAB5B1830321A7021000A22A0
:103EA0000023280005F0C8FA0F0030212E23060059
:103EB0000CAA5218137018AC2D3B32003A4301D1B2
:103EC00001F00EFC21220CA952189442B4D9227898
:103ED0001D002E2A0AD05522524253430135DBB22F
:103EE000EDB2552B02D82023013C2370300039005D
:103EF0000A22002305F0A0FA013C303200233000F2
:103F0000390022700A2205F097FA2B0006000F00F4
:103F1000D3E733240CABE41855222B005242534311
:103F20000135DBB2EDB2552B02D82023013C2370C2
:103F3000300039000A22002305F07EFA013C3032BD
:103F400000233000390022700A2205F075FA0300C0
:103F500006000F000B4301D101F0C2FB14AB9C42E1
:103F6000DAD869E72100705D089A7719FCF7BCF888
:103F70003B78202B04D006340135E4B2EDB2EAE6FA
:103F80000334F9E73378002B00D081E5254B1B780B
:103F9000002B32D0244B1D78244B1B781D4300D0BE
:103FA000ADE4234BEEB21C786719FCF74BFB87425C
:103FB00001DBFFF77EFB3419174BE4B220001E70C3
:103FC000FCF71CFB01340700E0B2FCF717FB1949B2
:103FD000C41B7918013C14AF2200380004F014FE11
:103FE00000233200032138003B55FCF7E7F8012D90
:103FF00001D1FFF75EFB0125D3E70F48FCF728FD51
:1040000001232B70FFF755FB2100001091060010D3
:1040100092190010931900106106001098190010F1
:10402000E6BA0000A8060010A506001097060010CA
:1040300090130010850000104EBB000011AC03F07F
:1040400049FF200014A903F0EDFF20220CAB9B18C0
:104050001F7801320CAB9B18E5781C780022CE4B00
:104060001A7003F09FFEAF231B01984200DBCB4880
:10407000CB4B984200DA1800CA4BAF21C0180A2374
:104080008900584305F0AEF82C23C0B25B424008CB
:10409000181A12ABD870C44B12A81B78002B37D05B
:1040A0002900FCF7A3F812AD00226D212800FCF7CF
:1040B00085F80122B84B1A70BB4B1E78002E73D0C6
:1040C00039002800FCF792F80A21200005F086F854
:1040D00021220CAB9B183031197020000A2104F00A
:1040E000F7FF0A21C0B205F079F820221A200CABA4
:1040F0009B18303119700CAB1E3A14A9C01804F08B
:1041000083FD01226D2112A8FCF758F8FFF7D6FABB
:10411000A64B1B78002B01D0EC238370A44B1B789B
:10412000002B01D0DA238370A24B1B78002B05D023
:10413000A14B1B785A425341BD3343709F4B1B78B0
:10414000002B01D0653303709D4B1B78002B25D0CD
:10415000482303709B4B1B78002B05D09A4B1B7890
:10416000312B01D8D8230370984B994A1B781278C9
:10417000134398D0974B1A78002A94D10320964B7A
:1041800014A91B788A7018409B084130313308709D
:104190004B70023212A804F037FD84E78F4B1B7876
:1041A000002BD7D06823D4E704222021280004F074
:1041B0004CFD864B2E711B78002B13D0864B1F783D
:1041C0003800FCF79FF9041E72D03800FCF772F932
:1041D000834B0130C018835DFF2B03D0AB550136F4
:1041E000042EF8D17A4B7F4A1B781278134303D000
:1041F00028007D4904F069FD7C4B1B78002B0DD015
:104200007B4B14A819780131C9B2FBF7EFFF1A20D4
:104210000CAB022214A9C01804F0F6FC654B1B7805
:10422000002B01D101F054FA724B1B78FF2B01D007
:10423000D623AB70704C002220686168002305F023
:10424000CDF8002847D1E32212ABDA706B4B6C4AF1
:104250001B78127813436B4A127813436A4A127818
:1042600013436A4A1278134312AA002B01D0E223A7
:10427000D370674B1B78002B05D0664B1B78002B47
:1042800001D02E23D370644B1B78002B01D0A923BF
:10429000D370624B62491B78002B05D1614B1B78B0
:1042A000002B00D12DE76049280004F00EFD28E71F
:1042B00001001490212214AE15A804F0C6FC2100C0
:1042C0003000FEF7A5F8335D002B8BD02B55013461
:1042D000042CF8D186E70022A068E168002305F0ED
:1042E0007DF80028AFD04A4B1B78002BAED04F4A48
:1042F0000CCA1343A7D1A9E701331370FF2303931B
:10430000FFF70AFA3F4B1C78002C00D1B7E0484A6F
:1043100013780133DBB213701D223A70012B01D1E7
:10432000FFF7FAF9434E34687568022B0CD1FCF79D
:104330008FFF22002B0005F063FCE02230607160EB
:104340003D4C3E4B120613E0032B1BD1FCF780FFC4
:1043500000223B4B06F092FB02000B0020002900DC
:1043600006F0F8FDE02230607160334C354B1206E8
:104370002068616805F044FC20606160FCF73EFA4B
:10438000FFF7CAF9042B5FD1FCF762FF00222C4B28
:1043900006F074FBCDE7C04661060010EF0A00008E
:1043A00034080000CCF7FFFF8B06001091060010C8
:1043B000A20600109A060010200000108C060010C3
:1043C00092060010A1060010580800109F06001069
:1043D000A00600108D060010281300109306001090
:1043E0005F0800108F06001067BB0000A8060010D1
:1043F000901300103B0000104013001099060010AD
:10440000A7060010A6060010940600109C060010D7
:10441000A90600102100001088060010A506001053
:104420006CBB00009706001071BB0000B8190010AB
:104430001F11001080060010301300104D62503F15
:10444000000020404D62603FFCF702FF02000B00BD
:104450002000290006F07EFD0022CC4B05F00CFF69
:10446000E022CB4B120605F007FFFCF7C7F901224B
:10447000C84B1A60C84B009A1A70FF2316E0C74B4E
:104480001B780493002B6DD0C54E33780133DBB21B
:104490003370022B0DD808D1FDF7F8FAE020BC49A3
:1044A0000006FCF7ABF9FCF769FC1D233B70FFF736
:1044B00033F9FDF7EBFAFCF715FD0020B949FCF7DD
:1044C0009DF9FCF75BFCE020B1490006FCF796F98A
:1044D000FDF7DCFAFCF706FDFCF7BAFEFCF78EF9F7
:1044E00007000D00FDF75CFB0022002338002900C7
:1044F000347004F079FF002802D080231B06ED18E9
:10450000E022A94C38002900A14B1206267804F0BD
:104510006BFF00280AD1142E0AD8FCF739F9FCF7F2
:1045200037F9237801332370FFF7F6F8142E0ED9EC
:104530000CA8FCF707FC10229C4914A8891804F069
:1045400063FB14981599169A179BFCF7FDF8012246
:10455000904B1A600022914B1A70954BFF321A70E3
:10456000FFF7DAF8934B1E78002E6BD08C4B1C783B
:104570000134E6B21E701D233B70012E01D1FFF7FE
:10458000CBF88D4B1C685D68022E0CD1FCF760FEE9
:104590002B00220005F034FB874B18605960874BD5
:1045A00018685968EAE6864B1A685B6800920193BE
:1045B000032E10D1FCF74CFE22002B0005F020FB4F
:1045C0007D4B18605960009801997C4B1A685B68B4
:1045D00005F016FBD2E6162E20D80022F3071BD5D5
:1045E0008023DB0504920593FCF732FE049A059BB9
:1045F00006F044FA22002B0005F002FB6E4B186017
:104600005960B01E07F08CF8009A019B06F036FA4C
:104610006A4B1A685B68DBE76A4BE3E7FCF718FE56
:10462000009A019B2000290006F028FA0022664B20
:1046300005F022FEFCF7E2F80122564B1A605D4BB2
:10464000049A19E7614D2B78002B00D191E0544B6F
:104650001C780134E4B21C701D233B70524B1A7855
:10466000002A41D1012C01D1FFF756F853490868BF
:10467000496800900191022C0AD1FCF7E9FD544BE6
:1046800018605960534B186059600098019975E69D
:10469000222C24D8FCF7DCFD4E4D06000F00020052
:1046A0000B002868696804F0B3FE002801D02E6072
:1046B0006F60474D3200286869683B0004F094FE43
:1046C000002801D02E606F60A01E07F029F83C4B37
:1046D0001A685B6806F0D2F9009A019B78E73049C6
:1046E0000A7001221A70D0E7012C01D1FFF714F8EB
:1046F000212C2ED8374B1C685D68FCF7A9FD020001
:104700000B002000290006F025FC314B06001A683A
:104710005B680F002000290006F01CFC02000B0063
:104720003000390005F0A8FD00222B4B06F0A6F959
:1047300001F0D6F91A4B294C1D7804F0CFFE64190C
:10474000023C2070681E06F0EBFF1D4B1A685B6888
:104750005CE70CA8FCF7F6FA0CA8FCF7F3FA0123C7
:104760000C4A2E701360FF223A701D4A1370FEF738
:10477000D3FF0A201B4B03211B78584303F0A2FFF1
:10478000FDF736F93870FEF7C7FFC0460000284035
:104790004D62503F1C000010A6060010A706001036
:1047A0001F1100100000F0BFAD060010D8BC0000C3
:1047B000AC0600109406001080060010C006001021
:1047C0007806001000001040000008409C06001011
:1047D000F80600100007001000002E40D40600105C
:1047E0009B06001022000010D04B1C78002C00D13A
:1047F00006E11D2801D0122871D1CD4B1B780393FF
:10480000002B2CD0CB4B1D782800FBF753FE040067
:104810002800FCF75DF9C84F380004F04EFA050097
:104820002020FBF747FEC54E021B611E6019891947
:10483000801904F02CFAFE2300253355380004F0CB
:104840003CFAA84206D97A5D631CF3185A55013523
:10485000072DF3D10022B54B1A70FEF799FFB84B24
:104860001B78002BF6D0B74B1C782000FBF7C6FE58
:1048700001340700E0B2FBF7C1FEAF4E0500300087
:1048800004F01BFAC4B2FBF7CFFE691E421BAE4D0B
:10489000E01901324919401904F0F9F97B1918009F
:1048A00022003100049304F0AFF9A84B1B78002BD1
:1048B000D0D0A74E3378FC180093FBF7B5FE009BD1
:1048C0006119C21B0134D218601904F0E0F90A2200
:1048D00033780499CA549D4B039A1A70BAE7012899
:1048E00004D10F229B4B1A70FEF752FF022809D108
:1048F000994A13780B2B01D9FEF74AFF0133137045
:10490000FEF746FF042809D1924A1378002B01D103
:10491000FEF73EFF013B1370FEF73AFF052804D176
:1049200008228C4B1A70FEF733FF062809D1894AFA
:1049300013780E2B01D9FEF72BFF01331370FEF70E
:1049400027FF072804D10022824B1A70FEF720FFB0
:10495000082809D1804A1378002B01D1FEF718FFEF
:10496000013B1370FEF714FF182809D1784A137819
:10497000002B01D1FEF70CFF013B1370FEF708FF7F
:1049800019280DD1724C6C48257804F096F98542AF
:1049900001D3FEF7FDFE237801332370FEF7F8FE06
:1049A00021280ED16A4C2078002801D1FEF7F0FEB4
:1049B0000138C0B2FDF71CFD2378013B2370FEF7E0
:1049C000E7FE5D4C200004F078F9594B1A78072374
:1049D000002A00D10B33984201D3FEF7D9FE5E4B7B
:1049E00019785C4B09011B782033C918584BC9B2A0
:1049F0001A78501C18702000FBF796FEFEF7C8FED0
:104A0000564D2A78002A47D01E2802D12C70FEF776
:104A1000BFFE12280BD1524B1A78524BD2009B1872
:104A200018685968FBF7EAFE2C70FEF7B1FE0828FB
:104A300009D14B4A1378002B01D1FEF7A9FE013BA7
:104A40001370FEF7A5FE022809D1454A1378222BE0
:104A500001D9FEF79DFE01331370FEF799FE092878
:104A60000AD13F4A1378042B03D9053B1370FEF794
:104A70008FFE1470FEF78CFE032801D0FEF788FE2F
:104A8000374A13781E2B03D805331370FEF780FEC8
:104A900023231370FEF77CFE334B1C78002C02D0CE
:104AA0001A70FEF775FE314F3B78002B00D186E07F
:104AB0002F4D2B78002B0ED0021FD1B205290AD81A
:104AC000591E06234B439B182A4A9B009B58984724
:104AD0002C70FEF75DFE284D2B78002B56D0043845
:104AE000C4B2052C1ED8322210006043234E244B42
:104AF0003100C01804F088F83278224BA400FF2A55
:104B00000BD0002220481B19B15CFF290AD0415C60
:104B100099540132042AF7D104E02D221A550022BB
:104B20001B195A7000232B70FEF732FE8F060010FF
:104B30009F06001028130010630600105F08001085
:104B4000A8060010901300108500001096060010B3
:104B500062060010D8050010D90500109806001054
:104B6000D306001048C300009B0600109A060010F0
:104B70009D060010F8C40000A50600103B000010C0
:104B8000080700102300001020C30000CC4C23783D
:104B9000002B10D00438C1B2052906D83222514367
:104BA000C8480918C84804F02FF8FCF7D5FE0023C0
:104BB0002370FEF7EDFDFCF731FEFEF7E9FDC34D76
:104BC0002B78002B00D1AEE003001D3B012B01D957
:104BD00012280DD100232B70FCF7BEFEBC4B1878B9
:104BE000FCF750FEBA4B1878FCF74CFEFEF7D0FDF0
:104BF000B74B1C7818281BD1B64E3578022D08D13A
:104C00002000FBF757FCB44B1B5CFD2BE6D0013DAD
:104C10000CE0012DE2D92000FBF74CFCAE4B5B19F8
:104C20001B18023B1B78FD2BF1D1023D3570D5E7F7
:104C3000192815D1A94B1B78002B6ED12000FBF74A
:104C400039FCA44EA44B35785B191B5CFD2B01D1BC
:104C50000235EBE7FBF744FC8542BFD20135E5E7BF
:104C600021283ED19B4D2F78002FB7D07E1EF6B263
:104C7000012F31D02000FBF71DFC974BDF193F18A7
:104C8000023F3B78FD2B27D131002000FBF746FF88
:104C900029788F4B02391878C9B2FBF73FFF2B7880
:104CA000013B2B702B78013BDBB22B70002B95D195
:104CB000874B1E783000FBF7FDFB874C235CFF2BF6
:104CC0008CD0012330002B70FBF7F4FB235CFD2B11
:104CD00084D1FB3B2B7081E731002000FBF71EFFE6
:104CE000E0E70B2808D17B4B1A78511C1970122170
:104CF0002000FBF7CDFD71E726280ED1784B1C7004
:104D0000784B1A78784B1A70784B1A78784B1A705F
:104D10000122784B1A700023DCE76E4B1A78511C85
:104D200019700100E4E7744C2378002B00D17CE17A
:104D3000724F3B780093002B0BD00438C3B2052B85
:104D400003D86F4B8000C358984700233B70FEF791
:104D50001FFD6C4B1B78002B32D05D4B1D7828005B
:104D6000FBF7A8FB04002800FBF7B2FE664E3000FC
:104D700003F0A3FF05002020FBF79CFB564F021B0E
:104D8000611E6019C919C01903F081FFFE23009D3F
:104D90003B55300003F091FF854207D24E4A631C19
:104DA0009B18725D5A550135072DF2D10023554AE3
:104DB0001370FEF773FA0122544B1A60FEF7E8FCF9
:104DC000534B1B78002B2BD00438C4B2052C22D8AF
:104DD000A0225200100060434E4B3F4DC0182900E6
:104DE00003F012FF1F20FBF765FB2B5C4A49A40070
:104DF000FF2B0BD00123013C0C192818C25CFF2AA1
:104E000009D0E2540133052BF8D104E02D230B55D2
:104E100000230C19637000233D4A1370FEF7B8FCA1
:104E2000274E3478002C11D00438C1B2052907D898
:104E3000A0225200514337480918274803F0E4FEE6
:104E4000FCF78AFD00233370FEF7A2FC1E2803D175
:104E500001233B70FEF79CFC08280CD1234B1C4A15
:104E60001C701378032B03D9043B1370FEF790FCDE
:104E70001470FEF78DFC02280CD101221B4B1A7016
:104E8000134A13781B2B01D9FEF782FC04331370ED
:104E9000FEF77EFC042841D10D4A1378002B01D087
:104EA000013B137000230F490B701378DB439B0702
:104EB00001D0FEF76DFC01230B70FEF769FCC046C4
:104EC00097060010080700103B000010A006001015
:104ED00028130010600600105F0800108C060010F8
:104EE000D006001029130010D10600102A1300105C
:104EF000D2060010A20600109F060010A3060010A4
:104F000040C5000090060010630600101C00001051
:104F1000A50600109F0900106D000010062813D18F
:104F2000D74A13781E2B01D8013313700121D54BBA
:104F300019701178032208001040114201D0FEF7C9
:104F400027FC1870FEF724FC122841D101232B7096
:104F5000CB4B1E78CC4B1F78002F22D0CB4BCC4DA7
:104F60001878C74BFD211870CA4B1A78C54B1A70B8
:104F7000C94B1A78C94B1A702A78531C2B70FBF74F
:104F800087FC2A78BE4B31001878531C2B70FBF736
:104F90007FFCBD4B1C70FCF7DFFCFEF7B7F9FEF79A
:104FA000F7FB3000FBF7AEFA002805D03800FBF71E
:104FB0007DFE2F70FEF7ECFBFBF792FAFF2800D185
:104FC0000020B34B18703000FCF75CFCFEF7E0FBF0
:104FD0001D2811D1AA4B1878FBF76CFAB04B1B5C5B
:104FE000FE2B04D12000FBF761FEFEF7D1FB012070
:104FF000FBF75CFEFEF7CCFB212807D1A04B18780D
:10500000FBF766FDFCF7A8FCFEF7C2FB252804D1E0
:105010000123A44A1370FEF7BBFB262801D0FEF73C
:10502000B7FB01233370FEF7B3FB9F490A78002AD0
:1050300000D1C0E01E280DD19C4A0B7010789C4A0C
:1050400010708F4C2078FCF71DFC2078FCF71AFCC0
:10505000FEF79EFB1D2809D101232B70FBF740FAB8
:10506000FF2800D100208A4B1870EAE7122801D0EF
:105070000B2812D18F4B12201B78002B00D097E009
:105080000120FBF717FA04002020FBF713FA8449EC
:105090000200601803F0FBFDD3E7212825D120385A
:1050A000FBF708FA04002020FBF704FA814D020008
:1050B0002E787B4B002E14D0661E9E19012C07D92A
:1050C00031000232A01E121B181803F09DFDB8E734
:1050D000013219193000121B03F096FD00232B70CA
:1050E000AFE7021B19191800EFE70A2822D8202081
:1050F000FBF7E0F96F4F04003D78002D0DD0012043
:10510000FBF7D8F9664F451E0134221AE919C01978
:1051100003F0BDFD33787B5593E7614D0200290014
:10512000654803F0B4FD33782B70FF236B70FE3BB2
:105130003B7086E70F283BD80120FBF7BBF90090B6
:105140000220FBF7B7F904002020FBF7B3F90700B2
:10515000009B534DE31A03935B19020029001800CA
:10516000049303F094FD039A6119280003F04CFDA9
:10517000009B6100DE19361BC91A321B49196019E0
:1051800003F042FD039B3200581E0499401903F0BE
:105190003BFDA61EBA1C601E121B7119401903F0BC
:1051A00076FD0022454B1B78AB55424B1A7048E701
:1051B000FBF78AFB45E7424D2B78002B00D107E136
:1051C000404C2378002B0BD00438C3B2052B03D8F6
:1051D0003D4B8000C358984700232370FEF7D8FA50
:1051E0001E2803D101232370FEF7D2FA212877D19C
:1051F000364B1B78002B6FD0354B1B78002B29D0FA
:10520000FBF7B6F9FA220023920007000E0004F023
:1052100013F90B0005000C00034303D1FBF7BCF9A5
:10522000FEF7B6FA380031006422002304F004F9D6
:10523000D3B20A93002364220B9328000023210099
:1052400004F01EF90A9B0B9CC0186141FBF756FB4A
:10525000FEF79EFAFBF78CF91E4B10221C780023F8
:105260009C4200D1063A04F0E7F80B00034303D157
:10527000FBF792F9FEF78CFAFBF740FBFEF788FA92
:105280002813001029130010A2060010D0060010E9
:1052900060060010D1060010D20600102A1300107C
:1052A0005F080010A50600108D0600108A06001089
:1052B000890600108E06001061080010AC06001070
:1052C000A9060010AB060010A4C50000921900103A
:1052D0002100001091060010FBF74AF9FEF758FA7A
:1052E0001F2809D1D14B1B78022B01D9FCF777FF7E
:1052F000FBF752F9FEF74CFA132811D1FBF738F9F6
:1053000004F046F900F006FD0022C94B05F0B6FB9B
:1053100004F002F9FBF7F2FAFBF73EF9FEF738FA70
:10532000202809D1C14B1B78012B01D9FCF771FF53
:10533000FBF732F9FEF72CFA252809D1FBF718F90B
:10534000BC4B03C3FBF7DAFAFBF726F9FEF720FAAA
:10535000262808D1B74B18685968FBF7CFFAFBF736
:105360001BF9FEF715FA16281DD1B04C2378012B36
:1053700001D9FCF74EFFFBF7DFFA2378022B01D9A6
:10538000FCF72DFFFCF7C0FDAB4B64201B78002B16
:1053900000D0AA480021FBF7B1FAFBF7F5FAFBF7BA
:1053A000FBF8FEF7F5F9122801D9FEF7F1F9A44B45
:1053B0008000C358984733780A2B01D8FEF7E8F9E4
:1053C000122B01D1FEF7E4F9FBF7E6F8FEF7E0F95E
:1053D0009C4E3378002B3FD01E2803D1002333701E
:1053E000FEF7D6F9132804D11238FBF7A9FBFEF714
:1053F000CFF90F2804D10E38FBF7F0FAFEF7C8F901
:10540000142804D10F38FBF79BFBFEF7C1F90928DC
:1054100004D10438FBF7E2FAFEF7BAF9152804D1F3
:105420000B38FBF78DFBFEF7B3F9082804D10230E7
:10543000FBF7D4FAFEF7ACF9162804D10238FBF7D3
:105440007FFBFEF7A5F9072801D0FEF7A1F90D3083
:10545000FBF7C4FAFEF79CF97B4A1378002B00D1C6
:1054600002E17A4D2B78002B1FD00438C4B2052CF2
:1054700003D900232B70FEF78BF98022744B754EF5
:1054800020023100C018520003F0BEFB002320218F
:10549000A000714C2418F25C21700A2A00D02270FE
:1054A00001330134042BF6D1E3E76C4C2178002959
:1054B0000FD00438C0B2052807D880220102644802
:1054C00052000918634803F09FFB00232370FEF786
:1054D0005FF91E2802D11170FEF75AF9082809D188
:1054E0005F4A1378002B01D1FEF752F9013B13708C
:1054F000FEF74EF902280BD1FBF7A4F8584D2C7893
:105500000134844201DBFEF743F92C70FEF740F9C9
:1055100009280AD1524A1378042B03D9053B13708A
:10552000FEF736F91170FEF733F903280ED1FBF7B9
:1055300089F84B4D2C78A31D834203DA05342C7077
:10554000FEF726F901382870FEF722F9122803D158
:10555000FBF70AFBFEF71CF90F2806D1FBF704FB4B
:105560000122404B1A70FEF713F9212801D00D28B3
:105570001BD13B4E34782000FBF740F80134050086
:10558000E0B2FBF73BF80400FBF74EF8021B314892
:105590002118281803F038FB3378002B01D1FEF7CF
:1055A000F7F8013B3370FEF7F3F80E281CD1FBF738
:1055B00049F8012801D8FEF7EBF8294B187801309B
:1055C000C0B2FBF71BF8234D04002B5C002B01D16C
:1055D000FEF7DEF8FBF728F8021B601E6119401980
:1055E00003F012FBFEF7D4F80C2811D11C4B1878ED
:1055F000FBF704F80400FBF717F8164D021B601CBC
:105600006119401903F043FB0A232B55FEF7C0F83C
:10561000252803D101232B70FEF7BAF8262801D0E4
:10562000FEF7B6F801232370FEF7B2F893190010C5
:1056300000002440B81900102100001010270000BD
:1056400058C50000A4060010A8060010A50600100A
:1056500091130010850000108501001097060010BE
:105660009013001096060010072803D101233B7009
:10567000FEF78EF808280AD11E4A1F4814781370C6
:1056800001220A701D4A04701370FEF781F8092880
:1056900008D1184A18491078137001230870237034
:1056A000FEF776F8042803D101232B70FEF770F87B
:1056B000052805D101233370FBF786FAFEF768F859
:1056C000062801D0FEF764F801231370FEF760F896
:1056D0000B4B1B78002B01D0FEF7ACFDFEF703FE51
:1056E000079B00260027002B01D0FEF7A8FBFEF742
:1056F0002DFBC046890600108A06001028130010F2
:105700008D060010F8B54E4657464546DE46A34B7B
:10571000E0B54E00804689468A4676089E421CDDEA
:105720009F4B9E4209DC06D05346002B00DCBAE0BA
:105730009C4B9D4A09E00028F6D042464B46404625
:10574000494604F05DFA03000A0018001100F0BC9D
:10575000BB46B246A946A046F8BD944B9E4200DD2A
:10576000A4E0934B9E4200DC8FE001235B429B460A
:1057700042464B464046494605F080F902000B0080
:1057800006000F0005F07AF904000D00894A8A4BE3
:1057900005F074F9894A8A4B04F032FA22002B0092
:1057A00005F06CF9874A884B04F02AFA22002B0096
:1057B00005F064F9854A864B04F022FA22002B009A
:1057C00005F05CF9834A844B04F01AFA22002B009E
:1057D00005F054F9814A824B04F012FA32003B0082
:1057E00005F04CF97F4A804B06000F00200029008D
:1057F00005F044F97D4A7E4B05F0ACFB22002B00FE
:1058000005F03CF97B4A7C4B05F0A4FB22002B0001
:1058100005F034F9794A7A4B05F09CFB22002B0005
:1058200005F02CF9774A784B05F094FB22002B0009
:1058300005F024F90B005946020001315CD05946AD
:105840003000CC00390004F0DBF942464B4605F04D
:1058500015F96E4D6E4B2D191C192268636805F001
:1058600079FB42464B4605F075FB02000B002868A9
:10587000696805F06FFB030050460A00002800DB52
:1058800063E7802212068A185FE7624A624B04F0DF
:10589000B7F90022614B03F0BBFD002800D164E79B
:1058A00043464A4651E73F4B5D4A4EE700F014F944
:1058B0005C4B04000D009E422FDC5B4B9E4255DC8E
:1058C00002000B0004F09CF90022544B05F042FB4F
:1058D000802306000F000022DB052000290004F0D1
:1058E0008FF90B0002003900300004F0C5FC0023E2
:1058F000804689469B463BE73000390004F080F93A
:1059000042464B4605F0BAF802000B0040464946B5
:1059100005F020FB03000A0017E7444B9E421ADC07
:105920000022434B05F016FB002206000F00404BFF
:105930002000290005F0A2F80022384B04F060F99D
:105940000B0002003900300004F096FC0223804670
:1059500089469B460CE70B0002003649002004F004
:105960008BFC0323804689469B4601E700222B4B94
:1059700005F0F0FA002206000F00284B2000290055
:1059800004F03EF90B0002003900300004F074FC12
:105990000123804689469B46EAE6C046FFFF0F4446
:1059A0000000F07F182D4454FB21F93FFFFFDB3F3F
:1059B000FFFF1F3E11DA22E33AAD903FEB0D762454
:1059C0004B7BA93F513DD0A0660DB13F6E204CC529
:1059D000CD45B73FFF8300922449C23F0D55555531
:1059E0005555D53F2F6C6A2C44B4A2BF9AFDDE52A8
:1059F0002DDEAD3F6D9A74AFF2B0B33F711623FE4A
:105A0000C671BC3FC4EB98999999C93FC0C50000C5
:105A1000E0C500009C7500883CE4377E0000F03F44
:105A2000FB21F9BFFFFFF23FFFFFE53FFF7F034090
:105A30000000F83F0000F0BFD0B5254A4B0086B00B
:105A40005B08934222DD234A934209DD02000B00EA
:105A500005F080FA02000B001000190006B0D0BD5E
:105A600002AA00F02BFD03231840049A059B01288D
:105A700013D0022822D0002819D0029803990124BB
:105A8000009401F075FD02000B00E5E70022002301
:105A900000F0F4FF02000B00DEE70090029803998B
:105AA00001F066FD80231B060200CB18D4E70298A4
:105AB000039900F0E3FF02000B00CDE70298039981
:105AC00000F0DCFF80231B060200CB18C4E7C046B1
:105AD000FB21E93FFFFFEF7F4B0059087047C046AD
