:10000000F0230010618700005F8700005F87000019
:100010005F8700005F8700005F870000000000002E
:100020000000000000000000000000005F870000EA
:100030005F870000000000005F870000897D0000EE
:10004000997B0000997B0000997B0000997B000060
:10005000997B0000997B0000997B0000997B000050
:10006000997B0000997B0000997B0000997B000040
:10007000997B00005D8700005D87000041840000DF
:100080004D7E0000657E00007D7E0000957E0000B4
:100090005D870000AD7E00005D8700005D87000089
:1000A0005D8700005D8700005D8700005D870000C0
:1000B0005D8700005D8700005D8700005D870000B0
:1000C0000523F0B52038434387B00393284B002520
:1000D0001B780493274B1E78842353430593039A7C
:1000E000254B0020D3185B5D049A019393400A00CE
:1000F000DBB202907018C0B2824234D00598141856
:100100001E4820180700002420E01100E7E7022E17
:1001100018D10198A30018410F231840830003430E
:10012000332003405800184355231840430003432D
:1001300060465B00DBB200280FD00298002801D097
:10014000012003438420604301343B54E0B28446E1
:10015000B042DCD30132D2B2CCE758B20028F1DA97
:1001600001200290EEE70135052DCED107B0F0BD9C
:1001700019050010000000106CB40000B00F001052
:1001800070B5114B01201B78002B1BD00F4A013B8F
:100190001B01D3189D68DC68002200232800210081
:1001A00008F094FC002802D080231B06E418084ABB
:1001B000084B2800210008F09DFC030001205A1E76
:1001C0009341584070BDC04694040010980400103C
:1001D0003EC3D84E7D7F612B704700000023034A49
:1001E0001370034A1370034A13707047920400108F
:1001F0004C05001093040010024A137859424B41F9
:1002000013707047410500100023044A1370044A1C
:1002100013700122034B1A707047C0464A05001044
:1002200049050010430500100023044A1370044AD6
:1002300013700222034B1A707047C0464A05001023
:1002400049050010430500100023034A1370034AB8
:100250001370034A137070474A05001049050010D7
:1002600043050010024A137859424B4113707047FE
:10027000480500100122034B1A700022024B1A702D
:100280007047C04649050010430500100122034B8A
:100290001A700022024B1A707047C0464A050010BF
:1002A000430500100849094A0B78002B05D0107847
:1002B000074B1B18FF20013B1870002301200B7017
:1002C000044913700870704755050010E4050010CC
:1002D0000B0000104D050010024A137859424B41A3
:1002E00013707047510500100222034B1A70002250
:1002F000024B1A707047C0465105001043050010AC
:100300000322034B1A700022024B1A707047C0463A
:1003100051050010430500100022034B1A70034BD7
:1003200001321A707047C046E405001055050010F0
:100330000022014B1A7070474E05001000230F4A2F
:1003400070B513700E4A10241370002300220D4E56
:100350000D4930000A604B608A60CB60220007F0D4
:10036000C5FF0A4D31002200280007F0BFFF290019
:100370002200074807F0BAFF70BDC0469404001081
:10038000C81000100011001010110010F010001023
:10039000E0100010044A137859424B4113700022B8
:1003A000024B1A707047C046080000104305001049
:1003B0000122034B1A700022024B1A707047C0468C
:1003C00008000010430500100023024A1370024A7F
:1003D00013707047080000104305001010B5021C90
:1003E000202800D92022002003000649D2B29342DF
:1003F00000D310BD0C5CFF2C01D10133DBB2013006
:10040000F5E7C046EB05001070B5074B1D78681C7A
:10041000C0B2FFF7E3FF04002800FFF7DFFF013C55
:10042000201AC0B270BDC046B810001010B5FFF75A
:10043000D5FF034B185CFE3843425841C0B210BD93
:10044000EB050010034B1A78034B1A700022034B84
:100450001A70704742050010410500105305001046
:1004600010B50A4B1878FFF7B9FF0023084A121895
:100470000848D45CD9B2FF2C02D0242B03D1190038
:10048000FF23435410BDC4540133F2E7B8100010E9
:10049000EB050010C0050010074A0020137800216A
:1004A000002B07D0013BDBB21370044ADB00D318EA
:1004B000186859687047C0462211001028110010B2
:1004C0000023034A1370034A1370034A13707047E2
:1004D0005E0500102011001021110010044A13784D
:1004E00059424B4113700022024B1A707047C046AC
:1004F00009000010480500100022014B1A707047D7
:100500005C0500100122F8B508210600100007F074
:1005100095FA0724082700223900012007F08EFAF7
:10052000320001252241022100202A4007F086FAEC
:100530002A003900280007F081FA013CEBD2F8BD0F
:10054000002210B504001100022007F077FA200005
:10055000FFF7D8FF10BD0000A022FF21520010B508
:10056000094807F0E4FE202300200021074A013B50
:10057000DBB203C2002BFAD1054A1370054A13708F
:10058000054A137010BDC046EB050010B00E0010F8
:10059000B8100010BA100010B9100010F8B505001E
:1005A0000E0017000024280007F0F9FE844200D353
:1005B000F8BD084B0C211B78285D022B00D00621CA
:1005C000614371183A00C9B20134FFF779FDE4B212
:1005D000E9E7C04600000010F8B5551C86180C006D
:1005E0001700451907F0DBFEC21B3100280001325D
:1005F00007F0BFFE3470F8BD30B50E4C85B00393E4
:1006000023780D4D009001910292072B07D970229B
:1006100028000A4907F0ADFE2378013B23702078BB
:100620001022431C000169462818237007F05EFE63
:1006300005B030BD9404001098040010A804001008
:1006400010B50B4B197800290BD00A4C0A4B013915
:10065000090110222000591807F048FE0FCCFFF7BF
:10066000CBFF0023054A1370054A137010BDC04626
:100670009404001068050010980400109304001002
:100680009204001010B5FFF7DBFFFFF7D9FF01223E
:10069000034B1A700023034A1370034A137010BDF2
:1006A0005B05001061050010AB0E001030B5002294
:1006B00004000D00002385B000940195029203937D
:1006C000009801990022039BFFF796FF2000290064
:1006D00005B030BD10B507F0A5FB0AF0C3FBFFF76E
:1006E000E5FF10BDC02010B50249C005FFF7DEFFD1
:1006F00010BDC046FB21094010B5024B0FCBFFF7E0
:100700007BFF10BD6805001010B5024B0FCBFFF743
:1007100073FF10BDD0100010F8B5070020200E00A8
:100720001400FFF75BFEA02305005B0098420BD28C
:100730003800FFF753FE24182A1B044D601C611972
:10074000401907F016FE2E55F8BDC046EB05001007
:10075000F8B506000120FFF741FE471E04002020E7
:10076000FFF73CFE054D0130021B7919601907F0B7
:1007700000FE0022024BEE551A70F8BDEB0500108A
:1007800045050010F8B50C4F06003B780D000B4CEA
:10079000032B08D9210018222000083107F0E9FDB9
:1007A0003B78013B3B703B785A1CDB00E4183A7005
:1007B00026606560F8BDC0462211001028110010A7
:1007C00010B5094B1B78002B07D0084A013BDB0012
:1007D000D31818685968FFF7D5FF0023044A13702F
:1007E000044A137010BDC0462211001028110010D9
:1007F0005E0500102111001010B5FFF74DFE00231B
:1008000042428B4110001900FFF7BCFF10BD0000F1
:1008100070B5FFF741FE05000C00FFF73DFE074BEA
:100820001B78002B03D06422002308F09BF92A00D8
:10083000230008F073F9FFF7A5FF70BD0900001051
:1008400070B5FFF729FE0D000400FFF725FE001923
:100850006941FFF797FF70BD10B5FFF7CDFFFFF7B8
:10086000EFFF10BDF7B50025344A354E127804006D
:100870003378AA4229D0AB4208D1324F3B78AB4201
:1008800001D0FFF709FE2000290032E0FFF704FE47
:100890006422002307000E0008F040F90A2200231A
:1008A00008F060F9009001910A220023380031001D
:1008B00008F034F92900D0B2009A019B12184B417C
:1008C000100019000A22002333E01F4A1278009218
:1008D000002B14D11B4F3B78002B01D0FFF7DCFD20
:1008E000009B002BCFD0642200232000290008F0B9
:1008F00039F9FFF747FF01233B703370F7BD009BC9
:10090000002B0ED0FFF7C8FD0A22002308F006F9DD
:10091000642200196941002308F024F9FFF732FF2F
:10092000ECE7FFF7B9FD094B10221E780023002EDB
:10093000C8D008F017F900196941EFE75E0500100B
:1009400021110010201100100900001048050010AE
:1009500010B50920FFF786FF10BD10B50820FFF77E
:1009600081FF10BD10B50720FFF77CFF10BD000010
:1009700010B5054C0F202378002B00D10938FFF764
:1009800071FF0023237010BD4005001010B5054C09
:100990000E202378002B00D10938FFF763FF0023D6
:1009A000237010BD4005001010B5054C0D202378B4
:1009B000002B00D10938FFF755FF0023237010BD2D
:1009C0004005001010B5054C0C202378002B00D1F9
:1009D0000938FFF747FF0023237010BD40050010C2
:1009E00010B5054C0B202378002B00D10938FFF7F8
:1009F00039FF0023237010BD4005001010B5054CD1
:100A00000A202378002B00D10938FFF72BFF0023A1
:100A1000237010BD4005001010B50020FFF722FF25
:100A200010BDF8B5040007F0BAFC0023C7B2661E7B
:100A3000DAB2E118BA4203D25A1CB55C202D06D0B6
:100A4000C2B2D21A2000013207F050FCF8BD1300E8
:100A5000EEE70000F0B5002489B003221A490190A6
:100A600004AF03A83C7107F041FC0622174906A811
:100A700007F03CFCE5B20321280007F09BFE144B75
:100A8000C6B21E70019BA10059180422380007F05D
:100A90002DFC2800032107F013FF03ABC9B25D5CF6
:100AA00006ABE05C290080383200C0B20635FFF7A3
:100AB00007FB013432003800E9B2FFF76FFD062C66
:100AC000D8D109B0F0BDC046B8B10000BCB100003B
:100AD0001905001070B5C2000400002100200E4B63
:100AE0009B18186059602000FFF778FC0B4E05003A
:100AF000335CFF2B0ED00134E0B2FFF76FFC040033
:100B00002020FFF76BFC611E0130021B8919A81918
:100B100007F0ECFB70BDC046B00E0010EB050010F6
:100B200010B50C00FFF75AFC24182020FFF756FCE4
:100B3000021B0348611C0918201807F0D7FB10BDE1
:100B4000EB050010F7B516001F0002000B00009027
:100B500001913000390008F001FF04F031F9002262
:100B6000154B09F0FDFAC022144BD20508F0F6FE31
:100B7000002204000D0000980199002307F0A6FF51
:100B800000280FD0002200233000390007F09EFF1C
:100B90000022094B002809D02000290009F04CFD53
:100BA00004000D002000290003B0F0BD2000290042
:100BB00008F098FBF4E7C04600806640FB2109403E
:100BC00010B506F04DFC08F03FFB044908F024FA8C
:100BD0000AF06EF9FFF76AFD10BDC04600007A44C6
:100BE0000023F7B5114F124D3B702B70984218D16E
:100BF000104B01241878FFF7F1FB0F4E3618335DC8
:100C0000FF2B0AD06A46137100232800537101A9F3
:100C100001340AF0ABFA082CF1D1280007F0BFFB31
:100C200038700122054B1A70F7BDC0461A05001036
:100C30001B050010B8100010EB0500104605001051
:100C400010B50B4904000020002C0CDC013464B208
:100C5000012C0CD00022074B08F080FEF6E70022A2
:100C6000044B09F07DFA013C64B2631CF7D110BD5E
:100C70000000F03F0000244010B50B4B0400197831
:100C800000290AD00139C9B21970084B0901102294
:100C9000591807F02BFB200010BD00220023026032
:100CA00043608260C360F6E794040010980400106B
:100CB00000B58DB06846FFF7DFFF04A8FFF7DCFF43
:100CC000009A019B0498059908F00CFB029A039B7B
:100CD000089009910698079908F004FB0A900B9177
:100CE0000A9A089809990B9BFFF786FC0DB000BD86
:100CF000F0B589B06846FFF7BFFF009C019D029EDA
:100D0000039F22002B003000390008F027FE32003C
:100D10003B0009F025FA22002B0008F0E3FA02005C
:100D20000B000020114908F019FE320004900591D3
:100D30003B002000290008F011FE22002B0009F0E2
:100D40000FFA32003B0008F0CDFA02000B00002041
:100D5000074908F003FE06900791069A0498059942
:100D6000079BFFF749FC09B0F0BDC0460000F03F0B
:100D70000000F0BFF0B593B006A8FFF77DFF069B1B
:100D8000079C0AA800930194089C099DFFF774FF33
:100D90000A9E0B9F0C9A0D9B009801990292039357
:100DA00032003B0009F0DCF9029A039B04900591A4
:100DB0002000290009F0D4F902000B0004980599DD
:100DC00009F03AFC32000E900F913B002000290000
:100DD00009F0C6F9029A039B04000D0000980199DE
:100DE00009F0BEF902000B002000290008F07AFA91
:100DF00010901191109A0E980F99119BFFF7FCFB20
:100E000013B0F0BD10B5FFF773FFFFF7B3FF10BDD0
:100E1000064B10B50FCBFFF7EFFB054B18780AF028
:100E200021F8FFF743FCFFF7EDFF10BDE0100010C5
:100E3000C810001010B5FFF703FCFFF79BFF10BDB3
:100E400000B589B06846FFF717FF009A019B802024
:100E50000399049205930006029A0B1806920793D1
:100E600004980599069A079BFFF7C6FB09B000BDD9
:100E700000B589B06846FFF7FFFE029A039B049213
:100E80000593009A019B0692079304980599069A88
:100E9000079BFFF7B1FB09B000BD00001FB5064C72
:100EA0006846FFF7E9FE69461022200007F01EFAA7
:100EB0000FCCFFF7A1FB1FBDD010001000B589B00B
:100EC00004A8FFF7D9FE0498059909F065FF40B220
:100ED000FFF7B6FE002200230090019102920393D7
:100EE000009800220199039BFFF786FBFFF742FF62
:100EF00009B000BDF0B504003E4D8DB00A281CD1EC
:100F00003D4B1B78002B18D13C4B1A78002A01D19D
:100F100001321A702B78002B0DD1394C2378002B1D
:100F200002D06846FFF7A8FE00200021FFF7BEFBB5
:100F3000012323702B700DB0F0BD2B78002B0ED148
:100F40002F4E3378002B02D06846FFF795FE200025
:100F500009F088FFFFF7AAFB01233370EAE7274E69
:100F60003578002D21D004A8FFF786FE6B1C68B2EF
:100F70003370FFF765FE06000F00200009F042FF06
:100F800032003B0008F0EAFC049A059B08F0AAF93D
:100F900000240023089009910A930B94089809995A
:100FA0000A9A0B9BFFF728FBC5E708A8FFF764FE2A
:100FB00008980999104B00221B78002B18D1114B6F
:100FC00009F0CEF8060020000F0009F01BFF020018
:100FD0000B003000390008F085F90024002304904C
:100FE00005910693079404980599069A079BD9E7FB
:100FF000054BE5E79304001048050010920400102B
:101000004C050010000024400000304010B5064B95
:101010001B78002B03D00122044B1A7010BD0A204C
:10102000FFF768FFFAE7C0464805001040050010CA
:1010300010B50920FFF75EFF10BD10B50820FFF7BF
:1010400059FF10BD10B50720FFF754FF10BD000079
:1010500010B5054C0F202378002B00D10938FFF77D
:1010600049FF0023237010BD4005001010B5054C4A
:101070000E202378002B00D10938FFF73BFF002317
:10108000237010BD4005001010B5054C0D202378CD
:10109000002B00D10938FFF72DFF0023237010BD6E
:1010A0004005001010B5054C0C202378002B00D112
:1010B0000938FFF71FFF0023237010BD4005001003
:1010C00010B5054C0B202378002B00D10938FFF711
:1010D00011FF0023237010BD4005001010B5054C12
:1010E0000A202378002B00D10938FFF703FF0023E3
:1010F000237010BD4005001010B50020FFF7FAFE68
:1011000010BDF0B589B06846FFF7B6FD00980199AB
:10111000029C039D04F0EEF806000F002000290059
:1011200003F0E8FF32003B0009F01AF80490059143
:101130002000290004F08CF832003B0009F010F880
:1011400006900791069A04980599079BFFF754FAB1
:1011500009B0F0BD10B5FFF7D4FFFFF771FAFFF744
:10116000C7FDFFF7A5FD80210020C905FFF79EFA06
:10117000FFF748FE10BD00001FB5074B1B78002B82
:1011800006D06846FFF778FD0098019905B000BDCC
:1011900000200021FAE7C0469404001010B5FFF7C4
:1011A000EBFF09F0F9FD9423421F5B009A4201D244
:1011B000014B187010BDC0460A00001010B5FFF7B3
:1011C000DBFF07F01BFD07F055FDFFF76FFA10BDC1
:1011D00070B5FFF7D1FF05000C00002200232800A6
:1011E000210007F073FC002802D080231B06E418BE
:1011F00028002100FFF75AFA70BD000010B5FFF774
:10120000BBFFE0220B4B120609F016FAFFF74EFA6D
:10121000094B0A4A1860596000210020084B1860E9
:101220005960002301211370064A1170064A137099
:1012300010BDC0464D62603FC0100010AB0E0010E4
:10124000380500105A0500104305001010B51B4C5E
:1012500020220021200007F06AF800231A000F2B3B
:1012600029D823700133DBB20134202BF7D1FFF7EB
:1012700083FF134C20606160FFF77EFFFFF716FAD3
:1012800002000B000F490A604B602068616809F09A
:10129000D3F900220C4B08F061FB01220B4B1860C4
:1012A00059600B4B1A7000230A4A13700A4A1370D4
:1012B0000A4A137010BD2270D4E7C0468B05001097
:1012C000800500107805001000003F403005001038
:1012D000500500104305001061050010AB0E001012
:1012E00010B5FFF749FF8022034B120608F036FBCA
:1012F000FFF7DCF910BDC0465347E13F10B5FFF7DB
:101300003BFFE022034B120608F028FBFFF7CEF963
:1013100010BDC04645E2E33F10B5FFF72DFF802228
:10132000034B120608F01CFFFFF7C0F910BDC046C2
:10133000EB51044010B5FFF71FFF0022024B08F0ED
:101340000FFFFFF7B3F910BD86480E4010B5FFF749
:1013500013FF0022054B09F06FF9C022044B12065F
:1013600008F0FCFAFFF7A2F910BDC04600004040AB
:10137000CCCCFC3F10B5FFF7FFFE8022034B92055B
:1013800008F0ECFAFFF792F910BDC04611A3014036
:1013900010B5FFF7F1FE0022054B08F0E1FEC02278
:1013A000044BD20508F0DAFAFFF780F910BDC04609
:1013B00000806640FB210940F7B5FFF7DDFE1D4ABE
:1013C0001D4B07F08FFF0D00040009F0E5FC09F04C
:1013D00019FD0090019102000B002000290009F086
:1013E0002BF90022154B08F0BBFE0D00040009F09C
:1013F000D3FC09F007FD06000F0002000B002000DF
:10140000290009F019F900220C4B08F0A9FE00226E
:101410000B4B08F0A3FA32003B0007F063FF0022F9
:10142000074B08F09BFA009A019B07F05BFFFFF760
:101430003DF9F7BDBBBDD7D9DF7CDB3D000059408E
:1014400000004E40F8B5FFF797FE07F0B9FBC4B2B5
:10145000FFF792FE07F0B4FBC5B200202C1B0B492E
:10146000E4B20134FFF722F9631EDBB29D4200D8DB
:10147000F8BDFFF781FE06000F00200009F0C2FC56
:1014800032003B0008F06CFEEBE7C0460000F03F86
:10149000F8B5FFF771FEFFF709F907F091FB01249A
:1014A000C5B2FFF7CFFFAC4200D9F8BDFFF764FE2D
:1014B000060020000F0009F0A5FC02000B00300020
:1014C000390008F04BFA0134FFF7F0F8E4B2EAE72C
:1014D00010B5FFF751FE8022034B120608F040FEC4
:1014E000FFF7E4F810BDC0465347E13F10B5FFF7E2
:1014F00043FEE022034B120608F032FEFFF7D6F857
:1015000010BDC04645E2E33F10B5FFF735FE80222F
:10151000034B120608F022FAFFF7C8F810BDC046C8
:10152000EB51044010B5FFF727FE0022024B08F0F4
:1015300015FAFFF7BBF810BD86480E4010B5FFF74F
:101540001BFEC022054B120608F00AFE0022044BC7
:1015500007F0C8FEFFF7AAF810BDC046CCCCFC3F90
:101560000000404010B5FFF707FE8022034B9205B4
:1015700008F0F6FDFFF79AF810BDC04611A3014030
:1015800010B5FFF7F9FDC022054BD20508F0E8FDC4
:101590000022044B08F0E2F9FFF788F810BDC046BE
:1015A000FB21094000806640F0B585B0FFF7E4FDFF
:1015B0000022284B08F0D4FD274A284B07F092FE62
:1015C0000022244B04000D0008F0C8F909F0E4FBE8
:1015D00009F018FC00221F4B0090019108F0C0FD9B
:1015E0000290039102000B002000290009F024F86A
:1015F00000221B4B08F0B2F909F0CEFB09F002FC07
:101600000022174B06000F0008F0AAFD02000B0095
:101610002000290009F010F8029A039B09F00CF849
:101620000022104B08F09AF9002204000D0030004F
:1016300039000D4B08F092F9009A019B07F052FE19
:1016400002000B002000290007F04CFEFFF72EF8E7
:1016500005B0F0BD0020AC40BBBDD7D9DF7CDB3D81
:1016600000004E400088C3400000594030B5264A73
:10167000264B12781B7885B0002A19D0002B0ED08B
:10168000FFF77AFD0022224B08F06AFD07F0B6FA58
:101690000B00034335D1FEF7A1FD05B030BD684610
:1016A000FFF7EAFA102269461A4806F01FFEF4E72F
:1016B000002BF4D0184A107800281BD0431EDBB250
:1016C0001370002BE9D0023840B2FFF7B9FA0400DA
:1016D0000D00FFF751FD22002B0008F041FD07F03F
:1016E0008DFA07F0C7FA22002B0008F037F9FEF751
:1016F000DDFFD2E7FFF740FD0022084B08F02EF98E
:10170000C4E707F0B7FAF2E74805001093040010A9
:101710000000B03F68050010920400100000244053
:1017200010B5FFF729FD07F04BFAC0B2072803D820
:10173000024B187005F00CFD10BDC046550000109E
:1017400010B5FFF719FD07F03BFAC0B23F2803D8E8
:10175000024B187005F0FCFC10BDC0465012001082
:1017600010B5040074280CD9212C17D0FEF736FDD3
:10177000193CE4B20B2C11D80D4BE340DB0716D417
:101780000CE00C4B1A78272353430B4A1B189B0081
:101790009B5898470A2CEBD9122CE5D10023074A15
:1017A0001370044A1370064A1370064A137010BD72
:1017B000210C00004305001098B2000051050010F4
:1017C0004A05001049050010F0B5314BC20087B042
:1017D0009B185C681B68050002930394FEF7FEFDEE
:1017E00000240190FEF7FAFCFEF7A8FD294B0199B1
:1017F0001A19575CFF2F10D1FFF7BEFCEB00244DE8
:10180000ED1828606960029A039B08F015FF02003A
:101810000B0008F0A5FC07B0F0BDFD2F20D101346E
:10182000019A1D4FE4B21B199E5C3B78042B07D92B
:101830001A480422411C06F09CFD3B78013B3B709A
:10184000154A1378591C1170144AD654104BF600DF
:101850009E1930687168FEF729FF0134E4B2C5E7CC
:101860000F4B06221E7827230E4904A85E4306F07C
:101870003DFD0023BE19F6B204AAD25CB242ECD000
:101880000133062BF8D13800FFF76AFFE5E7C046C1
:10189000B00E0010EB050010E5050010E605001085
:1018A00043050010C3B10000F8B520250024002630
:1018B00000272000FEF7BAFD00280AD12000FFF71C
:1018C00083FF02000B003000390007F00BFD06001B
:1018D0000F000134E4B2202CEBD1E02230003900BB
:1018E000054B120607F0F2F8002803D1013DEDB2D6
:1018F000002DDBD1F8BDC0464D62503F70B50D4E96
:1019000034782000FEF76AFD0B4B1B5CFF2B02D0E6
:101910002000FFF7DFF80024084D013DE2B201345A
:10192000295DFF2902D1FFF7BFFF70BD3078FEF7B8
:10193000F3FEF3E7B8100010EB050010C00500102F
:1019400010B5084A084B11780848002904D0002136
:10195000117002781A7010BD012414701A78197071
:101960000270F8E748050010090000105D0500103E
:10197000084B400070B5C45C1B185D78200029003E
:10198000002206F00FF829000122200006F056F888
:1019900070BDC046ACB8000000B50C4B89B01B78D8
:1019A000012B11D96846FFF767F904A8FFF764F91E
:1019B00000980199029A039BFEF71EFE0498059970
:1019C000069A079BFEF718FE09B000BD94040010AC
:1019D00010B5FFF7E1FFFFF7CFFB124C206061600D
:1019E000FFF7CAFBFEF762FE2268636808F024FE78
:1019F00000220D4B08F0B4FB00220C4B07F0AEFFA9
:101A00000B4B01221860596000200021094B18601F
:101A10005960094B1A700023084A1370084A137062
:101A200010BDC046780500100000E03F00002440D3
:101A300030050010380500104B050010430500105C
:101A4000AB0E001000B58BB0FEF79AFB002815D046
:101A500006A8FFF711F980200799069A00060B18CF
:101A6000029203930022002304920593002202981D
:101A70000399059BFEF7C0FD0BB000BD02A8FFF760
:101A8000FBF8802000068446039B029A019301998B
:101A900061440B00059906920793049A0B1808926B
:101AA000099306980799089A099BE3E710B5FFF791
:101AB000C9FFFFF7FDF810BD10B5FEF7C1FDFFF738
:101AC0007DFBFFF7F3FF10BD274B70B50FCBFEF783
:101AD00093FD264E307809F0C5F9FEF7E7FDFFF7D4
:101AE00049F9234C20686168A268E368FEF784FD29
:101AF000204D28686968AA68EB68FEF77DFDFFF74E
:101B000039F9FFF7D3FF1C4B0FCBFEF775FD30788B
:101B100009F0A8F9FEF7CAFDFFF72CF92068616803
:101B2000A268E368FEF768FDFEF78AFDFFF722F979
:101B3000FFF7BCFFFFF766F9FEF782FD0FCCFEF75B
:101B40005BFDFFF717F9FFF77DFF0FCDFEF754FDA3
:101B5000FFF7AEF8307809F085F9FEF7A7FDFFF73B
:101B600051F9FFF719FF70BD00110010C8100010E7
:101B7000E010001010110010F010001010B5FFF769
:101B8000C0FAFEF75DFDFFF7B3F8FFF75BFFFFF765
:101B90008FF880210020C905FEF788FDFFF732F994
:101BA00010BD000000B5114B8DB01B78022B1AD967
:101BB0006846FFF761F804A8FFF75EF808A8FFF78A
:101BC0005BF800980199029A039BFEF715FD0898AF
:101BD00009990A9A0B9BFEF70FFD04980599069A3E
:101BE000079BFEF709FD0DB000BDC0469404001030
:101BF00010B5FFF7D7FFFFF7D5FF10BD10B5FFF702
:101C0000CBFEFEF71DFDFFF7F3FFFFF7C5FEFFF765
:101C10004DFFFFF7C1FEFFF7F5F800200249FEF780
:101C200045FDFFF7A7F810BD0000594010B5FFF7BC
:101C3000B3FEFEF705FDFFF7DBFF00200349FEF7CB
:101C400035FDFFF7DFF8FFF795F810BD00005940AC
:101C50007FB51025324E3378013B3370FEF7F0FC30
:101C6000304CE3686168A2682068FEF7C5FCFFF7A6
:101C700093FEFFF71BFF6846FEF7FEFF2A0069464A
:101C8000200006F033FBFEF7DBFCFEF7D9FCFFF784
:101C900071F8254CE3686168A2682068FEF7ACFC27
:101CA000FFF77AFEFFF702FF6846FEF7E5FF2A001E
:101CB0006946200006F01AFBFFF76EFEFEF7C0FC37
:101CC000FFF796FFFFF756F8184CE3686168A268C3
:101CD0002068FEF791FCFFF75FFEFFF7E7FE68461E
:101CE000FEF7CAFF2A006946200006F0FFFA104CF2
:101CF000E3686168A2682068FEF77EFCFFF74CFE8F
:101D0000FFF7D4FE6846FEF7B7FF2A0069462000B9
:101D100006F0ECFA307809F0A5F8FEF7C7FC7FBDB5
:101D2000C8100010E0100010F0100010001100109A
:101D3000101100107FB510252E4E3378013333700B
:101D4000FEF77EFC2C4CE3686168A2682068FEF711
:101D500053FCFEF7ADFF6846FEF78EFF2A0069468A
:101D6000200006F0C3FAFEF76BFCFEF769FCFFF7F4
:101D700001F8224CE3686168A2682068FEF73CFC29
:101D8000FEF796FF6846FEF777FF2A0069462000B7
:101D900006F0ACFAFFF700FEFEF752FCFFF728FF53
:101DA000FEF7E8FF164CE3686168A2682068FEF75A
:101DB00023FCFEF77DFF6846FEF75EFF2A006946BA
:101DC000200006F093FA0F4CE3686168A26820686F
:101DD000FEF712FCFEF76CFF6846FEF74DFF2A0087
:101DE0006946200006F082FA307809F03BF8FEF7E9
:101DF0005DFC7FBDC8100010E0100010F010001056
:101E0000001100101011001070B5124B1B78002B40
:101E100012D0FEF741FB05000C00FEF73DFB02006F
:101E20000B002800210006F09DFE6422002306F02E
:101E300075FEFEF7A7FC70BDFEF72EFB05000C003B
:101E4000FEF72AFB02000B002800210006F08AFEA4
:101E5000EFE7C0460900001010B50C4B1B78002BB3
:101E600003D001220A4B1A7010BD0A4C2378002BB4
:101E700001D0FEF711FB00200021FEF783FC0123B7
:101E8000054A23701370054A1370EDE748050010EA
:101E90004005001020110010211100105E050010F7
:101EA000F0B58DB0FEF76CF9002810D0FFF764F99B
:101EB000C0222C4BD20508F053F900222A4B07F020
:101EC0004DFD03F0C5F9FEF7F1FB0DB0F0BD04A820
:101ED000FEF7D2FE06980799049C059D03F00AFAC6
:101EE00006000F002000290003F0B2F93200029032
:101EF00003913B0000201D4907F030FD0090019147
:101F000002000B003000390007F0ECF9029A039B45
:101F100008F026F90022164B08F022F908900991E2
:101F2000C02022002B001349C00508F085FB03F0F8
:101F30008FF9009A019B04000D003000390008F071
:101F40007BFB22002B0008F00BF90022084B08F065
:101F500007F90A900B910A9A089809990B9BFEF7CA
:101F60004BFBB2E7FB210940008066400000F03FD8
:101F70000000E03FFB21F93FF0B58DB0FEF700F91E
:101F8000002810D0FFF7F8F8C0222E4BD20508F039
:101F9000E7F800222C4B07F0E1FC03F0ABF8FEF76A
:101FA00085FB0DB0F0BD04A8FEF766FE0698079904
:101FB000049E059F03F09EF90400C0200D0032002E
:101FC0003B002249C00508F037FB03F041F922002D
:101FD000029003912B0000201D4907F0BFFC0090E8
:101FE000019102000B002000290007F07BF9029A02
:101FF000039B08F0B5F80022164B08F0B1F80890E2
:1020000009913000390003F023F980231B06CE1814
:102010000700009A019B2000290008F00DFB020038
:102020000B003800310008F09BF80022094B08F043
:1020300097F80A900B910A9A089809990B9BFEF75A
:10204000DBFAAEE7FB21094000806640FB21F93F47
:102050000000F03F0000E03FF7B5012005F046F931
:1020600004002220002C1DD12500174B0193019B59
:1020700001221E785F783000390005F093FC3900AA
:102080003000002205F0DAFC271D104EFFB2F17976
:10209000B07905F0A9FC002805D12800FFF768FCFD
:1020A0000B4B185DFEBD0134E4B2023EBC42EED1E2
:1020B0002800FFF75DFC019B01350233EDB201936F
:1020C0000A2DD4D1FF20EDE7ACB80000A4B8000081
:1020D0007CB8000070B50024FFF7BEFF05000A20A1
:1020E00005F080FEFF2DF6D10134E4B2032CF3D1CC
:1020F00070BD00008423CA085343181884235B0072
:10210000984208DA023BFF3B1940063B8B40024AEB
:10211000115C0B4313547047B00F001070B5064CA0
:102120000500200006F03BF9691C421B611860198C
:1021300006F0DCF870BDC0461B050010F0B5314B51
:1021400087B0070018780291FEF748F900231C00B9
:102150001D0003900193039BE9182B4B5A5CFF2A47
:1021600002D1019807B0F0BDFD2A2CD1212CF2D864
:102170005B185B78FA3A1A409B0805AE31337370EE
:1021800000234132B3703270300006F008F931009C
:102190000200381906F0AAF8029BA21CD2B2002B4A
:1021A0000DD01A4B1B78002B09D0023B9D4206D163
:1021B00003347F213800E4B2FEF70EFA2200023524
:1021C0001400EDB2C7E7222CC5D8114B661C9B5CEE
:1021D000F6B23B55029B002B0FD00C4B1B78002B0B
:1021E0000BD0013B9D4208D1023432007F213800E0
:1021F000E4B2FEF7F1F90196260001353400EDB2A4
:10220000A9E7C046B8100010EB0500101805001033
:10221000C0B80000F7B5FEF7AFFF0D00040005F0F1
:10222000B7F9684601A905F05BFA2900200006F01D
:10223000C7FC6B46C0B2188029002000FEF736FAB2
:10224000FFF73AFC802000261B4F1C49C005FEF713
:102250002DFAFEF72DFD30003900FEF727FAFEF7C4
:1022600089FDFEF789FF06F0ABFC6B4629009870EC
:102270002000FEF71BFA30003900FEF717FAFEF7D0
:1022800079FDFFF719FC80200C49C005FEF70EFA16
:10229000FEF70EFD30003900FEF708FAFEF76AFD82
:1022A000FEF76AFF06F08CFC6B460022D87001A98D
:1022B000684605F059FAF7BD00005940E17A743FCD
:1022C00037B5FEF759FF0D00040005F061F96846C7
:1022D00001A905F005FA2900200006F071FC6B4603
:1022E00080222900D20518710B4B200006F0FAFF5E
:1022F000FEF7DCF9FFF7E0FBFEF73EFF0022074B9D
:1023000007F02EFF06F05CFC6B460022587101A915
:10231000684605F029FA37BDE17A743F000059405C
:1023200013B505F035F901A9684605F0D9F96B46F2
:10233000987806F089FF164906F06EFE6B46041C7D
:10234000188806F081FF011C201C06F0C7FC6B46B4
:10235000041CD87806F078FF0E4906F05DFE011CDB
:10236000201C06F0BBFC041C684605F02DFA072172
:1023700006F090FB080006F067FF074906F04CFEE8
:10238000211C06F0ABFC08F093FDFEF78FF913BD9E
:102390000000C84200401C460050C34713B505F07A
:1023A000F7F801A9684605F09BF96B46587906F0E5
:1023B0004BFF084906F030FE6B46041C187906F006
:1023C00043FF011C201C06F089FC08F071FDFEF79C
:1023D0006DF913BD0000C842F0B54A4E8DB0337898
:1023E000002B41D0FDF7CCFE00283DD0FEF7C4FE07
:1023F000337804000D00002B30D0FDF7C1FE00281B
:102400002CD0FEF7B9FE404B1B78002B0AD0089465
:1024100009950A900B91089809990A9A0B9BFEF767
:10242000EBF81FE0C022394BD20507F099FE0022DD
:10243000374B07F093FA06000F0002F05BFE220014
:102440002B0007F08DFE089009913000390002F052
:10245000FFFE22002B0007F083FEDAE720002900B0
:10246000FEF724F90DB0F0BD6846FEF705FC009CB0
:10247000019D029E039F244B1B78002B14D0002249
:1024800000230496059716001F0006920793069AEC
:10249000079B04980599FEF7AFF832003B000894BB
:1024A00009950A920B93B6E732003B002000290001
:1024B000FEF748FB00220023049005910692079343
:1024C00004980599069A079BFEF796F822002B00C0
:1024D0002000290007F044FE320004000D003B00FC
:1024E0003000390007F03CFE02000B0020002900FC
:1024F00006F0F8FE02F06CFF00220023089009911C
:10250000CFE7C0469404001008000010FB210940EA
:1025100000806640F0B58BB002A8FEF7ADFB029ECE
:10252000039F049C059D32003B003000390007F0FA
:1025300017FE2200009001912B002000290007F0D7
:102540000FFE02000B000098019906F0CBFE02F08E
:102550003FFF02F007FF2200069007912B0030009A
:102560003900FEF7EFFAC022084BD20507F0F8FD5C
:102570000022074B07F0F2F908900991089A069893
:102580000799099BFEF738F80BB0F0BDFB21094015
:102590000080664010B5FFF7BDFF00200349FEF73D
:1025A00085F8FFF7B7FFFEF72DFC10BD00002440B3
:1025B00070B50024234D20002900FEF777F8FEF7C0
:1025C00077FBFEF73DF8FEF73BF8FEF739F8FEF72C
:1025D00037F800201C49FEF769F8FEF7CBFBFFF740
:1025E000DBF900201949FEF761F8FEF7C3FBFEF79F
:1025F0007FFBFFF75BFAFEF77BFBFEF759FBFFF76C
:1026000089FF29002000FEF751F8FFF74FFAFEF787
:10261000B1FBFFF7C1F9FFF77DFFFFF713FAC02009
:102620000B49C005FEF742F8FFF774FFFEF740FBC9
:1026300080210020C905FEF739F8FEF7E3FBFEF71D
:1026400037FB70BD0000F03F000028400000244030
:10265000FB21194030B58DB06846FEF70DFB04A88C
:10266000FEF70AFB049805990022002306F028FAD9
:1026700000240025002829D00698079922002B0065
:1026800006F01EFA002821D00098019922002B00A4
:1026900006F016FA002814D00298039922002B00A5
:1026A00006F00EFA00280CD01022124908A805F0F6
:1026B0001DFE089809990A9A0B9BFDF79DFF0DB026
:1026C00030BD089409950A940B95F2E70498059992
:1026D000069A079BFDF790FFFFF71CFF00980199F2
:1026E000029A039BFDF788FFFEF744FBFEF709FD06
:1026F000E5E7C04680B2000010B500200449FDF7B0
:10270000D5FFFFF707FFFEF735FBFEF7FAFC10BD1C
:10271000000024401FB56846FEF7AEFA0098019904
:102720000022002306F0CCF9002805D0002000216B
:10273000FDF7BCFF05B000BD029A039B009801990C
:10274000FDF75AFFFFF7E6FE00200449FDF7AEFF54
:10275000FEF710FBFEF7D5FCECE7C0460000E03FBB
:1027600010B5FEF755FBFDF76BFFFEF703FB104CB2
:10277000207808F077FBFDF799FFFEF7FBFAFFF7EB
:1027800061F90C4B0FCBFDF737FFFEF791FA20787C
:1027900008F068FBFDF78AFF00200749FDF786FF78
:1027A000FFF784F9FEF72EFBFFF7B4FF10BDC0461C
:1027B000C8100010F01000100000F03FF0B5002429
:1027C000224D89B0FDF73CFF0026FEF733FB0027C2
:1027D000FFF738F920002900FDF768FFFEF768FAD7
:1027E000FFF798FFFFF7D8F80020009601970294B2
:1027F000039502000199039BFDF7FEFEFEF7BAFA6E
:10280000FEF756FAFFF786FE002004960597069419
:10281000079502000599079BFDF7EEFEFFF712F9F9
:10282000FEF7A8FAFDF7ACFC00280CD0FEF7A4FCDC
:102830000022074B07F094FCC022064BD20507F09C
:102840008DF8FDF733FF09B0F0BDC0460000F03F42
:1028500000806640FB21094010B5FFF7AFFFFFF78E
:10286000F1F8FDF78DFC002806D000200449FDF7A3
:102870001DFFFEF71DFA10BDC0200249C005F6E796
:1028800000805640FB21F93F10B5FDF7D9FEFEF759
:10289000D1FA00200649FDF709FFFEF709FAFFF714
:1028A00039FFFEF725FAFEF765FAFFF787FF10BD3F
:1028B0000000F03F10B51A4B1B78002B0AD0FDF733
:1028C000BFFEFFF75BF9FFF767F8FEF743FCFEF783
:1028D00099FA1BE0134B1B78002B18D0FDF7B0FEC4
:1028E00000201149FDF7E2FEFEF7E2F9FFF754F888
:1028F000FFF7A8F800200C49FDF7D8FEFEF7D8F93D
:10290000FEF780FAFFF706FFFFF704FE10BDFDF7A4
:1029100097FEFFF7C5FAFFF73FF8FFF72DFBD6E765
:10292000490500104A0500100000F03F10B50F4B9C
:102930001B78002B02D0FEF70DFC10BD0C4B1B7852
:10294000002B10D0FDF77CFEFEF774FA0020094939
:10295000FDF7ACFEFFF7AAF8FFF7DCFEFEF7A8F9DB
:10296000FFF7D8FDE9E7FFF707FBE6E749050010A9
:102970004A0500100000F03F10B50F4B1B78002BEC
:1029800002D0FFF7FBF810BD0C4B1B78002B10D0CA
:10299000FDF756FEFEF74EFA00200949FDF786FEC8
:1029A000FEF786F9FFF7B6FEFEF782F9FFF7B2FDF4
:1029B000E9E7FFF775FAE6E7490500104A05001058
:1029C0000000F03FF0B58FB00BAC01900291049283
:1029D000202108222000089305F0A9FC002323727F
:1029E000834B00221B780593002B53D000230198C2
:1029F000029906F06BF88022029B12069C180028B0
:102A000000D11C00210000227A4B019806F05EF8EC
:102A10000BAC002808D03023E371089A04990BA866
:102A2000FDF7BCFD0FB0F0BD0198029906F004F966
:102A30000D000200014302D130232372EDE7230091
:102A4000200008210F2714003C4026003036392E84
:102A500013D8C67101392C071209C9B222432D09B6
:102A600001380029EFD120202A430831002A0DD057
:102A700061490BA805F09BFCCFE75734C471E9E727
:102A80000139C9B2187001330029C6D01A78302A2A
:102A9000F6D0C2E700230198029906F017F8019DCD
:102AA000002862D080220A27029B12069C1821006F
:102AB000524A534B019806F027F800282BD12100E9
:102AC000504A514B019806F00BF8002807D000221D
:102AD00000232100019806F00DF800281BD1019A6F
:102AE00023001000210008F039F9002813D1012239
:102AF000660076083100454B0198524208F02EF9E5
:102B0000002835D101223100404B0198524205F096
:102B1000E7FF00282CD138490BA805F048FC0BAD85
:102B20002800FDF77EFF0626280005F038FC059BEF
:102B3000834200D376E7364B1C78631E9C41059B8D
:102B40000134E85C2E2800D096E2049B089A1F1BF3
:102B5000FFB2A40039003F19FDF7B2FAFBB20493AB
:102B6000059B0133DBB20593DEE70127029C9EE75C
:102B70002100244A244B019805F0A8FF00281AD10F
:102B80002100244A244B019805F0BEFF002800D103
:102B900086E1380008F036F902000B0000201F49DA
:102BA00006F0DCFE02000B000198210005F08EFF0C
:102BB000002800D174E1002200232100019805F0D3
:102BC0007FFF002800D10BE130230BAA1370144BB8
:102BD0001978002901D02E2313700123302001E041
:102BE000D0540133DCB2A14299D9082BF8D196E731
:102BF000480500100000F03FCAB100007DC39425D5
:102C0000AD49B2543EC3D84E7D7F612BFFFFEF7FAD
:102C100041050010FCA9F1D24D62503FD012634132
:102C20009204001028002100974B002207F098FA28
:102C30000C0005000398013843B2039300222800DA
:102C40002100924B05F042FF0028EBD16B461B7B25
:102C500000220793280021008C4B05F055FF00222D
:102C60000690002800D0BDE000230299019805F0ED
:102C70002DFF431E98410723181AC3B20993FDF78D
:102C8000DFFF02000B002800210007F069FA002294
:102C90007F4B06000F0006F025FB08F07DF8390099
:102CA0000500300008F078F80A2706002800002800
:102CB00000D0A3E004000A27002E00D0A6E0069B67
:102CC0009C4208D228000A2105F0FEFD0500079865
:102CD000013043B203936B461B7B0793079A099B12
:102CE000981A40B2FDF7ACFF06000F00280008F06C
:102CF00089F83B00320006F031FE08F04DF839004B
:102D00000690300008F048F80100280005F0C2FEE7
:102D1000039B0C00002B14DA079B584240B2FDF7CE
:102D20008FFF06000F00200008F06CF832003B0017
:102D300006F014FE0022564B06F0D4FA08F02CF8E8
:102D400004006B46039A1B7B002A00DA0023099AD1
:102D5000D31ADBB203934F4B1B780793002B00D1A0
:102D600081E04D4B1D78002D7ED00BAE35000A273B
:102D70004A4B039A1B78D31A0993731B0399DAB24F
:102D80008A424BD30B000DACE41A2E230A25013CDA
:102D90002370069B002B6AD1002200230198029920
:102DA00005F094FE002802D02D23013C2370079BE0
:102DB000002B04D0384B1B78002B00D0AFE620004E
:102DC00005F0EDFA00220138C0B22018844200D18B
:102DD000A5E60378302B00D0A1E602700138F5E7B4
:102DE00003902BE728002100274B06F0B7FD0500D4
:102DF00007980C00013043B2039327E7390005F030
:102E000063FD069B0133DBB2069350E730003900C7
:102E100005F05AFD01340600E4B24DE7099A20217D
:102E2000934205DD3900200005F034FE3031C9B28F
:102E3000E9712000390005F047FD013D04009CE7E1
:102E40002000390005F026FE3031200031703900B5
:102E500005F03AFD04000135EDB2039B013EAB42A3
:102E6000EED10DAC90E7079D0A270DAEF5E7069869
:102E7000290005F00FFE013C303106982170290031
:102E800005F022FD069084E7000024400000F03F9A
:102E90000000E03F9304001052050010920400105F
:102EA000002300220198029905F010FE431E98416C
:102EB000002306000393002228002100734B05F035
:102EC00005FE002800D097E00022280021006F4B6B
:102ED00005F01AFE002800D099E0039B0730083364
:102EE000122B00D80820861BF3B20693069BD81E2F
:102EF00040B2FDF7A5FE02000B002800210007F0FC
:102F00002FF9634B002206000F0006F0EBF907F0E3
:102F100043FF39000500300007F03EFF00230600A4
:102F20000A272800079300287DD104000A27002ED5
:102F300000D080E0079B9C4207D228000A2105F0C0
:102F4000C3FC0500039B013303930698043840B289
:102F5000FDF776FE06000F00280007F053FF3B0048
:102F6000320006F0FBFC07F017FF390004003000C8
:102F700007F012FF0100280005F08CFD039B0D00F7
:102F8000DB0F0693039B5E1E01D50126F61A300067
:102F90000A2105F07FFD0BAF30313000F9710A21B5
:102FA00005F092FC0B260AABF618002807D00A2180
:102FB00005F070FD0A2630310AABB971F618069A91
:102FC0002B23013E002A00D002330A273370013E32
:102FD000002D38D12E230A353370002C3FD100222A
:102FE00000230198029905F071FD002800D196E5B3
:102FF0002D23013E337092E528002100254B00224D
:1030000007F0AEF8039B05000C00013B52E72800D7
:103010002100204B002206F0A1FC039B0500013398
:103020000C00039350E7390005F04EFC079B013379
:10303000DBB2079377E73000390005F045FC013437
:103040000600E4B273E72800390005F023FD3031B3
:1030500028003170390005F037FC0500B7E7200083
:10306000290005F017FD013E3031200031702900A4
:1030700005F02AFC0400B0E77443089A0499FDF7B0
:103080001FF8049B1C19E3B269E5C0460000F03F3D
:103090000000E03F00002440F7B50C001500009050
:1030A000FDF7C4F9002822D00098FDF797F9230016
:1030B00027001C4E2A33DBB2361801937078FF28A4
:1030C00009D039002A00FCF7FBFF0637019BFFB24D
:1030D00001369F42F2D1144B009A1B78934205D1DE
:1030E000063C2A00B220E1B2FCF7EAFFF7BD009BE4
:1030F000DA000E4B9B181E685F6800220023300028
:10310000390005F0DDFC002805D02A002100CC2084
:10311000FCF7D6FFDFE72B00220030003900FFF775
:1031200051FCD8E7EB050010B8100010B00E0010ED
:10313000F8B5184B1C78184B1B78002B03D0032CC8
:1031400001D9043CE4B2154B1B78002B03D0002CB2
:1031500001D0013CE4B200260125114B114F320091
:10316000200006211D703E70FFF796FF60193200A7
:103170003B21C0B2FFF790FF201D2A000621C0B2FC
:1031800005343D70FFF788FF2A003B21E0B2FFF7CE
:1031900083FFF8BDB8100010BA100010B91000106D
:1031A0000000001019050010F0B53D4B8DB01C78E3
:1031B000002C04D03B48FDF74DFC0DB0F0BD3A4F5C
:1031C0003A4A3B78127813432CD002AD18222021C2
:1031D000280005F0ACF83649062268462C761031F6
:1031E00005F084F86B461E5D324BB6009E19300028
:1031F00005F0D5F80200A00031002818013405F0D0
:1032000075F8062CEED12800FDF724FC01222A4B8C
:103210006C211A703B782948002B00D12848FDF713
:10322000BDF9CAE70126274B1E70FFF781FF224B2D
:103230001E70254B1D782800FDF7F8F8041E14D0E9
:103240002800FDF7CBF8214D34002D180536285DF8
:10325000FF28B2D03100614366310122C9B2013486
:10326000FCF72EFF052CF2D1A7E7010021220290E6
:1032700002AD03A805F05BF821002800FEF75EFF11
:103280000626285D002898D0310061436C31012268
:10329000C9B20134FCF714FF042CF2D18DE7C0460B
:1032A00058050010CEB10000590500105705001058
:1032B00080B200003D00001019050010E7B10000C9
:1032C000ECB1000000000010B8100010EB05001079
:1032D00010B5FEF7FFFE04F0F5F903F00EFF002035
:1032E000012104F04DFD002004F000F8002802D177
:1032F000012104F045FD03F051FF03F03DFF03F011
:1033000045FF10BDF7B572B6002501275023781B85
:103310005B421843C0B2FDF713F90020FDF710F926
:103320001020FDF70DF9E020FDF70AF984230026AF
:103330006B43134A9B1801935521019B02209A5D10
:103340000136530852008A430B4013433322DBB249
:103350009C089B00934314401C433A000021E4B2B4
:1033600004F06CFB200924012043C0B2FDF7CAF829
:10337000842EE1D1012D01D162B6F7BD3D00C5E734
:10338000B00F0010F0B59DB005F02EF803F06EFF01
:103390000021D14804F074FB0021D04804F070FBF8
:1033A00003F0CFFF01220421002004F0FBFA0022E9
:1033B0000421100004F042FB01220521002004F04A
:1033C000F1FA00220521100004F038FB002004F07F
:1033D0002DFAA022FF215200C14804F0A8FFF022DC
:1033E000FF21D200BF4804F0A2FF04F01BFD002320
:1033F00005900493BC4B1B68002B58D084220021FD
:10340000BA48520004F093FFB94B1E78002E00D149
:10341000C3E00026B74CB84B20001E7004F0BFFF7D
:103420000100B04200D1AAE0B44D7F2120002A78EB
:10343000FDF7D2F8200032000321FDF7AFF828781D
:10344000FEF76CFE0026012234000627AA4B1A70F4
:10345000AB4AF3B21578AB4A2D01203511785D19CE
:10346000EDB2994200D08FE07943CCB2E11C012249
:10347000B220C9B2FCF724FE210009310122280044
:10348000C9B20F34FCF71CFEE1B20122AF20FCF7F9
:1034900017FE02240136102EDAD19B4B1B78002B2D
:1034A00000D1A7E1FFF72EFF00228F4B1A6097494A
:1034B000974F0B780093002B01D100F053FD954AF4
:1034C00095481378C05C3870FF2803D0312B01D8A1
:1034D00000F042FD00230B70FEF7FCFD8F4B904A7D
:1034E0001B78127813438F4A127813438E4A12784E
:1034F0001343FF220492002B02D17B4BFE3A1A6049
:1035000004F090FC059B824CC01A884B1B789842B3
:1035100001D9222323702378FF2B2DD0049A9342C4
:103520002AD004F07FFC794B7C4A1B7812780590F6
:1035300013437B4A127813437A4A127813437A4A28
:103540001278134302D10122674B1A60784B20781E
:103550001B78002B05D06F4A1378591C11706E4AE6
:10356000D054222801D000F00BFFFF232370FFF777
:10357000AFFE04F057FC0590654B1B7839E702005D
:103580007F20FCF79DFD5DE7191979430331012286
:103590002800C9B2FCF794FD7CE75B4B1B78002B3D
:1035A00071D0644B1C685D68634B20001A685B68CF
:1035B000290007F041F802000B002000290006F066
:1035C000CDF900225D4B06F0CBFD05F0F9FAC3B250
:1035D0005B4F00935B4B1C685D683A687B6820001A
:1035E000290007F029F802000B002000290006F04E
:1035F000B5F90022544B06F0B3FD02000B00002089
:10360000514907F019F805F0DBFAC3B22000012494
:103610000293394B02221E7029003300FFF7D2F9C2
:103620003868796833003222FFF7CCF9324B022236
:103630001C70404B186859682300FFF7C3F93E4BD4
:103640003222186859682300FFF7BCF934000F26AE
:1036500025003E4B6235E15CEDB2711A2800C9B21B
:10366000FEF748FD013428000299FEF743FD202CA7
:10367000EED1FF2200981D4B6230C0B21A541B18C5
:1036800084331A7009E7324B1C78002C00D1EEE12C
:10369000304B1D78002D65D012AC192220002E4928
:1036A00004F024FE022D0AD120002C4904F07FFEF4
:1036B000DD23237423732000FDF7CCF9EDE6032D01
:1036C000F9D12000264904F072FEE0232373237011
:1036D000013323742371EEE7984004409C4004407A
:1036E000EB0500102B07001004000010B00F0010B5
:1036F000460500101B050010190500101A050010E2
:1037000091040010900400104F0500104D050010AA
:1037100060050010E40500100B0000105A050010B1
:103720005B0500104B050010500500100A0000104A
:10373000550500107805001080050010000040407D
:10374000B0050010B8050010000030408B050010D7
:103750004E0500105105001061B20000F1B10000EB
:103760000AB20000D04B1A78D04B1B78002B00D146
:1037700006E10221CE4B1970002A37D0CD4B013A19
:1037800012019A18CC4B106851681B78002B15D188
:103790009468D5680B00020006F0E2FC22000600E7
:1037A0000F002B002000290006F0DAFC02000B00BD
:1037B0003000390005F096FD01F00AFE0123BF4CF0
:1037C0000C2223700023FFF7FDF80021BC4B217071
:1037D0001B788B4200D160E60222B54BB2201A70F2
:1037E0000A00B84B1970FCF76BFC56E60C215F2001
:1037F000FCF766FC0122AE4BB24C1A70002323701A
:1038000003F02EFEB04B984200DD1800AF4B9842FB
:1038100000DA1800AE4BAF49C0180A23584305F030
:1038200053F8C0B243082C204042C01A00227E2127
:10383000C0B2FCF745FCA84B1B78002B04D000223B
:103840007821EC20FCF73CFCA44B1B78002B04D027
:1038500000227821DA20FCF733FCA14D2B78002BD5
:1038600008D0954B00221878722143425841BD3050
:10387000FCF726FC9B4B1878002805D06530002209
:103880006C21C0B2FCF71CFC974B1A78002A00D1BF
:103890005AE300226C214820FCF712FC934B1B7862
:1038A000002B08D0924B1B78312B04D800226C21BE
:1038B000D820FCF705FC8F4B8F4A1B7812781343F6
:1038C0000ED003228D4B12A81B786C211A40413276
:1038D000027000229B08313343708270FCF75EFE59
:1038E000012323702B78002B1ED0854C00222068EA
:1038F0006168002305F0E4F8002807D0A068E168BB
:103900000022002305F0DCF8002804D101227E21EA
:10391000E320FCF7D5FB7B4B1B78FF2B04D0012267
:103920007221CD20FCF7CCFB774B784A1B781278BC
:103930001343774A12781343764A12781343764A30
:103940001278134304D001227E21E220FCF7B8FB59
:10395000724B1B78002B04D001227821A920FCF7A0
:10396000AFFB654B1B78002B04D001226C216C4807
:10397000FCF714FE01226C216A48FCF70FFE91E56A
:103980000093002A04D10821013230E7012300937B
:103990006A46454B12781B780292009A934262D98C
:1039A00001220299521AD2B20A920A99454A11701A
:1039B000009A9B1A013B3F4A1B01D3181E685F689F
:1039C0009C68DD683C4B1B78002B21D132003B000A
:1039D0003000390006F0C4FB22002B00069007914E
:1039E0002000290006F0BCFB02000B000698079996
:1039F00005F078FC01F0ECFC2200069007912B000A
:103A000030003900FDF79EF8069E079F04000D0068
:103A1000029B002B02D10122284B1A700822300091
:103A200039000A9BFEF7CEFF0022244B20001A70BB
:103A300029000022002305F043F8002805D13B228D
:103A4000200029000A9BFEF7BDFF1D4B1B78002BB1
:103A500009D0029B002B06D101221A4BB2200299F9
:103A60001A70FCF72DFB009B012B8FD115E5224B23
:103A70001B78002B00D18AE0124D2122210013A8CF
:103A80002C70129404F053FC012112A8FEF756FB8F
:103A9000060012A804F083FCC2B2002A44D103211C
:103AA0007F20FCF70DFB54E094040010410500104A
:103AB00000000010980400100800001052050010CB
:103AC0009304001019050010C30A00003408000018
:103AD000CCF7FFFF990200004805001056050010C2
:103AE0004E05001043050010490500105505001053
:103AF000E40500105305001054050010B810001024
:103B0000D01000100B0000104D0500105B050010D8
:103B10005A0500104B05001050050010400500101C
:103B200057B200005CB20000102E2ED934000627D8
:103B3000103CE4B231001039611A794312AB185DC0
:103B4000033101340022C9B2E4B2FCF7B9FAA6424B
:103B5000F0D20123CB4A2B701178CB4AC9005218FE
:103B6000106851680322FEF72DFF96E4310061438F
:103B700003310022C9B20134FCF7A2FA112CE8D0BB
:103B800012ABE05C0028F1D1E3E70626F8E7BF4B73
:103B90001C78002C02D0FFF707FB7EE4BC4B1B789F
:103BA000002B1CD0BB4D2122210013A82C70129495
:103BB00004F0BDFB210012A8FEF7C0FA29220CABCD
:103BC0009B181C700CAB1A7E002A02D103215F20C7
:103BD00067E72200032112A8FCF7E0FCB9E7AE4B2F
:103BE0001B78002B00D169E1AC4B1B78002B01D076
:103BF000AB4861E5AB4A00931278002A49D12021F5
:103C0000133212A804F093FB2B2100230CAA5218A4
:103C100013700CAA5F3313762839012212A8FCF71F
:103C2000BDFC3AE43B4300D096E09F4B0CA91A78C8
:103C30002B235B18002A0AD09C4A1278002A06D14E
:103C40000A002A212E23521813700CAA8B18302236
:103C5000013B1A7012A8FCF7E4FE0025062412AE00
:103C6000300004F09CFB854200D2FBE0904B1B78B7
:103C7000002B07D00A9B002B04D101221900B2208F
:103C8000FCF71EFA009B012B01D1FFF706FC012374
:103C900000936B46834C1B78009A0A9323789342D7
:103CA000F0D901230A9A20219B1ADBB20693069AC7
:103CB000784B12A81A70132204F039FB2B21002232
:103CC0000CAB5B181A70009923785B1A013B794999
:103CD000DB00CB181E685F6833009742A2DA3C0015
:103CE00000275E42A74101230293704B1B78002BF3
:103CF00034D02B220CABD218202300219C460C0080
:103D0000130003220131C9B2144202D16246013BC1
:103D10001A700F22324014003034392C01D9573236
:103D20001400380735095A1E284314703C11270027
:103D3000040006003C4301D101F027F812A882429A
:103D4000DDD8029A002A02D02D22023B1A705A496D
:103D500012A804F02CFB7DE70292C6E7524B1C78B8
:103D6000002C56D00A2200233000390004F0D6FE81
:103D70000A220D000B9039003000002304F0CEFE23
:103D800012AC303229000B98A27400230A2204F0EE
:103D9000C5FE3032002329000B9862740A2204F019
:103DA000BDFE2E2306000F00237416AD2D3B0B9491
:103DB00032003A4301D100F0F1FF0B9A954206D848
:103DC000029B002BC3D02D23013D2B70BFE72A7827
:103DD0001C002E2A0AD05522524253430134DBB232
:103DE000E4B2552B02D82023013D2B70300039005E
:103DF0000A22002304F092FE013D303200233000FD
:103E000039002A700A2204F089FE230006000F0000
:103E1000CEE72B250CABED1855222300524253431D
:103E20000134DBB2E4B2552B02D82023013D2B70C4
:103E3000300039000A22002304F070FE013D3032C8
:103E40000023300039002A700A2204F067FE0300C4
:103E500006000F000B4301D100F0A0FF12AB9D4202
:103E6000DAD8ADE72100705D069A7719FCF728F9DA
:103E70003B78202B04D006340135E4B2EDB2EEE6F7
:103E80000334F9E7B8100010B00E0010530500100D
:103E900044050010190500105C0500105F050010B6
:103EA00023B2000022110010090000104805001084
:103EB0002111001028110010CAB10000012512AC18
:103EC000DC48FCF7C7FD03F063FB210011A803F0F9
:103ED00007FCD94B2A0074213A201D70FCF7F0F83A
:103EE00020780A2104F0ECFC3031C8B22A006F219E
:103EF000FCF7E6F826780A21300004F05BFCC0B23B
:103F00002070092E08D90A2104F0DAFC3031C8B239
:103F10002A006921FCF7D4F860780A2104F0D0FC6B
:103F200030310122C8B27E21FCF7CAF80A2160783C
:103F300004F040FCC0B20A21607004F0C1FC3031D2
:103F4000C8B2012278214EE4BC4B1B78002B00D173
:103F5000A4E46C2168209FE401331370FF230493D1
:103F6000FFF7CEFAB64B1C78002C5ED0B54A13781A
:103F70000133DBB213701D223A70012B01D1FFF720
:103F8000BFFAB14E34687568022B0CD1FDF7F4F816
:103F900022002B0005F0A6F9E02230607160AB4CE6
:103FA000AB4B120613E0032B1BD1FDF7E5F8002203
:103FB000A84B06F0D5F802000B002000290006F0FF
:103FC0003BFBE02230607160A04CA34B12062068DE
:103FD000616805F087F920606160FCF767FBFFF717
:103FE0008FFA042B06D1FDF7C7F80022994B06F093
:103FF000B7F8CDE7FDF7C0F802000B00200029005C
:1040000006F01AFB0022954B05F0A8FCE022904B2D
:10401000120605F0A3FCFCF749FB0122904B1A6045
:10402000874B009A1A70FF2316E08E4B1B78029381
:10403000002B69D0834E33780133DBB23370022B0F
:104040000DD808D1FDF7A8FCE02081490006FCF757
:104050002DFBFCF72DFE1D233B70FFF751FAFDF7FA
:104060009BFCFCF7CFFE00207F49FCF71FFBFCF711
:104070001FFEE02076490006FCF718FBFDF78CFCDC
:10408000FCF7C0FEFDF778F8FCF710FB07000D0009
:10409000FDF70CFD0022002338002900347004F0E5
:1040A00015FD002802D080231B06ED18E0226F4C7E
:1040B00038002900664B1206267804F007FD002818
:1040C0000AD1142E0AD8FCF7BBFAFCF7B9FA237808
:1040D00001332370FFF714FA142E0DD90CA8FCF746
:1040E000CBFD1022624912A804F000F9129813992E
:1040F000149A159BFCF780FA0122594B1A60002292
:10410000584B1A70FFF7FCF95A4B1E78002E6BD0F3
:104110004C4B1C780134E6B21E701D233B70012EFF
:1041200001D1FFF7EDF9484B1C685D68022E0CD1F8
:10413000FDF722F82B00220005F0D4F8424B18605E
:1041400059604D4B1868596847E74C4B1A685B68D3
:1041500000920193032E10D1FDF70EF822002B00E0
:1041600005F0C0F8384B1860596000980199424B2F
:104170001A685B6805F0B6F82FE7162E20D80022E3
:10418000F3071BD58023DB0502920393FCF7F4FFB2
:10419000029A039B05F0E4FF22002B0005F0A2F831
:1041A000294B18605960B01E06F02CFE009A019B46
:1041B00005F0D6FF304B1A685B68DBE7304BE3E76E
:1041C000FCF7DAFF0098019922002B0005F0C8FFE8
:1041D00000222C4B05F0C2FBFCF768FA0122204BB1
:1041E0001A60244B029A1DE7274D2B78002B00D133
:1041F000C1E0144B1C780134E4B21C701D233B70E9
:104200001A4B1A78002A71D1012C01D1FFF778F9E5
:1042100019490868496800900191022C3AD1FCF7CD
:10422000ABFF1A4B18605960194B18605960009821
:104230000199D2E63CB20000190500104A050010B1
:104240005A050010AB0E001038050010C010001009
:104250004D62503F000020404D62603F000028400A
:10426000040000105B0500100000F0BF61050010A5
:1042700080B200004B0500107805001030050010DA
:10428000000010400000084050050010B00500106C
:10429000B8050010222C24D8FCF76EFFC84D06008C
:1042A0000F0002000B002868696804F023FC002856
:1042B00001D02E606F60C34D3200286869683B00F2
:1042C00004F004FC002801D02E606F60A01E06F0F0
:1042D00099FDBD4B1A685B6805F042FF009A019B8F
:1042E00048E7BA490A7001221A70A0E7012C01D1EF
:1042F000FFF706F9212C2ED8B14B1C685D68FCF73E
:104300003BFF02000B002000290006F095F9AD4BA1
:1043100006001A685B680F002000290006F08CF97F
:1043200002000B003000390005F018FB0022A84BFA
:1043300005F016FF00F032FFA44BA64C1D7804F0E8
:104340003FFC6419023C2070681E06F05BFD9E4B2A
:104350001A685B682CE70CA8FCF78EFC0CA8FCF72D
:104360008BFC01239C4A2E701360FF223A709B4AFB
:104370001370FFF7C5F8FDF76FFE3870FFF7C0F850
:10438000974B1A78002A00D1A8E01D2801D01228E6
:1043900032D1944B1B78002B04D10023904A137028
:1043A000FFF7EAF8904B1D782800FCF717F8040097
:1043B0002800FCF78FFB8D4E300003F0F0FF050066
:1043C0002020FCF70BF88A4F021B611E6019C919E7
:1043D000C01903F0CEFFFE2300253B55300003F04B
:1043E000DEFFA842D9D9824A631C9B18725D5A55D8
:1043F0000135072DF2D1D0E7012804D10F227D4BE2
:104400001A70FFF7B9F8022807D17B4A13780B2BF3
:1044100001D9FFF7B1F80133C1E7764A042818D073
:10442000052802D10822734BEAE7062806D1714A13
:1044300013780E2B01D9FFF79FF8ECE7072802D17C
:1044400000226C4BDCE76C4A082802D0182807D100
:104450006A4A1378002B01D1FFF78EF8013B9EE7E3
:1044600019280DD1654C6148257803F098FF8542E5
:1044700001D3FFF781F8237801332370FFF77CF82D
:1044800021280CD15D4C2078002801D1FFF774F869
:104490000138C0B2FDF742FE2378013BEDE7534CF3
:1044A000200003F07CFF4F4B1A780723002A00D12D
:1044B0000B33984201D3FFF75FF84F4B19784D4B00
:1044C00009011B782033C9184C4BC9B21A78501C0B
:1044D00018702000FCF780F8FFF74EF83F4B1D786E
:1044E000002D8DD146490B78002B16D0454C2378F2
:1044F000002B0ED0021FD1B205290AD8591E06235F
:104500004B439B18404A9B009B5898472570FFF7E8
:1045100033F8FDF725F9FFF72FF83C4D2B78002BEA
:1045200000D1DFE003001D3B012B01D912280DD182
:1045300000232B70FDF7B8F92B4B1878FDF744F9E1
:10454000294B1878FDF740F9FFF716F8264B1C7831
:1045500018281BD12E4E3578022D08D12000FBF7EC
:104560003DFF234B1B5CFD2BE6D0013D0CE0012DF4
:10457000E2D92000FBF732FF1D4B5B191B18023BF1
:104580001B78FD2BF1D1023D3570D5E7192843D1B9
:10459000204B1B78002B00D09EE02000FBF71EFF75
:1045A0001B4E134B35781B185B5DFD2B01D102357B
:1045B000EAE7FBF729FFA842BED90135E4E7C04688
:1045C000B8050010B005001030050010AB0E00104B
:1045D00000002E408B050010040000104F05001055
:1045E0004605001053050010B81000101B05001000
:1045F000EB05001090040010910400101A05001043
:104600004E05001051050010E8B8000054050010D8
:104610001805001043050010212841D1CD4D2F78F9
:10462000002F89D07E1EF6B2012F34D02000FBF778
:10463000D5FEC94BDF193F18023F3B78FD2B2AD12D
:1046400031002000FCF76CFA2978C44B0239187845
:10465000C9B2FCF765FA2B78013B2B702B78013B34
:10466000DBB22B70002B00D066E7BC4B1E7830000D
:10467000FBF7B4FEB84C235CFF2B00D15CE70123B1
:1046800030002B70FBF7AAFE235CFD2B00D053E714
:10469000FB3B2B7050E731002000FCF741FADDE7CF
:1046A0000B2808D1AB4B1A78511C1970122120002D
:1046B000FCF732F840E726280ED1A94B1C70A94B15
:1046C0001A78A94B1A70A94B1A78A94B1A700122B3
:1046D000A84B1A700023DCE79E4B1A78511C197006
:1046E0000100E4E7A44A1678002E00D158E1A34C5B
:1046F00023780093002B09D00438C3B2052B03D8CC
:104700009F4B8000C35898470023B6E69D4B1B780B
:10471000002B32D0914B1D782800FBF75FFE040080
:104720002800FCF7D7F9984E300003F038FE05005A
:104730002020FBF753FE884F021B611E6019C91928
:10474000C01903F016FEFE23009D3B55300003F018
:1047500026FEA84207D9804A631C9B18725D5A55F1
:104760000135072DF2D10023864A1370FEF7E0FCD5
:104770000122864B1A60FEF7FFFE854F3B78002B27
:104780002AD00438C4B2052C22D8A022520010002E
:104790006043804B704DC018290003F0A7FD1F2017
:1047A000FBF71CFE2B5C7C49A400FF2B0BD00123E4
:1047B000013C0C192818C25CFF2A09D0E2540133CD
:1047C000052BF8D104E02D230B5500230C19637041
:1047D00000233B70FEF7D0FE704E3378002B11D0D3
:1047E0000438C1B2052907D8A022520051436948B4
:1047F0000918594803F07AFDFDF756F80023337085
:10480000FEF7BAFE1E2801D1012336E608280BD197
:104810000021564B514A19701378032B01D9043BE0
:10482000BDE51170FEF7A8FE02280AD101224F4B08
:104830001A704A4A13781B2B01D9FEF79DFE0433E8
:10484000ADE504280ED14549464A0B78002B07D028
:10485000013BDBB20B70DB439B0701D101239EE5DB
:1048600000239CE5062811D13C4A13781E2B01D861
:10487000013313701178032208003A4B10401142A3
:1048800002D11870FEF778FE0122B9E512283DD159
:1048900001232B70374B314F1E783C78002E21D0EE
:1048A0002F4B2C4D1878304BFD211A782D4B38703A
:1048B0001A702F4B1A782D4B1A702A78531C2B70B4
:1048C000FBF72AFF2A782100531C38782B70FBF75E
:1048D00023FF0023274A1370FCF7E6FFFEF764FC72
:1048E000FEF74AFE2000FBF7A1FD071E05D03000B1
:1048F000FCF776F92E70FEF73FFEFBF785FDFF28EB
:1049000000D13800134B187020001BE61D280DD174
:10491000124B1878FBF762FD0F4B1B5C0020FE2B3F
:1049200000D00120FCF75CF9FEF726FE212807D114
:104930000A4B1878FCF7CEF8FCF7B6FFFEF71CFE22
:10494000252801D1012344E7262801D0FEF714FED3
:10495000012354E718050010EB050010B8100010F3
:1049600088050010B910001089050010BA10001059
:104970008A05001056050010530500105805001058
:1049800030B90000470500101B050010040000109E
:10499000590500102B0700103D00001057050010AE
:1049A000CE4B1F78002F00D1BDE01E280AD1CC4A83
:1049B0001E701178CB4A1170CB4C2078FCF704FFA5
:1049C0002078BFE51D2809D101232B70FBF71CFDC2
:1049D000FF2800D10020C54B1870EDE7122801D048
:1049E0000B2812D1C24B12201B78002B00D097E06D
:1049F0000120FBF7F3FC04002020FBF7EFFCBD498E
:104A00000200601803F0B5FCD6E7212825D1203834
:104A1000FBF7E4FC04002020FBF7E0FCB44D0200AF
:104A20002E78B44B002E14D0661E9E19012C07D987
:104A300031000232A01E121B181803F057FCBBE70E
:104A4000013219193000121B03F050FC00232B70A7
:104A5000B2E7021B19191800EFE70A2822D8202014
:104A6000FBF7BCFCA24F05003E78002E0DD00120C4
:104A7000FBF7B4FC9F4E471E01352A1AB91980195D
:104A800003F077FC2378F35596E79A4E0200310045
:104A9000994803F06EFC23783370FF237370FE3B5C
:104AA0003B7089E70F283BD80120FBF797FC00906B
:104AB0000220FBF793FC04002020FBF78FFC07008B
:104AC000009B8C4DE31A02935B1902002900180029
:104AD000049303F04EFC029A6119280003F006FCCF
:104AE000009B6100DE19361BC91A321B4919601977
:104AF00003F0FCFB029B3200581E0499401903F09E
:104B0000F5FBA61EBA1C601E121B7119401903F09A
:104B100030FC0022794B1B78AB55754B1A704BE774
:104B2000FBF716FE48E7764D2E78002E00D10BE1FC
:104B3000744D2B78002B0BD00438C3B2052B03D84F
:104B4000714B8000C358984700232B70FEF714FD6B
:104B50001E2801D10123F8E721283FD16B4B1B7898
:104B6000002B37D06A4B1B78002B29D0FBF794FC25
:104B7000FA220023920007000E0003F0CFFF0B0083
:104B800005000C00034303D1FBF79AFCFEF7F4FC8D
:104B9000642200233800310003F0C0FFD3B2089331
:104BA00000232100099364220023280003F0DAFF88
:104BB000089B099CC0186141FBF7E4FDFEF7DCFC93
:104BC000FBF76AFC00230A2203F0A8FF0B00034353
:104BD000F2D1D9E7FBF760FCFEF7CEFC112839D102
:104BE0004C4B1B78002B1BD0FBF756FC43B200212B
:104BF0000120002B0BDC01335BB2012B0BD000201A
:104C00000100F8E7020F0C01110000012143013BF4
:104C10005BB25A1CF6D1FBF7B5FDFDF7F5F8B3E72B
:104C20003B4B1B78002B0FD0FBF736FC6422002394
:104C300003F074FF40B2FCF703F80022364B05F096
:104C40008FFA03F0DBFFE6E7FBF726FC40B2FBF749
:104C5000F7FFF6E71F281CD1304B1B78022B93D9A6
:104C6000FBF71AFC07000E00FBF716FC0090029100
:104C7000FBF712FC05000C0038003100FBF782FD49
:104C800028002100FBF77EFD00980299FBF77AFDD2
:104C90007AE713280CD1FBF7FFFB03F0EBFF00F0E2
:104CA00097FB00221E4B05F05BFA03F0A7FFEDE730
:104CB000202837D1194B1B78012B00D864E7FBF76C
:104CC000EBFB07000E00FBF7E7FB05000C003800CC
:104CD0003100FBF757FD28002100D7E744050010FD
:104CE0004205001041050010B81000101805001012
:104CF00045050010EB050010ED05001060050010E3
:104D00005C0500105F05001094B90000211100102F
:104D10000900001048050010000059402211001041
:104D200000002440122801D9FEF726FC204B800009
:104D3000C358984723780A2B01D8FEF71DFC122B85
:104D400001D1FEF719FC1FE7072803D101230B70DF
:104D5000FEF712FC08280AD11649174A0878107085
:104D600000220A7001211970144BFFF749FB092832
:104D700006D1104B104918780870002119706DE5A4
:104D8000042801D0FEF7F8FBE4E6029A002A01D1DC
:104D9000FEF760FF2D22023BFEF75BFF029B002B1C
:104DA00001D1FEF757FF2D23013D2B70FEF752FF77
:104DB00048B900004105001042050010B81000106D
:104DC000F8B54E4657464546DE46A34BE0B54E0085
:104DD000804689468A4676089E421CDD9F4B9E424D
:104DE00009DC06D05346002B00DCBAE09C4B9D4A00
:104DF00009E00028F6D042464B464046494604F0BA
:104E000071FA03000A0018001100F0BCBB46B2465C
:104E1000A946A046F8BD944B9E4200DDA4E0934B0A
:104E20009E4200DC8FE001235B429B4642464B469C
:104E30004046494605F094F902000B0006000F00B9
:104E400005F08EF904000D00894A8A4B05F088F9B7
:104E5000894A8A4B04F046FA22002B0005F080F9BB
:104E6000874A884B04F03EFA22002B0005F078F9BF
:104E7000854A864B04F036FA22002B0005F070F9C3
:104E8000834A844B04F02EFA22002B0005F068F9C7
:104E9000814A824B04F026FA32003B0005F060F9AB
:104EA0007F4A804B06000F002000290005F058F9CA
:104EB0007D4A7E4B05F0C0FB22002B0005F050F927
:104EC0007B4A7C4B05F0B8FB22002B0005F048F92B
:104ED000794A7A4B05F0B0FB22002B0005F040F92F
:104EE000774A784B05F0A8FB22002B0005F038F933
:104EF0000B005946020001315CD059463000CC000D
:104F0000390004F0EFF942464B4605F029F96E4DA1
:104F10006E4B2D191C192268636805F08DFB424603
:104F20004B4605F089FB02000B002868696805F014
:104F300083FB030050460A00002800DB63E7802261
:104F400012068A185FE7624A624B04F0CBF900222E
:104F5000614B03F0CFFD002800D164E743464A4689
:104F600051E73F4B5D4A4EE700F014F95C4B0400FB
:104F70000D009E422FDC5B4B9E4255DC02000B0075
:104F800004F0B0F90022544B05F056FB80230600D4
:104F90000F000022DB052000290004F0A3F90B001C
:104FA00002003900300004F0D9FC00238046894615
:104FB0009B463BE73000390004F094F942464B46EB
:104FC00005F0CEF802000B004046494605F034FBE0
:104FD00003000A0017E7444B9E421ADC0022434BB1
:104FE00005F02AFB002206000F00404B200029009C
:104FF00005F0B6F80022384B04F074F90B000200FB
:105000003900300004F0AAFC0223804689469B4602
:105010000CE70B0002003649002004F09FFC03233C
:10502000804689469B4601E700222B4B05F004FB96
:10503000002206000F00284B2000290004F052F93E
:105040000B0002003900300004F088FC0123804688
:1050500089469B46EAE6C046FFFF0F440000F07F0A
:10506000182D4454FB21F93FFFFFDB3FFFFF1F3E9C
:1050700011DA22E33AAD903FEB0D76244B7BA93F4A
:10508000513DD0A0660DB13F6E204CC5CD45B73F18
:10509000FF8300922449C23F0D5555555555D53FC4
:1050A0002F6C6A2C44B4A2BF9AFDDE522DDEAD3FB8
:1050B0006D9A74AFF2B0B33F711623FEC671BC3F58
:1050C000C4EB98999999C93FB0B90000D0B90000D4
:1050D0009C7500883CE4377E0000F03FFB21F9BF5F
:1050E000FFFFF23FFFFFE53FFF7F03400000F83F77
:1050F0000000F0BFD0B5254A4B0086B05B08934254
:1051000022DD234A934209DD02000B0005F094FAE8
:1051100002000B001000190006B0D0BD02AA00F07A
:105120002BFD03231840049A059B012813D0022865
:1051300022D0002819D0029803990124009401F08C
:1051400075FD02000B00E5E70022002300F0F4FFEC
:1051500002000B00DEE700900298039901F066FD63
:1051600080231B060200CB18D4E70298039900F0B5
:10517000E3FF02000B00CDE70298039900F0DCFF8B
:1051800080231B060200CB18C4E7C046FB21E93F81
:10519000FFFFEF7F4B0059087047C046F8B5040089
:1051A0004A000B0008002649520D51182700132908
:1051B0001ADC002912DB234A26000A41100018409D
:1051C0001D00204307D08020000308410024C018A0
:1051D00090432600050030002900F8BDDB0FD807FA
:1051E0004B1C28D00024F4E733290DDD8022260053
:1051F0001D00D2009142EED122002000190004F0DF
:1052000071F806000D00E6E70F4D2600AC460125BB
:1052100062446D42D540AC4662461D002242DAD05F
:105220003322511A323A8A401419A74200D9581C25
:1052300063469C43CDE7054B00241843C9E7C046AD
:1052400001FCFFFFFFFF0F00EDFBFFFF0000F03F41
:10525000D0B5264A4B0086B05B08934222DD244A33
:10526000934209DD02000B0005F0E6F902000B0095
:105270001000190006B0D0BD02AA00F07DFC032387
:105280001840049A059B012815D0022823D0002835
:1052900018D00298039900F04FFF80231B060200EC
:1052A000CB18E5E7002300220093002301F0BEFCA9
:1052B00002000B00DCE70298039900F03DFF0200BA
:1052C0000B00D5E7012402980399009401F0AEFC8D
:1052D00002000B00CCE7012402980399009401F02E
:1052E000A5FC80231B060200CB18C1E7FB21E93F88
:1052F000FFFFEF7FF8B504000D0000F091F8060005
:105300000F002000290001F079FD00280FD02000B7
:1053100029000F4A0F4B03F0EDFB00280AD12000B3
:1053200029000D4A0D4B03F0D1FB002809D13000B4
:105330003900F8BD05F014FF22230026084F036052
:10534000F5E705F00DFF2223002600270360EEE7B6
:10535000EF39FAFE422E864051302DD5104987C0D4
:105360000000F07FF8B504000D0000F00BFA2200F9
:1053700006000F002B002000290005F0EFFC00289C
:1053800015D1002200232000290003F0B3FB0028E0
:105390000DD1002200232000290003F091FB0028FA
:1053A00008D005F0DDFE22230026074F0360300001
:1053B0003900F8BD05F0D4FE21230360034801F055
:1053C000C3FD06000F00F2E70000F0FFF0B9000097
:1053D000F8B504000D0000F0D7FD220006000F0014
:1053E0002B002000290005F0B9FC002807D100227D
:1053F00000232000290003F069FB002802D13000BF
:105400003900F8BD05F0ACFE212300220360002323
:105410001000190004F0A2FA06000F00EFE7C046E2
:10542000F0B5D64600B54B000E00CC0FB5490700CD
:1054300088B05B088B420FD9B3498B4229D932031C
:10544000120B024300D040E105003300002C00D1D4
:105450001CE10025002319E1AC4A934200D91BE16D
:10546000AB4A934200D9BCE0AA4AAB4B310003F0EF
:1054700039FF0022A94B03F03DFB002800D1B0E02A
:105480000022A64B3800310003F02CFF05000B0072
:10549000FCE03100A24AA34B03F02CFB002800D013
:1054A00016E138003100A04AA04B03F00FFB0028A2
:1054B00000D021E19E48E40004199E4A9E4B38002A
:1054C000310004F04DFE2268636803F00BFF05F025
:1054D00063FC824605F096FC984A994B04000D0047
:1054E00004F03EFE02000B003800310005F0A4F885
:1054F000944A02900391944B2000290004F030FE5E
:1055000004900591049A059B0298039905F094F87C
:1055100002000B0007000E000090019104F020FE35
:1055200004000D00894A8A4B04F01AFE894A8A4B0E
:1055300005F082F822002B0004F012FE874A884B07
:1055400003F0D0FE22002B0004F00AFE854A864BB1
:1055500005F072F822002B0004F002FE834A844B0F
:1055600003F0C0FE22002B0004F0FAFD0B00020045
:105570000098019905F060F8534604000D00069468
:105580000795002B61D002000B000098019904F0F0
:10559000E7FD0F008021060022002B000020C90536
:1055A00005F04AF802000B003000390004F0D6F98B
:1055B00002000B000498059905F03EF8029A039B3F
:1055C00005F03AF80B0002005449002005F034F8C9
:1055D000684B9A4500DA81E05446240505006318BB
:1055E00054E03A0033003800310004F0B9FD040003
:1055F0000D00564A564B04F0B3FD564A564B05F083
:105600001BF822002B0004F0ABFD544A544B03F06E
:1056100069FE22002B0004F0A3FD524A524B05F014
:105620000BF822002B0004F09BFD504A504B03F076
:1056300059FE22002B0004F093FD02000B003800FD
:10564000310004F0F9FF06900791069A079B380095
:10565000310004F085FD80230D00040006980799B1
:105660000022DB0504F0E8FF02000B002000290007
:1056700004F074F93A00330004F0DEFF0B0002007E
:105680002649002004F0D8FF05000B00280019006F
:1056900008B080BCBA46F0BD374A934200D909E74A
:1056A000364BE5005B191A685B68310004F0C4FFF3
:1056B000029003910120324B001B5B191A685B6852
:1056C00004920593031B9A461CE702003300D9E6B7
:1056D000002001F08BFB05000B00D7E7FA24A400A3
:1056E0005444240563181900B82300225B0404F015
:1056F00037FD05000B00C9E7002001F06FFB050036
:105700000B00C3E7412E8640FFFFEF7F422ED63FBE
:10571000FFFFEF3D9C7500883CE4377E0000F03FC2
:10572000EF39FAFE422E864051302DD5104987C000
:10573000F8B90000FE822B654715F73F0000E0FE38
:10574000422EE63F763C7935EF39EA3DD0A4BE7271
:105750006937663EF16BD2C541BDBB3E2CDE25AF3D
:105760006A56113F93BDBE166CC1663F3E555555F6
:105770005555C53F03FCFFFFB1A2F03F08BA00003A
:1057800018BA0000F0B5D6464F4646468022C0B54E
:105790000B0088B05203914255DA4A005208024386
:1057A00000D1EBE0002900DA23E1D64B002204F01F
:1057B000D7FC3625D44C0B006D42A34247DCD34CBA
:1057C0001A151B031B0B9846A4468024D04B640378
:1057D00043442340CF4C624452195C4045461B155C
:1057E00099462543CB4B29009144002204F024FF25
:1057F000434602331B0306000F0000221B0B022B43
:105800002FDC002303F05CF9002800D1BDE04B46FB
:10581000002B00D148E1484605F0F4FABE4ABF4BE0
:1058200004000D0004F09CFCBD4A06000F0020009F
:105830002900BC4B04F094FC02000B00300039003E
:1058400003F050FD07E0B04C0025A342B7DD020095
:105850000B0003F047FD08B0E0BCBA46B146A846CD
:10586000F0BD8023DB0503F03DFD02000B0030009E
:10587000390004F073F8040048460D0005F0C2FA40
:1058800022002B000490059120002900029403952A
:1058900004F066FCA44B020043449A460B000090BF
:1058A000019104F05DFC04000D00A04AA04B04F03F
:1058B00057FCA04AA04B03F015FD22002B0004F07A
:1058C0004FFC9E4A9E4B03F00DFD22002B0004F07E
:1058D00047FC9C4A9C4B03F005FD009A019B04F099
:1058E0003FFC9A4A00900191994B2000290004F056
:1058F00037FC984A984B03F0F5FC22002B0004F08B
:105900002FFC964A964B03F0EDFC22002B0004F08E
:1059100027FC0B0002000098019903F0E3FC0D0046
:105920004146904B04005B1A51460B43002B52DD5D
:1059300000228D4B3000390004F012FC3B00320095
:1059400004F00EFC4B4600900191002B59D102004F
:105950000B002000290003F0C5FC029A039B04F011
:10596000FFFB02000B000098019904F065FE0200A5
:105970000B003000390004F05FFE6CE700220023CA
:1059800000207A4903F0EAFF65E7794A794B300055
:10599000390004F0E5FB02000B000020724904F01E
:1059A0004BFE320004000D003B003000390004F0D3
:1059B000D7FB0B0002002900200004F0D1FB4B466E
:1059C00004000D00002B4DD102000B003000390007
:1059D00004F032FE3FE74B46002B68D122002B003B
:1059E0003000390004F028FE029A039B04F0B8FB53
:1059F000BDE7020004F020FE0022002303F0AEFF0A
:105A000029E7454A454B0498059904F0A9FB009AFB
:105A1000019B069007912000290003F063FC029A85
:105A2000039B04F09DFB3E4A04000D000498059979
:105A30003C4B04F095FB02000B002000290003F012
:105A400051FC02000B000098019904F0F5FD3200B2
:105A50003B0004F0F1FD02000B000698079904F0EA
:105A6000EBFDF8E6484605F0CDF92B4A2B4B0090AC
:105A7000019104F075FB2A4A029003910098019964
:105A8000284B04F06DFB02000B002000290004F0FD
:105A9000D3FD32003B0004F0CFFD02000B00029862
:105AA000039904F0C9FDD6E600200021D3E61A4A86
:105AB0001A4B0498059904F053FB220000900191C1
:105AC0002B003000390004F0B7FD029A039B04F06C
:105AD00047FB134A04000D0004980599114B04F08C
