:10000000F023001059870000578700005787000031
:100010005787000057870000578700000000000046
:1000200000000000000000000000000057870000F2
:10003000578700000000000057870000817D000006
:10004000917B0000917B0000917B0000917B000080
:10005000917B0000917B0000917B0000917B000070
:10006000917B0000917B0000917B0000917B000060
:10007000917B0000558700005587000039840000FF
:10008000457E00005D7E0000757E00008D7E0000D4
:1000900055870000A57E00005587000055870000A9
:1000A00055870000558700005587000055870000E0
:1000B00055870000558700005587000055870000D0
:1000C0000523F0B52038434387B00393284B002520
:1000D0001B780493274B1E78842353430593039A7C
:1000E000254B0020D3185B5D049A019393400A00CE
:1000F000DBB202907018C0B2824234D00598141856
:100100001E4820180700002420E01100E7E7022E17
:1001100018D10198A30018410F231840830003430E
:10012000332003405800184355231840430003432D
:1001300060465B00DBB200280FD00298002801D097
:10014000012003438420604301343B54E0B28446E1
:10015000B042DCD30132D2B2CCE758B20028F1DA97
:1001600001200290EEE70135052DCED107B0F0BD9C
:1001700019050010000000105CB40000B00F001062
:1001800070B5114B01201B78002B1BD00F4A013B8F
:100190001B01D3189D68DC68002200232800210081
:1001A00008F090FC002802D080231B06E418084ABF
:1001B000084B2800210008F099FC030001205A1E7A
:1001C0009341584070BDC04694040010980400103C
:1001D0003EC3D84E7D7F612B704700000023034A49
:1001E0001370034A1370034A13707047920400108F
:1001F0004C05001093040010024A137859424B41F9
:1002000013707047410500100023044A1370044A1C
:1002100013700122034B1A707047C0464A05001044
:1002200049050010430500100023044A1370044AD6
:1002300013700222034B1A707047C0464A05001023
:1002400049050010430500100023034A1370034AB8
:100250001370034A137070474A05001049050010D7
:1002600043050010024A137859424B4113707047FE
:10027000480500100122034B1A700022024B1A702D
:100280007047C04649050010430500100122034B8A
:100290001A700022024B1A707047C0464A050010BF
:1002A000430500100849094A0B78002B05D0107847
:1002B000074B1B18FF20013B1870002301200B7017
:1002C000044913700870704755050010E4050010CC
:1002D0000B0000104D050010024A137859424B41A3
:1002E00013707047510500100222034B1A70002250
:1002F000024B1A707047C0465105001043050010AC
:100300000322034B1A700022024B1A707047C0463A
:1003100051050010430500100022034B1A70034BD7
:1003200001321A707047C046E405001055050010F0
:100330000022014B1A7070474E05001000230F4A2F
:1003400070B513700E4A10241370002300220D4E56
:100350000D4930000A604B608A60CB60220007F0D4
:10036000C1FF0A4D31002200280007F0BBFF290021
:100370002200074807F0B6FF70BDC0469404001085
:10038000C81000100011001010110010F010001023
:10039000E0100010044A137859424B4113700022B8
:1003A000024B1A707047C046080000104305001049
:1003B0000122034B1A700022024B1A707047C0468C
:1003C00008000010430500100023024A1370024A7F
:1003D00013707047080000104305001010B5021C90
:1003E000202800D92022002003000649D2B29342DF
:1003F00000D310BD0C5CFF2C01D10133DBB2013006
:10040000F5E7C046EB05001070B5074B1D78681C7A
:10041000C0B2FFF7E3FF04002800FFF7DFFF013C55
:10042000201AC0B270BDC046B810001010B5FFF75A
:10043000D5FF034B185CFE3843425841C0B210BD93
:10044000EB050010034B1A78034B1A700022034B84
:100450001A70704742050010410500105305001046
:1004600010B50A4B1878FFF7B9FF0023084A121895
:100470000848D45CD9B2FF2C02D0242B03D1190038
:10048000FF23435410BDC4540133F2E7B8100010E9
:10049000EB050010C0050010074A0020137800216A
:1004A000002B07D0013BDBB21370044ADB00D318EA
:1004B000186859687047C0462211001028110010B2
:1004C0000023034A1370034A1370034A13707047E2
:1004D0005D0500102011001021110010044A13784E
:1004E00059424B4113700022024B1A707047C046AC
:1004F0000900001048050010054B1A78002A02D0A8
:1005000000221A70704701211970024BF9E7C046AA
:1005100048050010090000100022014B1A707047B6
:100520005C0500100122F8B508210600100007F054
:1005300081FA0724082700223900012007F07AFAFF
:10054000320001252241022100202A4007F072FAE0
:100550002A003900280007F06DFA013CEBD2F8BD03
:10056000002210B504001100022007F063FA2000F9
:10057000FFF7D8FF10BD0000A022FF21520010B5E8
:10058000094807F0D0FE202300200021074A013B44
:10059000DBB203C2002BFAD1054A1370054A13706F
:1005A000054A137010BDC046EB050010B00E0010D8
:1005B000B8100010BA100010B9100010F8B50500FE
:1005C0000E0017000024280007F0E5FE844200D347
:1005D000F8BD084B0C211B78285D022B00D00621AA
:1005E000614371183A00C9B20134FFF769FDE4B202
:1005F000E9E7C04600000010F8B5551C86180C004D
:100600001700451907F0C7FEC21B31002800013250
:1006100007F0ABFE3470F8BD30B50E4C85B00393D7
:1006200023780D4D009001910292072B07D970227B
:1006300028000A4907F099FE2378013B23702078AF
:100640001022431C000169462818237007F04AFE57
:1006500005B030BD9404001098040010A8040010E8
:1006600010B50B4B197800290BD00A4C0A4B0139F5
:10067000090110222000591807F034FE0FCCFFF7B3
:10068000CBFF0023054A1370054A137010BDC04606
:1006900094040010680500109804001093040010E2
:1006A0009204001010B5FFF7DBFFFFF7D9FF01221E
:1006B000034B1A700023034A1370034A137010BDD2
:1006C0005B05001060050010AB0E001030B5002275
:1006D00004000D00002385B000940195029203935D
:1006E000009801990022039BFFF796FF2000290044
:1006F00005B030BD10B507F091FB0AF0AFFBFFF776
:10070000E5FF10BDC02010B50249C005FFF7DEFFB0
:1007100010BDC046FB21094010B5024B0FCBFFF7BF
:100720007BFF10BD6805001010B5024B0FCBFFF723
:1007300073FF10BDD0100010F8B5070020200E0088
:100740001400FFF74BFEA02305005B0098420BD27C
:100750003800FFF743FE24182A1B044D601C611962
:10076000401907F002FE2E55F8BDC046EB050010FB
:10077000F8B506000120FFF731FE471E04002020D7
:10078000FFF72CFE054D0130021B7919601907F0A7
:10079000ECFD0022024BEE551A70F8BDEB0500107F
:1007A00045050010F8B50C4F06003B780D000B4CCA
:1007B000032B08D9210018222000083107F0D5FDAD
:1007C0003B78013B3B703B785A1CDB00E4183A70E5
:1007D00026606560F8BDC046221100102811001087
:1007E00010B5094B1B78002B07D0084A013BDB00F2
:1007F000D31818685968FFF7D5FF0023044A13700F
:10080000044A137010BDC0462211001028110010B8
:100810005D0500102111001010B5FFF73DFE00230B
:1008200042428B4110001900FFF7BCFF10BD0000D1
:1008300070B5FFF731FE05000C00FFF72DFE074BEA
:100840001B78002B03D06422002308F087F92A00CC
:10085000230008F05FF9FFF7A5FF70BD0900001045
:1008600070B5FFF719FE0D000400FFF715FE001923
:100870006941FFF797FF70BD10B5FFF7CDFFFFF798
:10088000EFFF10BDF8B5040007F085FD0023C7B2E7
:10089000661EDAB2E118BA4203D25A1CB55C202DAA
:1008A00006D0C2B2D21A2000013207F01BFDF8BDFB
:1008B0001300EEE7F0B5002489B003221A49019035
:1008C00004AF03A83C7107F00DFD0622174906A8E6
:1008D00007F008FDE5B20321280007F067FF144B7D
:1008E000C6B21E70019BA10059180422380007F0FF
:1008F000F9FC2800032107F0DFFF03ABC9B25D5C00
:1009000006ABE05C290080383200C0B20635FFF744
:10091000D7FB013432003800E9B2FFF74FFE062C56
:10092000D8D109B0F0BDC046B0B10000B4B10000EC
:100930001905001070B5C2000400002100200E4B04
:100940009B18186059602000FFF748FD0B4E05000A
:10095000335CFF2B0ED00134E0B2FFF73FFD040003
:100960002020FFF73BFD611E0130021B8919A819E9
:1009700007F0B8FC70BDC046B00E0010EB050010CB
:1009800010B50C00FFF72AFD24182020FFF726FDE4
:10099000021B0348611C0918201807F0A3FC10BDB6
:1009A000EB050010F7B516001F0002000B000090C9
:1009B00001913000390008F0CDFF04F0FDF900226C
:1009C000154B09F0C9FBC022144BD20508F0C2FF39
:1009D000002204000D0000980199002308F072F82D
:1009E00000280FD0002200233000390008F06AF8F8
:1009F0000022094B002809D02000290009F018FE28
:100A000004000D002000290003B0F0BD20002900E3
:100A100008F064FCF4E7C04600806640FB21094012
:100A200010B506F019FD08F00BFC044908F0F0FAC7
:100A30000AF03AFAFFF74AFE10BDC04600007A44B9
:100A40000023F7B5114F124D3B702B70984218D10F
:100A5000104B01241878FFF7C1FC0F4E3618335D98
:100A6000FF2B0AD06A46137100232800537101A995
:100A700001340AF077FB082CF1D1280007F08BFC39
:100A800038700122054B1A70F7BDC0461A050010D8
:100A90001B050010B8100010EB05001046050010F3
:100AA00010B50B4904000020002C0CDC013464B2AA
:100AB000012C0CD00022074B08F04CFFF6E7002277
:100AC000044B09F049FB013C64B2631CF7D110BD33
:100AD0000000F03F0000244010B50B4B04001978D3
:100AE00000290AD00139C9B21970084B0901102236
:100AF000591807F0F7FB200010BD00220023026008
:100B000043608260C360F6E794040010980400100C
:100B100000B58DB06846FFF7DFFF04A8FFF7DCFFE4
:100B2000009A019B0498059908F0D8FB029A039B50
:100B3000089009910698079908F0D0FB0A900B914C
:100B40000A9A089809990B9BFFF766FD0DB000BD46
:100B5000F0B589B06846FFF7BFFF009C019D029E7B
:100B6000039F22002B003000390008F0F3FE320012
:100B70003B0009F0F1FA22002B0008F0AFFB020065
:100B80000B000020114908F0E5FE320004900591A9
:100B90003B002000290008F0DDFE22002B0009F0B8
:100BA000DBFA32003B0008F099FB02000B0000204A
:100BB000074908F0CFFE06900791069A0498059918
:100BC000079BFFF729FD09B0F0BDC0460000F03FCC
:100BD0000000F0BFF0B593B006A8FFF77DFF069BBD
:100BE000079C0AA800930194089C099DFFF774FFD5
:100BF0000A9E0B9F0C9A0D9B0098019902920393F9
:100C000032003B0009F0A8FA029A039B0490059178
:100C10002000290009F0A0FA02000B0004980599B1
:100C200009F006FD32000E900F913B0020002900D4
:100C300009F092FA029A039B04000D0000980199B2
:100C400009F08AFA02000B002000290008F046FB98
:100C500010901191109A0E980F99119BFFF7DCFCE0
:100C600013B0F0BD10B5FFF773FFFFF7B3FF10BD72
:100C7000064B10B50FCBFFF7CFFC054B18780AF0E9
:100C8000EDF8FFF723FDFFF7EDFF10BDE0100010BA
:100C9000C810001010B5FFF7E3FCFFF79BFF10BD75
:100CA00000B589B06846FFF717FF009A019B8020C6
:100CB0000399049205930006029A0B180692079373
:100CC00004980599069A079BFFF7A6FC09B000BD9A
:100CD00000B589B06846FFF7FFFE029A039B0492B5
:100CE0000593009A019B0692079304980599069A2A
:100CF000079BFFF791FC09B000BD00001FB5064C33
:100D00006846FFF7E9FE69461022200007F0EAFA7C
:100D10000FCCFFF781FC1FBDD010001000B589B0CB
:100D200004A8FFF7D9FE049805990AF031F840B2FB
:100D3000FFF7B6FE00220023009001910292039378
:100D4000009800220199039BFFF766FCFFF742FF22
:100D500009B000BDF0B504003E4D8DB00A281CD18D
:100D60003D4B1B78002B18D13C4B1A78002A01D13F
:100D700001321A702B78002B0DD1394C2378002BBF
:100D800002D06846FFF7A8FE00200021FFF79EFC76
:100D9000012323702B700DB0F0BD2B78002B0ED1EA
:100DA0002F4E3378002B02D06846FFF795FE2000C7
:100DB0000AF054F8FFF78AFC01233370EAE7274E64
:100DC0003578002D21D004A8FFF786FE6B1C68B291
:100DD0003370FFF765FE06000F0020000AF00EF8E2
:100DE00032003B0008F0B6FD049A059B08F076FA45
:100DF00000240023089009910A930B9408980999FC
:100E00000A9A0B9BFFF708FCC5E708A8FFF764FEEA
:100E100008980999104B00221B78002B18D1114B10
:100E200009F09AF9060020000F0009F0E7FF020020
:100E30000B003000390008F051FA00240023049020
:100E400005910693079404980599069A079BD9E79C
:100E5000054BE5E7930400104805001092040010CC
:100E60004C050010000024400000304010B5064B37
:100E70001B78002B03D00122044B1A7010BD0A20EE
:100E8000FFF768FFFAE7C04648050010400500106C
:100E900010B50920FFF75EFF10BD10B50820FFF761
:100EA00059FF10BD10B50720FFF754FF10BD00001B
:100EB00010B5054C0F202378002B00D10938FFF71F
:100EC00049FF0023237010BD4005001010B5054CEC
:100ED0000E202378002B00D10938FFF73BFF0023B9
:100EE000237010BD4005001010B5054C0D2023786F
:100EF000002B00D10938FFF72DFF0023237010BD10
:100F00004005001010B5054C0C202378002B00D1B3
:100F10000938FFF71FFF0023237010BD40050010A4
:100F200010B5054C0B202378002B00D10938FFF7B2
:100F300011FF0023237010BD4005001010B5054CB3
:100F40000A202378002B00D10938FFF703FF002384
:100F5000237010BD4005001010B50020FFF7FAFE09
:100F600010BDF0B589B06846FFF7B6FD009801994D
:100F7000029C039D04F0BAF906000F00200029002E
:100F800004F0B4F832003B0009F0E6F80490059153
:100F90002000290004F058F932003B0009F0DCF889
:100FA00006900791069A04980599079BFFF734FB72
:100FB00009B0F0BD10B5FFF7D4FFFFF751FBFFF705
:100FC000C7FDFFF7A5FD80210020C905FFF77EFBC7
:100FD000FFF748FE10BD00001FB5074B1B78002B24
:100FE00006D06846FFF778FD0098019905B000BD6E
:100FF00000200021FAE7C0469404001010B5FFF766
:10100000EBFF09F0C5FE9423421F5B009A4201D218
:10101000014B187010BDC0460A00001010B5FFF754
:10102000DBFF07F0E7FD07F021FEFFF74FFB10BDE8
:1010300070B5FFF7D1FF05000C0000220023280047
:10104000210007F03FFD002802D080231B06E41892
:1010500028002100FFF73AFB70BD000010B5FFF734
:10106000BBFFE0220B4B120609F0E2FAFFF72EFB62
:10107000094B0A4A1860596000210020084B18608B
:101080005960002301211370064A1170064A13703B
:1010900010BDC0464D62603FC0100010AB0E001086
:1010A000380500105A0500104305001010B51B4C00
:1010B00020220021200007F036F900231A000F2B10
:1010C00029D823700133DBB20134202BF7D1FFF78D
:1010D00083FF134C20606160FFF77EFFFFF7F6FA95
:1010E00002000B000F490A604B602068616809F03C
:1010F0009FFA00220C4B08F02DFC01220B4B1860CC
:1011000059600B4B1A7000230A4A13700A4A137075
:101110000A4A137010BD2270D4E7C0468B05001038
:10112000800500107805001000003F4030050010D9
:10113000500500104305001060050010AB0E0010B4
:1011400010B5FFF749FF8022034B120608F002FC9E
:10115000FFF7BCFA10BDC0465347E13F10B5FFF79B
:101160003BFFE022034B120608F0F4FBFFF7AEFA58
:1011700010BDC04645E2E33F10B5FFF72DFF8022CA
:10118000034B120608F0E8FFFFF7A0FA10BDC046B7
:10119000EB51044010B5FFF71FFF0022024B08F08F
:1011A000DBFFFFF793FA10BD86480E4010B5FFF73E
:1011B00013FF0022054B09F03BFAC022044B120634
:1011C00008F0C8FBFFF782FA10BDC046000040409F
:1011D000CCCCFC3F10B5FFF7FFFE8022034B9205FD
:1011E00008F0B8FBFFF772FA10BDC04611A301402A
:1011F00010B5FFF7F1FE0022054B08F0ADFFC0224D
:10120000044BD20508F0A6FBFFF760FA10BDC046FC
:1012100000806640FB210940F7B5FFF7DDFE1D4A5F
:101220001D4B08F05BF80D00040009F0B1FD09F05A
:10123000E5FD0090019102000B002000290009F05B
:10124000F7F90022154B08F087FF0D00040009F0A4
:101250009FFD09F0D3FD06000F0002000B002000E7
:10126000290009F0E5F900220C4B08F075FF002277
:101270000B4B08F06FFB32003B0008F02FF8002208
:10128000074B08F067FB009A019B08F027F8FFF76F
:101290001DFAF7BDBBBDD7D9DF7CDB3D000059404F
:1012A00000004E40F8B5FFF797FE07F085FCC4B28A
:1012B000FFF792FE07F080FCC5B200202C1B0B4903
:1012C000E4B20134FFF702FA631EDBB29D4200D89C
:1012D000F8BDFFF781FE06000F00200009F08EFD2B
:1012E00032003B0008F038FFEBE7C0460000F03F5B
:1012F000F8B5FFF771FEFFF7E9F907F05DFC01248F
:10130000C5B2FFF7CFFFAC4200D9F8BDFFF764FECE
:10131000060020000F0009F071FD02000B003000F4
:10132000390008F017FB0134FFF7D0F9E4B2EAE71F
:1013300010B5FFF751FE8022034B120608F00CFF98
:10134000FFF7C4F910BDC0465347E13F10B5FFF7A2
:1013500043FEE022034B120608F0FEFEFFF7B6F94B
:1013600010BDC04645E2E33F10B5FFF735FE8022D1
:10137000034B120608F0EEFAFFF7A8F910BDC046BD
:10138000EB51044010B5FFF727FE0022024B08F096
:10139000E1FAFFF79BF910BD86480E4010B5FFF744
:1013A0001BFEC022054B120608F0D6FE0022044B9D
:1013B00007F094FFFFF78AF910BDC046CCCCFC3F84
:1013C0000000404010B5FFF707FE8022034B920556
:1013D00008F0C2FEFFF77AF910BDC04611A3014024
:1013E00010B5FFF7F9FDC022054BD20508F0B4FE99
:1013F0000022044B08F0AEFAFFF768F910BDC046B2
:10140000FB21094000806640F0B585B0FFF7E4FDA0
:101410000022284B08F0A0FE274A284B07F05EFF69
:101420000022244B04000D0008F094FA09F0B0FCEF
:1014300009F0E4FC00221F4B0090019108F08CFEA3
:101440000290039102000B002000290009F0F0F83F
:1014500000221B4B08F07EFA09F09AFC09F0CEFC42
:101460000022174B06000F0008F076FE02000B006A
:101470002000290009F0DCF8029A039B09F0D8F853
:101480000022104B08F066FA002204000D00300024
:1014900039000D4B08F05EFA009A019B07F01EFF21
:1014A00002000B002000290007F018FFFFF70EF9DB
:1014B00005B0F0BD0020AC40BBBDD7D9DF7CDB3D23
:1014C00000004E400088C3400000594030B5264A15
:1014D000264B12781B7885B0002A19D0002B0ED02D
:1014E000FFF77AFD0022224B08F036FE07F082FB60
:1014F0000B00034335D1FEF771FE05B030BD6846E1
:10150000FFF7EAFA102269461A4806F0EBFEF4E704
:10151000002BF4D0184A107800281BD0431EDBB2F1
:101520001370002BE9D0023840B2FFF7B9FA04007B
:101530000D00FFF751FD22002B0008F00DFE07F013
:1015400059FB07F093FB22002B0008F003FAFFF78A
:10155000BDF8D2E7FFF740FD0022084B08F0FAF98A
:10156000C4E707F083FBF2E748050010930400107E
:101570000000B03F680500109204001000002440F5
:1015800010B5FFF729FD07F017FBC0B2072803D8F5
:10159000024B187005F0D8FD10BDC0465500001074
:1015A00010B5FFF719FD07F007FBC0B23F2803D8BD
:1015B000024B187005F0C8FD10BDC046581200104F
:1015C00010B5040074280CD9212C17D0FEF706FEA4
:1015D000193CE4B20B2C11D80D4BE340DB0716D4B9
:1015E0000CE00C4B1A78272353430B4A1B189B0023
:1015F0009B5898470A2CEBD9122CE5D10023074AB7
:101600001370044A1370064A1370064A137010BD13
:10161000210C00004305001088B2000051050010A5
:101620004A05001049050010F0B52E4AC30085B0E8
:10163000D3181A685B68040000920193FEF7CEFE8F
:101640000500FEF7CBFDFEF779FE274B6E1C5F5DB4
:10165000FF2F10D1FFF7C0FC224BE4001C192060C3
:101660006160009A019B08F0E3FF02000B0008F0A4
:1016700073FD05B0F0BDFD2F1DD11C4F9E5D3B7865
:101680000235042B07D91A480422411C06F06DFECE
:101690003B78013B3B70154A1378591C1170144A72
:1016A000D654104BF6009E1930687168FFF70EF89B
:1016B0002E003500C9E70F4B06221D7827230E495F
:1016C00002A85D4306F00EFE00237D19EDB202AACA
:1016D000D25CAA42EDD00133062BF8D13800FFF7D7
:1016E0006FFFE6E7B00E0010EB050010E5050010F7
:1016F000E605001043050010BBB10000F8B5202539
:101700000024002600272000FEF790FE00280AD1C2
:101710002000FFF789FF02000B003000390007F0BE
:10172000DDFD06000F000134E4B2202CEBD1E022F5
:1017300030003900054B120607F0C4F9002803D128
:10174000013DEDB2002DDBD1F8BDC0464D62503FEA
:1017500070B50D4E34782000FEF740FE0B4B1B5C3D
:10176000FF2B02D02000FFF7E5F80024084D013DD3
:10177000E2B20134295DFF2902D1FFF7BFFF70BD3E
:101780003078FEF7D9FFF3E7B8100010EB05001032
:10179000C0050010084B400070B5C45C1B185D7894
:1017A00020002900002206F0F9F82900012220007B
:1017B00006F040F970BDC0469CB8000000B50C4B67
:1017C00089B01B78012B11D96846FFF785F904A869
:1017D000FFF782F900980199029A039BFEF71CFF1C
:1017E00004980599069A079BFEF716FF09B000BDFD
:1017F0009404001010B5FFF7E1FFFFF7EDFB124C6A
:1018000020606160FFF7E8FBFEF760FF2268636815
:1018100008F00EFF00220D4B08F09EFC00220C4B3E
:1018200008F098F80B4B0122186059600020002145
:10183000094B18605960094B1A700023084A13704D
:10184000084A137010BDC046780500100000E03F44
:101850000000244030050010380500104B05001032
:1018600043050010AB0E001000B58BB0FEF788FCEE
:10187000002815D006A8FFF72FF980200799069AAF
:1018800000060B1802920393002200230492059392
:10189000002202980399059BFEF7BEFE0BB000BD27
:1018A00002A8FFF719F9802000068446039B029ADC
:1018B0000193019961440B00059906920793049ADC
:1018C0000B180892099306980799089A099BE3E771
:1018D00010B5FFF7C9FFFFF71BF910BD10B5FEF7F4
:1018E000BFFEFFF79BFBFFF7F3FF10BD274B70B563
:1018F0000FCBFEF791FE264E307809F0AFFAFEF7D7
:10190000E5FEFFF767F9234C20686168A268E36889
:10191000FEF782FE204D28686968AA68EB68FEF72A
:101920007BFEFFF757F9FFF7D3FF1C4B0FCBFEF7FA
:1019300073FE307809F092FAFEF7C8FEFFF74AF915
:1019400020686168A268E368FEF766FEFEF788FE1D
:10195000FFF740F9FFF7BCFFFFF784F9FEF780FEC1
:101960000FCCFEF759FEFFF735F9FFF77DFF0FCDDE
:10197000FEF752FEFFF7CCF8307809F06FFAFEF769
:10198000A5FEFFF76FF9FFF719FF70BD00110010FA
:10199000C8100010E010001010110010F01000101E
:1019A00010B5FFF7DEFAFEF75BFEFFF7D1F8FFF7A1
:1019B0005BFFFFF7ADF880210020C905FEF786FE2A
:1019C000FFF750F910BD000000B5114B8DB01B782A
:1019D000022B1AD96846FFF77FF804A8FFF77CF8B6
:1019E00008A8FFF779F800980199029A039BFEF77F
:1019F00013FE089809990A9A0B9BFEF70DFE0498AE
:101A00000599069A079BFEF707FE0DB000BDC0467C
:101A10009404001010B5FFF7D7FFFFF7D5FF10BDF6
:101A200010B5FFF7CBFEFEF71BFEFFF7F3FFFFF746
:101A3000C5FEFFF74DFFFFF7C1FEFFF713F90020CA
:101A40000249FEF743FEFFF7C5F810BD00005940FC
:101A500010B5FFF7B3FEFEF703FEFFF7DBFF002034
:101A60000349FEF733FEFFF7FDF8FFF7B3F810BDAB
:101A7000000059407FB51025324E3378013B33705A
:101A8000FEF7EEFD304CE3686168A2682068FEF75F
:101A9000C3FDFFF793FEFFF71BFF6846FFF71CF837
:101AA0002A006946200006F01DFCFEF7D9FDFEF76E
:101AB000D7FDFFF78FF8254CE3686168A2682068BE
:101AC000FEF7AAFDFFF77AFEFFF702FF6846FFF771
:101AD00003F82A006946200006F004FCFFF76EFEBA
:101AE000FEF7BEFDFFF796FFFFF774F8184CE368AA
:101AF0006168A2682068FEF78FFDFFF75FFEFFF7C1
:101B0000E7FE6846FEF7E8FF2A006946200006F077
:101B1000E9FB104CE3686168A2682068FEF77CFD71
:101B2000FFF74CFEFFF7D4FE6846FEF7D5FF2A000C
:101B30006946200006F0D6FB307809F08FF9FEF7F1
:101B4000C5FD7FBDC8100010E0100010F01000109F
:101B500000110010101100107FB510252E4E3378A3
:101B600001333370FEF77CFD2C4CE3686168A2689A
:101B70002068FEF751FDFEF7CBFF6846FEF7ACFF8D
:101B80002A006946200006F0ADFBFEF769FDFEF76E
:101B900067FDFFF71FF8224CE3686168A2682068C0
:101BA000FEF73AFDFEF7B4FF6846FEF795FF2A0000
:101BB0006946200006F096FBFFF700FEFEF750FD99
:101BC000FFF728FFFFF706F8164CE3686168A26884
:101BD0002068FEF721FDFEF79BFF6846FEF77CFFBD
:101BE0002A006946200006F07DFB0F4CE36861681F
:101BF000A2682068FEF710FDFEF78AFF6846FEF730
:101C00006BFF2A006946200006F06CFB307809F073
:101C100025F9FEF75BFD7FBDC8100010E010001035
:101C2000F0100010001100101011001070B5124BD0
:101C30001B78002B12D0FEF72FFC05000C00FEF7DE
:101C40002BFC02000B002800210006F087FF642215
:101C5000002306F05FFFFEF7A5FD70BDFEF71CFC3C
:101C600005000C00FEF718FC02000B002800210004
:101C700006F074FFEFE7C0460900001010B51C4BDA
:101C80001B78002B1AD0FEF707FC43B2002101207D
:101C9000002B0ADC01335BB2012B0AD000200100CB
:101CA000F8E7020F090111430001013B5BB25A1C26
:101CB000F7D1FEF777FDFFF7B9FF10BD0D4B1B788D
:101CC000002B0FD0FEF7E8FB6422002306F022FF72
:101CD00040B2FEF7E5FE0022074B08F03DFA06F0A1
:101CE00089FFE6E7FEF7D8FB40B2FEF7D9FEF6E73C
:101CF00048050010090000100000594070B50D4B58
:101D00001B78002B03D00C4B01221A7070BD0B4CBA
:101D10002378002B0CD10A4D2B78002B01D0FEF735
:101D2000BBFB00200021FEF73DFD01232B7023703B
:101D3000044BE9E748050010400500102111001090
:101D4000201100105D050010F7B5364A364E1278A6
:101D500033780190002A26D0002B3FD0FEF79CFB61
:101D60006422002305000C0006F0D4FE0A220023A2
:101D700006F0F4FE06000F00280021000A220023CE
:101D800006F0C8FE002530003900D4B200230A2234
:101D90000019694106F0E2FE2B00019A80185941B2
:101DA000FEF700FD1AE0214915000978019C009119
:101DB000002B17D11E4F3B78002B01D0FEF76CFB98
:101DC000009B002B0BD0642200232000290006F08A
:101DD000C5FEFEF7E7FC01233B703370F7BD200022
:101DE0002900F6E7009B002B0CD0FEF755FB0A22DA
:101DF000002306F08FFE642200196941002306F0DB
:101E0000ADFECDE7FEF748FB0A4B10221E780023FB
:101E1000002E01D10A22002306F0A0FE001969411C
:101E2000BEE7C0465D05001021110010090000103A
:101E3000201100104805001010B50920FFF784FF9D
:101E400010BD10B50820FFF77FFF10BD10B50720AB
:101E5000FFF77AFF10BD000010B5054C0F20237866
:101E6000002B00D10938FFF76FFF0023237010BD4E
:101E70004005001010B5054C0E202378002B00D132
:101E80000938FFF761FF0023237010BD40050010E3
:101E900010B5054C0D202378002B00D10938FFF731
:101EA00053FF0023237010BD4005001010B5054CF2
:101EB0000C202378002B00D10938FFF745FF0023C1
:101EC000237010BD4005001010B5054C0B20237881
:101ED000002B00D10938FFF737FF0023237010BD16
:101EE0004005001010B5054C0A202378002B00D1C6
:101EF0000938FFF729FF0023237010BD40050010AB
:101F000010B50020FFF720FF10BD0000F0B58DB028
:101F1000FEF736F9002810D0FFF75EF8C0222C4BF0
:101F2000D20508F019F900222A4B07F013FD03F03F
:101F30008BF9FEF7CBFB0DB0F0BD04A8FEF7CCFD8E
:101F400006980799049C059D03F0D0F906000F0040
:101F50002000290003F078F93200029003913B0041
:101F600000201D4907F0F6FC0090019102000B00D3
:101F70003000390007F0B2F9029A039B08F0ECF840
:101F80000022164B08F0E8F808900991C0202200C2
:101F90002B001349C00508F04BFB03F055F9009ADC
:101FA000019B04000D003000390008F041FB2200C5
:101FB0002B0008F0D1F80022084B08F0CDF80A9069
:101FC0000B910A9A089809990B9BFEF725FBB2E73B
:101FD000FB210940008066400000F03F0000E03F28
:101FE000FB21F93FF0B58DB0FEF7CAF8002810D0FC
:101FF000FEF7F2FFC0222E4BD20508F0ADF800220A
:102000002C4B07F0A7FC03F071F8FEF75FFB0DB057
:10201000F0BD04A8FEF760FD06980799049E059F91
:1020200003F064F90400C0200D0032003B00224997
:10203000C00508F0FDFA03F007F9220002900391B1
:102040002B0000201D4907F085FC00900191020043
:102050000B002000290007F041F9029A039B08F0C9
:102060007BF80022164B08F077F8089009913000B1
:10207000390003F0E9F880231B06CE180700009A08
:10208000019B2000290008F0D3FA02000B00380061
:10209000310008F061F80022094B08F05DF80A9061
:1020A0000B910A9A089809990B9BFEF7B5FAAEE7CF
:1020B000FB21094000806640FB21F93F0000F03F12
:1020C0000000E03FF7B5012005F00CF904002220E4
:1020D000002C1DD12500174B0193019B01221E7876
:1020E0005F783000390005F059FC390030000022DB
:1020F00005F0A0FC271D104EFFB2F179B07905F074
:102100006FFC002805D12800FFF744FB0B4B185D3E
:10211000FEBD0134E4B2023EBC42EED12800FFF71E
:1021200039FB019B01350233EDB201930A2DD4D165
:10213000FF20EDE79CB8000094B800006CB80000E8
:1021400070B50024FFF7BEFF05000A2005F046FE2B
:10215000FF2DF6D10134E4B2032CF3D170BD0000A1
:102160008423CA085343181884235B00984208DA72
:10217000023BFF3B1940063B8B40024A115C0B437C
:1021800013547047B00F001070B5064C05002000C6
:1021900006F001F9691C421B6118601906F0A2F8EB
:1021A00070BDC0461B050010F0B5314B87B007006D
:1021B00018780291FEF712F900231C001D0003900D
:1021C0000193039BE9182B4B5A5CFF2A02D101981B
:1021D00007B0F0BDFD2A2CD1212CF2D85B185B781A
:1021E000FA3A1A409B0805AE31337370002341322E
:1021F000B3703270300006F0CEF8310002003819AA
:1022000006F070F8029BA21CD2B2002B0DD01A4B24
:102210001B78002B09D0023B9D4206D103347F215D
:102220003800E4B2FEF7E8F9220002351400EDB2FE
:10223000C7E7222CC5D8114B661C9B5CF6B23B55F8
:10224000029B002B0FD00C4B1B78002B0BD0013BBB
:102250009D4208D1023432007F213800E4B2FEF7FB
:10226000CBF90196260001353400EDB2A9E7C0464E
:10227000B8100010EB05001018050010B0B80000F1
:10228000F7B5FEF7A9FE0D00040005F07DF96846DC
:1022900001A905F021FA2900200006F08DFC6B460B
:1022A000C0B2188029002000FEF710FAFFF716FBD5
:1022B000802000261B4F1C49C005FEF707FAFEF7D9
:1022C00027FC30003900FEF701FAFEF783FCFEF729
:1022D00083FE06F071FC6B46290098702000FEF723
:1022E000F5F930003900FEF7F1F9FEF773FCFFF75E
:1022F000F5FA80200C49C005FEF7E8F9FEF708FC66
:1023000030003900FEF7E2F9FEF764FCFEF764FEE8
:1023100006F052FC6B460022D87001A9684605F011
:102320001FFAF7BD00005940E17A743F37B5FEF758
:1023300053FE0D00040005F027F9684601A905F0D9
:10234000CBF92900200006F037FC6B4680222900DB
:10235000D20518710B4B200006F0C0FFFEF7B6F94E
:10236000FFF7BCFAFEF738FE0022074B07F0F4FE39
:1023700006F022FC6B460022587101A9684605F060
:10238000EFF937BDE17A743F0000594013B505F00D
:10239000FBF801A9684605F09FF96B46987806F0AE
:1023A0004FFF164906F034FE6B46041C188806F0F1
:1023B00047FF011C201C06F08DFC6B46041CD878DE
:1023C00006F03EFF0E4906F023FE011C201C06F01D
:1023D00081FC041C684605F0F3F9072106F056FB62
:1023E000080006F02DFF074906F012FE211C06F03A
:1023F00071FC08F059FDFEF769F913BD0000C842F1
:1024000000401C460050C34713B505F0BDF801A9B4
:10241000684605F061F96B46587906F011FF0849E6
:1024200006F0F6FD6B46041C187906F009FF011C46
:10243000201C06F04FFC08F037FDFEF747F913BDEE
:102440000000C842F0B54A4E8DB03378002B41D021
:10245000FDF796FE00283DD0FEF7BEFD3378040060
:102460000D00002B30D0FDF78BFE00282CD0FEF79E
:10247000B3FD404B1B78002B0AD0089409950A90B5
:102480000B91089809990A9A0B9BFEF7C5F81FE073
:10249000C022394BD20507F05FFE0022374B07F010
:1024A00059FA06000F0002F021FE22002B0007F06F
:1024B00053FE089009913000390002F0C5FE220059
:1024C0002B0007F049FEDAE720002900FEF7FEF8AE
:1024D0000DB0F0BD6846FEF7FFFA009C019D029E1C
:1024E000039F244B1B78002B14D00022002304965A
:1024F000059716001F0006920793069A079B0498FB
:102500000599FEF789F832003B00089409950A9274
:102510000B93B6E732003B0020002900FEF742FA99
:1025200000220023049005910692079304980599D0
:10253000069A079BFEF770F822002B002000290066
:1025400007F00AFE320004000D003B0030003900A5
:1025500007F002FE02000B002000290006F0BEFE7C
:1025600002F032FF0022002308900991CFE7C04615
:102570009404001008000010FB2109400080664010
:10258000F0B58BB002A8FEF7A7FA029E039F049C49
:10259000059D32003B003000390007F0DDFD2200D0
:1025A000009001912B002000290007F0D5FD0200CA
:1025B0000B000098019906F091FE02F005FF02F071
:1025C000CDFE2200069007912B0030003900FEF767
:1025D000E9F9C022084BD20507F0BEFD0022074BE7
:1025E00007F0B8F908900991089A06980799099B8D
:1025F000FEF712F80BB0F0BDFB21094000806640E9
:1026000010B5FFF7BDFF00200349FEF75FF8FFF7A5
:10261000B7FFFEF727FB10BD0000244070B5002473
:10262000234D20002900FEF751F8FEF771FAFEF75E
:1026300017F8FEF715F8FEF713F8FEF711F800206B
:102640001C49FEF743F8FEF7C5FAFFF7B7F800207C
:102650001949FEF73BF8FEF7BDFAFEF779FAFFF7E6
:1026600037F9FEF775FAFEF753FAFFF789FF2900ED
:102670002000FEF72BF8FFF72BF9FEF7ABFAFFF778
:102680009DF8FFF77DFFFFF7EFF8C0200B49C0056D
:10269000FEF71CF8FFF774FFFEF73AFA80210020DE
:1026A000C905FEF713F8FEF7DDFAFEF731FA70BD43
:1026B0000000F03F0000284000002440FB211940AA
:1026C00030B58DB06846FEF707FA04A8FEF704FAA5
:1026D000049805990022002306F0EEF90024002555
:1026E000002829D00698079922002B0006F0E4F96B
:1026F000002821D00098019922002B0006F0DCF977
:10270000002814D00298039922002B0006F0D4F977
:1027100000280CD01022124908A805F0E3FD089803
:1027200009990A9A0B9BFDF777FF0DB030BD08940D
:1027300009950A940B95F2E704980599069A079B68
:10274000FDF76AFFFFF71CFF00980199029A039BAF
:10275000FDF762FFFEF73EFAFEF703FCE5E7C04631
:1027600070B2000010B500200449FDF7AFFFFFF77D
:1027700007FFFEF72FFAFEF7F4FB10BD0000244020
:102780001FB56846FEF7A8F90098019900220023BA
:1027900006F092F9002805D000200021FDF796FFF1
:1027A00005B000BD029A039B00980199FDF734FF24
:1027B000FFF7E6FE00200449FDF788FFFEF70AFA5E
:1027C000FEF7CFFBECE7C0460000E03F10B5FEF798
:1027D0004FFAFDF745FFFEF7FDF9104C207808F0A1
:1027E0003DFBFDF773FFFEF7F5F9FFF73DF80C4BE6
:1027F0000FCBFDF711FFFEF78BF9207808F02EFBC9
:10280000FDF764FF00200749FDF760FFFFF760F860
:10281000FEF728FAFFF7B4FF10BDC046C81000103D
:10282000F01000100000F03FF0B50024224D89B0F8
:10283000FDF716FF0026FEF72DFA0027FFF714F824
:1028400020002900FDF742FFFEF762F9FFF798FF2D
:10285000FEF7B4FF00200096019702940395020052
:102860000199039BFDF7D8FEFEF7B4F9FEF750F986
:10287000FFF786FE00200496059706940795020050
:102880000599079BFDF7C8FEFEF7EEFFFEF7A2F9DC
:10289000FDF776FC00280CD0FEF79EFB0022074BCC
:1028A00007F05AFCC022064BD20507F053F8FDF79B
:1028B0000DFF09B0F0BDC0460000F03F008066404B
:1028C000FB21094010B5FFF7AFFFFEF7CDFFFDF785
:1028D00057FC002806D000200449FDF7F7FEFEF75C
:1028E00017F910BDC0200249C005F6E70080564028
:1028F000FB21F93F10B5FDF7B3FEFEF7CBF9002041
:102900000649FDF7E3FEFEF703F9FFF739FFFEF78F
:102910001FF9FEF75FF9FFF787FF10BD0000F03FDA
:1029200010B51A4B1B78002B0AD0FDF799FEFFF764
:1029300037F8FEF743FFFEF73DFBFEF793F91BE088
:10294000134B1B78002B18D0FDF78AFE002011498D
:10295000FDF7BCFEFEF7DCF8FEF730FFFEF784FF64
:1029600000200C49FDF7B2FEFEF7D2F8FEF77AF927
:10297000FFF706FFFFF704FE10BDFDF771FEFFF73E
:10298000C5FAFEF71BFFFFF72DFBD6E74905001040
:102990004A0500100000F03F10B50F4B1B78002BCC
:1029A00002D0FEF707FB10BD0C4B1B78002B10D09C
:1029B000FDF756FEFEF76EF900200949FDF786FE89
:1029C000FEF786FFFFF7DCFEFEF7A2F8FFF7D8FD63
:1029D000E9E7FFF707FBE6E7490500104A050010A5
:1029E0000000F03F10B50F4B1B78002B02D0FEF714
:1029F000D7FF10BD0C4B1B78002B10D0FDF730FE1D
:102A0000FEF748F900200949FDF760FEFEF780F85F
:102A1000FFF7B6FEFEF77CF8FFF7B2FDE9E7FFF738
:102A200075FAE6E7490500104A0500100000F03F7E
:102A3000F0B58FB00BAC01900291049220210822D6
:102A40002000089305F06FFC00232372834B0022C3
:102A50001B780593002B53D000230198029906F0B0
:102A600031F88022029B12069C18002800D11C001D
:102A7000210000227A4B019806F024F80BAC0028C4
:102A800008D03023E371089A04990BA8FDF796FD4E
:102A90000FB0F0BD0198029906F0CAF80D000200CF
:102AA000014302D130232372EDE7230020000821E7
:102AB0000F2714003C4026003036392E13D8C6713B
:102AC00001392C071209C9B222432D090138002906
:102AD000EFD120202A430831002A0DD061490BA8EC
:102AE00005F061FCCFE75734C471E9E70139C9B299
:102AF000187001330029C6D01A78302AF6D0C2E700
:102B000000230198029905F0DDFF019D002862D0A5
:102B100080220A27029B12069C182100524A534B1E
:102B2000019805F0EDFF00282BD12100504A514BB0
:102B3000019805F0D1FF002807D0002200232100D2
:102B4000019805F0D3FF00281BD1019A2300100043
:102B5000210008F0FFF8002813D101226600760852
:102B60003100454B0198524208F0F4F8002835D165
:102B700001223100404B0198524205F0ADFF002880
:102B80002CD138490BA805F00EFC0BAD2800FDF741
:102B900079FE0626280005F0FEFB059B834200D344
:102BA00076E7364B1C78631E9C41059B0134E85C3C
:102BB0002E2800D096E2049B089A1F1BFFB2A400A7
:102BC00039003F19FDF77CFAFBB20493059B0133F2
:102BD000DBB20593DEE70127029C9EE72100244A31
:102BE000244B019805F06EFF00281AD12100244AD9
:102BF000244B019805F084FF002800D186E13800BD
:102C000008F0FCF802000B0000201F4906F0A2FEAD
:102C100002000B000198210005F054FF002800D1AC
:102C200074E1002200232100019805F045FF0028EF
:102C300000D10BE130230BAA1370144B1978002933
:102C400001D02E2313700123302001E0D054013332
:102C5000DCB2A14299D9082BF8D196E748050010BB
:102C60000000F03FC2B100007DC39425AD49B254CD
:102C70003EC3D84E7D7F612BFFFFEF7F41050010E3
:102C8000FCA9F1D24D62503FD01263419204001072
:102C900028002100974B002207F05EFA0C00050087
:102CA0000398013843B20393002228002100924B7D
:102CB00005F008FF0028EBD16B461B7B0022079331
:102CC000280021008C4B05F01BFF002206900028F5
:102CD00000D0BDE000230299019805F0F3FE431EE9
:102CE00098410723181AC3B20993FDF7D9FE0200D1
:102CF0000B002800210007F02FFA00227F4B06006E
:102D00000F0006F0EBFA08F043F839000500300038
:102D100008F03EF80A2706002800002800D0A3E0AB
:102D200004000A27002E00D0A6E0069B9C4208D291
:102D300028000A2105F0C4FD05000798013043B2C0
:102D400003936B461B7B0793079A099B981A40B223
:102D5000FDF7A6FE06000F00280008F04FF83B0024
:102D6000320006F0F7FD08F013F839000690300045
:102D700008F00EF80100280005F088FE039B0C0007
:102D8000002B14DA079B584240B2FDF789FE06007B
:102D90000F00200008F032F832003B0006F0DAFDA8
:102DA0000022564B06F09AFA07F0F2FF04006B4639
:102DB000039A1B7B002A00DA0023099AD31ADBB29C
:102DC00003934F4B1B780793002B00D181E04D4BB1
:102DD0001D78002D7ED00BAE35000A274A4B039A92
:102DE0001B78D31A0993731B0399DAB28A424BD327
:102DF0000B000DACE41A2E230A25013C2370069B20
:102E0000002B6AD1002200230198029905F05AFE96
:102E1000002802D02D23013C2370079B002B04D0F7
:102E2000384B1B78002B00D0AFE6200005F0B3FA3A
:102E300000220138C0B22018844200D1A5E60378F0
:102E4000302B00D0A1E602700138F5E703902BE7A4
:102E500028002100274B06F07DFD050007980C0097
:102E6000013043B2039327E7390005F029FD069BA3
:102E70000133DBB2069350E73000390005F020FD46
:102E800001340600E4B24DE7099A2021934205DDA2
:102E90003900200005F0FAFD3031C9B2E971200097
:102EA000390005F00DFD013D04009CE720003900CC
:102EB00005F0ECFD303120003170390005F000FDE7
:102EC00004000135EDB2039B013EAB42EED10DACE7
:102ED00090E7079D0A270DAEF5E70698290005F053
:102EE000D5FD013C303106982170290005F0E8FC41
:102EF000069084E7000024400000F03F0000E03F1F
:102F000093040010520500109204001000230022C8
:102F10000198029905F0D6FD431E98410023060052
:102F20000393002228002100734B05F0CBFD0028FD
:102F300000D097E00022280021006F4B05F0E0FD53
:102F4000002800D099E0039B07300833122B00D8EB
:102F50000820861BF3B20693069BD81E40B2FDF7ED
:102F60009FFD02000B002800210007F0F5F8634BDD
:102F7000002206000F0006F0B1F907F009FF390042
:102F80000500300007F004FF002306000A27280090
:102F9000079300287DD104000A27002E00D080E08E
:102FA000079B9C4207D228000A2105F089FC0500F6
:102FB000039B013303930698043840B2FDF770FD7C
:102FC00006000F00280007F019FF3B00320006F052
:102FD000C1FC07F0DDFE39000400300007F0D8FE28
:102FE0000100280005F052FD039B0D00DB0F069346
:102FF000039B5E1E01D50126F61A30000A2105F05A
:1030000045FD0BAF30313000F9710A2105F058FC55
:103010000B260AABF618002807D00A2105F036FD6A
:103020000A2630310AABB971F618069A2B23013EF5
:10303000002A00D002330A273370013E002D38D118
:103040002E230A353370002C3FD100220023019833
:10305000029905F037FD002800D196E52D23013EA9
:10306000337092E528002100254B002207F074F808
:10307000039B05000C00013B52E728002100204B78
:10308000002206F067FC039B050001330C0003934C
:1030900050E7390005F014FC079B0133DBB20793BE
:1030A00077E73000390005F00BFC01340600E4B28C
:1030B00073E72800390005F0E9FC30312800317051
:1030C000390005F0FDFB0500B7E72000290005F0F9
:1030D000DDFC013E303120003170290005F0F0FBAD
:1030E0000400B0E77443089A0499FCF7E9FF049BD5
:1030F0001C19E3B269E5C0460000F03F0000E03F64
:1031000000002440F7B50C0015000090FDF78EF983
:10311000002822D00098FDF761F9230027001C4EFB
:103120002A33DBB2361801937078FF2809D03900B2
:103130002A00FCF7C5FF0637019BFFB201369F420C
:10314000F2D1144B009A1B78934205D1063C2A0019
:10315000B220E1B2FCF7B4FFF7BD009BDA000E4BE2
:103160009B181E685F68002200233000390005F0BC
:10317000A3FC002805D02A002100CC20FCF7A0FFEA
:10318000DFE72B00220030003900FFF751FCD8E7C1
:10319000EB050010B8100010B00E0010F8B5184B79
:1031A0001C78184B1B78002B03D0032C01D9043C4E
:1031B000E4B2154B1B78002B03D0002C01D0013C4E
:1031C000E4B200260125114B114F320020000621E8
:1031D0001D703E70FFF796FF601932003B21C0B2B0
:1031E000FFF790FF201D2A000621C0B205343D7074
:1031F000FFF788FF2A003B21E0B2FFF783FFF8BD0D
:10320000B8100010BA100010B91000100000001023
:1032100019050010F0B53D4B8DB01C78002C04D082
:103220003B48FDF747FB0DB0F0BD3A4F3A4A3B78BB
:10323000127813432CD002AD18222021280005F06B
:1032400072F83649062268462C76103105F04AF8A5
:103250006B461E5D324BB6009E19300005F09BF8A0
:103260000200A00031002818013405F03BF8062CBC
:10327000EED12800FDF71EFB01222A4B6C211A70AB
:103280003B782948002B00D12848FDF797F9CAE779
:103290000126274B1E70FFF781FF224B1E70254B26
:1032A0001D782800FDF7C2F8041E14D02800FDF791
:1032B00095F8214D34002D180536285DFF28B2D031
:1032C0003100614366310122C9B20134FCF7F8FED6
:1032D000052CF2D1A7E701002122029002AD03A83C
:1032E00005F021F821002800FEF75EFF0626285D84
:1032F000002898D0310061436C310122C9B20134F9
:10330000FCF7DEFE042CF2D18DE7C0465805001014
:10331000C6B10000590500105705001070B200003A
:103320003D00001019050010DFB10000E4B10000FD
:1033300000000010B8100010EB05001010B5FEF7EB
:10334000FFFE04F0BBF903F0D4FE0020012104F0DD
:1033500013FD002003F0C6FF002802D1012104F074
:103360000BFD03F017FF03F003FF03F00BFF10BD8D
:10337000F7B572B6002501275023781B5B4218432E
:10338000C0B2FDF7EDF80020FDF7EAF81020FDF7D8
:10339000E7F8E020FDF7E4F8842300266B43134AA6
:1033A0009B1801935521019B02209A5D0136530819
:1033B00052008A430B4013433322DBB29C089B002C
:1033C000934314401C433A000021E4B204F032FB62
:1033D000200924012043C0B2FDF7A4F8842EE1D1D6
:1033E000012D01D162B6F7BD3D00C5E7B00F001059
:1033F000F0B59DB004F0F4FF03F034FF0021D14894
:1034000004F03AFB0021D04804F036FB03F095FFAE
:1034100001220421002004F0C1FA0022042110003E
:1034200004F008FB01220521002004F0B7FA002275
:103430000521100004F0FEFA002004F0F3F9A022A8
:10344000FF215200C14804F06EFFF022FF21D2009C
:10345000BF4804F068FF04F0E1FC002305900493EA
:10346000BC4B1B68002B58D084220021BA48520064
:1034700004F059FFB94B1E78002E00D1C3E000269E
:10348000B74CB84B20001E7004F085FF0100B0421D
:1034900000D1AAE0B44D7F2120002A78FDF7ACF8D6
:1034A000200032000321FDF789F82878FEF76CFE32
:1034B0000026012234000627AA4B1A70AB4AF3B249
:1034C0001578AB4A2D01203511785D19EDB299427E
:1034D00000D08FE07943CCB2E11C0122B220C9B206
:1034E000FCF7EEFD2100093101222800C9B20F349A
:1034F000FCF7E6FDE1B20122AF20FCF7E1FD02247A
:103500000136102EDAD19B4B1B78002B00D1A7E19E
:10351000FFF72EFF00228F4B1A609749974F0B78C9
:103520000093002B01D100F059FD954A954813787E
:10353000C05C3870FF2803D0312B01D800F048FD63
:1035400000230B70FEF7FCFD8F4B904A1B7812781E
:1035500013438F4A127813438E4A12781343FF2283
:103560000492002B02D17B4BFE3A1A6004F056FC09
:10357000059B824CC01A884B1B78984201D92223A4
:1035800023702378FF2B2DD0049A93422AD004F085
:1035900045FC794B7C4A1B781278059013437B4A93
:1035A000127813437A4A127813437A4A12781343F3
:1035B00002D10122674B1A60784B20781B78002BD0
:1035C00005D06F4A1378591C11706E4AD0542228C6
:1035D00001D000F011FFFF232370FFF7AFFE04F0CE
:1035E0001DFC0590654B1B7839E702007F20FCF736
:1035F00067FD5DE719197943033101222800C9B23B
:10360000FCF75EFD7CE75B4B1B78002B71D0644BB5
:103610001C685D68634B20001A685B68290007F02E
:1036200007F802000B002000290006F093F90022A1
:103630005D4B06F091FD05F0BFFAC3B25B4F0093FE
:103640005B4B1C685D683A687B682000290006F0C7
:10365000EFFF02000B002000290006F07BF900229A
:10366000544B06F079FD02000B000020514906F092
:10367000DFFF05F0A1FAC3B2200001240293394B09
:1036800002221E7029003300FFF7D2F938687968EA
:1036900033003222FFF7CCF9324B02221C70404B30
:1036A000186859682300FFF7C3F93E4B32221868A7
:1036B00059682300FFF7BCF934000F2625003E4B64
:1036C0006235E15CEDB2711A2800C9B2FEF748FD1F
:1036D000013428000299FEF743FD202CEED1FF2291
:1036E00000981D4B6230C0B21A541B1884331A70F4
:1036F00009E7324B1C78002C00D1F9E1304B1D78E2
:10370000002D65D012AC192220002E4904F0EAFDEC
:10371000022D0AD120002C4904F045FEDD2323743C
:1037200023732000FDF7C6F8EDE6032DF9D1200044
:10373000264904F038FEE0232373237001332374F9
:103740002371EEE7984004409C400440EB050010D4
:103750002B07001004000010B00F001046050010E9
:103760001B050010190500101A0500109104001027
:10377000900400104F0500104D0500105F0500106B
:10378000E40500100B0000105A0500105B05001046
:103790004B050010500500100A00001055050010E0
:1037A000780500108005001000004040B0050010B2
:1037B000B8050010000030408B0500104E050010C9
:1037C0005105001054B20000E9B1000002B200003F
:1037D000D64B1A78D64B1B78002B00D111E1022171
:1037E000D44B1970002A37D0D34B013A12019A18E2
:1037F000D24B106851681B78002B15D19468D5689E
:103800000B00020006F0A8FC220006000F002B00AF
:103810002000290006F0A0FC02000B003000390057
:1038200005F05CFD01F0D0FD0123C54C0C22237096
:103830000023FFF7FDF80021C24B21701B788B425B
:1038400000D160E60222BB4BB2201A700A00BE4BC8
:103850001970FCF735FC56E60C215F20FCF730FCB4
:103860000122B44BB84C1A700023237003F0F4FD0E
:10387000AF231B01984200DBB448B54B984200DAF5
:103880001800B44BAF21C0180A238900584305F033
:1038900017F8C0B243082C204042C01A00227E21F3
:1038A000C0B2FCF70DFCAC4B1B78002B04D00022FF
:1038B0007821EC20FCF704FCA84B1B78002B04D0EB
:1038C00000227821DA20FCF7FBFBA54D2B78002B9A
:1038D00008D09A4B00221878722143425841BD30DB
:1038E000FCF7EEFB9F4B1878002805D065300022CE
:1038F0006C21C0B2FCF7E4FB9B4B1A78002A00D184
:103900005EE300226C214820FCF7DAFB974B1B7822
:10391000002B08D0964B1B78312B04D800226C2149
:10392000D820FCF7CDFB934B934A1B7812781343B6
:103930000ED00322914B12A81B786C211A40413201
:10394000027000229B08313343708270FCF736FE10
:10395000012323702B78002B1ED0894C0022206875
:103960006168002305F0A8F8002807D0A068E16886
:103970000022002305F0A0F8002804D101227E21B6
:10398000E320FCF79DFB7F4B1B78FF2B04D001222B
:103990007221CD20FCF794FB7B4B1B78002B08D0C9
:1039A0007A4A0CCA134304D001227E21E320FCF79B
:1039B00087FB774B774A1B7812781343764A127845
:1039C0001343764A12781343754A1278134304D08E
:1039D00001227E21E220FCF773FB724B1B78002B47
:1039E00004D001227821A920FCF76AFB624B1B78E6
:1039F000002B00D18CE501226C216B48FCF7DEFD29
:103A000086E50093002A04D10821013225E701232D
:103A100000936A46454B12781B780292009A9A42AC
:103A200062D201220299521AD2B20A920A99464AE5
:103A30001170009A9B1A013B3F4A1B01D3181E6864
:103A40005F689C68DD683D4B1B78002B21D13200FC
:103A50003B003000390006F07FFB22002B0006906F
:103A600007912000290006F077FB02000B00069862
:103A7000079905F033FC01F0A7FC2200069007919E
:103A80002B0030003900FCF78DFF069E079F0400D5
:103A90000D00029B002B02D10122294B1A70082233
:103AA000300039000A9BFEF7C3FF0022244B2000A0
:103AB0001A7029000022002304F0FEFF002805D11F
:103AC0003B22200029000A9BFEF7B2FF1D4B1B780A
:103AD000002B09D0029B002B06D101221A4BB220E9
:103AE00002991A70FCF7ECFA009B012B8FD10AE5C2
:103AF000214B1B78002B00D18BE0134D212221009C
:103B000013A82C70129404F00EFC012112A8FEF7E9
:103B10004BFB060012A804F03EFCC2B2002A45D1BD
:103B200003217F20FCF7CCFA55E0C0469404001036
:103B3000410500100000001098040010080000105B
:103B4000520500109304001019050010EF0A000040
:103B500034080000CCF7FFFF4805001056050010A0
:103B60004E050010430500104905001055050010D2
:103B7000E40500105305001054050010B8100010A3
:103B8000D01000100B0000105C0500104811001050
:103B90004D0500105B0500105A0500104B05001084
:103BA00050050010400500104FB20000102E2ED915
:103BB00034000627103CE4B231001039611A794311
:103BC00012AB185D033101340022C9B2E4B2FCF734
:103BD00077FAA642F0D20123C84A2B701178C84A5E
:103BE000C9005218106851680322FEF721FF8AE4C9
:103BF0003100614303310022C9B20134FCF760FA9D
:103C0000112CE8D012ABE05C0028F1D1E3E70626E6
:103C1000F8E7BC4B1C78002C02D0FFF7FBFA72E4EB
:103C2000B94B1B78002B1CD0B84D2122210013A8C2
:103C30002C70129404F077FB210012A8FEF7B4FA5E
:103C400029220CAB9B181C700CAB1A7E002A02D1E7
:103C500003215F2066E72200032112A8FCF7AEFCD7
:103C6000B9E7AB4B1B78002B00D163E1A94B1B7864
:103C7000002B01D0A84855E5A84A00931278002AE5
:103C800049D12021133212A804F04DFB2B2100232F
:103C90000CAA521813700CAA5F331376283901222C
:103CA00012A8FCF78BFC2EE43B4300D097E09C4B22
:103CB0000CA91A782B235B18002A0AD0994A12788B
:103CC000002A06D10A002A212E23521813700CAAAA
:103CD0008B183022013B1A7012A8FCF7D3FD002587
:103CE000062412AE300004F056FB854200D2F5E007
:103CF0008D4B1B78002B07D0029B002B04D1012297
:103D00001900B220FCF7DCF9009B012B01D1FFF771
:103D1000FAFB012300936B46804C1B78009A0293B8
:103D200023789342F0D90123029A20219B1ADBB217
:103D30000693069A754B12A81A70132204F0F3FA30
:103D40002B2100220CAB5B181A70009923785B1AA8
:103D5000013B7649DB00CB181E685F683300974251
:103D6000A2DA3C0000275E42A74101230A936D4B73
:103D70001B78002B35D02B250CAAAD18032200236D
:103D8000944612AA180061460133DBB2084202D100
:103D90002021013D29700F24344020003030392883
:103DA00000D9273039073409013D214328703811E3
:103DB000070008000E00384301D100F0F3FF9542E0
:103DC000E0D80A9B002B05D02D23013D2B703E43EC
:103DD00000D181E7564912A804F0E5FA7CE70A927F
:103DE000C5E74F4B1C78002C4FD00A22002330002F
:103DF000390004F08FFE0A220D000B9039003000CC
:103E0000002304F087FE12AC303229000B98A27414
:103E100000230A2204F07EFE3032002329000B9892
:103E200062740A2204F076FE2E2306000F0023742B
:103E300016AD2D3B0B9432003A4301D100F0B2FF96
:103E40000B9A9542BDD92A781C002E2A0AD05522F9
:103E5000524253430134DBB2E4B2552B02D8202343
:103E6000013D2B70300039000A22002304F052FE7D
:103E7000013D30320023300039002A700A2204F05C
:103E800049FE230006000F00D5E72B250CABED18EB
:103E900055222300524253430134DBB2E4B2552B86
:103EA00002D82023013D2B70300039000A22002364
:103EB00004F030FE013D30320023300039002A701A
:103EC0000A2204F027FE030006000F000B4301D175
:103ED00000F068FF12AB9D42DAD872E72100705DF6
:103EE000069A7719FCF7ECF83B78202B04D00634BF
:103EF0000135E4B2EDB2F4E60334F9E7B81000108E
:103F0000B00E0010530500104405001019050010F4
:103F10005C0500105E0500101BB2000022110010AD
:103F20000900001048050010211100102811001090
:103F3000C2B10000012512ACDC48FCF7BBFC03F069
:103F400023FB210011A803F0C7FBD94B2A007421E1
:103F50003A201D70FCF7B4F820780A2104F0ACFC7C
:103F60003031C8B22A006F21FCF7AAF826780A215E
:103F7000300004F01BFCC0B22070092E08D90A21C1
:103F800004F09AFC3031C8B22A006921FCF798F895
:103F900060780A2104F090FC30310122C8B27E2101
:103FA000FCF78EF80A21607804F000FCC0B20A2108
:103FB000607004F081FC3031C8B20122782148E4FD
:103FC000BC4B1B78002B00D1A0E46C2168209BE443
:103FD00001331370FF230493FFF7C8FAB64B1C7824
:103FE000002C5ED0B54A13780133DBB213701D226A
:103FF0003A70012B01D1FFF7B9FAB14E34687568F8
:10400000022B0CD1FCF7E8FF22002B0005F066F92B
:10401000E02230607160AB4CAB4B120613E0032B17
:104020001BD1FCF7D9FF0022A84B06F095F802003F
:104030000B002000290006F0FBFAE02230607160DE
:10404000A04CA34B12062068616805F047F9206078
:104050006160FCF73BFBFFF789FA042B06D1FCF704
:10406000BBFF0022994B06F077F8CDE7FCF7B4FFD1
:1040700002000B002000290006F0DAFA0022954B1E
:1040800005F068FCE022904B120605F063FCFCF79B
:104090001DFB0122904B1A60874B009A1A70FF2378
:1040A00016E08E4B1B780293002B69D0834E337839
:1040B0000133DBB23370022B0DD808D1FDF77EFB44
:1040C000E02081490006FCF701FBFCF721FD1D23E0
:1040D0003B70FFF74BFAFDF771FBFCF7C3FD0020C7
:1040E0007F49FCF7F3FAFCF713FDE0207649000660
:1040F000FCF7ECFAFDF762FBFCF7B4FDFCF76CFF94
:10410000FCF7E4FA07000D00FDF7E2FB00220023B4
:1041100038002900347004F0D5FC002802D0802338
:104120001B06ED18E0226F4C38002900664B120682
:10413000267804F0C7FC00280AD1142E0AD8FCF710
:104140008FFAFCF78DFA237801332370FFF70EFA0C
:10415000142E0DD90CA8FCF7BFFC1022624912A83E
:1041600004F0C0F812981399149A159BFCF754FAAE
:104170000122594B1A600022584B1A70FFF7F6F9CA
:104180005A4B1E78002E6BD04C4B1C780134E6B293
:104190001E701D233B70012E01D1FFF7E7F9484B3C
:1041A0001C685D68022E0CD1FCF716FF2B00220064
:1041B00005F094F8424B186059604D4B18685968E7
:1041C00047E74C4B1A685B6800920193032E10D1AD
:1041D000FCF702FF22002B0005F080F8384B186036
:1041E000596000980199424B1A685B6805F076F8AF
:1041F0002FE7162E20D80022F3071BD58023DB05DE
:1042000002920393FCF7E8FE029A039B05F0A4FFD9
:1042100022002B0005F062F8294B18605960B01E8F
:1042200006F0ECFD009A019B05F096FF304B1A68F2
:104230005B68DBE7304BE3E7FCF7CEFE00980199C3
:1042400022002B0005F088FF00222C4B05F082FB9A
:10425000FCF73CFA0122204B1A60244B029A1DE71E
:10426000274D2B78002B00D1C1E0144B1C78013472
:10427000E4B21C701D233B701A4B1A78002A71D1CE
:10428000012C01D1FFF772F91949086849680090BB
:104290000191022C3AD1FCF79FFE1A4B186059602D
:1042A000194B1860596000980199D2E634B20000A9
:1042B000190500104A0500105A050010AB0E001039
:1042C00038050010C01000104D62503F0000204023
:1042D0004D62603F00002840040000105B050010A4
:1042E0000000F0BF6005001070B200004B05001028
:1042F0007805001030050010000010400000084054
:1043000050050010B0050010B8050010222C24D86C
:10431000FCF762FEC84D06000F0002000B00286883
:10432000696804F0E3FB002801D02E606F60C34D84
:104330003200286869683B0004F0C4FB002801D003
:104340002E606F60A01E06F059FDBD4B1A685B68B9
:1043500005F002FF009A019B48E7BA490A70012262
:104360001A70A0E7012C01D1FFF700F9212C2ED8FB
:10437000B14B1C685D68FCF72FFE02000B002000AB
:10438000290006F055F9AD4B06001A685B680F006E
:104390002000290006F04CF902000B003000390023
:1043A00005F0D8FA0022A84B05F0D6FE00F0F2FE88
:1043B000A44BA64C1D7804F0FFFB6419023C20704E
:1043C000681E06F01BFD9E4B1A685B682CE70CA864
:1043D000FCF782FB0CA8FCF77FFB01239C4A2E70A4
:1043E0001360FF223A709B4A1370FFF7BFF8FDF786
:1043F00069FE3870FFF7BAF8974B1A78002A00D197
:10440000A8E01D2801D0122832D1944B1B78002B34
:1044100004D10023904A1370FFF7E4F8904B1D7805
:104420002800FBF7DBFF04002800FCF783FA8D4E21
:10443000300003F0B0FF05002020FBF7CFFF8A4FCC
:10444000021B611E6019C919C01903F08EFFFE23FB
:1044500000253B55300003F09EFFA842D9D9824A7F
:10446000631C9B18725D5A550135072DF2D1D0E7B8
:10447000012804D10F227D4B1A70FFF7B3F80228F0
:1044800007D17B4A13780B2B01D9FFF7ABF8013327
:10449000C1E7764A042818D0052802D10822734BB8
:1044A000EAE7062806D1714A13780E2B01D9FFF7E7
:1044B00099F8ECE7072802D100226C4BDCE76C4A44
:1044C000082802D0182807D16A4A1378002B01D196
:1044D000FFF788F8013B9EE719280DD1654C61482C
:1044E000257803F058FF854201D3FFF77BF8237846
:1044F00001332370FFF776F821280CD15D4C20782A
:10450000002801D1FFF76EF80138C0B2FDF73CFE7C
:104510002378013BEDE7534C200003F03CFF4F4B69
:104520001A780723002A00D10B33984201D3FFF7F2
:1045300059F84F4B19784D4B09011B782033C91896
:104540004C4BC9B21A78501C18702000FCF754F874
:10455000FFF748F83F4B1D78002D8DD146490B7869
:10456000002B16D0454C2378002B0ED0021FD1B261
:1045700005290AD8591E06234B439B18404A9B0025
:104580009B5898472570FFF72DF8FDF719F8FFF7AE
:1045900029F83C4D2B78002B00D1DFE003001D3BB8
:1045A000012B01D912280DD100232B70FDF7A6F89D
:1045B0002B4B1878FDF738F8294B1878FDF734F8AD
:1045C000FFF710F8264B1C7818281BD12E4E357893
:1045D000022D08D12000FBF701FF234B1B5CFD2BB4
:1045E000E6D0013D0CE0012DE2D92000FBF7F6FEFC
:1045F0001D4B5B191B18023B1B78FD2BF1D1023DB3
:104600003570D5E7192843D1204B1B78002B00D0FB
:104610009EE02000FBF7E2FE1B4E134B35785B1942
:104620001B5CFD2B01D10235EAE7FBF7EDFE85426D
:10463000BED20135E4E7C046B8050010B005001051
:1046400030050010AB0E001000002E408B0500104E
:10465000040000104F05001046050010530500101F
:10466000B81000101B050010EB050010900400109E
:10467000910400101A0500104E050010510500109D
:10468000D8B80000540500101805001043050010AC
:10469000212841D1CD4D2F78002F89D07E1EF6B232
:1046A000012F34D02000FBF799FEC94BDF193F18CA
:1046B000023F3B78FD2B2AD131002000FCF760F946
:1046C0002978C44B02391878C9B2FCF759F92B780C
:1046D000013B2B702B78013BDBB22B70002B00D001
:1046E00066E7BC4B1E783000FBF778FEB84C235CC5
:1046F000FF2B00D15CE7012330002B70FBF76EFE2F
:10470000235CFD2B00D053E7FB3B2B7050E73100BF
:104710002000FCF735F9DDE70B2808D1AB4B1A7800
:10472000511C197012212000FCF706F840E72628DA
:104730000ED1A94B1C70A94B1A78A94B1A70A94B22
:104740001A78A94B1A700122A84B1A700023DCE7D3
:104750009E4B1A78511C19700100E4E7A44A1678A0
:10476000002E00D158E1A34C23780093002B09D0F0
:104770000438C3B2052B03D89F4B8000C358984719
:104780000023B6E69D4B1B78002B32D0914B1D7851
:104790002800FBF723FE04002800FCF7CBF8984E16
:1047A000300003F0F8FD05002020FBF717FE884FCE
:1047B000021B611E6019C919C01903F0D6FDFE2342
:1047C000009D3B55300003F0E6FDA84207D9804A22
:1047D000631C9B18725D5A550135072DF2D10023D9
:1047E000864A1370FEF7DAFC0122864B1A60FEF748
:1047F000F9FE854F3B78002B2AD00438C4B2052C33
:1048000022D8A022520010006043804B704DC01887
:10481000290003F067FD1F20FBF7E0FD2B5C7C49BE
:10482000A400FF2B0BD00123013C0C192818C25CFB
:10483000FF2A09D0E2540133052BF8D104E02D23DF
:104840000B5500230C19637000233B70FEF7CAFE62
:10485000704E3378002B11D00438C1B2052907D827
:10486000A0225200514369480918594803F03AFD03
:10487000FCF744FF00233370FEF7B4FE1E2801D17D
:10488000012336E608280BD10021564B514A1970F6
:104890001378032B01D9043BBDE51170FEF7A2FE8E
:1048A00002280AD101224F4B1A704A4A13781B2B57
:1048B00001D9FEF797FE0433ADE504280ED1454932
:1048C000464A0B78002B07D0013BDBB20B70DB4371
:1048D0009B0701D101239EE500239CE5062811D109
:1048E0003C4A13781E2B01D8013313701178032230
:1048F00008003A4B1040114202D11870FEF772FEC8
:104900000122B9E512283DD101232B70374B314FDD
:104910001E783C78002E21D02F4B2C4D1878304B30
:10492000FD211A782D4B38701A702F4B1A782D4BA9
:104930001A702A78531C2B70FBF7FEFE2A78210090
:10494000531C38782B70FBF7F7FE0023274A1370AF
:10495000FCF7D4FEFEF75EFCFEF744FE2000FBF7FA
:1049600065FD071E05D03000FCF76AF82E70FEF7D3
:1049700039FEFBF749FDFF2800D13800134B1870B2
:1049800020001BE61D280DD1124B1878FBF726FDE1
:104990000F4B1B5C0020FE2B00D00120FCF750F8D1
:1049A000FEF720FE212807D10A4B1878FBF7C2FF3B
:1049B000FCF7A4FEFEF716FE252801D1012344E7EB
:1049C000262801D0FEF70EFE012354E7180500103B
:1049D000EB050010B810001088050010B910001089
:1049E00089050010BA1000108A0500105605001045
:1049F000530500105805001020B9000047050010AD
:104A00001B05001004000010590500102B070010B2
:104A10003D00001057050010D04B1F78002F00D12B
:104A2000BDE01E280AD1CE4A1E701178CD4A117001
:104A3000CD4C2078FCF7F8FD2078BFE51D2809D182
:104A400001232B70FBF7E0FCFF2800D10020C74BAF
:104A50001870EDE7122801D00B2812D1C44B122098
:104A60001B78002B00D097E00120FBF7B7FC040077
:104A70002020FBF7B3FCBF490200601803F075FC6F
:104A8000D6E7212825D12038FBF7A8FC04002020F8
:104A9000FBF7A4FCB64D02002E78B64B002E14D0C6
:104AA000661E9E19012C07D931000232A01E121B6E
:104AB000181803F017FCBBE7013219193000121B5C
:104AC00003F010FC00232B70B2E7021B1919180029
:104AD000EFE70A2822D82020FBF780FCA44F05002E
:104AE0003E78002E0DD00120FBF778FCA14E471E2A
:104AF00001352A1AB919801903F037FC2378F355C8
:104B000096E79C4E020031009B4803F02EFC237870
:104B10003370FF237370FE3B3B7089E70F283BD84F
:104B20000120FBF75BFC00900220FBF757FC040020
:104B30002020FBF753FC0700009B8E4DE31A0293E5
:104B40005B19020029001800049303F00EFC029A7E
:104B50006119280003F0C6FB009B6100DE19361BBB
:104B6000C91A321B4919601903F0BCFB029B3200C1
:104B7000581E0499401903F0B5FBA61EBA1C601E0E
:104B8000121B7119401903F0F0FB00227B4B1B78BC
:104B9000AB55774B1A704BE7FBF7EAFD48E7784DCA
:104BA0002E78002E00D1B7E0764D2B78002B0BD05D
:104BB0000438C3B2052B03D8734B8000C358984701
:104BC00000232B70FEF70EFD1E2801D10123F8E70C
:104BD00021283FD16D4B1B78002B37D06C4B1B78B5
:104BE000002B29D0FBF758FCFA2200239200070083
:104BF0000E0003F08FFF0B0005000C00034303D1F0
:104C0000FBF75EFCFEF7EEFC642200233800310067
:104C100003F080FFD3B2089300232100099364229C
:104C20000023280003F09AFF089B099CC0186141EB
:104C3000FBF7B8FDFEF7D6FCFBF72EFC00230A229B
:104C400003F068FF0B000343F2D1D9E7FBF724FC24
:104C5000FEF7C8FC1F281CD14E4B1B78022BCFD966
:104C6000FBF71AFC07000E00FBF716FC0090029100
:104C7000FBF712FC05000C0038003100FBF792FD39
:104C800028002100FBF78EFD00980299FBF78AFDB2
:104C9000B6E713280CD1FBF7FFFB03F0E7FF00F0AA
:104CA00093FB00223C4B05F057FA03F0A3FFEDE71E
:104CB000202812D1374B1B78012BA1D9FBF7ECFB35
:104CC00007000E00FBF7E8FB05000C003800310080
:104CD000FBF768FD28002100D8E7252804D1FBF761
:104CE000DBFB2E4B03C3D1E7262803D12B4B1868DF
:104CF0005968CBE7122801D9FEF774FC284B8000D5
:104D0000C358984723780A2B01D8FEF76BFC122B67
:104D100001D1FEF767FC73E7072803D101230B706D
:104D2000FEF760FC08280AD10E490D4A0878107079
:104D300000220A70012119700B4BFFF79DFB092817
:104D400006D1084B06491878087000211970C1E592
:104D5000042801D0FEF746FC38E7C04644050010A1
:104D60004205001041050010B81000101805001091
:104D700045050010EB050010ED0500105F05001063
:104D80005C0500105E05001084B9000021110010C0
:104D900009000010221100100000244048110010EA
:104DA00038B900000A9B00260027002B01D0FFF72E
:104DB0000BF8FEF791FFC046F8B54E4657464546FC
:104DC000DE46A34BE0B54E00804689468A4676080B
:104DD0009E421CDD9F4B9E4209DC06D05346002BB1
:104DE00000DCBAE09C4B9D4A09E00028F6D0424620
:104DF0004B464046494604F071FA03000A00180089
:104E00001100F0BCBB46B246A946A046F8BD944B83
:104E10009E4200DDA4E0934B9E4200DC8FE0012324
:104E20005B429B4642464B464046494605F094F954
:104E300002000B0006000F0005F08EF904000D00C3
:104E4000894A8A4B05F088F9894A8A4B04F046FA68
:104E500022002B0005F080F9874A884B04F03EFAC7
:104E600022002B0005F078F9854A864B04F036FACB
:104E700022002B0005F070F9834A844B04F02EFACF
:104E800022002B0005F068F9814A824B04F026FAD3
:104E900032003B0005F060F97F4A804B06000F00AE
:104EA0002000290005F058F97D4A7E4B05F0C0FB33
:104EB00022002B0005F050F97B4A7C4B05F0B8FB33
:104EC00022002B0005F048F9794A7A4B05F0B0FB37
:104ED00022002B0005F040F9774A784B05F0A8FB3B
:104EE00022002B0005F038F90B0059460200013171
:104EF0005CD059463000CC00390004F0EFF942464E
:104F00004B4605F029F96E4D6E4B2D191C19226880
:104F1000636805F08DFB42464B4605F089FB0200B5
:104F20000B002868696805F083FB030050460A00FF
:104F3000002800DB63E7802212068A185FE7624AD6
:104F4000624B04F0CBF90022614B03F0CFFD002847
:104F500000D164E743464A4651E73F4B5D4A4EE77E
:104F600000F014F95C4B04000D009E422FDC5B4BFB
:104F70009E4255DC02000B0004F0B0F90022544BB5
:104F800005F056FB802306000F000022DB05200001
:104F9000290004F0A3F90B0002003900300004F0EE
:104FA000D9FC0023804689469B463BE73000390008
:104FB00004F094F942464B4605F0CEF802000B008F
:104FC0004046494605F034FB03000A0017E7444B0E
:104FD0009E421ADC0022434B05F02AFB0022060009
:104FE0000F00404B2000290005F0B6F80022384B96
:104FF00004F074F90B0002003900300004F0AAFC40
:105000000223804689469B460CE70B000200364986
:10501000002004F09FFC0323804689469B4601E75D
:1050200000222B4B05F004FB002206000F00284B4A
:105030002000290004F052F90B0002003900300072
:1050400004F088FC0123804689469B46EAE6C04678
:10505000FFFF0F440000F07F182D4454FB21F93F5F
:10506000FFFFDB3FFFFF1F3E11DA22E33AAD903F27
:10507000EB0D76244B7BA93F513DD0A0660DB13F8F
:105080006E204CC5CD45B73FFF8300922449C23FF7
:105090000D5555555555D53F2F6C6A2C44B4A2BFBC
:1050A0009AFDDE522DDEAD3F6D9A74AFF2B0B33F84
:1050B000711623FEC671BC3FC4EB98999999C93FFC
:1050C000A0B90000C0B900009C7500883CE4377EA0
:1050D0000000F03FFB21F9BFFFFFF23FFFFFE53F7C
:1050E000FF7F03400000F83F0000F0BFD0B5254A25
:1050F0004B0086B05B08934222DD234A934209DDD0
:1051000002000B0005F094FA02000B0010001900D9
:1051100006B0D0BD02AA00F02BFD03231840049A6C
:10512000059B012813D0022822D0002819D002980C
:1051300003990124009401F075FD02000B00E5E7DE
:105140000022002300F0F4FF02000B00DEE70090D5
:105150000298039901F066FD80231B060200CB181C
:10516000D4E70298039900F0E3FF02000B00CDE7BB
:105170000298039900F0DCFF80231B060200CB1885
:10518000C4E7C046FB21E93FFFFFEF7F4B00590812
:105190007047C046F8B504004A000B0008002649D5
:1051A000520D5118270013291ADC002912DB234A5B
:1051B00026000A41100018401D00204307D080201F
:1051C000000308410024C018904326000500300069
:1051D0002900F8BDDB0FD8074B1C28D00024F4E7CA
:1051E00033290DDD802226001D00D2009142EED130
:1051F00022002000190004F071F806000D00E6E717
:105200000F4D2600AC46012562446D42D540AC46A8
:1052100062461D002242DAD03322511A323A8A40C5
:105220001419A74200D9581C63469C43CDE7054B8F
:1052300000241843C9E7C04601FCFFFFFFFF0F0031
:10524000EDFBFFFF0000F03FD0B5264A4B0086B0D3
:105250005B08934222DD244A934209DD02000B00E1
:1052600005F0E6F902000B001000190006B0D0BDF1
:1052700002AA00F07DFC03231840049A059B012834
:1052800015D0022823D0002818D00298039900F0E6
:105290004FFF80231B060200CB18E5E70023002206
:1052A0000093002301F0BEFC02000B00DCE7029833
:1052B000039900F03DFF02000B00D5E7012402989E
:1052C0000399009401F0AEFC02000B00CCE701242E
:1052D00002980399009401F0A5FC80231B060200AC
:1052E000CB18C1E7FB21E93FFFFFEF7FF8B50400D2
:1052F0000D0000F091F806000F002000290001F0D9
:1053000079FD00280FD0200029000F4A0F4B03F031
:10531000EDFB00280AD1200029000D4A0D4B03F0B7
:10532000D1FB002809D130003900F8BD05F014FF89
:1053300022230026084F0360F5E705F00DFF222326
:10534000002600270360EEE7EF39FAFE422E864082
:1053500051302DD5104987C00000F07FF8B504000A
:105360000D0000F00BFA220006000F002B002000B9
:10537000290005F0EFFC002815D1002200232000B1
:10538000290003F0B3FB00280DD1002200232000E8
:10539000290003F091FB002808D005F0DDFE222350
:1053A0000026074F036030003900F8BD05F0D4FE39
:1053B00021230360034801F0C3FD06000F00F2E75C
:1053C0000000F0FFE0B90000F8B504000D0000F0A7
:1053D000D7FD220006000F002B002000290005F059
:1053E000B9FC002807D1002200232000290003F087
:1053F00069FB002802D130003900F8BD05F0ACFE91
:1054000021230022036000231000190004F0A2FAF7
:1054100006000F00EFE7C046F0B5D64600B54B00DA
:105420000E00CC0FB549070088B05B088B420FD93E
:10543000B3498B4229D93203120B024300D040E119
:1054400005003300002C00D11CE10025002319E1E8
:10545000AC4A934200D91BE1AB4A934200D9BCE06D
:10546000AA4AAB4B310003F039FF0022A94B03F0ED
:105470003DFB002800D1B0E00022A64B38003100EF
:1054800003F02CFF05000B00FCE03100A24AA34B07
:1054900003F02CFB002800D016E138003100A04AB0
:1054A000A04B03F00FFB002800D021E19E48E40050
:1054B00004199E4A9E4B3800310004F04DFE2268CC
:1054C000636803F00BFF05F063FC824605F096FC71
:1054D000984A994B04000D0004F03EFE02000B00B8
:1054E0003800310005F0A4F8944A02900391944BDF
:1054F0002000290004F030FE04900591049A059BD9
:105500000298039905F094F802000B0007000E00C2
:105510000090019104F020FE04000D00894A8A4B9E
:1055200004F01AFE894A8A4B05F082F822002B000B
:1055300004F012FE874A884B03F0D0FE22002B00B5
:1055400004F00AFE854A864B05F072F822002B0013
:1055500004F002FE834A844B03F0C0FE22002B00BD
:1055600004F0FAFD0B0002000098019905F060F8C4
:10557000534604000D0006940795002B61D00200ED
:105580000B000098019904F0E7FD0F008021060050
:1055900022002B000020C90505F04AF802000B008C
:1055A0003000390004F0D6F902000B000498059988
:1055B00005F03EF8029A039B05F03AF80B00020052
:1055C0005449002005F034F8684B9A4500DA81E030
:1055D000544624050500631854E03A0033003800AF
:1055E000310004F0B9FD04000D00564A564B04F09A
:1055F000B3FD564A564B05F01BF822002B0004F071
:10560000ABFD544A544B03F069FE22002B0004F01A
:10561000A3FD524A524B05F00BF822002B0004F078
:105620009BFD504A504B03F059FE22002B0004F022
:1056300093FD02000B003800310004F0F9FF0690E2
:105640000791069A079B3800310004F085FD8023FE
:105650000D000400069807990022DB0504F0E8FF1E
:1056600002000B002000290004F074F93A00330016
:1056700004F0DEFF0B0002002649002004F0D8FFF2
:1056800005000B002800190008B080BCBA46F0BD28
:10569000374A934200D909E7364BE5005B191A688F
:1056A0005B68310004F0C4FF029003910120324B8B
:1056B000001B5B191A685B6804920593031B9A46EA
:1056C0001CE702003300D9E6002001F08BFB050047
:1056D0000B00D7E7FA24A4005444240563181900EA
:1056E000B82300225B0404F037FD05000B00C9E776
:1056F000002001F06FFB05000B00C3E7412E864040
:10570000FFFFEF7F422ED63FFFFFEF3D9C750088E5
:105710003CE4377E0000F03FEF39FAFE422E86402F
:1057200051302DD5104987C0E8B90000FE822B65A5
:105730004715F73F0000E0FE422EE63F763C793504
:10574000EF39EA3DD0A4BE726937663EF16BD2C52F
:1057500041BDBB3E2CDE25AF6A56113F93BDBE1640
:105760006CC1663F3E5555555555C53F03FCFFFF7F
:10577000B1A2F03FF8B9000008BA0000F0B5D64673
:105780004F4646468022C0B50B0088B05203914276
:1057900055DA4A005208024300D1EBE0002900DA52
:1057A00023E1D64B002204F0D7FC3625D44C0B0065
:1057B0006D42A34247DCD34C1A151B031B0B9846C2
:1057C000A4468024D04B640343442340CF4C62441E
:1057D00052195C4045461B1599462543CB4B290081
:1057E0009144002204F024FF434602331B030600C9
:1057F0000F0000221B0B022B2FDC002303F05CF9AF
:10580000002800D1BDE04B46002B00D148E14846BE
:1058100005F0F4FABE4ABF4B04000D0004F09CFCF6
:10582000BD4A06000F0020002900BC4B04F094FC88
:1058300002000B003000390003F050FD07E0B04CCF
:105840000025A342B7DD02000B0003F047FD08B0BE
:10585000E0BCBA46B146A846F0BD8023DB0503F0A4
:105860003DFD02000B003000390004F073F8040025
:1058700048460D0005F0C2FA22002B000490059165
:10588000200029000294039504F066FCA44B02005A
:1058900043449A460B000090019104F05DFC040023
:1058A0000D00A04AA04B04F057FCA04AA04B03F007
:1058B00015FD22002B0004F04FFC9E4A9E4B03F086
:1058C0000DFD22002B0004F047FC9C4A9C4B03F08A
:1058D00005FD009A019B04F03FFC9A4A009001915B
:1058E000994B2000290004F037FC984A984B03F0AC
:1058F000F5FC22002B0004F02FFC964A964B03F097
:10590000EDFC22002B0004F027FC0B0002000098A5
:10591000019903F0E3FC0D004146904B04005B1A33
:1059200051460B43002B52DD00228D4B30003900D5
:1059300004F012FC3B00320004F00EFC4B460090D9
:105940000191002B59D102000B002000290003F027
:10595000C5FC029A039B04F0FFFB02000B000098B9
:10596000019904F065FE02000B003000390004F0DC
:105970005FFE6CE70022002300207A4903F0EAFF73
:1059800065E7794A794B3000390004F0E5FB020005
:105990000B000020724904F04BFE320004000D00A1
:1059A0003B003000390004F0D7FB0B000200290057
:1059B000200004F0D1FB4B4604000D00002B4DD11C
:1059C00002000B003000390004F032FE3FE74B4686
:1059D000002B68D122002B003000390004F028FE93
:1059E000029A039B04F0B8FBBDE7020004F020FE1E
:1059F0000022002303F0AEFF29E7454A454B0498F7
:105A0000059904F0A9FB009A019B069007912000DC
:105A1000290003F063FC029A039B04F09DFB3E4ABD
:105A200004000D00049805993C4B04F095FB02001E
:105A30000B002000290003F051FC02000B0000982D
:105A4000019904F0F5FD32003B0004F0F1FD020085
:105A50000B000698079904F0EBFDF8E6484605F0C0
:105A6000CDF92B4A2B4B0090019104F075FB2A4A8B
:105A70000290039100980199284B04F06DFB0200FD
:105A80000B002000290004F0D3FD32003B0004F09D
:105A9000CFFD02000B000298039904F0C9FDD6E681
:105AA00000200021D3E61A4A1A4B0498059904F005
:105AB00053FB2200009001912B003000390004F0CC
:105AC000B7FD029A039B04F047FB134A04000D0044
:105AD00004980599114B04F03FFB02000B002000D5
