:10000000F0230010219000001F9000001F900000BE
:100010001F9000001F9000001F90000000000000D3
:100020000000000000000000000000001F90000021
:100030001F900000000000001F900000718600006B
:10004000818400008184000081840000818400009C
:10005000818400008184000081840000818400008C
:10006000818400008184000081840000818400007C
:10007000818400001D9000001D900000018D000093
:100080000D870000258700003D8700005587000090
:100090001D9000006D8700001D9000001D90000065
:1000A0001D9000001D9000001D9000001D9000009C
:1000B0001D9000001D9000001D9000001D9000008C
:1000C0000523F0B520385843344B87B01B78002502
:1000D0000293334B1B789C46842353430493314B48
:1000E000C3180593059B029A5B5D0800009393403B
:1000F0000022DBB2019262465218D2B2904247D03F
:10010000049A8418284AA2180392002434E00100BB
:10011000E8E76646022E18D1009FA3001F413B006E
:100120000D3633409F001F4333231F407B003B436A
:10013000463633405F003B435B00DBB2002A21D0F0
:10014000019A002A01D001221343552216005F08AC
:1001500017405A00B2431743FFB2223EBA08BF000D
:10016000B74332403A438427D2B26743160912019B
:100170003243039E0134F255E2B29445C9D80130AE
:10018000C0B2B8E75AB2002ADFDA01220192DCE7F6
:100190000135052DBBD107B0F0BDC046610600108A
:1001A0001B00001074BE000020120010F8B50400FF
:1001B0000D00160006272078002800D1F8BD290080
:1001C0003200FFF77DFF034B0134197879436D1836
:1001D000EDB2F0E71B0000108423CA08534318183F
:1001E000842310B55B00984208DA0722083B8A4353
:1001F000FF3B9340024C225C1343235410BDC04686
:100200002012001070B5114B01201B78002B1BD061
:100210000F4A013B1B01D3189D68DC6800220023B4
:100220002800210009F0B2F8002802D080231B0624
:10023000E418084A084B2800210009F0BBF8030025
:1002400001205A1E9341584070BDC046DC05001085
:10025000E00500103EC3D84E7D7F612B7047000043
:100260000023034A1370034A1370034A1370704744
:10027000DA05001095060010DB050010024A13781D
:1002800059424B4113707047890600100023044AFD
:100290001370044A13700122034B1A707047C04652
:1002A00093060010920600108C0600100023044AEA
:1002B0001370044A13700222034B1A707047C04631
:1002C00093060010920600108C0600100023034ACB
:1002D0001370034A1370034A13707047930600109B
:1002E000920600108C060010024A137859424B41C6
:1002F00013707047910600100122034B1A70002200
:10030000024B1A707047C046920600108C0600100F
:100310000122034B1A700022024B1A707047C0462C
:10032000930600108C0600100122014B1A707047D2
:10033000980600100849094A0B78002B05D0107860
:10034000074B1B18FF20013B1870002301200B7086
:100350000449137008707047A10600105808001077
:100360003B00001099060010024A137859424B4195
:10037000137070479D0600100222034B1A70002272
:10038000024B1A707047C0469D0600108C06001084
:100390000322034B1A700022024B1A707047C046AA
:1003A0009D0600108C0600100022014B1A70704749
:1003B0009A0600100022034B1A70034B01321A7088
:1003C0007047C04658080010A106001000230F4ACD
:1003D00070B513700E4A10241370002300220D4EC6
:1003E0000D4930000A604B608A60CB60220008F043
:1003F000DDFB0A4D31002200280008F0D7FB290060
:100400002200074808F0D2FB70BDC046DC05001092
:1004100038130010701300108013001060130010C8
:10042000501300100122034B1A700022024B1A7065
:100430007047C046200000108C0600100023024ABE
:100440001370024A13707047200000108C060010D1
:100450000122014B1A707047A50600100122014BC2
:100460001A7070479706001010B5021C202800D99A
:100470002022002003000649D2B2934200D310BDCF
:100480000C5CFF2C01D10133DBB20130F5E7C04633
:100490005F08001070B5074B1D78681CC0B2FFF7ED
:1004A000E3FF04002800FFF7DFFF013C201AC0B281
:1004B00070BDC0462813001010B5FFF7D5FF034BE1
:1004C000185CFE3843425841C0B210BD5F080010AE
:1004D000034B1A78034B1A700022034B1A707047B3
:1004E0008A060010890600109F06001010B50A4BFE
:1004F0001878FFF7B9FF0023084A12180848D45C9F
:10050000D9B2FF2C02D0242B03D11900FF2343546E
:1005100010BDC4540133F2E7281300105F08001027
:1005200034080010074A002013780021002B07D060
:10053000013BDBB21370044ADB00D318186859681A
:100540007047C04693190010981900100023034A01
:100550001370034A1370034A13707047AA06001001
:100560009119001092190010044A137859424B4116
:1005700013700022024B1A707047C0462100001011
:1005800091060010054B1A78002A02D000221A703A
:10059000704701211970024BF9E7C046910600101F
:1005A000210000100022014B1A707047A9060010AC
:1005B00002000020030010B5074C934204D2215CD6
:1005C000002901D0FF2800D110BD0130C0B20A2996
:1005D000F3D10133DBB2F0E7850000100023054AB8
:1005E000D15C581C002901D0FF2B01D1C0B270474B
:1005F000C3B2F5E785000010002318000649CA5C65
:10060000002A01D0FF2B00D170470133DBB20A2A48
:10061000F5D10130C0B2F2E785000010084B400070
:1006200070B5C45C1B185D7820002900002207F01B
:100630002DFE29000122200007F074FE70BDC04687
:10064000B4C200000122F8B508210600100007F02E
:1006500069FE0724082700223900012007F062FE06
:10066000320001252241022100202A4007F05AFED3
:100670002A003900280007F055FE013CEBD2F8BDF6
:10068000002210B504001100022007F04BFE2000EC
:10069000FFF7D8FF10BD0000A022FF21520010B5C7
:1006A000094808F0A4FA202300200021074A013B52
:1006B000DBB203C2002BFAD1054A1370054A13704E
:1006C000054A137010BDC0465F08001020110010CD
:1006D000281300102A13001029130010F8B5551C18
:1006E00086180C001700451908F0B9FAC21B310032
:1006F0002800013208F09DFA3470F8BD30B50E4C78
:1007000085B0039323780D4D009001910292072B41
:1007100007D9702228000A4908F08BFA2378013B98
:10072000237020781022431C00016946281823708A
:1007300008F03CFA05B030BDDC050010E005001003
:10074000F005001010B50B4B197800290BD00A4C9E
:100750000A4B0139090110222000591808F026FA25
:100760000FCCFFF7CBFF0023054A1370054A137027
:1007700010BDC046DC050010B0060010E0050010FA
:10078000DB050010DA05001010B5FFF7DBFFFFF7FF
:10079000D9FF0122034B1A700023034A1370034A46
:1007A000137010BDA7060010AD0600101F11001039
:1007B00030B5002204000D00002385B0009401959F
:1007C00002920393009801990022039BFFF796FF82
:1007D0002000290005B030BDC02010B50249C00579
:1007E000FFF7E6FF10BDC046FB210940802110B590
:1007F0000020C905FFF7DCFF10BD00001FB5002277
:1008000000230092019300220020054B01990292DF
:100810000393039B0200FFF771FF05B000BDC046C4
:100820000000F03F10B5024B0FCBFFF767FF10BD84
:10083000B006001010B5024B0FCBFFF75FFF10BDE5
:1008400040130010F8B5070020200E001400FFF739
:100850000BFEA02305005B0098420BD23800FFF787
:1008600003FE24182A1B044D601C6119401908F06E
:10087000E0F92E55F8BDC0465F080010F8B5060037
:100880000120FFF7F1FD471E04002020FFF7ECFDDB
:10089000054D0130021B7919601908F0CAF90022D0
:1008A000024BEE551A70F8BD5F0800108E0600105E
:1008B000F8B50C4F06003B780D000B4C032B08D904
:1008C000210018222000083108F0B3F93B78013BE1
:1008D0003B703B785A1CDB00E4183A702660656078
:1008E000F8BDC046931900109819001010B5094BB7
:1008F0001B78002B07D0084A013BDB00D31818688F
:100900005968FFF7D5FF0023044A1370044A137097
:1009100010BDC0469319001098190010AA060010C7
:100920009219001010B5FFF7FDFD002342428B41E4
:1009300010001900FFF7BCFF10BD000070B5FFF7F5
:10094000F1FD05000C00FFF7EDFD074B1B78002BB8
:1009500003D06422002308F065FD2A00230008F07C
:100960003DFDFFF7A5FF70BD2100001070B5FFF73A
:10097000D9FD0D000400FFF7D5FD00196941FFF70F
:1009800097FF70BD10B5FFF7CDFFFFF7EFFF10BD6C
:1009900070B5FFF7C7FD05000C00FFF7C3FD284049
:1009A0002140C043C943FFF783FF70BDF8B5040081
:1009B0000025074E8322330083331F78310005481A
:1009C000013508F036F93770A542F2D1F8BDC046BE
:1009D0002012001021120010F8B5040008F03FF9B1
:1009E0000023C7B2661EDAB2E118BA4203D25A1C1B
:1009F000B55C202D06D0C2B2D21A2000013208F018
:100A0000D5F8F8BD1300EEE770B5851808000C00A6
:100A100008F025F921000200280008F0C7F870BD91
:100A2000F0B5002489B003221A49019004AF03A84D
:100A30003C7108F0BBF80622174906A808F0B6F882
:100A4000E5B20321280008F015FB144BC6B21E7056
:100A5000019BA10059180422380008F0A7F82800CB
:100A6000032108F08DFB03ABC9B25D5C06ABE05C13
:100A7000290080383200C0B20635FFF721FB01346F
:100A800032003800E9B2FFF791FB062CD8D109B04B
:100A9000F0BDC04678BA00007CBA000061060010C4
:100AA00070B5C2000400002100200E4B9B18186096
:100AB00059602000FFF7D8FC0B4E0500335CFF2B7C
:100AC0000ED00134E0B2FFF7CFFC04002020FFF786
:100AD000CBFC611E0130021B8919A81908F066F8C9
:100AE00070BDC046201100105F08001010B50C004A
:100AF000FFF7BAFC24182020FFF7B6FC021B0348BE
:100B0000611C0918201808F051F810BD5F0800108A
:100B1000F8B505000026064C8322277820000549F9
:100B20008334013608F042F82770AE42F3D1F8BDA5
:100B30002012001021120010F8B5124B1F78781CFB
:100B4000C0B2FFF735FD104D041E104E0CD10A2324
:100B500030702B706870300008F081F801220C4B67
:100B600018700C4B1A70F8BD3800FFF721FD241ADD
:100B7000013C29182200300008F018F800233355F2
:100B8000E9E7C046901300108500001063060010CE
:100B9000620600108F06001010B58424C2B06400F5
:100BA00022006846044908F001F82200694603481B
:100BB00007F0FCFF42B010BD80BB00002012001007
:100BC000F7B516001F0002000B00009001913000E5
:100BD000390009F023FB04F067FD0022154B09F0F2
:100BE0001FFFC022144BD20509F018FB002204009D
:100BF0000D0000980199002308F0C8FB00280FD0D1
:100C0000002200233000390008F0C0FB0022094B0D
:100C1000002809D0200029000AF06EF904000D0018
:100C20002000290003B0F0BD2000290008F0BAFF21
:100C3000F4E7C04600806640FB21094013B507F089
:100C40001BF901A9684607F0BFF96B46587908F00F
:100C50005BFF084908F040FE6B46041C187908F059
:100C600053FF011C201C08F099FC0AF081FDFFF7DE
:100C70009FFD13BD0000C84210B507F065F808F0ED
:100C800043FF044908F028FE0AF072FDFFF790FDCB
:100C900010BDC04600007A440023F7B5114F124D35
:100CA0003B702B70984218D1104B01241878FFF735
:100CB000DBFB0F4E3618335DFF2B0AD06A461371EB
:100CC00000232800537101A901340AF0AFFE082C5B
:100CD000F1D1280007F0C3FF38700122054B1A70CC
:100CE000F7BDC0466206001063060010281300100E
:100CF0005F0800108F06001010B50B49040000209B
:100D0000002C0CDC013464B2012C0CD00022074B07
:100D100009F084FAF6E70022044B09F081FE013C59
:100D200064B2631CF7D110BD0000F03F0000244006
:100D300010B50B4B0400197800290AD00139C9B24B
:100D40001970084B09011022591807F02FFF2000D5
:100D500010BD00220023026043608260C360F6E79A
:100D6000DC050010E005001000B58DB06846FFF707
:100D7000DFFF04A8FFF7DCFF009A019B04980599A8
:100D800008F010FF029A039B0890099106980799B2
:100D900008F008FF0A900B910A9A089809990B9B92
:100DA000FFF7ACFC0DB000BD10B500200249FFF705
:100DB000FFFCFFF7D9FF10BD0000F03FF0B589B090
:100DC0006846FFF7B5FF009C019D029E039F22002D
:100DD0002B003000390009F021FA32003B0009F005
:100DE0001FFE22002B0008F0DDFE02000B00002099
:100DF000114909F013FA3200049005913B002000DC
:100E0000290009F00BFA22002B0009F009FE32003C
:100E10003B0008F0C7FE02000B000020074909F064
:100E2000FDF906900791069A04980599079BFFF72C
:100E300065FC09B0F0BDC0460000F03F0000F0BF07
:100E4000F0B593B006A8FFF773FF069B079C0AA8AE
:100E500000930194089C099DFFF76AFF0A9E0B9F6F
:100E60000C9A0D9B009801990292039332003B006B
:100E700009F0D6FD029A039B0490059120002900F9
:100E800009F0CEFD02000B00049805990AF034F831
:100E900032000E900F913B002000290009F0C0FDA8
:100EA000029A039B04000D000098019909F0B8FD17
:100EB00002000B002000290008F074FE1090119130
:100EC000109A0E980F99119BFFF718FC13B0F0BD04
:100ED00010B5FFF773FFFFF7B3FF10BD064B10B55A
:100EE0000FCBFFF70BFC054B18780AF01BFCFFF744
:100EF0005FFCFFF7EDFF10BD50130010381300101A
:100F000010B5FFF71FFCFFF79BFF10BD10B50020C9
:100F10000249FFF74DFCFFF793FF10BD0000594059
:100F200000B589B06846FFF703FF009A019B802057
:100F30000399049205930006029A0B1806920793F0
:100F400004980599069A079BFFF7D8FB09B000BDE6
:100F500000B589B06846FFF7EBFE029A039B049246
:100F60000593009A019B0692079304980599069AA7
:100F7000079BFFF7C3FB09B000BD00001FB5064C7F
:100F80006846FFF7D5FE69461022200007F00EFEE6
:100F90000FCCFFF7B3FB1FBD4013001000B589B0A5
:100FA00004A8FFF7C5FE049805990AF055FB40B266
:100FB000FFF7A2FE0022002300900191029203930A
:100FC000009800220199039BFFF798FBFFF738FF79
:100FD00009B000BDF0B504003E4D8DB00A281CD10B
:100FE0003D4B1B78002B18D13C4B1A78002A01D1BD
:100FF00001321A702B78002B0DD1394C2378002B3D
:1010000002D06846FFF794FE00200021FFF7D0FBD6
:10101000012323702B700DB0F0BD2B78002B0ED167
:101020002F4E3378002B02D06846FFF781FE200058
:101030000AF078FBFFF7BCFB01233370EAE7274E89
:101040003578002D21D004A8FFF772FE6B1C68B222
:101050003370FFF751FE06000F0020000AF032FB4C
:1010600032003B0009F0DAF8049A059B08F09AFD7B
:1010700000240023089009910A930B940898099979
:101080000A9A0B9BFFF73AFBC5E708A8FFF750FE4B
:1010900008980999104B00221B78002B18D1114B8E
:1010A00009F0BEFC060020000F000AF00BFB020056
:1010B0000B003000390008F075FD00240023049077
:1010C00005910693079404980599069A079BD9E71A
:1010D000054BE5E7DB05001091060010DA0500106E
:1010E00095060010000024400000304010B5064B6B
:1010F0001B78002B03D00122044B1A7010BD0A206C
:10110000FFF768FFFAE7C046910600108806001056
:1011100010B50920FFF75EFF10BD10B50820FFF7DE
:1011200059FF10BD10B50720FFF754FF10BD000098
:1011300010B5054C0F202378002B00D10938FFF79C
:1011400049FF0023237010BD8806001010B5054C20
:101150000E202378002B00D10938FFF73BFF002336
:10116000237010BD8806001010B5054C0D202378A3
:10117000002B00D10938FFF72DFF0023237010BD8D
:101180008806001010B5054C0C202378002B00D1E8
:101190000938FFF71FFF0023237010BD88060010D9
:1011A00010B5054C0B202378002B00D10938FFF730
:1011B00011FF0023237010BD8806001010B5054CE8
:1011C0000A202378002B00D10938FFF703FF002302
:1011D000237010BD8806001010B50020FFF7FAFE3E
:1011E00010BDF0B589B06846FFF7A2FD00980199DF
:1011F000029C039D04F0F2FC06000F002000290071
:1012000004F0ECFB32003B0009F00AFC049005916D
:101210002000290004F090FC32003B0009F000FCA3
:1012200006900791069A04980599079BFFF766FABE
:1012300009B0F0BD10B5FFF7D4FFFFF783FAFFF751
:10124000BDFDFFF791FDFFF7D1FAFFF741FE10BD9D
:101250001FB5074B1B78002B06D06846FFF768FDCB
:101260000098019905B000BD00200021FAE7C046B2
:10127000DC05001010B5FFF7EBFF0AF0EDF9942341
:10128000421F5B009A4201D2014B187010BDC0464C
:101290002200001010B5FFF7DBFF08F00FF908F08F
:1012A00049F9FFF785FA10BD70B5FFF7D1FF0500CA
:1012B0000C00002200232800210008F067F8002815
:1012C00002D080231B06E41828002100FFF770FAE3
:1012D00070BD000010B5FFF7BBFFE0220B4B1206FC
:1012E00009F00AFEFFF764FA094B0A4A18605960D0
:1012F00000210020084B1860596000230121137061
:10130000064A1170064A137010BDC0464D62603F18
:10131000301300101F11001080060010A6060010E8
:101320008C06001010B520220021134807F05FFC46
:10133000FFF78EFF114C20606160FFF789FFFFF718
:1013400037FA02000B000E490A604B6020686168A2
:1013500009F0D2FD00220B4B08F060FF01220A4B7E
:1013600018605960094B1A700023094A1370094A22
:101370001370094A137010BDD4060010C80600107F
:10138000C006001000003F40780600109C060010C8
:101390008C060010AD0600101F11001010B5FFF7ED
:1013A00057FF8022034B120608F038FFFFF700FAC0
:1013B00010BDC0465347E13F10B5FFF749FFE0229B
:1013C000034B120608F02AFFFFF7F2F910BDC046E2
:1013D00045E2E33F10B5FFF73BFF8022034B1206C7
:1013E00009F01EFBFFF7E4F910BDC046EB510440C5
:1013F00010B5FFF72DFF0022024B09F011FBFFF79C
:10140000D7F910BD86480E4010B5FFF721FF002226
:10141000054B09F071FDC022044B120608F0FEFED8
:10142000FFF7C6F910BDC04600004040CCCCFC3FE1
:1014300010B5FFF70DFF8022034B920508F0EEFE7A
:10144000FFF7B6F910BDC04611A3014010B5FFF774
:10145000FFFE0022054B09F0E3FAC022044BD2053F
:1014600008F0DCFEFFF7A4F910BDC046008066401E
:10147000FB210940F7B5FFF7EBFE1D4A1D4B08F0B5
:1014800091FB0D0004000AF0E7F80AF01BF9009048
:10149000019102000B002000290009F02DFD00221F
:1014A000154B09F0BDFA0D0004000AF0D5F80AF05A
:1014B00009F906000F0002000B002000290009F0C6
:1014C0001BFD00220C4B09F0ABFA00220B4B08F07D
:1014D000A5FE32003B0008F065FB0022074B08F038
:1014E0009DFE009A019B08F05DFBFFF761F9F7BDD7
:1014F000BBBDD7D9DF7CDB3D0000594000004E402A
:10150000F8B5FFF7A5FE06000F00FFF7A1FE07F0F4
:10151000D5FF05000C003000390007F0CFFF284050
:101520002140C043C94308F005F8FFF741F9F8BD71
:10153000F8B5FFF78DFE07F0A3FFC4B2FFF788FEF2
:1015400007F09EFFC5B200202C1B0B49E4B201340A
:10155000FFF72EF9631EDBB29D4200D8F8BDFFF7FE
:1015600077FE06000F0020000AF0ACF832003B00C6
:1015700009F056FAEBE7C0460000F03FF8B5FFF778
:1015800067FEFFF715F907F07BFF0124C5B2FFF7EF
:10159000CFFFAC4200D9F8BDFFF75AFE060020008D
:1015A0000F000AF08FF802000B003000390008F03D
:1015B00035FE0134FFF7FCF8E4B2EAE710B5FFF7B7
:1015C00047FE8022034B120609F02AFAFFF7F0F8D3
:1015D00010BDC0465347E13F10B5FFF739FEE0228A
:1015E000034B120609F01CFAFFF7E2F810BDC046E3
:1015F00045E2E33F10B5FFF72BFE8022034B1206B6
:1016000008F00CFEFFF7D4F810BDC046EB510440C3
:1016100010B5FFF71DFE0022024B08F0FFFDFFF79B
:10162000C7F810BD86480E4010B5FFF711FEC02266
:10163000054B120609F0F4F90022044B08F0B2FA47
:10164000FFF7B6F810BDC046CCCCFC3F00004040D0
:1016500010B5FFF7FDFD8022034B920509F0E0F97C
:10166000FFF7A6F810BDC04611A3014010B5FFF763
:10167000EFFDC022054BD20509F0D2F90022044B40
:1016800008F0CCFDFFF794F810BDC046FB210940DF
:1016900000806640F0B585B0FFF7DAFD0022284BE8
:1016A00009F0BEF9274A284B08F07CFA0022244BA7
:1016B00004000D0008F0B2FD09F0CEFF0AF002F8B8
:1016C00000221F4B0090019109F0AAF902900391AA
:1016D00002000B002000290009F00EFC00221B4B29
:1016E00008F09CFD09F0B8FF09F0ECFF0022174B51
:1016F00006000F0009F094F902000B0020002900F9
:1017000009F0FAFB029A039B09F0F6FB0022104B4A
:1017100008F084FD002204000D00300039000D4B5C
:1017200008F07CFD009A019B08F03CFA02000B00D7
:101730002000290008F036FAFFF73AF805B0F0BDAE
:101740000020AC40BBBDD7D9DF7CDB3D00004E4064
:101750000088C3400000594030B5264A264B127815
:101760001B7885B0002A19D0002B0ED0FFF770FD32
:101770000022224B09F054F907F0A0FE0B000343AE
:1017800035D1FEF76DFD05B030BD6846FFF7D0FAE4
:10179000102269461A4807F009FAF4E7002BF4D042
:1017A000184A107800281BD0431EDBB21370002BA0
:1017B000E9D0023840B2FFF79FFA04000D00FFF7AE
:1017C00047FD22002B0009F02BF907F077FE07F008
:1017D000B1FE22002B0008F021FDFEF7E9FFD2E761
:1017E000FFF736FD0022084B08F018FDC4E707F0AC
:1017F000A1FEF2E791060010DB0500100000B03FEB
:10180000B0060010DA0500100000244010B5FFF704
:101810001FFD07F035FEC0B2072803D8024B187031
:1018200006F00AF910BDC0469D01001010B5FFF783
:101830000FFD07F025FEC0B23F2803D8024B1870F9
:1018400006F0FAF810BDC046C81A001010B5040022
:1018500074280CD9212C17D0FEF702FD193CE4B2F4
:101860000B2C11D80D4BE340DB0716D40CE00C4BCE
:101870001A78272353430B4A1B189B009B58984701
:101880000A2CEBD9122CE5D10023074A1370044A25
:101890001370064A1370064A137010BD210C000025
:1018A0008C060010A0BC00009D06001093060010DE
:1018B00092060010F0B52E4AC30085B0D3181A68FE
:1018C0005B68040000920193FEF7CEFD0500FEF771
:1018D000C7FCFEF77BFD274B6E1C5F5DFF2F10D111
:1018E000FFF7B6FC224BE4001C1920606160009AEF
:1018F000019B09F001FB02000B0009F091F805B013
:10190000F0BDFD2F1DD11C4F9E5D3B780235042B91
:1019100007D91A480422411C07F08BF93B78013B98
:101920003B70154A1378591C1170144AD654104B49
:10193000F6009E1930687168FEF73AFF2E003500F8
:10194000C9E70F4B06221D7827230E4902A85D43E5
:1019500007F02CF900237D19EDB202AAD25CAA424D
:10196000EDD00133062BF8D13800FFF76FFFE6E723
:10197000201100105F080010590800105A080010CC
:101980008C06001083BA0000F8B52025002400263C
:1019900000272000FEF790FD00280AD12000FFF765
:1019A00089FF02000B003000390008F0FBF8060048
:1019B0000F000134E4B2202CEBD1E02230003900DA
:1019C000054B120607F0E2FC002803D1013DEDB201
:1019D000002DDBD1F8BDC0464D62503F70B50D4EB5
:1019E00034782000FEF740FD0B4B1B5CFF2B02D030
:1019F0002000FFF755F80024084D013DE2B2013404
:101A0000295DFF2902D1FFF7BFFF70BD3078FEF7D7
:101A100019FFF3E7281300105F08001034080010C6
:101A2000F7B5012006F0D6F804002220002C1DD1C5
:101A30002500174B0193019B01221E785F7830002F
:101A4000390006F023FC39003000002206F06AFC61
:101A5000271D104EFFB2F179B07906F039FC00284D
:101A600005D12800FEF7DAFD0B4B185DFEBD0134F1
:101A7000E4B2023EA742EED12800FEF7CFFD019B63
:101A800001350233EDB201930A2DD4D1FF20EDE7E9
:101A9000B4C20000ACC2000084C2000070B50024D3
:101AA000FFF7BEFF0500012006F010FEFF2D00D05D
:101AB00000240134E4B2032CF2D170BD00B50C4B0C
:101AC00089B01B78012B11D96846FFF731F904A8BA
:101AD000FFF72EF900980199029A039BFEF70EFE7C
:101AE00004980599069A079BFEF708FE09B000BD09
:101AF000DC05001010B5FFF7E1FFFFF7A9FB124C62
:101B000020606160FFF7A4FBFEF752FE2268636865
:101B100009F0F2F900220D4B08F082FF00220C4B75
:101B200008F07CFB0B4B012218605960002000215B
:101B3000094B18605960094B1A700023084A13704A
:101B4000084A137010BDC046C00600100000E03FF8
:101B50000000244078060010800600109406001053
:101B60008C0600101F11001000B58BB0FEF74AFB69
:101B7000002815D006A8FFF7DBF880200799069A01
:101B800000060B180292039300220023049205938F
:101B9000002202980399059BFEF7B0FD0BB000BD33
:101BA00002A8FFF7C5F8802000068446039B029A2E
:101BB0000193019961440B00059906920793049AD9
:101BC0000B180892099306980799089A099BE3E76E
:101BD00010B5FFF7C9FFFFF7C7F810BD10B5FEF746
:101BE000B1FDFFF757FBFFF7F3FF10BD10B5002065
:101BF0000249FEF7DDFDFFF7EBFF10BD0000F03FEF
:101C0000274B70B50FCBFEF779FD264E307809F0E3
:101C100089FDFEF7CDFDFFF713F9234C20686168BD
:101C2000A268E368FEF76AFD204D28686968AA6823
:101C3000EB68FEF763FDFFF703F9FFF7C9FF1C4BE5
:101C40000FCBFEF75BFD307809F06CFDFEF7B0FDC1
:101C5000FFF7F6F820686168A268E368FEF74EFDBA
:101C6000FEF770FDFFF7ECF8FFF7B2FFFFF730F972
:101C7000FEF768FD0FCCFEF741FDFFF7E1F8FFF737
:101C800073FF0FCDFEF73AFDFFF76EF8307809F0DD
:101C900049FDFEF78DFDFFF71BF9FFF70FFF70BD44
:101CA0007013001038130010501300108013001030
:101CB0006013001010B5FFF794FAFEF743FDFFF72D
:101CC0007DF8FFF751FFFFF74FF8FEF78FFDFFF7A5
:101CD000FFF810BD00B5114B8DB01B78022B1AD93F
:101CE0006846FFF725F804A8FFF722F808A8FFF7D1
:101CF0001FF800980199029A039BFEF7FFFC0898D1
:101D000009990A9A0B9BFEF7F9FC04980599069A23
:101D1000079BFEF7F3FC0DB000BDC046DC050010CC
:101D200010B5FFF7D7FFFFF7D5FF10BD10B5FFF7D0
:101D3000C5FEFEF707FDFFF7F3FFFFF7BFFEFFF756
:101D400047FFFFF7BBFEFFF7C3F8FFF7DFF810BD53
:101D50007FB51025324E3378013B3370FEF7F2FC2D
:101D6000304CE3686168A2682068FEF7C7FCFFF7A3
:101D7000A5FEFFF72DFF6846FEF7DAFF2A00694649
:101D8000200006F013FFFEF7DDFCFEF7DBFCFFF79B
:101D900057F8254CE3686168A2682068FEF7AEFC3E
:101DA000FFF78CFEFFF714FF6846FEF7C1FF2A001D
:101DB0006946200006F0FAFEFFF780FEFEF7C2FC3F
:101DC000FFF7AEFFFFF73CF8184CE3686168A268C4
:101DD0002068FEF793FCFFF771FEFFF7F9FE6846F7
:101DE000FEF7A6FF2A006946200006F0DFFE104C31
:101DF000E3686168A2682068FEF780FCFFF75EFE7A
:101E0000FFF7E6FE6846FEF793FF2A0069462000CA
:101E100006F0CCFE307809F085FCFEF7C9FC7FBDEA
:101E200038130010501300106013001070130010CE
:101E3000801300107FB510252E4E33780133337098
:101E4000FEF780FC2C4CE3686168A2682068FEF70E
:101E500055FCFEF789FF6846FEF76AFF2A006946CF
:101E6000200006F0A3FEFEF76DFCFEF76BFCFEF70C
:101E7000E7FF224CE3686168A2682068FEF73EFC39
:101E8000FEF772FF6846FEF753FF2A0069462000FE
:101E900006F08CFEFFF712FEFEF754FCFFF740FF42
:101EA000FEF7CEFF164CE3686168A2682068FEF773
:101EB00025FCFEF759FF6846FEF73AFF2A006946FF
:101EC000200006F073FE0F4CE3686168A26820688A
:101ED000FEF714FCFEF748FF6846FEF729FF2A00CC
:101EE0006946200006F062FE307809F01BFCFEF720
:101EF0005FFC7FBD381300105013001060130010FA
:101F0000701300108013001070B5124B1B78002B5B
:101F100012D0FEF707FB05000C00FEF703FB0200E2
:101F20000B002800210007F07DFA6422002307F04F
:101F300055FAFEF7BDFC70BDFEF7F4FA05000C0083
:101F4000FEF7F0FA02000B002800210007F06AFA01
:101F5000EFE7C0462100001010B51A4B1B78002B8C
:101F600016D0FEF7DFFA43B2020601D5404243B273
:101F700001200021013B5BB25A1C04D1FEF798FC02
:101F8000FFF7C2FF10BD020F090111430001F1E785
:101F90000D4B1B78002B0FD0FEF7C4FA64220023F0
:101FA00007F01CFA40B2FEF7A7FE0022074B08F02C
:101FB00037FD07F083FAE1E7FEF7B4FA40B2FEF727
:101FC0009BFEF6E79106001021000010000059402A
:101FD00070B50D4B1B78002B03D00C4B01221A70EF
:101FE00070BD0B4C2378002B0CD10A4D2B78002BA5
:101FF00001D0FEF797FA00200021FEF759FC0123DB
:102000002B702370044BE9E791060010880600103E
:102010009219001091190010AA060010F7B5364A5F
:10202000364E127833780190002A26D0002B3FD00C
:10203000FEF778FA6422002305000C0007F0CEF9C1
:102040000A22002307F0EEF906000F002800210005
:102050000A22002307F0C2F9002530003900D4B26B
:1020600000230A220019694107F0DCF92B00019ACC
:1020700080185941FEF71CFC1AE021491500097827
:10208000019C0091002B17D11E4F3B78002B01D0F3
:10209000FEF748FA009B002B0BD06422002320009F
:1020A000290007F0BFF9FEF703FC01233B703370F2
:1020B000F7BD20002900F6E7009B002B0CD0FEF7AF
:1020C00031FA0A22002307F089F9642200196941D4
:1020D000002307F0A7F9CDE7FEF724FA0A4B1022F8
:1020E0001E780023002E01D10A22002307F09AF95E
:1020F00000196941BEE7C046AA06001092190010F7
:1021000021000010911900109106001010B509204F
:10211000FFF784FF10BD10B50820FFF77FFF10BD4B
:1021200010B50720FFF77AFF10BD000010B5054C71
:102130000F202378002B00D10938FFF76FFF002311
:10214000237010BD8806001010B5054C0E202378B2
:10215000002B00D10938FFF761FF0023237010BD69
:102160008806001010B5054C0D202378002B00D1F7
:102170000938FFF753FF0023237010BD88060010B5
:1021800010B5054C0C202378002B00D10938FFF73F
:1021900045FF0023237010BD8806001010B5054CC4
:1021A0000B202378002B00D10938FFF737FF0023DD
:1021B000237010BD8806001010B5054C0A20237846
:1021C000002B00D10938FFF729FF0023237010BD31
:1021D0008806001010B50020FFF720FF10BDF7B5EE
:1021E000FEF7A0F907000E00FEF79CF900900191A0
:1021F000FEF798F905000C0038003100FEF758FB97
:1022000028002100FEF754FB00980199FEF750FBCF
:10221000F7BDF8B5FEF786F907000E00FEF782F964
:1022200005000C0038003100FEF742FB28002100B9
:10223000FEF73EFBF8BD0000F0B58DB0FDF7E2FF04
:10224000002810D0FFF704F8C0222C4BD20508F06C
:10225000E7FB00222A4B07F0E1FF03F06DFCFEF7DD
:10226000A7FA0DB0F0BD04A8FEF762FD0698079925
:10227000049C059D03F0B2FC06000F00200029001D
:1022800003F05AFC3200029003913B0000201D49EC
:1022900007F0C4FF0090019102000B0030003900EC
:1022A00007F080FC029A039B08F0BAFB0022164B51
:1022B00008F0B6FB08900991C02022002B001349BA
:1022C000C00508F019FE03F037FC009A019B0400DA
:1022D0000D003000390008F00FFE22002B0008F03E
:1022E0009FFB0022084B08F09BFB0A900B910A9A77
:1022F000089809990B9BFEF701FAB2E7FB21094008
:10230000008066400000F03F0000E03FFB21F93F05
:10231000F0B58DB0FDF776FF002810D0FEF798FFDE
:10232000C0222E4BD20508F07BFB00222C4B07F07D
:1023300075FF03F053FBFEF73BFA0DB0F0BD04A8A8
:10234000FEF7F6FC06980799049E059F03F046FCED
:102350000400C0200D0032003B002249C00508F0F7
:10236000CBFD03F0E9FB2200029003912B0000203B
:102370001D4907F053FF0090019102000B0020005F
:10238000290007F00FFC029A039B08F049FB00228A
:10239000164B08F045FB089009913000390003F016
:1023A000CBFB80231B06CE180700009A019B200060
:1023B000290008F0A1FD02000B003800310008F0F0
:1023C0002FFB0022094B08F02BFB0A900B910A9A75
:1023D000089809990B9BFEF791F9AEE7FB2109409C
:1023E00000806640FB21F93F0000F03F0000E03F25
:1023F00070B5064C0500200006F031FC691C421B3C
:102400006118601906F0D2FB70BDC046630600106B
:1024100070B50D0004000A21280006F0B1FE30312D
:1024200020236170092D0AD90A21280006F022FE16
:102430000A21C0B206F0A4FE0B003033DBB22370D9
:1024400070BD000010B5FFF739FBFEF77BF9FFF711
:1024500067FC00200349FEF7ABF9FEF739FDFEF7F4
:10246000EFFC10BD00005940F0B52C4B85B00700C3
:1024700018780291FDF7F8FF00231C001D0003905F
:102480000193039BE918264B5A5CFF2A02D101985D
:1024900005B0F0BDFD2A22D1212CF2D85B18032112
:1024A0005B783A1919409B08313353704131029BD4
:1024B0001170A21CD2B2002B0DD01A4B1B78002B2E
:1024C00009D0023B9D4206D103347F213800E4B29B
:1024D000FEF704F9220002351400EDB2D1E7222CF8
:1024E000CFD8114B661C9B5CF6B23B55029B002B70
:1024F0000FD00C4B1B78002B0BD0013B9D4208D119
:10250000023432007F213800E4B2FEF7E7F801968A
:10251000260001353400EDB2B3E7C04628130010A1
:102520005F08001060060010C8C2000070B50024EB
:102530008AB003AD18222021280006F058FB20495C
:1025400001AE0622300008312C7606F02FFB1D4B21
:102550001A78A24210D0335D1B49A2009B002800CC
:10256000D2B2C9180134FEF74FFA062CF3D1280075
:10257000FEF756FA0AB070BD144B1C78002C0DD033
:102580001400335D1249A2009B002800D2B2C91882
:102590000134FEF739FA062CF3D1E8E70D4A127838
:1025A000002AE4D0335D0C49A2009B002800D2B27F
:1025B000C9180134FEF728FA062CF3D1D7E7C04634
:1025C00080BC00009A060010230000109F06001037
:1025D0006D000010A806001085010010F0B54A4EED
:1025E0008DB03378002B41D0FDF70CFE00283DD094
:1025F000FEF72EFE337804000D00002B30D0FDF7DF
:1026000001FE00282CD0FEF723FE404B1B78002B48
:102610000AD0089409950A900B91089809990A9A8A
:102620000B9BFEF76BF81FE0C022394BD20508F078
:10263000F7F90022374B07F0F1FD06000F0003F019
:10264000CDF922002B0008F0EBF908900991300039
:10265000390003F071FA22002B0008F0E1F9DAE703
:1026600020002900FEF7A4F80DB0F0BD6846FEF783
:102670005FFB009C019D029E039F244B1B78002B57
:1026800014D0002200230496059716001F0006921E
:102690000793069A079B04980599FEF72FF83200D6
:1026A0003B00089409950A920B93B6E732003B0071
:1026B00020002900FEF784FA0022002304900591EF
:1026C0000692079304980599069A079BFEF716F859
:1026D00022002B002000290008F0A2F9320004009B
:1026E0000D003B003000390008F09AF902000B00A1
:1026F0002000290007F056FA03F0DEFA002200233A
:1027000008900991CFE7C046DC05001020000010BA
:10271000FB21094000806640F0B58BB002A8FEF7AF
:1027200007FB029E039F049C059D32003B00300086
:10273000390008F075F92200009001912B0020006B
:10274000290008F06DF902000B000098019907F0CC
:1027500029FA03F0B1FA03F079FA22000690079102
:102760002B0030003900FEF72BFAC022084BD205AF
:1027700008F056F90022074B07F050FD0890099128
:10278000089A06980799099BFDF7B8FF0BB0F0BDB2
:10279000FB2109400080664010B5FFF7BDFF002017
:1027A0000349FEF705F8FFF7B7FFFEF791FB10BDF1
:1027B0000000244010B5FEF7F7FAFDF7C3FFFDF760
:1027C000C1FFFDF7BFFFFDF7BDFF00201849FDF772
:1027D000EFFFFEF735FBFFF771F900201549FDF714
:1027E000E7FFFEF72DFBFEF7E9FAFFF7F1F9FEF739
:1027F000E5FAFEF7B9FAFFF78FFFFFF7F7F9FEF7F3
:102800001FFBFFF75BF9FFF787FFFFF7ADF9C0206C
:102810000949C005FDF7CCFFFFF77EFFFEF7A4FADC
:10282000FDF7E4FFFEF754FBFEF79EFA10BDC0462D
:102830000000284000002440FB21194030B58DB035
:102840006846FEF775FA04A8FEF772FA049805992F
:102850000022002306F094FD0024002500282AD041
:102860000698079922002B0006F08AFD002822D046
:102870000098019922002B0006F082FD002815D057
:102880000298039922002B0006F07AFD00280DD053
:102890001022124908A8891806F088F908980999A1
:1028A0000A9A0B9BFDF72AFF0DB030BD08940995DD
:1028B0000A940B95F2E704980599069A079BFDF791
:1028C0001DFFFFF729FF00980199029A039BFDF76E
:1028D00015FFFEF7B5FAFEF784FCE5E780BC0000C3
:1028E00010B5FFF7EBF800200D49FDF761FFFEF78B
:1028F000EFFAFDF727FFFFF7EDF9FEF755FAFFF7BF
:10290000DDF8FFF79BFFFDF71DFFFFF76FF9FFF7FE
:10291000D5F8FEF7DDFAFFF7D1F8FEF7D9FA10BDCA
:102920000000594010B500200449FDF741FFFFF7B2
:10293000F3FEFEF785FAFEF754FC10BD00002440BC
:102940001FB56846FEF7F4F90098019900220023AC
:1029500006F016FD002805D000200021FDF728FF15
:1029600005B000BD029A039B00980199FDF7C6FED1
:10297000FFF7D2FE00200449FDF71AFFFEF760FAC8
:10298000FEF72FFCECE7C0460000E03F10B5FFF774
:1029900095F8FDF72BFFFEF79BFAFDF7D3FEFDF749
:1029A000D1FEFEF74DFAFFF7BBF9FFF711F9FFF77C
:1029B000C7FFFDF7C7FEFFF7B3F9FFF7D5F8FDF73F
:1029C000C1FEFFF7ADF9FEF7CFF9FFF783F9FFF787
:1029D00075F8FFF7FDF810BD10B5FEF77FFAFDF7AB
:1029E000B1FEFEF72DFA0E4C207808F09BFEFDF7A5
:1029F000DFFEFEF725FAFFF7B7F80A4B0FCBFDF71E
:102A00007DFEFEF7B1F9207808F08CFEFDF7D0FED0
:102A1000FFF7ECF8FEF75CFAFFF792FF10BDC04637
:102A2000381300106013001010B5FDF78BFEFEF791
:102A300067FAFFF799F8FEF7B7F9FFF781FFFFF79D
:102A40003DF8FDF7DBFEFEF7FBF9FEF78DF9FFF72A
:102A500063FEFDF7D3FEFFF787F8FEF7F1F9FDF708
:102A6000D1FB00280CD0FEF7F3FB0022054B07F04A
:102A7000D7FFC022044BD20507F0D0FBFDF798FE2C
:102A800010BDC04600806640FB21094010B5FFF72D
:102A9000CBFFFFF769F8FDF7B5FB002806D0002053
:102AA0000449FDF785FEFEF75FF910BDC02002491D
:102AB000C005F6E700805640FB21F93F10B5FDF751
:102AC00041FEFEF71DFAFEF76FF9FFF739FFFEF73B
:102AD00075F9FEF7B5F9FFF7A7FF10BD10B5164B56
:102AE0001B78002B0AD0FDF72DFEFFF7E3F8FEF769
:102AF000E5FFFEF79FFBFEF7EBF913E00F4B1B78AA
:102B0000002B10D0FDF71EFEFEF74EF9FEF7D6FFA4
:102B1000FFF72AF8FEF748F9FEF7DAF9FFF710FF9A
:102B2000FFF7FAFD10BDFDF70DFEFFF785FBFEF781
:102B3000C5FFFFF7EDFBDEE79206001093060010DD
:102B400010B50D4B1B78002B02D0FEF773FB10BDA8
:102B50000A4B1B78002B0CD0FDF7F4FDFEF7D0F9E3
:102B6000FFF744F8FFF7ECFEFEF7FEF8FFF7D4FDA1
:102B7000EDE7FFF7CDFBEAE79206001093060010A1
:102B800010B50D4B1B78002B02D0FFF793F810BD4A
:102B90000A4B1B78002B0CD0FDF7D4FDFEF7B0F9E3
:102BA000FEF702F9FFF7CCFEFEF7DEF8FFF7B4FD03
:102BB000EDE7FFF741FBEAE79206001093060010ED
:102BC000F0B58FB00BAC0190029105922021082244
:102BD0002000089306F00BF800232372734B0022A9
:102BE0001B780493002B3CD000230198029906F037
:102BF000CDFB8022029B12069D18002800D11D00EB
:102C0000290000226A4B019806F0C0FB0BAD00289A
:102C100008D030232B702000089A0599FDF7C6FADA
:102C20000FB0F0BD0198029906F066FC0F27030073
:102C30000DA81A000A4300D1FAE2A84203D15D4967
:102C400006F015F8E7E71E003E4032003032392A20
:102C500000D92732013802701B090A0713430909FA
:102C6000E7E700230198029906F090FB019D0028F8
:102C700059D080220A27029B12069C1821004E4A36
:102C80004E4B019806F0A0FB00282BD121004C4AA6
:102C90004C4B019806F084FB002807D0002200234B
:102CA0002100019806F086FB00281BD1019A230021
:102CB0001000210008F0B2FC002813D101226600A8
:102CC00076083100404B0198524208F0A7FC0028DA
:102CD0002CD1012231003C4B0198524206F060FB9E
:102CE000002823D133490BA805F0C1FF0BA8FDF73D
:102CF00073FE06260BAD2878002800D190E7334BF1
:102D000005991C782E2804D1091BC9B20A1BD3B21D
:102D100005937443089AFDF7D3F9059B01351C19F7
:102D2000E3B20593E7E70127029CA7E72100244AC5
:102D3000244B019806F02AFB00281AD12100244ACE
:102D4000244B019806F040FB002800D184E13800B4
:102D500008F0B8FC02000B0000201F4907F05EFAE3
:102D600002000B000198210006F010FB002800D1A2
:102D700072E1002200232100019806F001FB0028E7
:102D800000D108E130230BAA1370144B19780029E5
:102D900001D02E2313700123302001E0D0540133E1
:102DA000DCB2A142A2D9082BF8D19FE7910600100E
:102DB0000000F03F8ABA00007DC39425AD49B254AB
:102DC0003EC3D84E7D7F612BFFFFEF7F1B000010BD
:102DD000FCA9F1D24D62503FD0126341DA050010D8
:102DE00028002100964B002207F01AFE0C00050077
:102DF0000398013843B20393002228002100914B2D
:102E000006F0C4FA0028EBD16B461B7B0022079327
:102E1000280021008B4B06F0D7FA002209900028E9
:102E200000D0BAE000230299019806F0AFFA431EE1
:102E300098410723181AC3B20693FDF75DFF0200FD
:102E40000B002800210007F0EBFD00227E4B06005E
:102E50000F0006F0A7FE08F0FFFB39000400300069
:102E600008F0FAFB0A2705002000099E002800D080
:102E70009FE00A27002D00D0A1E0049BB34208D2B6
:102E800020000A2106F080F904000798013043B2BF
:102E900003936B461D7B069B581B40B2FDF72CFF2E
:102EA00006000F00200008F00DFC3B00320007F088
:102EB000B5F908F0D1FB39000490300008F0CCFBE4
:102EC0000100200006F046FA039B0C00002B13DAE9
:102ED000684240B2FDF710FF06000F00200008F026
:102EE000F1FB32003B0007F099F90022564B06F047
:102EF00059FE08F0B1FB04006B46039A1B7B002AC5
:102F000000DA0023069AD31ADBB203934F4B1B78E7
:102F10000693002B00D181E04D4B1D78002D7ED013
:102F20000BAF3D000A264B4B039A1B78D31A07932D
:102F30007B1B0399DAB291424BD80B000DACE41A1B
:102F40002E230A25013C2370049B002B6AD100220A
:102F500000230198029906F019FA002802D02D23C7
:102F6000013C2370069B002B04D0394B1B78002BAF
:102F700000D0BBE6200005F072FE00220138C0B28E
:102F80002018844200D1B1E60378302B00D0ADE6A2
:102F900002700138F5E703902EE728002100284B46
:102FA00007F03CF9050007980C00013043B2039389
:102FB0002AE73900013606F0E7F8F6B256E72800AE
:102FC000390006F0E1F8049B05000133DBB20493FD
:102FD00050E7079A20219A4205DA3100200006F0D6
:102FE000B9F93031C9B2E9712000310006F0CCF8EE
:102FF000013D04009CE72000390006F0ABF93031B8
:1030000020003170390006F0BFF804000135EDB240
:10301000039B013EAB42EED10DAC90E7069D0A2723
:103020000DAEF5E70498290006F094F9013C303123
:1030300004982170290006F0A7F8049084E7C046A0
:10304000000024400000F03F0000E03FDB050010DE
:103050009E060010DA050010002300220198029954
:1030600006F094F9431E984100270600002228002C
:103070002100714B06F08AF9002800D0A7E0002259
:10308000280021006C4B06F09FF9002800D0A8E032
:103090003B0008330730122B00D80820861BF3B200
:1030A0000393039BD81E40B2FDF726FE02000B00DF
:1030B0002800210007F0B4FC0022604B04000D0042
:1030C00006F070FD08F0C8FA29000600200008F09C
:1030D000C3FA002504003000002800D08BE0002C4B
:1030E00000D08EE0049BAB4205D230000A2106F0EE
:1030F0004BF806000137039B181F40B2FDF7FCFD9B
:103100000D000400300008F0DDFA2B00220007F06B
:1031100085F808F0A1FA29000490200008F09CFA34
:103120000100300006F016F9FB0F0D0006937C1E1F
:1031300001D50124E41B0A21200006F00BF90BAF96
:103140003031F97120000A2106F01EF80B260AAB77
:10315000F618002807D00A2106F0FCF80A263031BC
:103160000AABB971F618069A2B23013E002A00D04B
:10317000023334000A273370039B043B0693280074
:103180003900039406F0E6F8013C30312800217044
:10319000390005F0F9FF331B069ADBB205009342B4
:1031A000EDDB2E23013C23700A24039D023D049B8A
:1031B000002B30D1002200230198029906F0E6F896
:1031C000002800D192E52D23013D2B708EE52800CB
:1031D000210000221A4B07F023FC013F05000C00E0
:1031E00044E7280021000022154B07F017F80137AB
:1031F00005000C0043E70A21013505F0C5FFEDB2DB
:103200006AE720000A2105F0BFFF049B0400013398
:10321000DBB2049363E70498210006F09BF8013DBC
:10322000303104982970210005F0AEFF0490BEE70C
:103230002800FDF7D1FBEEE40000F03F0000E03F86
:1032400000002440F7B50C0015000090FDF734F99C
:10325000002822D00098FDF707F9230027001C4E14
:103260002A33DBB2361801937078FF2809D0390071
:103270002A00FCF725FF0637019BFFB201369F426B
:10328000F2D1144B009A1B78934205D1063C2A00D8
:10329000B220E1B2FCF714FFF7BD009BDA000E4B41
:1032A0009B181E685F68002200233000390006F07A
:1032B00067F8002805D02A002100CC20FCF700FF89
:1032C000DFE72B00220030003900FFF779FCD8E758
:1032D0005F080010281300102011001070B5174B64
:1032E0001C78174B1B78002B03D0032C01D9043C0E
:1032F000E4B2144B1B78002B03D0002C01D0013C0E
:10330000E4B20025104E2A00200006213570FFF798
:1033100099FF601C2A003B21C0B2FFF793FF0135E3
:10332000201D2A000621C0B205343570FFF78AFF40
:103330002A003B21E0B2FFF785FF70BD2813001083
:103340002A130010291300106106001010B50A4B53
:103350001B78002B03D00948FDF762FB10BD084B1A
:10336000084A1B781278134302D0FFF7DFF8F5E71D
:10337000FFF7B4FFF2E7C046A30600108EBA0000C4
:10338000A506001097060010F7B5FDF761FF0D00C8
:10339000040004F071FD684601A904F015FE29003F
:1033A000200006F06DF880266B461A4FC0B21880D8
:1033B000F60529002000FDF7FBF9FEF70FFC3000B1
:1033C0003900FDF7F5F9FDF7CFFCFDF79FFDFDF79F
:1033D0003FFF06F055F86B46290098702000FDF776
:1033E000E7F9FDF793FDFEF7F9FB30003900FDF733
:1033F000DFF9FDF7B9FCFDF789FDFDF729FF06F0C0
:103400003FF86B460022D87001A9684604F020FE00
:10341000F7BDC046E17A743F37B5FDF719FF0D00DF
:10342000040004F029FD684601A904F0CDFD29003F
:10343000200006F025F86B4680222900D20518717D
:103440000B4B200006F0AEFBFDF7B2F9FEF7C6FB12
:10345000FDF7FEFE0022074B07F0E2FA06F010F837
:103460006B460022587101A9684604F0F1FD37BD92
:10347000E17A743F0000594013B504F0FDFC01A946
:10348000684604F0A1FD6B46987806F03DFB1649AE
:1034900006F022FA6B46041C188806F035FB011C66
:1034A000201C06F07BF86B46041CD87806F02CFB39
:1034B0000E4906F011FA011C201C06F06FF8041CDE
:1034C000684604F0F5FD072105F044FF080006F00A
:1034D0001BFB074906F000FA211C06F05FF808F014
:1034E00047F9FDF765F913BD0000C84200401C46CE
:1034F0000050C34707B504F0BFFC684601A904F0BB
:1035000063FD6B463C205B7958436B469B79C01842
:103510000EBD10B5FEF7C2FA04F048FD04F061FAE2
:103520000020012105F0A0F8002004F053FB002842
:1035300002D1012105F098F804F0A4FA10BD0000B2
:10354000F8B572B6B120FDF79BF80020FDF798F8AA
:103550001020FDF795F8E020FDF792F80024144DB7
:1035600001222E5D0021022004F0DCFE0134300037
:10357000FDF768F8842CF2D1B020FDF781F8002027
:10358000FDF77EF81020FDF77BF88426E020FDF79C
:1035900077F876002F5D01220021022004F0C2FEA0
:1035A00001343800FDF74EF8B442F3D162B6F8BDED
:1035B00020120010F0B59FB005F076FB04F0CAFAB7
:1035C0000021DC4804F0D0FE0021DB4804F0CCFEF2
:1035D00004F02BFB01220421002004F057FE0022FE
:1035E0000421100004F09EFE01220521002004F0B9
:1035F0004DFE00220521100004F094FE002004F08E
:1036000089FDA022FF215200CC4805F0F0FAF022FB
:10361000FF21D200CA4805F0EAFAFFF76BFF00234A
:1036200007900393C74B1B68002B50D0C64B1C78E8
:10363000002C47D184222100C448520005F0D7FA5B
:10364000C34BC44D1E782C70002E00D1A9E0C24D92
:10365000C24B28001C7005F002FB002800D19AE044
:10366000BF4E7F2128003278FDF738F8280022006D
:103670000321FCF79BFD3078FEF7BAFE01220325FB
:10368000B64B1A70B74B0122187829000001203080
:103690002018C0B2FCF714FDB34B1B78A34206D12F
:1036A0000635EDB2012229007F20FCF709FD013427
:1036B0000635E4B2EDB2102CE4D1AC4B1B78002BF4
:1036C00000D1E6E1FFF73CFF00229E4B1A60A849BB
:1036D000A84F0B780093002B01D100F007FEA64AFB
:1036E000A6481378C05C3870FF2803D0312B01D86E
:1036F00000F0F6FD00230B70FEF7D0F9A04BA14AB5
:103700001B7812781343A04A127813439F4A127809
:103710001343FF220392002B02D18A4BFE3A1A6018
:10372000FFF7E8FE079B934FC01A994B1B7898420E
:1037300001D922233B703878FF2829D0039B984277
:1037400026D08B4B8E4A1B78127813438D4A127801
:1037500013438D4A127813438C4A1278134302D1D3
:103760000122784B1A608B4B1B78002B05D0824AC4
:103770001378591C1170814AD054222801D000F0CE
:10378000F1FFFF233B70FFF7C4FEFFF7B3FE079086
:10379000784B1B7845E7220003217F20FCF790FC43
:1037A0006CE77D4B1F78002F28D001257B4C7C4B8C
:1037B00022786A4FD2009B18186859680322330098
:1037C0003E70FFF7FDF92A000321B3203D70FCF79E
:1037D00077FC247814AF61193800C9B2BE70FEF7C7
:1037E00017FE2A000F213800FCF7E0FC2A002121F7
:1037F0006C4BA400E058FCF7D9FC5EE75B4B1B78F0
:10380000002B71D0684E694B1C685D683268736824
:103810002000290007F070FB02000B0020002900A7
:1038200006F0FCFC0022624B07F0FAF805F028FED7
:10383000C3B200935F4B1C685D685F4B20001A6841
:103840005B68290007F058FB02000B0020002900EC
:1038500006F0E4FC0022594B07F0E2F802000B00EE
:103860000020564907F048FB05F00AFEC3B22000CD
:1038700001240493394B022229001F703B00FFF7FB
:103880009FF94D4B3222186859683B00FFF798F9B1
:10389000324B02221C70454B186859682300FFF711
:1038A0008FF93068716823003222FFF789F93C00F4
:1038B0000F262500424B6235E15CEDB2711A2800FB
:1038C000C9B2FCF789FC013428000499FCF784FC98
:1038D000202CEED1FF2100981C4A6230C0B2131890
:1038E000843319701154E8E6364B1C78002C00D153
:1038F000A9E1354B354A1B781278134302D0FEF705
:1039000015FEDAE6324B1D78002D74D014AC192266
:103910002000304905F04AF9022D5FD120002E49E0
:1039200005F0A5F9DD23237423732000FDF778F853
:10393000C3E6C046984004409C4004405F08001025
:103940009F0900101C000010A40600102012001097
:103950008F0600108B060010630600106106001031
:1039600062060010D9050010D80500109B06001053
:1039700099060010AC060010580800103B0000101B
:10398000A6060010A7060010940600109C06001062
:1039900022000010A106001098060010D3060010A7
:1039A000F0C2000010C40000C8060010C0060010DD
:1039B0000000404000070010F806001000003040F2
:1039C000D40600109A060010A506001097060010F5
:1039D0009D0600101ABB0000A7BA0000032DA4D159
:1039E0002000D74905F043F9E02323732370013306
:1039F0002374237199E7D34AD34B12781B78002A9A
:103A00003FD00221D14A1170D14A1570002B34D019
:103A1000013B1A01CF4B9B18CF4A1868596812789E
:103A2000002A15D19C68DD6802000B0006F0F8FF43
:103A3000220006000F002B002000290006F0F0FFF6
:103A400002000B003000390006F0ACF802F034F947
:103A50000123C24C0C2223700023FFF7B1F8002190
:103A6000BF4B21701B788B4203D00A00B220FCF7B9
:103A700027FB0122B54B1A701FE600220C215F20A4
:103A8000F5E70092002B6FD1012208215F20FCF79F
:103A900017FB002612AC04222021200005F0A7F815
:103AA000B04B37001D782671B5420FD011AC04F031
:103AB000E3F9200014A904F087FA20220CAB9B182C
:103AC0001F7801320CAB9B18E5781E780022A04BC2
:103AD0001A7004F039F9AF231B01984200DBA248A9
:103AE000A24B984200DA1800A14BAF21C0180A235C
:103AF0008900584305F048FB2C23C0B25B424008C4
:103B0000181A12ABD870974B1C78002C00D1F7E232
:103B1000290012A8FEF77CFC12AD00226D212800BE
:103B2000FCF744FB01228A4B1A70002C00D134E3CD
:103B300039002800FEF76CFC0A21300005F020FB5C
:103B40003031E97030000A2105F094FA0A21C0B240
:103B500005F016FB3031A97001226D2112A8FCF787
:103B600025FBAFE5012300936A46774B12781B785B
:103B70000492009A934262D901220499521AD2B255
:103B800006920699724A1170009A9B1A013B714A7B
:103B90001B01D3181E685F689C68DD686E4B1B783C
:103BA000002B21D132003B003000390006F038FFF5
:103BB00022002B00089009912000290006F030FF18
:103BC00002000B000898099905F0ECFF02F074F868
:103BD0002200089009912B0030003900FCF7F0FF1B
:103BE000089E099F04000D00049B002B02D10122B6
:103BF0005A4B1A70082230003900069BFEF7E0FF8E
:103C00000022564B20001A7029000022002305F0E4
:103C1000B7FB002805D13B2220002900069BFEF7B8
:103C2000CFFF4F4B1B78002B09D0049B002B06D1F4
:103C30000122474BB22004991A70FCF741FA009B0D
:103C4000012B8FD139E54B4B1B78002B4AD0404ECE
:103C50002122210015A83470149404F0C8FF01211A
:103C600014A8FEF701FC050014A804F0F8FFC2B286
:103C7000002A10D103217F20FCF722FA01233370A0
:103C80003D4A11783D4AC900521810685168032214
:103C9000FEF796FF11E5102D22D92C000627103CC7
:103CA000E4B229001039611A794314AB185D03316D
:103CB00001340022C9B2E4B2FCF702FAA542F0D204
:103CC000DCE72900614303310022C9B20134FCF76B
:103CD000F7F9112CD2D014ABE05C0028F1D1CDE77C
:103CE0000625F8E7264B1C78002C02D0FFF72EFBA8
:103CF000E3E4244B1B78002B46D0154D21222100F4
:103D000015A82C70149404F072FF210014A8FEF77B
:103D1000ABFB31220CAB9B181C70113A0CAB9B18FF
:103D20001B7800220321002B05D15F20FCF7C8F986
:103D300001232B70A4E714A8FCF738FAF8E7C04673
:103D4000C0BA000089060010DC0500101B0000103E
:103D500061060010E0050010200000109E06001013
:103D6000DB0500108B060010EF0A0000340800008D
:103D7000CCF7FFFFA0060010281300102011001040
:103D80009F0600108D060010CD4B1B78002B00D134
:103D900057E1CC4B1B78002B01D0CB48C6E5CB4A72
:103DA00000931478002C44D11322202114A804F08D
:103DB0001EFF33220CAB9B1820211C705F230CAA22
:103DC000521813701D39012214A814E53B4300D08A
:103DD0008CE0BF4B0CA91A7833235B18002A0AD059
:103DE000BC4A1278002A06D10A0032212E2352182A
:103DF00013700CAA8B183022013B1A7014A8FCF720
:103E0000EBFD062414AD2878002800D00CE1B24B5D
:103E10001B78002B07D0069B002B04D10122190030
:103E2000B230FCF74DF9009B012B00D145E4012392
:103E300000936B46A54C1B78009A06932378934217
:103E4000F1D90123069A20219B1ADBB20893089A24
:103E5000A24B14A81A70132204F0C9FE33210022C9
:103E60000CAB5B181A70009923785B1A013B9C49D4
:103E7000DB00CB181E685F6833009742A6DA3C006F
:103E800000275E42A74101230493924B1B78002B2D
:103E90002ED033240CAAA4180322002394460CA984
:103EA0001E325218180061460133DBB2084202D1BB
:103EB0002021013C21700F25354028003030392861
:103EC00000D9273039073509013C294320703811C2
:103ED000070008000E00384301D101F0B9FB9442FD
:103EE000E0D8049B002B00D199E08EE00492CCE74F
:103EF000774B1D78002D58D00A220023300039005E
:103F000005F06CFA0A220C0005003900300000238D
:103F100005F064FA32210CAB5B1830321A702100C4
:103F20000A220023280005F059FA31210CAB5B1856
:103F300030321A7021000A220023280005F04EFAC0
:103F40000F0030212E2306000CAA5218137018AC53
:103F50002D3B32003A4301D101F07AFB21220CA91A
:103F600052189442BDD922781D002E2A0AD055221B
:103F7000524253430135DBB2EDB2552B02D8202318
:103F8000013C2370300039000A22002305F026FA94
:103F9000013C303200233000390022700A2205F043
:103FA0001DFA2B0006000F00D3E733240CABE418F6
:103FB00055222B00524253430135DBB2EDB2552B53
:103FC00002D82023013C2370300039000A2200234C
:103FD00005F004FA013C3032002330003900227031
:103FE0000A2205F0FBF9030006000F000B4301D184
:103FF00001F02EFB14AB9C42DAD8049B002B0ED0B0
:1040000021230CAA9B189C4203D8364914A804F01B
:104010002EFE2D23013C23703E4300D1EEE63149B4
:1040200014A804F024FEE9E62100089AFCF748F8F9
:104030002B78202B03D00634E4B20135E3E60334B9
:10404000FAE7294B1B78002B32D0284B1D78284BE0
:104050001B781D4300D052E4264BEEB21C78671942
:10406000FCF7CAFA874201DBFFF727FB34191B4B29
:10407000E4B220001E70FCF79BFA01340700E0B2A6
:10408000FCF796FA1C49C41B7918013C14AF2200B6
:10409000380004F08BFD00233200032138003B552B
:1040A000FCF784F8012D01D1FFF707FB0125D3E7C9
:1040B0001248FCF7B5FC01232B70FFF7FEFAC0464F
:1040C000A9060010AB060010D9BA00009319001021
:1040D00021000010910600109219001061060010D6
:1040E000981900108ABA0000A8060010A506001052
:1040F000970600109013001085000010F2BA00001F
:10410000B94B1B78002B02D0EC230CAA9376B74B4B
:104110001B78002B02D0DA230CAA9376B44B12AA98
:104120001B78002B05D0B34B1B7859424B41BD3354
:104130005370B14B1B78002B01D065331370AF4B1C
:104140001A7812AB002A22D048221A70AC4A127890
:10415000002A05D0AB4A1278312A01D8D8221A7029
:10416000A94BAA4A1B781278134300D1D4E4A84B78
:104170001B78002B00D0CFE40321A64B12AA1B789A
:1041800019409B084131313311705370C4E4A24A85
:104190001278002ADAD06822D7E7042220212800EA
:1041A00004F025FD984B2C711B78002B13D0994BF4
:1041B0001E783000FCF780F900286DD03000FCF745
:1041C00053F9964B0130C018035DFF2B03D02B55DC
:1041D0000134042CF8D18D4B914A1B78127813438B
:1041E00003D028008F4904F042FD8F4B1B78002B31
:1041F00008D01A208D4B19780CAB0131C9B2C01808
:10420000FEF706F97A4B1B78002B01D101F018FA62
:10421000874B1B78FF2B01D0D623AB70854C002237
:1042200020686168002305F0ABF8002847D1E3223D
:1042300012ABDA70804B814A1B7812781343804AA4
:10424000127813437F4A127813437F4A127813433C
:1042500012AA002B01D0E223D3707C4B1B78002BD9
:1042600005D07B4B1B78002B01D02E23D370794BCC
:104270001B78002B01D0A923D370774B77491B788B
:10428000002B05D1764B1B78002B00D164E47549D7
:10429000280004F0ECFC5FE42100212214AE15A8F4
:1042A000149404F0A4FC21003000FEF7DDF8335D27
:1042B000002B90D02B550134042CF8D18BE7002231
:1042C000A068E168002305F05BF80028AFD05F4BE1
:1042D0001B78002BAED0644A0CCA1343A7D1A9E7C0
:1042E00001331370FF230393FFF71AFA544B1C7822
:1042F000002C5ED05D4A13780133DBB213701D22AF
:104300003A70012B01D1FFF70BFA594E34687568EA
:10431000022B0CD1FCF79CFF22002B0005F042FC85
:10432000E02230607160534C534B120613E0032BB4
:104330001BD1FCF78DFF0022504B06F071FB0200F1
:104340000B002000290006F0D7FDE02230607160EC
:10435000484C4B4B12062068616805F023FC206036
:104360006160FCF725FAFFF7DBF9042B06D1FCF7B7
:104370006FFF0022414B06F053FBCDE7FCF768FFCF
:1043800002000B002000290006F0B6FD00223D4B84
:1043900005F044FFE022384B120605F03FFFFCF722
:1043A00007FA0122384B1A60254B009A1A70FF2336
:1043B00017E0224B1B780493002B00D1BFE02B4E5B
:1043C00033780133DBB23370022B5FD808D1FDF7AD
:1043D00075FBE02028490006FCF7EAF9FCF7C4FC6D
:1043E0001D233B70FFF79CF991060010A2060010F8
:1043F0009A060010200000108C0600109206001093
:10440000A1060010580800109F060010A00600101A
:104410008D06001028130010930600105F0800108E
:104420008F0600100BBB0000A806001090130010B0
:104430003B0000104013001099060010A706001062
:10444000A6060010940600109C060010A906001095
:104450002100001088060010A506001010BB000007
:104460009706001015BB0000B81900101F110010AE
:1044700080060010301300104D62503F00002040B5
:104480004D62603F000028401C000010FDF716FB45
:10449000FCF71EFD0020D149FCF78AF9FCF764FC0B
:1044A000E020CF490006FCF783F9FDF707FBFCF796
:1044B0000FFDFCF7CDFEFCF77BF907000D00FDF7C3
:1044C00087FB0022002338002900347004F05EFFCF
:1044D000002802D080231B06ED18E022C14C3800D2
:1044E0002900BF4B1206267804F050FF00280AD19D
:1044F000142E0AD8FCF726F9FCF724F923780133A7
:104500002370FFF70DF9142E0ED90CA8FCF710FC40
:104510001022B54914A8891804F048FB149815997D
:10452000169A179BFCF7EAF80122B04B1A6000229A
:10453000AF4B1A70AF4BFF321A70FFF7F1F8AE4B6A
:104540001E78002E6BD0AD4B1C780134E6B21E7085
:104550001D233B70012E01D1FFF7E2F8A84B1C6828
:104560005D68022E0CD1FCF773FE2B00220005F0D3
:1045700019FBA34B18605960A24B18685968F0E604
:10458000A14B1A685B6800920193032E10D1FCF7CF
:104590005FFE22002B0005F005FB994B1860596067
:1045A00000980199974B1A685B6805F0FBFAD8E60A
:1045B000162E20D80022F3071BD58023DB0504929A
:1045C0000593FCF745FE049A059B06F029FA2200A4
:1045D0002B0005F0E7FA8A4B18605960B01E07F00F
:1045E00071F8009A019B06F01BFA864B1A685B680B
:1045F000DBE7864BE3E7FCF72BFE009801992200EE
:104600002B0006F00DFA0022814B05F007FEFCF7A7
:10461000CFF80122754B1A60774B049AC6E67D4DA0
:104620002B78002B00D191E0744B1C780134E4B25C
:104630001C701D233B706B4B1A78002A41D1012C52
:1046400001D1FFF76DF86F49086849680090019142
:10465000022C0AD1FCF7FCFD6F4B186059606F4BC0
:1046600018605960009801997BE6222C24D8FCF749
:10467000EFFD6A4D06000F0002000B002868696814
:1046800004F098FE002801D02E606F60624D320069
:10469000286869683B0004F079FE002801D02E608C
:1046A0006F60A01E07F00EF8574B1A685B6806F0A3
:1046B000B7F9009A019B78E750490A7001221A70F5
:1046C000D0E7012C01D1FFF72BF8212C2ED8534B2A
:1046D0001C685D68FCF7BCFD02000B00200029008F
:1046E00006F00AFC4C4B06001A685B680F002000BD
:1046F000290006F001FC02000B003000390005F033
:104700008DFD0022464B06F08BF901F0BBF93B4BC7
:10471000444C1D7804F0B4FE6419023C2070681EFD
:1047200006F0D0FF384B1A685B685CE70CA8FCF712
:10473000FFFA0CA8FCF7FCFA01232C4A2E70136038
:10474000FF223A70384A1370FEF7EAFF0A20374B0F
:1047500003211B78584303F087FFFDF761F9387098
:10476000FEF7DEFF324B1C78002C00D13BE11D2808
:1047700002D0122800D0A5E02E4B1B780393002B0B
:1047800060D02D4B1D782800FBF76EFE040028003A
:10479000FCF786F9294F380004F061FA0500202063
:1047A000FBF762FE264E021B611E601989198019F3
:1047B00004F03FFAFE2300253355380004F04FFA89
:1047C000A84206D97A5D631CF3185A550135072DA6
:1047D000F3D10022164B1A70FEF7D7FF0000F0BF8E
:1047E0004D62503FAD06001080BC00001C00001060
:1047F000A7060010AC060010940600101F11001050
:1048000080060010C006001078060010000010405E
:10481000000008409C060010F80600100007001079
:1048200000002E40D40600109B060010220000104D
:104830008F0600109F06001028130010630600105A
:104840005F080010D44B1B78002BC2D0D34B1C78D0
:104850002000FBF7ADFE01340700E0B2FBF7A8FE35
:10486000CF4E0500300004F0FAF9C4B2FBF7B6FEF3
:10487000691E421BCB4DE01901324919401904F061
:10488000D8F97B19180022003100049304F08EF946
:10489000C54B1B78002B9CD0C44E3378FC1800937A
:1048A000FBF79CFE009B6119C21B0134D2186019F2
:1048B00004F0BFF90A2233780499CA54BA4B039A18
:1048C0001A7086E7012804D10F22B94B1A70FEF73F
:1048D0005CFF022809D1B74A13780B2B01D9FEF7E8
:1048E00054FF01331370FEF750FF042809D1B04A7A
:1048F0001378002B01D1FEF748FF013B1370FEF740
:1049000044FF052804D10822A94B1A70FEF73DFF89
:10491000062809D1A64A13780E2B01D9FEF735FFD8
:1049200001331370FEF731FF072804D10022A04B9A
:104930001A70FEF72AFF082809D19E4A1378002B27
:1049400001D1FEF722FF013B1370FEF71EFF18286E
:1049500009D1964A1378002B01D1FEF716FF013BCF
:104960001370FEF712FF19280DD1904C8C48257852
:1049700004F075F9854201D3FEF707FF2378013370
:104980002370FEF702FF21280ED1884C20780028E2
:1049900001D1FEF7FAFE0138C0B2FDF729FD2378F8
:1049A000013B2370FEF7F1FE7D4C200004F057F927
:1049B000814B1A780723002A00D10B33984201D388
:1049C000FEF7E3FE7A4B19787A4B20311B781B01F6
:1049D000C918764BC9B21A78501C18702000FBF722
:1049E0007DFEFEF7D2FE754D2A78002A47D01E289C
:1049F00002D12C70FEF7C9FE12280BD1704B1A7829
:104A0000704BD2009B1818685968FBF7D1FE2C70C8
:104A1000FEF7BBFE082809D1694A1378002B01D1A3
:104A2000FEF7B3FE013B1370FEF7AFFE022809D17B
:104A3000634A1378222B01D9FEF7A7FE01331370C6
:104A4000FEF7A3FE09280AD15D4A1378042B03D987
:104A5000053B1370FEF799FE1470FEF796FE0328CF
:104A600001D0FEF792FE564A13781E2B03D8053369
:104A70001370FEF78AFE23231370FEF786FE524B57
:104A80001C78002C02D01A70FEF77FFE4F4E337850
:104A9000002B58D04E4D2B78002B0ED0021FD1B2D8
:104AA00005290AD8591E06234B439B18494A9B00E7
:104AB0009B5898472C70FEF768FE474B1B78002BDD
:104AC00027D00438C4B2052C1ED83222100060430F
:104AD000424D434B2900C01804F068F82A78414B36
:104AE000A400FF2A0BD000223F481B19A95CFF2914
:104AF0000AD0415C99540132042AF7D104E02D22F6
:104B00001A5500221B195A700022334B1A70FEF7F7
:104B10003CFE364B1B78002B11D00438C1B205295E
:104B200006D8322251432E4809182C4804F03EF88A
:104B3000FCF72AFF00222D4B1A70FEF726FEFCF729
:104B400085FEFEF722FE2A4D2B78002B00D1E3E0F4
:104B500003001D3B274E012B01D912280BD1002346
:104B60002B70FCF711FF3078FCF7A4FE3078FCF7CF
:104B7000A1FEFEF70AFE3478182850D11E4F3D786A
:104B8000022D3DD12000FBF76FFC1C4B1B5CFD2B65
:104B9000E9D0013D41E0C046A80600109013001086
:104BA00063060010850000109606001062060010D3
:104BB000D8050010D90500109F06001098060010B7
:104BC000D3060010F0C200009B0600109A060010E9
:104BD0009D060010A0C40000A50600103B000010B8
:104BE0000807001023000010C8C20000970600103C
:104BF000A006001028130010600600105F080010C7
:104C0000012DB0D92000FBF72FFCD24B5B191B18EC
:104C1000023B1B78FD2BBCD1023D3D70A3E7192858
:104C200015D1CD4B1B78002B70D12000FBF71CFC5D
:104C3000CA4FC84B3D781B185B5DFD2B01D1023577
:104C4000EBE7FBF727FCA8428DD90135E5E72128E2
:104C500040D1C24D2F78002F85D07B1EDBB2009350
:104C6000012F32D02000FBF7FFFBBA4BDF193F18B2
:104C7000023F3B78FD2B28D120000099FBF736FF3F
:104C8000297830780239C9B2FBF730FF2B78013B25
:104C90002B702B78013BDBB22B70002B00D062E72E
:104CA00037783800FBF7E0FBAA4C235CFF2B00D1E0
:104CB00059E7012338002B70FBF7D6FB235CFD2B53
:104CC00000D050E7FB3B2B704DE720000099FBF72D
:104CD0000DFFDEE70B2808D1A04B1A78511C197084
:104CE00012212000FBF7AEFD3DE726280ED19C4B9C
:104CF0001C709C4B1A789C4B1A709C4B1A789C4BDE
:104D00001A7001229B4B1A700023DCE7934B1A7830
:104D1000511C19700100E4E7974C2378002B00D157
:104D20006EE1964C23780093002B0BD00438C3B26D
:104D3000052B03D8924B8000C3589847002323705B
:104D4000FEF723FD8F4B1B78002B31D08E4B1D7847
:104D50002800FBF789FB04002800FBF7A1FE8B4F1E
:104D6000380003F07CFF05002020FBF77DFB794E27
:104D7000021B611E60198919801903F05AFFFE2376
:104D8000009D3355380003F06AFF854206D27A5DF4
:104D9000631CF3185A550135072DF3D10023794AC6
:104DA0001370FEF79BFA0122794B1A60FEF7EDFCB7
:104DB000784B1B78002B29D00438C4B2052C00D9BD
:104DC000A2E6A022520010006043734B614DC01850
:104DD000290003F0EBFE1F20FBF746FB2B5C6F491D
:104DE000A400FF2B0CD00123013C0C192818C25C35
:104DF000FF2A00D188E6E2540133052BF7D183E680
:104E00002D230B5500230C1963707DE6644B197834
:104E100000290BD00438C1B2052900D988E6A022A8
:104E2000520051435C4809184A487FE61E2803D1C6
:104E300001232370FEF7A9FC08280CD14B4B524AE2
:104E400019701378032B03D9043B1370FEF79DFCF4
:104E50001170FEF79AFC02280CD10122434B1A7004
:104E6000494A13781B2B01D9FEF78FFC04331370CA
:104E7000FEF78BFC042812D1434A1378002B01D093
:104E8000013B1370002337490B701378DB439B07FA
:104E900001D0FEF77AFC01230B70FEF776FC0628A2
:104EA00013D1394A13781E2B01D801331370012115
:104EB0002C4B19701178032208001040114201D0C8
:104EC000FEF763FC1870FEF760FC122801D005287D
:104ED00068D101232B70274B2B4F1E783C78002E76
:104EE00021D01F4B1D4D18781F4BFD211A781D4BEB
:104EF00038701A701E4B1A781C4B1A702A78531C83
:104F00002B70FBF79FFC2A782100531C38782B70FC
:104F1000FBF798FC0023174A1370FCF735FDFEF7EA
:104F200015FAFEF732FC2000FBF7C6FA071E05D083
:104F30003000FBF7B1FE2E70FEF727FCFBF7AAFA54
:104F4000FF2800D13800054B18702000FCF7B2FC98
:104F5000FEF71BFC5F0800108C06001060060010B6
:104F6000D006001029130010D10600102A130010DB
:104F7000D2060010A20600109F060010A306001023
:104F8000E8C400009006001028130010630600100B
:104F90001C000010A50600109F0900106D000010F5
:104FA000970600101D2811D1CD4B1878FBF75CFA3D
:104FB000CC4B1B5CFE2B04D10020FBF76DFEFEF7F3
:104FC000E4FB0120FBF768FEFEF7DFFB212807D199
:104FD000C34B1878FBF764FDFCF7D6FCFEF7D5FB56
:104FE000252804D10122C04B1A70FEF7CEFB2628DB
:104FF00001D0FEF7CAFB0122BC4B1A70FEF7C5FBBD
:10500000BB490A78002A00D1C1E01E280DD1B94A57
:105010000B701078B84A1070B14C2078FCF74AFC3D
:105020002078FCF747FCFEF7B0FB1D2809D10123CF
:105030002B70FBF72FFAFF2800D10020AF4B187020
:10504000EAE7122801D00B2812D1AD4B12201B78B1
:10505000002B00D098E00120FBF706FA0400202086
:10506000FBF702FA9F490200601803F0E2FDD3E764
:10507000212825D12038FBF7F7F904002020FBF781
:10508000F3F99F4D02002E78964B002E14D0661E29
:105090009E19012C07D931000232A01E121B1818CC
:1050A00003F084FDB8E7013219193000121B03F038
:1050B0007DFD00232B70AFE7021B19191800EFE7E5
:1050C0000A2823D88E4E202033780093FBF7CCF9A2
:1050D000009B0400834D002B0CD00120FBF7C4F98A
:1050E0000134461E221AA919281803F0A2FD3B78A4
:1050F000AB5591E702002900824803F09AFD3B7806
:105100002B70FF236B70FE3B337085E70F283BD875
:105110000120FBF7A9F900900220FBF7A5F9040094
:105120002020FBF7A1F90700009B6E4DE31A0393C3
:105130005B19020029001800049303F07AFD039A1A
:105140006119280003F032FD009B6100DE19361B57
:10515000C91A321B4919601903F028FD039B32005C
:10516000581E0499401903F021FDA61EBA1C601EAA
:10517000121B7119401903F05CFD0022624B1B7871
:10518000AB555F4B1A7047E7FBF778FB44E75F4D81
:105190002B78002B00D1FFE05D4C2378002B0BD047
:1051A0000438C3B2052B03D85A4B8000C358984724
:1051B00000232370FEF7E9FA1E2803D10123237090
:1051C000FEF7E3FA212847D1534B1B78002B3FD041
:1051D000524B1B78002B29D0FBF7A4F9FA220023AD
:1051E000920007000E0004F0F9F80B0005000C0017
:1051F000034303D1FBF7AAF9FEF7C7FA38003100E1
:105200006422002304F0EAF8D3B20A930023642254
:105210000B9328000023210004F004F90A9B0B9C47
:10522000C0186141FBF744FBFEF7AFFAFBF77AF9D0
:105230003B4B10221C7800239C4200D1063A04F01C
:10524000CDF80B000343D5D0FBF732FBFEF79DFAF8
:10525000FBF768F9FEF799FA1F2806D1314B1B7846
:10526000022BC7D9FCF7BBFFC4E7132817D1FBF704
:1052700059F904F05FF900F01FFD284B00221B785C
:10528000002B0AD1284B05F0CBFB04F017F9FBF7F4
:105290000FFBFBF75BF9FEF778FA244BF3E72028C6
:1052A00006D1204B1B78012BA4D9FCF7B2FFA1E754
:1052B000252809D1FBF736F91D4B03C3FBF7F8FA94
:1052C000FBF744F9FEF761FA262833D1184B18682A
:1052D0005968FBF7EDFAFBF739F9FEF756FAC046C5
:1052E000281300105F080010A50600109706001094
:1052F0008D0600108A060010890600106006001056
:105300008E06001061080010AC060010A9060010FF
:10531000AB0600104CC500009219001021000010CF
:1053200091060010931900100000F03F0000244087
:10533000B819001016281DD1CA4C2378012B01D9A9
:10534000FCF767FFFBF7D2FA2378022B01D9FCF7B1
:1053500046FFFCF7D9FDC44B64201B78002B00D01E
:10536000C2480021FBF7A4FAFBF7E8FAFBF7EEF8D6
:10537000FEF70BFA122801D9FEF707FABC4B8000A2
:10538000C35898473B780A2B01D8FEF7FEF9122B39
:1053900001D1FEF7FAF92DE7B64F3B78002B3FD04D
:1053A0001E2803D100233B70FEF7EFF9132804D128
:1053B0001238FBF7ADFBFEF7E8F90F2804D10E38E1
:1053C000FBF7F4FAFEF7E1F9142804D10F38FBF7E4
:1053D0009FFBFEF7DAF9092804D10438FBF7E6FA57
:1053E000FEF7D3F9152804D10B38FBF791FBFEF734
:1053F000CCF9082804D10230FBF7D8FAFEF7C5F93A
:10540000162804D10238FBF783FBFEF7BEF9072804
:1054100001D0FEF7BAF90D30FBF7C8FAFEF7B5F97F
:10542000954A1378002B00D1D6E0944B1B78002BC3
:105430001ED00438C4B2052C01D9FFF765FB8022C9
:105440008F4B904D20022900C018520003F0AEFB94
:1054500000232021A0008C4C2418EA5C21700A2A29
:1054600000D0227001330134042BF6D1FFF74CFB3E
:10547000864C217800290FD00438C0B2052807D8FF
:10548000802201027E48520009187E4803F08EFBFC
:1054900000232370FEF779F91E2802D11170FEF760
:1054A00074F9082809D17A4A1378002B01D1FEF744
:1054B0006CF9013B1370FEF768F902280BD1FBF77A
:1054C0009BF8734D2C780134844201DBFEF75DF9C3
:1054D0002C70FEF75AF909280AD16D4A1378042B6B
:1054E00003D9053B1370FEF750F91170FEF74DF923
:1054F00003280ED1FBF780F8654D2C78A31D83425D
:1055000003DA05342C70FEF740F901382870FEF7F5
:105510003CF9122803D1FBF70FFBFEF736F90F28F1
:1055200006D1FBF709FB01225A4B1A70FEF72DF941
:10553000212801D00D281BD1554E34782000FBF7CF
:1055400037F801340500E0B2FBF732F80400FBF74E
:1055500045F8021B4B482118281803F027FB337825
:10556000002B01D1FEF711F9013B3370FEF70DF965
:105570000E281CD1FBF740F8012801D8FEF705F9E9
:10558000434B18780130C0B2FBF712F83D4D0400D0
:105590002B5C002B01D1FEF7F8F8FBF71FF8021B7C
:1055A000601E6119401903F001FBFEF7EEF80C28AC
:1055B00000D015E5364B1878FAF7FAFF0400FBF730
:1055C0000DF8304D021B601C6119401903F031FBCE
:1055D0000A232B55FEF7D9F8072803D1012333708E
:1055E000FEF7D3F808280AD12B4A2C4814781370F8
:1055F00001220A702A4A04701370FEF7C6F80928BF
:1056000008D1254A254910781370012308702370AA
:10561000FEF7BBF8042803D101232B70FEF7B5F881
:10562000052805D101233B70FBF7B6FAFEF7ADF86C
:10563000062801D0FEF7A9F801231370FEF7A5F89C
:10564000184B1B78002B01D0FEF7E8FDFEF73FFE5C
:10565000049B00260027002B01D0FEF7D1FCFEF7AB
:10566000CDFBC04693190010210000101027000048
:1056700000C50000A4060010A8060010A506001032
:10568000911300108500001085010010970600108E
:105690009013001096060010890600108A0600106C
:1056A000281300108D060010F8B54E4657464546A3
:1056B000DE46A34BE0B54E00804689468A46760812
:1056C0009E421CDD9F4B9E4209DC06D05346002BB8
:1056D00000DCBAE09C4B9D4A09E00028F6D0424627
:1056E0004B464046494604F05DFA03000A001800A4
:1056F0001100F0BCBB46B246A946A046F8BD944B8B
:105700009E4200DDA4E0934B9E4200DC8FE001232B
:105710005B429B4642464B464046494605F080F96F
:1057200002000B0006000F0005F07AF904000D00DE
:10573000894A8A4B05F074F9894A8A4B04F032FA97
:1057400022002B0005F06CF9874A884B04F02AFAF6
:1057500022002B0005F064F9854A864B04F022FAFA
:1057600022002B0005F05CF9834A844B04F01AFAFE
:1057700022002B0005F054F9814A824B04F012FA02
:1057800032003B0005F04CF97F4A804B06000F00C9
:105790002000290005F044F97D4A7E4B05F0ACFB62
:1057A00022002B0005F03CF97B4A7C4B05F0A4FB62
:1057B00022002B0005F034F9794A7A4B05F09CFB66
:1057C00022002B0005F02CF9774A784B05F094FB6A
:1057D00022002B0005F024F90B005946020001318C
:1057E0005CD059463000CC00390004F0DBF9424669
:1057F0004B4605F015F96E4D6E4B2D191C1922689C
:10580000636805F079FB42464B4605F075FB0200E4
:105810000B002868696805F06FFB030050460A001A
:10582000002800DB63E7802212068A185FE7624ADD
:10583000624B04F0B7F90022614B03F0BBFD002876
:1058400000D164E743464A4651E73F4B5D4A4EE785
:1058500000F014F95C4B04000D009E422FDC5B4B02
:105860009E4255DC02000B0004F09CF90022544BD0
:1058700005F042FB802306000F000022DB0520001C
:10588000290004F08FF90B0002003900300004F009
:10589000C5FC0023804689469B463BE73000390023
:1058A00004F080F942464B4605F0BAF802000B00BE
:1058B0004046494605F020FB03000A0017E7444B29
:1058C0009E421ADC0022434B05F016FB0022060024
:1058D0000F00404B2000290005F0A2F80022384BB1
:1058E00004F060F90B0002003900300004F096FC6F
:1058F0000223804689469B460CE70B00020036498E
:10590000002004F08BFC0323804689469B4601E778
:1059100000222B4B05F0F0FA002206000F00284B66
:105920002000290004F03EF90B000200390030008D
:1059300004F074FC0123804689469B46EAE6C04693
:10594000FFFF0F440000F07F182D4454FB21F93F66
:10595000FFFFDB3FFFFF1F3E11DA22E33AAD903F2E
:10596000EB0D76244B7BA93F513DD0A0660DB13F96
:105970006E204CC5CD45B73FFF8300922449C23FFE
:105980000D5555555555D53F2F6C6A2C44B4A2BFC3
:105990009AFDDE522DDEAD3F6D9A74AFF2B0B33F8B
:1059A000711623FEC671BC3FC4EB98999999C93F03
:1059B00068C5000088C500009C7500883CE4377EFF
:1059C0000000F03FFB21F9BFFFFFF23FFFFFE53F83
:1059D000FF7F03400000F83F0000F0BFD0B5254A2C
:1059E0004B0086B05B08934222DD234A934209DDD7
:1059F00002000B0005F080FA02000B0010001900F5
:105A000006B0D0BD02AA00F02BFD03231840049A73
:105A1000059B012813D0022822D0002819D0029813
:105A200003990124009401F075FD02000B00E5E7E5
:105A30000022002300F0F4FF02000B00DEE70090DC
:105A40000298039901F066FD80231B060200CB1823
:105A5000D4E70298039900F0E3FF02000B00CDE7C2
:105A60000298039900F0DCFF80231B060200CB188C
:105A7000C4E7C046FB21E93FFFFFEF7F4B00590819
:105A80007047C046F8B504004A000B0008002649DC
:105A9000520D5118270013291ADC002912DB234A62
:105AA00026000A41100018401D00204307D0802026
:105AB000000308410024C018904326000500300070
:105AC0002900F8BDDB0FD8074B1C28D00024F4E7D1
:105AD00033290DDD802226001D00D2009142EED137
