:10000000F0230010F18F0000EF8F0000EF8F000051
:10001000EF8F0000EF8F0000EF8F00000000000066
:10002000000000000000000000000000EF8F000052
:10003000EF8F000000000000EF8F000041860000FD
:10004000518400005184000051840000518400005C
:10005000518400005184000051840000518400004C
:10006000518400005184000051840000518400003C
:1000700051840000ED8F0000ED8F0000D18C000056
:10008000DD860000F58600000D8700002587000052
:10009000ED8F00003D870000ED8F0000ED8F000028
:1000A000ED8F0000ED8F0000ED8F0000ED8F000060
:1000B000ED8F0000ED8F0000ED8F0000ED8F000050
:1000C0000523F0B520385843344B87B01B78002502
:1000D0000293334B1B789C46842353430493314B48
:1000E000C3180593059B029A5B5D0800009393403B
:1000F0000022DBB2019262465218D2B2904247D03F
:10010000049A8418284AA2180392002434E00100BB
:10011000E8E76646022E18D1009FA3001F413B006E
:100120000D3633409F001F4333231F407B003B436A
:10013000463633405F003B435B00DBB2002A21D0F0
:10014000019A002A01D001221343552216005F08AC
:1001500017405A00B2431743FFB2223EBA08BF000D
:10016000B74332403A438427D2B26743160912019B
:100170003243039E0134F255E2B29445C9D80130AE
:10018000C0B2B8E75AB2002ADFDA01220192DCE7F6
:100190000135052DBBD107B0F0BDC046610600108A
:1001A0001B00001044BE000020120010F8B504002F
:1001B0000D00160006272078002800D1F8BD290080
:1001C0003200FFF77DFF034B0134197879436D1836
:1001D000EDB2F0E71B0000108423CA08534318183F
:1001E000842310B55B00984208DA0722083B8A4353
:1001F000FF3B9340024C225C1343235410BDC04686
:100200002012001070B5114B01201B78002B1BD061
:100210000F4A013B1B01D3189D68DC6800220023B4
:100220002800210009F09AF8002802D080231B063C
:10023000E418084A084B2800210009F0A3F803003D
:1002400001205A1E9341584070BDC046DC05001085
:10025000E00500103EC3D84E7D7F612B7047000043
:100260000023034A1370034A1370034A1370704744
:10027000DA05001095060010DB050010024A13781D
:1002800059424B4113707047890600100023044AFD
:100290001370044A13700122034B1A707047C04652
:1002A00093060010920600108C0600100023044AEA
:1002B0001370044A13700222034B1A707047C04631
:1002C00093060010920600108C0600100023034ACB
:1002D0001370034A1370034A13707047930600109B
:1002E000920600108C060010024A137859424B41C6
:1002F00013707047910600100122034B1A70002200
:10030000024B1A707047C046920600108C0600100F
:100310000122034B1A700022024B1A707047C0462C
:10032000930600108C0600100122014B1A707047D2
:10033000980600100849094A0B78002B05D0107860
:10034000074B1B18FF20013B1870002301200B7086
:100350000449137008707047A10600105808001077
:100360003B00001099060010024A137859424B4195
:10037000137070479D0600100222034B1A70002272
:10038000024B1A707047C0469D0600108C06001084
:100390000322034B1A700022024B1A707047C046AA
:1003A0009D0600108C0600100022014B1A70704749
:1003B0009A0600100022034B1A70034B01321A7088
:1003C0007047C04658080010A106001000230F4ACD
:1003D00070B513700E4A10241370002300220D4EC6
:1003E0000D4930000A604B608A60CB60220008F043
:1003F000C5FB0A4D31002200280008F0BFFB290090
:100400002200074808F0BAFB70BDC046DC050010AA
:1004100038130010701300108013001060130010C8
:10042000501300100122034B1A700022024B1A7065
:100430007047C046200000108C0600100023024ABE
:100440001370024A13707047200000108C060010D1
:100450000122014B1A707047A50600100122014BC2
:100460001A7070479706001010B5021C202800D99A
:100470002022002003000649D2B2934200D310BDCF
:100480000C5CFF2C01D10133DBB20130F5E7C04633
:100490005F08001070B5074B1D78681CC0B2FFF7ED
:1004A000E3FF04002800FFF7DFFF013C201AC0B281
:1004B00070BDC0462813001010B5FFF7D5FF034BE1
:1004C000185CFE3843425841C0B210BD5F080010AE
:1004D000034B1A78034B1A700022034B1A707047B3
:1004E0008A060010890600109F06001010B50A4BFE
:1004F0001878FFF7B9FF0023084A12180848D45C9F
:10050000D9B2FF2C02D0242B03D11900FF2343546E
:1005100010BDC4540133F2E7281300105F08001027
:1005200034080010074A002013780021002B07D060
:10053000013BDBB21370044ADB00D318186859681A
:100540007047C04693190010981900100023034A01
:100550001370034A1370034A13707047AA06001001
:100560009119001092190010044A137859424B4116
:1005700013700022024B1A707047C0462100001011
:1005800091060010054B1A78002A02D000221A703A
:10059000704701211970024BF9E7C046910600101F
:1005A000210000100022014B1A707047A9060010AC
:1005B00002000020030010B5074C934204D2215CD6
:1005C000002901D0FF2800D110BD0130C0B20A2996
:1005D000F3D10133DBB2F0E7850000100023054AB8
:1005E000D15C581C002901D0FF2B01D1C0B270474B
:1005F000C3B2F5E785000010002318000649CA5C65
:10060000002A01D0FF2B00D170470133DBB20A2A48
:10061000F5D10130C0B2F2E785000010084B400070
:1006200070B5C45C1B185D7820002900002207F01B
:1006300015FE29000122200007F05CFE70BDC046B7
:1006400084C200000122F8B508210600100007F05E
:1006500051FE0724082700223900012007F04AFE36
:10066000320001252241022100202A4007F042FEEB
:100670002A003900280007F03DFE013CEBD2F8BD0E
:10068000002210B504001100022007F033FE200004
:10069000FFF7D8FF10BD0000A022FF21520010B5C7
:1006A000094808F08CFA202300200021074A013B6A
:1006B000DBB203C2002BFAD1054A1370054A13704E
:1006C000054A137010BDC0465F08001020110010CD
:1006D000281300102A13001029130010F8B5551C18
:1006E00086180C001700451908F0A1FAC21B31004A
:1006F0002800013208F085FA3470F8BD30B50E4C90
:1007000085B0039323780D4D009001910292072B41
:1007100007D9702228000A4908F073FA2378013BB0
:10072000237020781022431C00016946281823708A
:1007300008F024FA05B030BDDC050010E00500101B
:10074000F005001010B50B4B197800290BD00A4C9E
:100750000A4B0139090110222000591808F00EFA3D
:100760000FCCFFF7CBFF0023054A1370054A137027
:1007700010BDC046DC050010B0060010E0050010FA
:10078000DB050010DA05001010B5FFF7DBFFFFF7FF
:10079000D9FF0122034B1A700023034A1370034A46
:1007A000137010BDA7060010AD0600101F11001039
:1007B00030B5002204000D00002385B0009401959F
:1007C00002920393009801990022039BFFF796FF82
:1007D0002000290005B030BDC02010B50249C00579
:1007E000FFF7E6FF10BDC046FB210940802110B590
:1007F0000020C905FFF7DCFF10BD00001FB5002277
:1008000000230092019300220020054B01990292DF
:100810000393039B0200FFF771FF05B000BDC046C4
:100820000000F03F10B5024B0FCBFFF767FF10BD84
:10083000B006001010B5024B0FCBFFF75FFF10BDE5
:1008400040130010F8B5070020200E001400FFF739
:100850000BFEA02305005B0098420BD23800FFF787
:1008600003FE24182A1B044D601C6119401908F06E
:10087000C8F92E55F8BDC0465F080010F8B506004F
:100880000120FFF7F1FD471E04002020FFF7ECFDDB
:10089000054D0130021B7919601908F0B2F90022E8
:1008A000024BEE551A70F8BD5F0800108E0600105E
:1008B000F8B50C4F06003B780D000B4C032B08D904
:1008C000210018222000083108F09BF93B78013BF9
:1008D0003B703B785A1CDB00E4183A702660656078
:1008E000F8BDC046931900109819001010B5094BB7
:1008F0001B78002B07D0084A013BDB00D31818688F
:100900005968FFF7D5FF0023044A1370044A137097
:1009100010BDC0469319001098190010AA060010C7
:100920009219001010B5FFF7FDFD002342428B41E4
:1009300010001900FFF7BCFF10BD000070B5FFF7F5
:10094000F1FD05000C00FFF7EDFD074B1B78002BB8
:1009500003D06422002308F04DFD2A00230008F094
:1009600025FDFFF7A5FF70BD2100001070B5FFF752
:10097000D9FD0D000400FFF7D5FD00196941FFF70F
:1009800097FF70BD10B5FFF7CDFFFFF7EFFF10BD6C
:1009900070B5FFF7C7FD05000C00FFF7C3FD284049
:1009A0002140C043C943FFF783FF70BDF8B5040081
:1009B0000025074E8322330083331F78310005481A
:1009C000013508F01EF93770A542F2D1F8BDC046D6
:1009D0002012001021120010F8B5040008F027F9C9
:1009E0000023C7B2661EDAB2E118BA4203D25A1C1B
:1009F000B55C202D06D0C2B2D21A2000013208F018
:100A0000BDF8F8BD1300EEE770B5851808000C00BE
:100A100008F00DF921000200280008F0AFF870BDC1
:100A2000F0B5002489B003221A49019004AF03A84D
:100A30003C7108F0A3F80622174906A808F09EF8B2
:100A4000E5B20321280008F0FDFA144BC6B21E706F
:100A5000019BA10059180422380008F08FF82800E3
:100A6000032108F075FB03ABC9B25D5C06ABE05C2B
:100A7000290080383200C0B20635FFF721FB01346F
:100A800032003800E9B2FFF791FB062CD8D109B04B
:100A9000F0BDC04648BA00004CBA00006106001024
:100AA00070B5C2000400002100200E4B9B18186096
:100AB00059602000FFF7D8FC0B4E0500335CFF2B7C
:100AC0000ED00134E0B2FFF7CFFC04002020FFF786
:100AD000CBFC611E0130021B8919A81908F04EF8E1
:100AE00070BDC046201100105F08001010B50C004A
:100AF000FFF7BAFC24182020FFF7B6FC021B0348BE
:100B0000611C0918201808F039F810BD5F080010A2
:100B1000F8B505000026064C8322277820000549F9
:100B20008334013608F02AF82770AE42F3D1F8BDBD
:100B30002012001021120010F8B5124B1F78781CFB
:100B4000C0B2FFF735FD104D041E104E0CD10A2324
:100B500030702B706870300008F069F801220C4B7F
:100B600018700C4B1A70F8BD3800FFF721FD241ADD
:100B7000013C29182200300008F000F8002333550A
:100B8000E9E7C046901300108500001063060010CE
:100B9000620600108F06001010B58424C2B06400F5
:100BA00022006846044907F0E9FF2200694603482D
:100BB00007F0E4FF42B010BD50BB0000201200104F
:100BC000F7B516001F0002000B00009001913000E5
:100BD000390009F00BFB04F04FFD0022154B09F022
:100BE00007FFC022144BD20509F000FB00220400CD
:100BF0000D0000980199002308F0B0FB00280FD0E9
:100C0000002200233000390008F0A8FB0022094B25
:100C1000002809D0200029000AF056F904000D0030
:100C20002000290003B0F0BD2000290008F0A2FF39
:100C3000F4E7C04600806640FB21094013B507F089
:100C400003F901A9684607F0A7F96B46587908F03F
:100C500043FF084908F028FE6B46041C187908F089
:100C60003BFF011C201C08F081FC0AF069FDFFF726
:100C70009FFD13BD0000C84210B507F04DF808F005
:100C80002BFF044908F010FE0AF05AFDFFF790FD13
:100C900010BDC04600007A440023F7B5114F124D35
:100CA0003B702B70984218D1104B01241878FFF735
:100CB000DBFB0F4E3618335DFF2B0AD06A461371EB
:100CC00000232800537101A901340AF097FE082C73
:100CD000F1D1280007F0ABFF38700122054B1A70E4
:100CE000F7BDC0466206001063060010281300100E
:100CF0005F0800108F06001010B50B49040000209B
:100D0000002C0CDC013464B2012C0CD00022074B07
:100D100009F06CFAF6E70022044B09F069FE013C89
:100D200064B2631CF7D110BD0000F03F0000244006
:100D300010B50B4B0400197800290AD00139C9B24B
:100D40001970084B09011022591807F017FF2000ED
:100D500010BD00220023026043608260C360F6E79A
:100D6000DC050010E005001000B58DB06846FFF707
:100D7000DFFF04A8FFF7DCFF009A019B04980599A8
:100D800008F0F8FE029A039B0890099106980799CB
:100D900008F0F0FE0A900B910A9A089809990B9BAB
:100DA000FFF7ACFC0DB000BD10B500200249FFF705
:100DB000FFFCFFF7D9FF10BD0000F03FF0B589B090
:100DC0006846FFF7B5FF009C019D029E039F22002D
:100DD0002B003000390009F009FA32003B0009F01D
:100DE00007FE22002B0008F0C5FE02000B000020C9
:100DF000114909F0FBF93200049005913B002000F5
:100E0000290009F0F3F922002B0009F0F1FD32006E
:100E10003B0008F0AFFE02000B000020074909F07C
:100E2000E5F906900791069A04980599079BFFF744
:100E300065FC09B0F0BDC0460000F03F0000F0BF07
:100E4000F0B593B006A8FFF773FF069B079C0AA8AE
:100E500000930194089C099DFFF76AFF0A9E0B9F6F
:100E60000C9A0D9B009801990292039332003B006B
:100E700009F0BEFD029A039B049005912000290011
:100E800009F0B6FD02000B00049805990AF01CF861
:100E900032000E900F913B002000290009F0A8FDC0
:100EA000029A039B04000D000098019909F0A0FD2F
:100EB00002000B002000290008F05CFE1090119148
:100EC000109A0E980F99119BFFF718FC13B0F0BD04
:100ED00010B5FFF773FFFFF7B3FF10BD064B10B55A
:100EE0000FCBFFF70BFC054B18780AF003FCFFF75C
:100EF0005FFCFFF7EDFF10BD50130010381300101A
:100F000010B5FFF71FFCFFF79BFF10BD10B50020C9
:100F10000249FFF74DFCFFF793FF10BD0000594059
:100F200000B589B06846FFF703FF009A019B802057
:100F30000399049205930006029A0B1806920793F0
:100F400004980599069A079BFFF7D8FB09B000BDE6
:100F500000B589B06846FFF7EBFE029A039B049246
:100F60000593009A019B0692079304980599069AA7
:100F7000079BFFF7C3FB09B000BD00001FB5064C7F
:100F80006846FFF7D5FE69461022200007F0F6FDFF
:100F90000FCCFFF7B3FB1FBD4013001000B589B0A5
:100FA00004A8FFF7C5FE049805990AF03DFB40B27E
:100FB000FFF7A2FE0022002300900191029203930A
:100FC000009800220199039BFFF798FBFFF738FF79
:100FD00009B000BDF0B504003E4D8DB00A281CD10B
:100FE0003D4B1B78002B18D13C4B1A78002A01D1BD
:100FF00001321A702B78002B0DD1394C2378002B3D
:1010000002D06846FFF794FE00200021FFF7D0FBD6
:10101000012323702B700DB0F0BD2B78002B0ED167
:101020002F4E3378002B02D06846FFF781FE200058
:101030000AF060FBFFF7BCFB01233370EAE7274EA1
:101040003578002D21D004A8FFF772FE6B1C68B222
:101050003370FFF751FE06000F0020000AF01AFB64
:1010600032003B0009F0C2F8049A059B08F082FDAB
:1010700000240023089009910A930B940898099979
:101080000A9A0B9BFFF73AFBC5E708A8FFF750FE4B
:1010900008980999104B00221B78002B18D1114B8E
:1010A00009F0A6FC060020000F000AF0F3FA020087
:1010B0000B003000390008F05DFD0024002304908F
:1010C00005910693079404980599069A079BD9E71A
:1010D000054BE5E7DB05001091060010DA0500106E
:1010E00095060010000024400000304010B5064B6B
:1010F0001B78002B03D00122044B1A7010BD0A206C
:10110000FFF768FFFAE7C046910600108806001056
:1011100010B50920FFF75EFF10BD10B50820FFF7DE
:1011200059FF10BD10B50720FFF754FF10BD000098
:1011300010B5054C0F202378002B00D10938FFF79C
:1011400049FF0023237010BD8806001010B5054C20
:101150000E202378002B00D10938FFF73BFF002336
:10116000237010BD8806001010B5054C0D202378A3
:10117000002B00D10938FFF72DFF0023237010BD8D
:101180008806001010B5054C0C202378002B00D1E8
:101190000938FFF71FFF0023237010BD88060010D9
:1011A00010B5054C0B202378002B00D10938FFF730
:1011B00011FF0023237010BD8806001010B5054CE8
:1011C0000A202378002B00D10938FFF703FF002302
:1011D000237010BD8806001010B50020FFF7FAFE3E
:1011E00010BDF0B589B06846FFF7A2FD00980199DF
:1011F000029C039D04F0DAFC06000F002000290089
:1012000004F0D4FB32003B0009F0F2FB049005919E
:101210002000290004F078FC32003B0009F0E8FBD4
:1012200006900791069A04980599079BFFF766FABE
:1012300009B0F0BD10B5FFF7D4FFFFF783FAFFF751
:10124000BDFDFFF791FDFFF7D1FAFFF741FE10BD9D
:101250001FB5074B1B78002B06D06846FFF768FDCB
:101260000098019905B000BD00200021FAE7C046B2
:10127000DC05001010B5FFF7EBFF0AF0D5F9942359
:10128000421F5B009A4201D2014B187010BDC0464C
:101290002200001010B5FFF7DBFF08F0F7F808F0A8
:1012A00031F9FFF785FA10BD70B5FFF7D1FF0500E2
:1012B0000C00002200232800210008F04FF800282D
:1012C00002D080231B06E41828002100FFF770FAE3
:1012D00070BD000010B5FFF7BBFFE0220B4B1206FC
:1012E00009F0F2FDFFF764FA094B0A4A18605960E9
:1012F00000210020084B1860596000230121137061
:10130000064A1170064A137010BDC0464D62603F18
:10131000301300101F11001080060010A6060010E8
:101320008C06001010B520220021134807F047FC5E
:10133000FFF78EFF114C20606160FFF789FFFFF718
:1013400037FA02000B000E490A604B6020686168A2
:1013500009F0BAFD00220B4B08F048FF01220A4BAE
:1013600018605960094B1A700023094A1370094A22
:101370001370094A137010BDD4060010C80600107F
:10138000C006001000003F40780600109C060010C8
:101390008C060010AD0600101F11001010B5FFF7ED
:1013A00057FF8022034B120608F020FFFFF700FAD8
:1013B00010BDC0465347E13F10B5FFF749FFE0229B
:1013C000034B120608F012FFFFF7F2F910BDC046FA
:1013D00045E2E33F10B5FFF73BFF8022034B1206C7
:1013E00009F006FBFFF7E4F910BDC046EB510440DD
:1013F00010B5FFF72DFF0022024B09F0F9FAFFF7B5
:10140000D7F910BD86480E4010B5FFF721FF002226
:10141000054B09F059FDC022044B120608F0E6FE08
:10142000FFF7C6F910BDC04600004040CCCCFC3FE1
:1014300010B5FFF70DFF8022034B920508F0D6FE92
:10144000FFF7B6F910BDC04611A3014010B5FFF774
:10145000FFFE0022054B09F0CBFAC022044BD20557
:1014600008F0C4FEFFF7A4F910BDC0460080664036
:10147000FB210940F7B5FFF7EBFE1D4A1D4B08F0B5
:1014800079FB0D0004000AF0CFF80AF003F9009090
:10149000019102000B002000290009F015FD002237
:1014A000154B09F0A5FA0D0004000AF0BDF80AF08A
:1014B000F1F806000F0002000B002000290009F0DF
:1014C00003FD00220C4B09F093FA00220B4B08F0AD
:1014D0008DFE32003B0008F04DFB0022074B08F068
:1014E00085FE009A019B08F045FBFFF761F9F7BD07
:1014F000BBBDD7D9DF7CDB3D0000594000004E402A
:10150000F8B5FFF7A5FE06000F00FFF7A1FE07F0F4
:10151000BDFF05000C003000390007F0B7FF284080
:101520002140C043C94307F0EDFFFFF741F9F8BD83
:10153000F8B5FFF78DFE07F08BFFC4B2FFF788FE0A
:1015400007F086FFC5B200202C1B0B49E4B2013422
:10155000FFF72EF9631EDBB29D4200D8F8BDFFF7FE
:1015600077FE06000F0020000AF094F832003B00DE
:1015700009F03EFAEBE7C0460000F03FF8B5FFF790
:1015800067FEFFF715F907F063FF0124C5B2FFF707
:10159000CFFFAC4200D9F8BDFFF75AFE060020008D
:1015A0000F000AF077F802000B003000390008F055
:1015B0001DFE0134FFF7FCF8E4B2EAE710B5FFF7CF
:1015C00047FE8022034B120609F012FAFFF7F0F8EB
:1015D00010BDC0465347E13F10B5FFF739FEE0228A
:1015E000034B120609F004FAFFF7E2F810BDC046FB
:1015F00045E2E33F10B5FFF72BFE8022034B1206B6
:1016000008F0F4FDFFF7D4F810BDC046EB510440DC
:1016100010B5FFF71DFE0022024B08F0E7FDFFF7B3
:10162000C7F810BD86480E4010B5FFF711FEC02266
:10163000054B120609F0DCF90022044B08F09AFA77
:10164000FFF7B6F810BDC046CCCCFC3F00004040D0
:1016500010B5FFF7FDFD8022034B920509F0C8F994
:10166000FFF7A6F810BDC04611A3014010B5FFF763
:10167000EFFDC022054BD20509F0BAF90022044B58
:1016800008F0B4FDFFF794F810BDC046FB210940F7
:1016900000806640F0B585B0FFF7DAFD0022284BE8
:1016A00009F0A6F9274A284B08F064FA0022244BD7
:1016B00004000D0008F09AFD09F0B6FF09F0EAFFFA
:1016C00000221F4B0090019109F092F902900391C2
:1016D00002000B002000290009F0F6FB00221B4B42
:1016E00008F084FD09F0A0FF09F0D4FF0022174B99
:1016F00006000F0009F07CF902000B002000290011
:1017000009F0E2FB029A039B09F0DEFB0022104B7A
:1017100008F06CFD002204000D00300039000D4B74
:1017200008F064FD009A019B08F024FA02000B0007
:101730002000290008F01EFAFFF73AF805B0F0BDC6
:101740000020AC40BBBDD7D9DF7CDB3D00004E4064
:101750000088C3400000594030B5264A264B127815
:101760001B7885B0002A19D0002B0ED0FFF770FD32
:101770000022224B09F03CF907F088FE0B000343DE
:1017800035D1FEF76DFD05B030BD6846FFF7D0FAE4
:10179000102269461A4807F0F1F9F4E7002BF4D05B
:1017A000184A107800281BD0431EDBB21370002BA0
:1017B000E9D0023840B2FFF79FFA04000D00FFF7AE
:1017C00047FD22002B0009F013F907F05FFE07F038
:1017D00099FE22002B0008F009FDFEF7E9FFD2E791
:1017E000FFF736FD0022084B08F000FDC4E707F0C4
:1017F00089FEF2E791060010DB0500100000B03F03
:10180000B0060010DA0500100000244010B5FFF704
:101810001FFD07F01DFEC0B2072803D8024B187049
:1018200006F0F2F810BDC0469D01001010B5FFF79C
:101830000FFD07F00DFEC0B23F2803D8024B187011
:1018400006F0E2F810BDC046C81A001010B504003A
:1018500074280CD9212C17D0FEF702FD193CE4B2F4
:101860000B2C11D80D4BE340DB0716D40CE00C4BCE
:101870001A78272353430B4A1B189B009B58984701
:101880000A2CEBD9122CE5D10023074A1370044A25
:101890001370064A1370064A137010BD210C000025
:1018A0008C06001070BC00009D060010930600100E
:1018B00092060010F0B52E4AC30085B0D3181A68FE
:1018C0005B68040000920193FEF7CEFD0500FEF771
:1018D000C7FCFEF77BFD274B6E1C5F5DFF2F10D111
:1018E000FFF7B6FC224BE4001C1920606160009AEF
:1018F000019B09F0E9FA02000B0009F079F805B044
:10190000F0BDFD2F1DD11C4F9E5D3B780235042B91
:1019100007D91A480422411C07F073F93B78013BB0
:101920003B70154A1378591C1170144AD654104B49
:10193000F6009E1930687168FEF73AFF2E003500F8
:10194000C9E70F4B06221D7827230E4902A85D43E5
:1019500007F014F900237D19EDB202AAD25CAA4265
:10196000EDD00133062BF8D13800FFF76FFFE6E723
:10197000201100105F080010590800105A080010CC
:101980008C06001053BA0000F8B52025002400266C
:1019900000272000FEF790FD00280AD12000FFF765
:1019A00089FF02000B003000390008F0E3F8060060
:1019B0000F000134E4B2202CEBD1E02230003900DA
:1019C000054B120607F0CAFC002803D1013DEDB219
:1019D000002DDBD1F8BDC0464D62503F70B50D4EB5
:1019E00034782000FEF740FD0B4B1B5CFF2B02D030
:1019F0002000FFF755F80024084D013DE2B2013404
:101A0000295DFF2902D1FFF7BFFF70BD3078FEF7D7
:101A100019FFF3E7281300105F08001034080010C6
:101A2000F7B5012006F0BEF804002220002C1DD1DD
:101A30002500174B0193019B01221E785F7830002F
:101A4000390006F00BFC39003000002206F052FC91
:101A5000271D104EFFB2F179B07906F021FC002865
:101A600005D12800FEF7DAFD0B4B185DFEBD0134F1
:101A7000E4B2023EA742EED12800FEF7CFFD019B63
:101A800001350233EDB201930A2DD4D1FF20EDE7E9
:101A900084C200007CC2000054C2000070B5002463
:101AA000FFF7BEFF0500012006F0F8FDFF2D00D076
:101AB00000240134E4B2032CF2D170BD00B50C4B0C
:101AC00089B01B78012B11D96846FFF731F904A8BA
:101AD000FFF72EF900980199029A039BFEF70EFE7C
:101AE00004980599069A079BFEF708FE09B000BD09
:101AF000DC05001010B5FFF7E1FFFFF7A9FB124C62
:101B000020606160FFF7A4FBFEF752FE2268636865
:101B100009F0DAF900220D4B08F06AFF00220C4BA5
:101B200008F064FB0B4B0122186059600020002173
:101B3000094B18605960094B1A700023084A13704A
:101B4000084A137010BDC046C00600100000E03FF8
:101B50000000244078060010800600109406001053
:101B60008C0600101F11001000B58BB0FEF74AFB69
:101B7000002815D006A8FFF7DBF880200799069A01
:101B800000060B180292039300220023049205938F
:101B9000002202980399059BFEF7B0FD0BB000BD33
:101BA00002A8FFF7C5F8802000068446039B029A2E
:101BB0000193019961440B00059906920793049AD9
:101BC0000B180892099306980799089A099BE3E76E
:101BD00010B5FFF7C9FFFFF7C7F810BD10B5FEF746
:101BE000B1FDFFF757FBFFF7F3FF10BD10B5002065
:101BF0000249FEF7DDFDFFF7EBFF10BD0000F03FEF
:101C0000274B70B50FCBFEF779FD264E307809F0E3
:101C100071FDFEF7CDFDFFF713F9234C20686168D5
:101C2000A268E368FEF76AFD204D28686968AA6823
:101C3000EB68FEF763FDFFF703F9FFF7C9FF1C4BE5
:101C40000FCBFEF75BFD307809F054FDFEF7B0FDD9
:101C5000FFF7F6F820686168A268E368FEF74EFDBA
:101C6000FEF770FDFFF7ECF8FFF7B2FFFFF730F972
:101C7000FEF768FD0FCCFEF741FDFFF7E1F8FFF737
:101C800073FF0FCDFEF73AFDFFF76EF8307809F0DD
:101C900031FDFEF78DFDFFF71BF9FFF70FFF70BD5C
:101CA0007013001038130010501300108013001030
:101CB0006013001010B5FFF794FAFEF743FDFFF72D
:101CC0007DF8FFF751FFFFF74FF8FEF78FFDFFF7A5
:101CD000FFF810BD00B5114B8DB01B78022B1AD93F
:101CE0006846FFF725F804A8FFF722F808A8FFF7D1
:101CF0001FF800980199029A039BFEF7FFFC0898D1
:101D000009990A9A0B9BFEF7F9FC04980599069A23
:101D1000079BFEF7F3FC0DB000BDC046DC050010CC
:101D200010B5FFF7D7FFFFF7D5FF10BD10B5FFF7D0
:101D3000C5FEFEF707FDFFF7F3FFFFF7BFFEFFF756
:101D400047FFFFF7BBFEFFF7C3F8FFF7DFF810BD53
:101D50007FB51025324E3378013B3370FEF7F2FC2D
:101D6000304CE3686168A2682068FEF7C7FCFFF7A3
:101D7000A5FEFFF72DFF6846FEF7DAFF2A00694649
:101D8000200006F0FBFEFEF7DDFCFEF7DBFCFFF7B4
:101D900057F8254CE3686168A2682068FEF7AEFC3E
:101DA000FFF78CFEFFF714FF6846FEF7C1FF2A001D
:101DB0006946200006F0E2FEFFF780FEFEF7C2FC57
:101DC000FFF7AEFFFFF73CF8184CE3686168A268C4
:101DD0002068FEF793FCFFF771FEFFF7F9FE6846F7
:101DE000FEF7A6FF2A006946200006F0C7FE104C49
:101DF000E3686168A2682068FEF780FCFFF75EFE7A
:101E0000FFF7E6FE6846FEF793FF2A0069462000CA
:101E100006F0B4FE307809F06DFCFEF7C9FC7FBD1A
:101E200038130010501300106013001070130010CE
:101E3000801300107FB510252E4E33780133337098
:101E4000FEF780FC2C4CE3686168A2682068FEF70E
:101E500055FCFEF789FF6846FEF76AFF2A006946CF
:101E6000200006F08BFEFEF76DFCFEF76BFCFEF724
:101E7000E7FF224CE3686168A2682068FEF73EFC39
:101E8000FEF772FF6846FEF753FF2A0069462000FE
:101E900006F074FEFFF712FEFEF754FCFFF740FF5A
:101EA000FEF7CEFF164CE3686168A2682068FEF773
:101EB00025FCFEF759FF6846FEF73AFF2A006946FF
:101EC000200006F05BFE0F4CE3686168A2682068A2
:101ED000FEF714FCFEF748FF6846FEF729FF2A00CC
:101EE0006946200006F04AFE307809F003FCFEF750
:101EF0005FFC7FBD381300105013001060130010FA
:101F0000701300108013001070B5124B1B78002B5B
:101F100012D0FEF707FB05000C00FEF703FB0200E2
:101F20000B002800210007F065FA6422002307F067
:101F30003DFAFEF7BDFC70BDFEF7F4FA05000C009B
:101F4000FEF7F0FA02000B002800210007F052FA19
:101F5000EFE7C0462100001010B51A4B1B78002B8C
:101F600016D0FEF7DFFA43B2020601D5404243B273
:101F700001200021013B5BB25A1C04D1FEF798FC02
:101F8000FFF7C2FF10BD020F090111430001F1E785
:101F90000D4B1B78002B0FD0FEF7C4FA64220023F0
:101FA00007F004FA40B2FEF7A7FE0022074B08F044
:101FB0001FFD07F06BFAE1E7FEF7B4FA40B2FEF757
:101FC0009BFEF6E79106001021000010000059402A
:101FD00070B50D4B1B78002B03D00C4B01221A70EF
:101FE00070BD0B4C2378002B0CD10A4D2B78002BA5
:101FF00001D0FEF797FA00200021FEF759FC0123DB
:102000002B702370044BE9E791060010880600103E
:102010009219001091190010AA060010F7B5364A5F
:10202000364E127833780190002A26D0002B3FD00C
:10203000FEF778FA6422002305000C0007F0B6F9D9
:102040000A22002307F0D6F906000F00280021001D
:102050000A22002307F0AAF9002530003900D4B283
:1020600000230A220019694107F0C4F92B00019AE4
:1020700080185941FEF71CFC1AE021491500097827
:10208000019C0091002B17D11E4F3B78002B01D0F3
:10209000FEF748FA009B002B0BD06422002320009F
:1020A000290007F0A7F9FEF703FC01233B7033700A
:1020B000F7BD20002900F6E7009B002B0CD0FEF7AF
:1020C00031FA0A22002307F071F9642200196941EC
:1020D000002307F08FF9CDE7FEF724FA0A4B102210
:1020E0001E780023002E01D10A22002307F082F976
:1020F00000196941BEE7C046AA06001092190010F7
:1021000021000010911900109106001010B509204F
:10211000FFF784FF10BD10B50820FFF77FFF10BD4B
:1021200010B50720FFF77AFF10BD000010B5054C71
:102130000F202378002B00D10938FFF76FFF002311
:10214000237010BD8806001010B5054C0E202378B2
:10215000002B00D10938FFF761FF0023237010BD69
:102160008806001010B5054C0D202378002B00D1F7
:102170000938FFF753FF0023237010BD88060010B5
:1021800010B5054C0C202378002B00D10938FFF73F
:1021900045FF0023237010BD8806001010B5054CC4
:1021A0000B202378002B00D10938FFF737FF0023DD
:1021B000237010BD8806001010B5054C0A20237846
:1021C000002B00D10938FFF729FF0023237010BD31
:1021D0008806001010B50020FFF720FF10BDF7B5EE
:1021E000FEF7A0F907000E00FEF79CF900900191A0
:1021F000FEF798F905000C0038003100FEF758FB97
:1022000028002100FEF754FB00980199FEF750FBCF
:10221000F7BDF8B5FEF786F907000E00FEF782F964
:1022200005000C0038003100FEF742FB28002100B9
:10223000FEF73EFBF8BD0000F0B58DB0FDF7E2FF04
:10224000002810D0FFF704F8C0222C4BD20508F06C
:10225000CFFB00222A4B07F0C9FF03F055FCFEF725
:10226000A7FA0DB0F0BD04A8FEF762FD0698079925
:10227000049C059D03F09AFC06000F002000290035
:1022800003F042FC3200029003913B0000201D4904
:1022900007F0ACFF0090019102000B003000390004
:1022A00007F068FC029A039B08F0A2FB0022164B81
:1022B00008F09EFB08900991C02022002B001349D2
:1022C000C00508F001FE03F01FFC009A019B04000A
:1022D0000D003000390008F0F7FD22002B0008F057
:1022E00087FB0022084B08F083FB0A900B910A9AA7
:1022F000089809990B9BFEF701FAB2E7FB21094008
:10230000008066400000F03F0000E03FFB21F93F05
:10231000F0B58DB0FDF776FF002810D0FEF798FFDE
:10232000C0222E4BD20508F063FB00222C4B07F095
:102330005DFF03F03BFBFEF73BFA0DB0F0BD04A8D8
:10234000FEF7F6FC06980799049E059F03F02EFC05
:102350000400C0200D0032003B002249C00508F0F7
:10236000B3FD03F0D1FB2200029003912B0000206B
:102370001D4907F03BFF0090019102000B00200077
:10238000290007F0F7FB029A039B08F031FB0022BB
:10239000164B08F02DFB089009913000390003F02E
:1023A000B3FB80231B06CE180700009A019B200078
:1023B000290008F089FD02000B003800310008F008
:1023C00017FB0022094B08F013FB0A900B910A9AA5
:1023D000089809990B9BFEF791F9AEE7FB2109409C
:1023E00000806640FB21F93F0000F03F0000E03F25
:1023F00070B5064C0500200006F019FC691C421B54
:102400006118601906F0BAFB70BDC0466306001083
:1024100070B50D0004000A21280006F099FE303145
:1024200020236170092D0AD90A21280006F00AFE2E
:102430000A21C0B206F08CFE0B003033DBB22370F1
:1024400070BD000010B5FFF739FBFEF77BF9FFF711
:1024500067FC00200349FEF7ABF9FEF739FDFEF7F4
:10246000EFFC10BD00005940F0B52C4B85B00700C3
:1024700018780291FDF7F8FF00231C001D0003905F
:102480000193039BE918264B5A5CFF2A02D101985D
:1024900005B0F0BDFD2A22D1212CF2D85B18032112
:1024A0005B783A1919409B08313353704131029BD4
:1024B0001170A21CD2B2002B0DD01A4B1B78002B2E
:1024C00009D0023B9D4206D103347F213800E4B29B
:1024D000FEF704F9220002351400EDB2D1E7222CF8
:1024E000CFD8114B661C9B5CF6B23B55029B002B70
:1024F0000FD00C4B1B78002B0BD0013B9D4208D119
:10250000023432007F213800E4B2FEF7E7F801968A
:10251000260001353400EDB2B3E7C04628130010A1
:102520005F0800106006001098C2000070B500241B
:102530008AB003AD18222021280006F040FB204974
:1025400001AE0622300008312C7606F017FB1D4B39
:102550001A78A24210D0335D1B49A2009B002800CC
:10256000D2B2C9180134FEF74FFA062CF3D1280075
:10257000FEF756FA0AB070BD144B1C78002C0DD033
:102580001400335D1249A2009B002800D2B2C91882
:102590000134FEF739FA062CF3D1E8E70D4A127838
:1025A000002AE4D0335D0C49A2009B002800D2B27F
:1025B000C9180134FEF728FA062CF3D1D7E7C04634
:1025C00050BC00009A060010230000109F06001067
:1025D0006D000010A806001085010010F0B54A4EED
:1025E0008DB03378002B41D0FDF70CFE00283DD094
:1025F000FEF72EFE337804000D00002B30D0FDF7DF
:1026000001FE00282CD0FEF723FE404B1B78002B48
:102610000AD0089409950A900B91089809990A9A8A
:102620000B9BFEF76BF81FE0C022394BD20508F078
:10263000DFF90022374B07F0D9FD06000F0003F049
:10264000B5F922002B0008F0D3F908900991300069
:10265000390003F059FA22002B0008F0C9F9DAE733
:1026600020002900FEF7A4F80DB0F0BD6846FEF783
:102670005FFB009C019D029E039F244B1B78002B57
:1026800014D0002200230496059716001F0006921E
:102690000793069A079B04980599FEF72FF83200D6
:1026A0003B00089409950A920B93B6E732003B0071
:1026B00020002900FEF784FA0022002304900591EF
:1026C0000692079304980599069A079BFEF716F859
:1026D00022002B002000290008F08AF932000400B3
:1026E0000D003B003000390008F082F902000B00B9
:1026F0002000290007F03EFA03F0C6FA002200236A
:1027000008900991CFE7C046DC05001020000010BA
:10271000FB21094000806640F0B58BB002A8FEF7AF
:1027200007FB029E039F049C059D32003B00300086
:10273000390008F05DF92200009001912B00200083
:10274000290008F055F902000B000098019907F0E4
:1027500011FA03F099FA03F061FA2200069007914A
:102760002B0030003900FEF72BFAC022084BD205AF
:1027700008F03EF90022074B07F038FD0890099158
:10278000089A06980799099BFDF7B8FF0BB0F0BDB2
:10279000FB2109400080664010B5FFF7BDFF002017
:1027A0000349FEF705F8FFF7B7FFFEF791FB10BDF1
:1027B0000000244010B5FEF7F7FAFDF7C3FFFDF760
:1027C000C1FFFDF7BFFFFDF7BDFF00201849FDF772
:1027D000EFFFFEF735FBFFF771F900201549FDF714
:1027E000E7FFFEF72DFBFEF7E9FAFFF7F1F9FEF739
:1027F000E5FAFEF7B9FAFFF78FFFFFF7F7F9FEF7F3
:102800001FFBFFF75BF9FFF787FFFFF7ADF9C0206C
:102810000949C005FDF7CCFFFFF77EFFFEF7A4FADC
:10282000FDF7E4FFFEF754FBFEF79EFA10BDC0462D
:102830000000284000002440FB21194030B58DB035
:102840006846FEF775FA04A8FEF772FA049805992F
:102850000022002306F07CFD0024002500282AD059
:102860000698079922002B0006F072FD002822D05E
:102870000098019922002B0006F06AFD002815D06F
:102880000298039922002B0006F062FD00280DD06B
:102890001022124908A8891806F070F908980999B9
:1028A0000A9A0B9BFDF72AFF0DB030BD08940995DD
:1028B0000A940B95F2E704980599069A079BFDF791
:1028C0001DFFFFF729FF00980199029A039BFDF76E
:1028D00015FFFEF7B5FAFEF784FCE5E750BC0000F3
:1028E00010B5FFF7EBF800200D49FDF761FFFEF78B
:1028F000EFFAFDF727FFFFF7EDF9FEF755FAFFF7BF
:10290000DDF8FFF79BFFFDF71DFFFFF76FF9FFF7FE
:10291000D5F8FEF7DDFAFFF7D1F8FEF7D9FA10BDCA
:102920000000594010B500200449FDF741FFFFF7B2
:10293000F3FEFEF785FAFEF754FC10BD00002440BC
:102940001FB56846FEF7F4F90098019900220023AC
:1029500006F0FEFC002805D000200021FDF728FF2E
:1029600005B000BD029A039B00980199FDF7C6FED1
:10297000FFF7D2FE00200449FDF71AFFFEF760FAC8
:10298000FEF72FFCECE7C0460000E03F10B5FFF774
:1029900095F8FDF72BFFFEF79BFAFDF7D3FEFDF749
:1029A000D1FEFEF74DFAFFF7BBF9FFF711F9FFF77C
:1029B000C7FFFDF7C7FEFFF7B3F9FFF7D5F8FDF73F
:1029C000C1FEFFF7ADF9FEF7CFF9FFF783F9FFF787
:1029D00075F8FFF7FDF810BD10B5FEF77FFAFDF7AB
:1029E000B1FEFEF72DFA0E4C207808F083FEFDF7BD
:1029F000DFFEFEF725FAFFF7B7F80A4B0FCBFDF71E
:102A00007DFEFEF7B1F9207808F074FEFDF7D0FEE8
:102A1000FFF7ECF8FEF75CFAFFF792FF10BDC04637
:102A2000381300106013001010B5FDF78BFEFEF791
:102A300067FAFFF799F8FEF7B7F9FFF781FFFFF79D
:102A40003DF8FDF7DBFEFEF7FBF9FEF78DF9FFF72A
:102A500063FEFDF7D3FEFFF787F8FEF7F1F9FDF708
:102A6000D1FB00280CD0FEF7F3FB0022054B07F04A
:102A7000BFFFC022044BD20507F0B8FBFDF798FE5C
:102A800010BDC04600806640FB21094010B5FFF72D
:102A9000CBFFFFF769F8FDF7B5FB002806D0002053
:102AA0000449FDF785FEFEF75FF910BDC02002491D
:102AB000C005F6E700805640FB21F93F10B5FDF751
:102AC00041FEFEF71DFAFEF76FF9FFF739FFFEF73B
:102AD00075F9FEF7B5F9FFF7A7FF10BD10B5164B56
:102AE0001B78002B0AD0FDF72DFEFFF7E3F8FEF769
:102AF000E5FFFEF79FFBFEF7EBF913E00F4B1B78AA
:102B0000002B10D0FDF71EFEFEF74EF9FEF7D6FFA4
:102B1000FFF72AF8FEF748F9FEF7DAF9FFF710FF9A
:102B2000FFF7FAFD10BDFDF70DFEFFF785FBFEF781
:102B3000C5FFFFF7EDFBDEE79206001093060010DD
:102B400010B50D4B1B78002B02D0FEF773FB10BDA8
:102B50000A4B1B78002B0CD0FDF7F4FDFEF7D0F9E3
:102B6000FFF744F8FFF7ECFEFEF7FEF8FFF7D4FDA1
:102B7000EDE7FFF7CDFBEAE79206001093060010A1
:102B800010B50D4B1B78002B02D0FFF793F810BD4A
:102B90000A4B1B78002B0CD0FDF7D4FDFEF7B0F9E3
:102BA000FEF702F9FFF7CCFEFEF7DEF8FFF7B4FD03
:102BB000EDE7FFF741FBEAE79206001093060010ED
:102BC000F0B58FB00BAC0190029105922021082244
:102BD0002000089305F0F3FF00232372734B0022BB
:102BE0001B780493002B3CD000230198029906F037
:102BF000B5FB8022029B12069D18002800D11D0003
:102C0000290000226A4B019806F0A8FB0BAD0028B2
:102C100008D030232B702000089A0599FDF7C6FADA
:102C20000FB0F0BD0198029906F04EFC0F2703008B
:102C30000DA81A000A4300D1F7E2A84203D15D496A
:102C400005F0FDFFE7E71E003E4032003032392A32
:102C500000D92732013802701B090A0713430909FA
:102C6000E7E700230198029906F078FB019D002810
:102C700059D080220A27029B12069C1821004E4A36
:102C80004E4B019806F088FB00282BD121004C4ABE
:102C90004C4B019806F06CFB002807D00022002363
:102CA0002100019806F06EFB00281BD1019A230039
:102CB0001000210008F09AFC002813D101226600C0
:102CC00076083100404B0198524208F08FFC0028F2
:102CD0002CD1012231003C4B0198524206F048FBB6
:102CE000002823D133490BA805F0A9FF0BA8FDF755
:102CF00073FE06260BAD2878002800D190E7334BF1
:102D000005991C782E2804D1091BC9B20A1BD3B21D
:102D100005937443089AFDF7D3F9059B01351C19F7
:102D2000E3B20593E7E70127029CA7E72100244AC5
:102D3000244B019806F012FB00281AD12100244AE6
:102D4000244B019806F028FB002800D184E13800CC
:102D500008F0A0FC02000B0000201F4907F046FA13
:102D600002000B000198210006F0F8FA002800D1BB
:102D700072E1002200232100019806F0E9FA002800
:102D800000D108E130230BAA1370144B19780029E5
:102D900001D02E2313700123302001E0D0540133E1
:102DA000DCB2A142A2D9082BF8D19FE7910600100E
:102DB0000000F03F5ABA00007DC39425AD49B254DB
:102DC0003EC3D84E7D7F612BFFFFEF7F1B000010BD
:102DD000FCA9F1D24D62503FD0126341DA050010D8
:102DE00028002100964B002207F002FE0C0005008F
:102DF0000398013843B20393002228002100914B2D
:102E000006F0ACFA0028EBD16B461B7B0022069340
:102E1000280021008B4B06F0BFFA00220990002801
:102E200000D0BAE000230299019806F097FA431EF9
:102E300098410723181AC3B20793FDF75DFF0200FC
:102E40000B002800210007F0D3FD00227E4B060076
:102E50000F0006F08FFE08F0E7FB39000400300099
:102E600008F0E2FB0A2705002000099E002800D098
:102E70009FE00A27002D00D0A1E0049BB34208D2B6
:102E800020000A2106F068F904000698013043B2D8
:102E900003936B461D7B079B581B40B2FDF72CFF2D
:102EA00006000F00200008F0F5FB3B00320007F0A1
:102EB0009DF908F0B9FB39000490300008F0B4FB2C
:102EC0000100200006F02EFA039B0C00002B13DA01
:102ED000684240B2FDF710FF06000F00200008F026
:102EE000D9FB32003B0007F081F90022564B06F077
:102EF00041FE08F099FB04006B46039A1B7B002AF5
:102F000000DA0023079AD31ADBB203934F4B1B78E6
:102F10000693002B00D181E04D4B1D78002D7ED013
:102F20000BAF3D000A264B4B039A1B78D31A07932D
:102F30007B1B0399DAB291424BD80B000DACE41A1B
:102F40002E230A25013C2370049B002B6AD100220A
:102F500000230198029906F001FA002802D02D23DF
:102F6000013C2370069B002B04D0394B1B78002BAF
:102F700000D0BBE6200005F05AFE00220138C0B2A6
:102F80002018844200D1B1E60378302B00D0ADE6A2
:102F900002700138F5E703902EE728002100284B46
:102FA00007F024F9050006980C00013043B20393A2
:102FB0002AE73900013606F0CFF8F6B256E72800C6
:102FC000390006F0C9F8049B05000133DBB2049315
:102FD00050E7079A2021934205DD3100200006F0DA
:102FE000A1F93031C9B2E9712000310006F0B4F81E
:102FF000013D04009CE72000390006F093F93031D0
:1030000020003170390006F0A7F804000135EDB258
:10301000039B013EAB42EED10DAC90E7069D0A2723
:103020000DAEF5E70498290006F07CF9013C30313B
:1030300004982170290006F08FF8049084E7C046B8
:10304000000024400000F03F0000E03FDB050010DE
:103050009E060010DA050010002300220198029954
:1030600006F07CF9431E98410023060003930022DA
:10307000280021006F4B06F071F9002800D094E081
:103080000022280021006B4B06F086F9002800D0B2
:1030900096E0039B07300833122B00D80820861BCC
:1030A000F3B20693069BD81E40B2FDF725FE020040
:1030B0000B002800210007F09BFC00225E4B06005D
:1030C0000F0006F057FD08F0AFFA39000500300098
:1030D00008F0AAFA002604000A27280000287BD15D
:1030E0000A27002C7ED1049BB34207D228000A2174
:1030F00006F032F80500039B013303930698043869
:1031000040B2FDF7F9FD06000F00280008F0C2FAF2
:103110003B00320007F06AF808F086FA3900040034
:10312000300008F081FA0100280006F0FBF8039B4C
:103130000D00DB0F0493039B5E1E01D50126F61ADA
:1031400030000A2106F0EEF80BAF30313000F97193
:103150000A2106F001F80B260AABF618002807D062
:103160000A2106F0DFF80A2630310AABB971F618E9
:10317000049A2B23013E002A00D002330A27337021
:10318000013E002D38D12E230A353370002C3FD15B
:10319000002200230198029906F0E0F8002800D1EF
:1031A000A4E52D23013E3370A0E528002100234B28
:1031B000002207F01DFC039B05000C00013B55E7B6
:1031C000280021001D4B002207F010F8039B05008A
:1031D00001330C00039353E73900013605F0BCFFBF
:1031E000F6B27BE72000390005F0B6FF049B04002F
:1031F0000133DBB2049374E72800390006F092F83B
:10320000303128003170390005F0A6FF0500B7E71E
:103210002000290006F086F8013E30312000317090
:10322000290005F099FF0400B0E72800FDF7D4FB62
:10323000F1E4C0460000F03F0000E03F0000244001
:10324000F7B50C0015000090FDF736F9002822D0E4
:103250000098FDF709F9230027001C4E2A33DBB242
:10326000361801937078FF2809D039002A00FCF73E
:1032700027FF0637019BFFB201369F42F2D1144B64
:10328000009A1B78934205D1063C2A00B220E1B295
:10329000FCF716FFF7BD009BDA000E4B9B181E686B
:1032A0005F68002200233000390006F051F8002842
:1032B00005D02A002100CC20FCF702FFDFE72B001D
:1032C000220030003900FFF77BFCD8E75F080010D0
:1032D000281300102011001070B5174B1C78174BE5
:1032E0001B78002B03D0032C01D9043CE4B2144B0F
:1032F0001B78002B03D0002C01D0013CE4B2002548
:10330000104E2A00200006213570FFF799FF601C3F
:103310002A003B21C0B2FFF793FF0135201D2A0090
:103320000621C0B205343570FFF78AFF2A003B2121
:10333000E0B2FFF785FF70BD281300102A130010BC
:10334000291300106106001010B50A4B1B78002BE2
:1033500003D00948FDF764FB10BD084B084A1B78F1
:103360001278134302D0FFF7E1F8F5E7FFF7B4FF57
:10337000F2E7C046A30600105EBA0000A5060010E2
:1033800097060010F7B5FDF763FF0D00040004F089
:103390005BFD684601A904F0FFFD2900200006F04E
:1033A00057F880266B461A4FC0B21880F6052900E0
:1033B0002000FDF7FDF9FEF711FC30003900FDF7A4
:1033C000F7F9FDF7D1FCFDF7A1FDFDF741FF06F090
:1033D0003FF86B46290098702000FDF7E9F9FDF7EA
:1033E00095FDFEF7FBFB30003900FDF7E1F9FDF735
:1033F000BBFCFDF78BFDFDF72BFF06F029F86B46B4
:103400000022D87001A9684604F00AFEF7BDC04644
:10341000E17A743F37B5FDF71BFF0D00040004F09F
:1034200013FD684601A904F0B7FD2900200006F04D
:103430000FF86B4680222900D20518710B4B200033
:1034400006F098FBFDF7B4F9FEF7C8FBFDF700FFA7
:103450000022074B07F0CCFA05F0FAFF6B4600227A
:10346000587101A9684604F0DBFD37BDE17A743F6D
:103470000000594013B504F0E7FC01A9684604F0C8
:103480008BFD6B46987806F027FB164906F00CFA80
:103490006B46041C188806F01FFB011C201C06F05C
:1034A00065F86B46041CD87806F016FB0E4906F04A
:1034B000FBF9011C201C06F059F8041C684604F0B6
:1034C000DFFD072105F02EFF080006F005FB074988
:1034D00006F0EAF9211C06F049F808F031F9FDF789
:1034E00067F913BD0000C84200401C460050C347A6
:1034F00007B504F0A9FC684601A904F04DFD6B4630
:103500003C205B7958436B469B79C0180EBD10B5C3
:10351000FEF7C4FA04F032FD04F04BFA002001215A
:1035200005F08AF8002004F03DFB002802D10121BB
:1035300005F082F804F08EFA10BD0000F8B572B6FE
:10354000B120FDF79DF80020FDF79AF81020FDF757
:1035500097F8E020FDF794F80024144D01222E5D29
:103560000021022004F0C6FE01343000FDF76AF8A5
:10357000842CF2D1B020FDF783F80020FDF780F80D
:103580001020FDF77DF88426E020FDF779F876001D
:103590002F5D01220021022004F0ACFE013438002E
:1035A000FDF750F8B442F3D162B6F8BD2012001016
:1035B000F0B59FB005F060FB04F0B4FA0021DC48E0
:1035C00004F0BAFE0021DB4804F0B6FE04F015FB5F
:1035D00001220421002004F041FE002204211000F9
:1035E00004F088FE01220521002004F037FE0022AD
:1035F0000521100004F07EFE002004F073FDA022DF
:10360000FF215200CC4805F0DAFAF022FF21D20067
:10361000CA4805F0D4FAFFF76BFF00230990039323
:10362000C74B1B68002B50D0C64B1C78002C47D1D1
:1036300084222100C448520005F0C1FAC34BC44D96
:103640001E782C70002E00D1A9E0C24DC24B28007C
:103650001C7005F0ECFA002800D19AE0BF4E7F21E3
:1036600028003278FDF73AF8280022000321FCF701
:103670009DFD3078FEF7BCFE01220325B64B1A7083
:10368000B74B012218782900000120302018C0B261
:10369000FCF716FDB34B1B78A34206D10635EDB2FD
:1036A000012229007F20FCF70BFD01340635E4B22E
:1036B000EDB2102CE4D1AC4B1B78002B00D1E6E12D
:1036C000FFF73CFF00229E4B1A60A849A84F0B78D9
:1036D0000093002B01D100F0F9FDA64AA64813780B
:1036E000C05C3870FF2803D0312B01D800F0E8FD12
:1036F00000230B70FEF7D2F9A04BA14A1B78127879
:103700001343A04A127813439F4A12781343FF22AF
:103710000392002B02D18A4BFE3A1A60FFF7E8FEB3
:10372000099B934FC01A994B1B78984201D92223C9
:103730003B703878FF2829D0039B984226D08B4BCA
:103740008E4A1B78127813438D4A127813438D4AA0
:10375000127813438C4A1278134302D10122784B1A
:103760001A608B4B1B78002B05D0824A1378591CAA
:103770001170814AD054222801D000F0E3FFFF23CA
:103780003B70FFF7C4FEFFF7B3FE0990784B1B7840
:1037900045E7220003217F20FCF792FC6CE77D4B7C
:1037A0001F78002F28D001257B4C7C4B22786A4F54
:1037B000D2009B1818685968032233003E70FFF747
:1037C000FFF92A000321B3203D70FCF779FC24782F
:1037D00014AF61193800C9B2BE70FEF719FE2A0095
:1037E0000F213800FCF7E2FC2A0021216C4BA400D9
:1037F000E058FCF7DBFC5EE75B4B1B78002B71D0DD
:10380000684E694B1C685D68326873682000290047
:1038100007F05AFB02000B002000290006F0E6FC2E
:103820000022624B07F0E4F805F012FEC3B20093E9
:103830005F4B1C685D685F4B20001A685B6829005D
:1038400007F042FB02000B002000290006F0CEFC2E
:103850000022594B07F0CCF802000B00002056491B
:1038600007F032FB05F0F4FDC3B2200001240493FD
:10387000394B022229001F703B00FFF7A1F94D4B85
:103880003222186859683B00FFF79AF9324B02223E
:103890001C70454B186859682300FFF791F9306890
:1038A000716823003222FFF78BF93C000F262500B8
:1038B000424B6235E15CEDB2711A2800C9B2FCF7E7
:1038C0008BFC013428000499FCF786FC202CEED1F7
:1038D000FF2100981C4A6230C0B21318843319705B
:1038E0001154E8E6364B1C78002C00D1A9E1354B89
:1038F000354A1B781278134302D0FEF717FEDAE63A
:10390000324B1D78002D74D014AC192220003049A0
:1039100005F034F9022D5FD120002E4905F08FF912
:10392000DD23237423732000FDF77AF8C3E6C04635
:10393000984004409C4004405F0800109F0900101C
:103940001C000010A4060010201200108F060010AA
:103950008B0600106306001061060010620600105E
:10396000D9050010D80500109B060010990600101C
:10397000AC060010580800103B000010A60600100E
:10398000A7060010940600109C06001022000010EC
:10399000A106001098060010D3060010C0C2000057
:1039A000E0C30000C8060010C00600100000404040
:1039B00000070010F806001000003040D406001088
:1039C0009A060010A5060010970600109D0600102C
:1039D000EABA000077BA0000032DA4D12000D7492D
:1039E00005F02DF9E0232373237001332374237131
:1039F00099E7D34AD34B12781B78002A3FD0022193
:103A0000D14A1170D14A1570002B34D0013B1A01F4
:103A1000CF4B9B18CF4A186859681278002A15D1E5
:103A20009C68DD6802000B0006F0E2FF2200060041
:103A30000F002B002000290006F0DAFF02000B0027
:103A40003000390006F096F802F01EF90123C24C4E
:103A50000C2223700023FFF7B3F80021BF4B217025
:103A60001B788B4203D00A00B220FCF729FB01220D
:103A7000B54B1A701FE600220C215F20F5E700927B
:103A8000002B6FD1012208215F20FCF719FB0026D3
:103A900012AC04222021200005F091F8B04B370031
:103AA0001D782671B5420FD011AC04F0CDF920007D
:103AB00014A904F071FA20220CAB9B181F78013274
:103AC0000CAB9B18E5781E780022A04B1A7004F00E
:103AD00023F9AF231B01984200DBA248A24B984276
:103AE00000DA1800A14BAF21C0180A2389005843FF
:103AF00005F032FB2C23C0B25B424008181A12AB0F
:103B0000D870974B1C78002C00D1E9E2290012A84C
:103B1000FEF77EFC12AD00226D212800FCF746FB6B
:103B200001228A4B1A70002C00D126E339002800AC
:103B3000FEF76EFC0A21300005F00AFB3031E97017
:103B400030000A2105F07EFA0A21C0B205F000FB20
:103B50003031A97001226D2112A8FCF727FBAFE5D7
:103B6000012300936A46774B12781B780492009ADF
:103B7000934262D901220499521AD2B2089208994A
:103B8000724A1170009A9B1A013B714A1B01D318AB
:103B90001E685F689C68DD686E4B1B78002B21D126
:103BA00032003B003000390006F022FF22002B00DB
:103BB000069007912000290006F01AFF02000B0072
:103BC0000698079905F0D6FF02F05EF822000690ED
:103BD00007912B0030003900FCF7F2FF069E079F8B
:103BE00004000D00049B002B02D101225A4B1A70D5
:103BF000082230003900089BFEF7E2FF0022564BF6
:103C000020001A7029000022002305F0A1FB0028E3
:103C100005D13B2220002900089BFEF7D1FF4F4B26
:103C20001B78002B09D0049B002B06D10122474BA7
:103C3000B22004991A70FCF743FA009B012B8FD134
:103C400039E54B4B1B78002B4AD0404E21222100F6
:103C500015A83470149404F0B2FF012114A8FEF7E3
:103C600003FC050014A804F0E2FFC2B2002A10D140
:103C700003217F20FCF724FA012333703D4A117899
:103C80003D4AC9005218106851680322FEF798FF98
:103C900011E5102D22D92C000627103CE4B2290092
:103CA0001039611A794314AB185D033101340022D5
:103CB000C9B2E4B2FCF704FAA542F0D2DCE729006D
:103CC000614303310022C9B20134FCF7F9F9112C28
:103CD000D2D014ABE05C0028F1D1CDE70625F8E79F
:103CE000264B1C78002C02D0FFF72EFBE3E4244B7C
:103CF0001B78002B46D0154D2122210015A82C70D1
:103D0000149404F05CFF210014A8FEF7ADFB3122EF
:103D10000CAB9B181C70113A0CAB9B181B78002243
:103D20000321002B05D15F20FCF7CAF901232B707A
:103D3000A4E714A8FCF73AFAF8E7C04690BA0000E6
:103D400089060010DC0500101B0000106106001041
:103D5000E0050010200000109E060010DB0500109A
:103D60008B060010EF0A000034080000CCF7FFFFBC
:103D7000A006001028130010201100109F0600104C
:103D80008D060010C64B1B78002B00D149E1C54BB6
:103D90001B78002B01D0C448C6E5C44A00931478B0
:103DA000002C44D11322202114A804F008FF332250
:103DB0000CAB9B1820211C705F230CAA52181370A7
:103DC0001D39012214A814E53B4300D094E0B84B00
:103DD0000CA91A7833235B18002A0AD0B54A127846
:103DE000002A06D10A0032212E23521813700CAA81
:103DF0008B183022013B1A7014A8FCF7EDFD062445
:103E000014AD2878002800D0FEE0AB4B1B78002BC7
:103E100007D0049B002B04D101221900B230FCF71B
:103E20004FF9009B012B00D145E4012300936B4621
:103E30009E4C1B78009A049323789342F1D9012376
:103E4000049A20219B1ADBB20693069A9B4B14A876
:103E50001A70132204F0B3FE332100220CAB5B185E
:103E60001A70009923785B1A013B9549DB00CB1847
:103E70001E685F6833009742A6DA3C0000275E4266
:103E8000A741012308938B4B1B78002B36D033249A
:103E90000CAAA4180322002394460CA91E3252181F
:103EA000180061460133DBB2084202D12021013CF7
:103EB00021700F25354028003030392800D92730AF
:103EC00039073509013C29432070381107000800E3
:103ED0000E00384301D101F0A3FB9442E0D8089BC7
:103EE000002B04D02D23013C23703E4384D0754920
:103EF00014A804F0A4FE7FE70892C4E76C4B1D7879
:103F0000002D58D00A2200233000390005F04EFA67
:103F10000A220C00050039003000002305F046FAA3
:103F200032210CAB5B1830321A7021000A220023B8
:103F3000280005F03BFA31210CAB5B1830321A70C7
:103F400021000A220023280005F030FA0F0030215A
:103F50002E2306000CAA5218137018AC2D3B320009
:103F60003A4301D101F05CFB21220CA95218944282
:103F7000B5D922781D002E2A0AD055225242534329
:103F80000135DBB2EDB2552B02D82023013C237062
:103F9000300039000A22002305F008FA013C3032D3
:103FA00000233000390022700A2205F0FFF92B00AF
:103FB00006000F00D3E733240CABE41855222B0086
:103FC000524253430135DBB2EDB2552B02D82023C8
:103FD000013C2370300039000A22002305F0E6F985
:103FE000013C303200233000390022700A2205F0F3
:103FF000DDF9030006000F000B4301D101F010FBB7
:1040000014AB9C42DAD86AE72100069AFCF758F80C
:104010002B78202B03D00634E4B20135F1E60334CB
:10402000FAE7294B1B78002B32D0284B1D78284B00
:104030001B781D4300D060E4264BEEB21C78671954
:10404000FCF7DAFA874201DBFFF735FBA4191B4BBB
:10405000E4B220001E70FCF7ABFA01340700E0B2B6
:10406000FCF7A6FA1C49C41B7918013C14AF2200C6
:10407000380004F083FD00233200032138003B5553
:10408000FCF794F8012D01D1FFF715FB0125D3E7CB
:104090001248FCF7C5FC01232B70FFF70CFBC04650
:1040A000A9060010AB060010A9BA00009319001071
:1040B00021000010910600109219001061060010F6
:1040C000981900105ABA0000A8060010A5060010A2
:1040D000970600109013001085000010C2BA00006F
:1040E000B94B1B78002B02D0EC230CAA9376B74B6C
:1040F0001B78002B02D0DA230CAA9376B44B12AAB9
:104100001B78002B05D0B34B1B7859424B41BD3374
:104110005370B14B1B78002B01D065331370AF4B3C
:104120001A7812AB002A22D048221A70AC4A1278B0
:10413000002A05D0AB4A1278312A01D8D8221A7049
:10414000A94BAA4A1B781278134300D1E2E4A84B8A
:104150001B78002B00D0DDE40321A64B12AA1B78AC
:1041600019409B084131313311705370D2E4A24A97
:104170001278002ADAD06822D7E70422202128000A
:1041800004F01DFD984B2C711B78002B13D0994B1C
:104190001E783000FCF790F900286DD03000FCF755
:1041A00063F9964B0130C018035DFF2B03D02B55EC
:1041B0000134042CF8D18D4B914A1B7812781343AB
:1041C00003D028008F4904F03AFD8F4B1B78002B59
:1041D00008D01A208D4B19780CAB0131C9B2C01828
:1041E000FEF716F97A4B1B78002B01D101F010FA7B
:1041F000874B1B78FF2B01D0D623AB70854C002258
:1042000020686168002305F0A3F8002847D1E32265
:1042100012ABDA70804B814A1B7812781343804AC4
:10422000127813437F4A127813437F4A127813435C
:1042300012AA002B01D0E223D3707C4B1B78002BF9
:1042400005D07B4B1B78002B01D02E23D370794BEC
:104250001B78002B01D0A923D370774B77491B78AB
:10426000002B05D1764B1B78002B00D172E47549E9
:10427000280004F0E4FC6DE42100212214AE15A80E
:10428000149404F09CFC21003000FEF7EDF8335D3F
:10429000002B90D02B550134042CF8D18BE7002251
:1042A000A068E168002305F053F80028AFD05F4B09
:1042B0001B78002BAED0644A0CCA1343A7D1A9E7E0
:1042C00001331370FF230393FFF728FA544B1C7834
:1042D000002C5ED05D4A13780133DBB213701D22CF
:1042E0003A70012B01D1FFF719FA594E34687568FD
:1042F000022B0CD1FCF7ACFF22002B0005F03AFC9E
:10430000E02230607160534C534B120613E0032BD4
:104310001BD1FCF79DFF0022504B06F069FB020009
:104320000B002000290006F0CFFDE0223060716014
:10433000484C4B4B12062068616805F01BFC20605E
:104340006160FCF735FAFFF7E9F9042B06D1FCF7B9
:104350007FFF0022414B06F04BFBCDE7FCF778FFD7
:1043600002000B002000290006F0AEFD00223D4BAC
:1043700005F03CFFE022384B120605F037FFFCF752
:1043800017FA0122384B1A60254B009A1A70FF2346
:1043900017E0224B1B780493002B00D1BFE02B4E7B
:1043A00033780133DBB23370022B5FD808D1FDF7CD
:1043B00085FBE02028490006FCF7FAF9FCF7D4FC5D
:1043C0001D233B70FFF7AAF991060010A20600100A
:1043D0009A060010200000108C06001092060010B3
:1043E000A1060010580800109F060010A00600103B
:1043F0008D06001028130010930600105F080010AF
:104400008F060010DBBA0000A80600109013001001
:104410003B0000104013001099060010A706001082
:10442000A6060010940600109C060010A9060010B5
:104430002100001088060010A5060010E0BA000058
:1044400097060010E5BA0000B81900101F110010FF
:1044500080060010301300104D62503F00002040D5
:104460004D62603F000028401C000010FDF726FB55
:10447000FCF72EFD0020D149FCF79AF9FCF774FCFB
:10448000E020CF490006FCF793F9FDF717FBFCF796
:104490001FFDFCF7DDFEFCF78BF907000D00FDF7B3
:1044A00097FB0022002338002900347004F056FFE7
:1044B000002802D080231B06ED18E022C14C3800F2
:1044C0002900BF4B1206267804F048FF00280AD1C5
:1044D000142E0AD8FCF736F9FCF734F923780133A7
:1044E0002370FFF71BF9142E0ED90CA8FCF720FC43
:1044F0001022B54914A8891804F040FB14981599A6
:10450000169A179BFCF7FAF80122B04B1A600022AA
:10451000AF4B1A70AF4BFF321A70FFF7FFF8AE4B7C
:104520001E78002E6BD0AD4B1C780134E6B21E70A5
:104530001D233B70012E01D1FFF7F0F8A84B1C683A
:104540005D68022E0CD1FCF783FE2B00220005F0E3
:1045500011FBA34B18605960A24B18685968F0E62C
:10456000A14B1A685B6800920193032E10D1FCF7EF
:104570006FFE22002B0005F0FDFA994B1860596080
:1045800000980199974B1A685B6805F0F3FAD8E632
:10459000162E20D80022F3071BD58023DB050492BA
:1045A0000593FCF755FE049A059B06F021FA2200BC
:1045B0002B0005F0DFFA8A4B18605960B01E07F037
:1045C00069F8009A019B06F013FA864B1A685B683B
:1045D000DBE7864BE3E7FCF73BFE009A019B2000FC
:1045E000290006F005FA0022814B05F0FFFDFCF7DB
:1045F000DFF80122754B1A60774B049AC6E67D4DB1
:104600002B78002B00D191E0744B1C780134E4B27C
:104610001C701D233B706B4B1A78002A41D1012C72
:1046200001D1FFF77BF86F49086849680090019154
:10463000022C0AD1FCF70CFE6F4B186059606F4BCF
:1046400018605960009801997BE6222C24D8FCF769
:10465000FFFD6A4D06000F0002000B002868696824
:1046600004F090FE002801D02E606F60624D320091
:10467000286869683B0004F071FE002801D02E60B4
:104680006F60A01E07F006F8574B1A685B6806F0CB
:10469000AFF9009A019B78E750490A7001221A701D
:1046A000D0E7012C01D1FFF739F8212C2ED8534B3C
:1046B0001C685D68FCF7CCFD02000B00200029009F
:1046C00006F002FC4C4B06001A685B680F002000E5
:1046D000290006F0F9FB02000B003000390005F05C
:1046E00085FD0022464B06F083F901F0B3F93B4B00
:1046F000444C1D7804F0ACFE6419023C2070681E26
:1047000006F0C8FF384B1A685B685CE70CA8FCF73A
:104710000FFB0CA8FCF70CFB01232C4A2E70136036
:10472000FF223A70384A1370FEF7F8FF0A20374B21
:1047300003211B78584303F07FFFFDF771F93870B0
:10474000FEF7ECFF324B1C78002C00D13BE11D281A
:1047500002D0122800D0A5E02E4B1B780393002B2B
:1047600060D02D4B1D782800FBF77EFE040028004A
:10477000FCF796F9294F380004F059FA050020207B
:10478000FBF772FE264E021B611E60198919801903
:1047900004F037FAFE2300253355380004F047FAB9
:1047A000A84206D97A5D631CF3185A550135072DC6
:1047B000F3D10022164B1A70FEF7E5FF0000F0BFA0
:1047C0004D62503FAD06001050BC00001C000010B0
:1047D000A7060010AC060010940600101F11001070
:1047E00080060010C006001078060010000010407F
:1047F000000008409C060010F8060010000700109A
:1048000000002E40D40600109B060010220000106D
:104810008F0600109F06001028130010630600107A
:104820005F080010D44B1B78002BC2D0D34B1C78F0
:104830002000FBF7BDFE01340700E0B2FBF7B8FE35
:10484000CF4E0500300004F0F2F9C4B2FBF7C6FE0B
:10485000691E421BCB4DE01901324919401904F081
:10486000D0F97B19180022003100049304F086F976
:10487000C54B1B78002B9CD0C44E3378FC1800939A
:10488000FBF7ACFE009B6119C21B0134D218601902
:1048900004F0B7F90A2233780499CA54BA4B039A40
:1048A0001A7086E7012804D10F22B94B1A70FEF75F
:1048B0006AFF022809D1B74A13780B2B01D9FEF7FA
:1048C00062FF01331370FEF75EFF042809D1B04A7E
:1048D0001378002B01D1FEF756FF013B1370FEF752
:1048E00052FF052804D10822A94B1A70FEF74BFF8E
:1048F000062809D1A64A13780E2B01D9FEF743FFEB
:1049000001331370FEF73FFF072804D10022A04BAC
:104910001A70FEF738FF082809D19E4A1378002B39
:1049200001D1FEF730FF013B1370FEF72CFF182872
:1049300009D1964A1378002B01D1FEF724FF013BE1
:104940001370FEF720FF19280DD1904C8C48257864
:1049500004F06DF9854201D3FEF715FF237801338A
:104960002370FEF710FF21280ED1884C20780028F4
:1049700001D1FEF708FF0138C0B2FDF739FD2378F9
:10498000013B2370FEF7FFFE7D4C200004F04FF941
:10499000814B1A780723002A00D10B33984201D3A8
:1049A000FEF7F1FE7B4B1978794B09011B78203318
:1049B000C918764BC9B21A78501C18702000FBF742
:1049C0008DFEFEF7E0FE754D2A78002A47D01E289E
:1049D00002D12C70FEF7D7FE12280BD1704B1A783B
:1049E000704BD2009B1818685968FBF7E1FE2C70D9
:1049F000FEF7C9FE082809D1694A1378002B01D1B6
:104A0000FEF7C1FE013B1370FEF7BDFE022809D17F
:104A1000634A1378222B01D9FEF7B5FE01331370D8
:104A2000FEF7B1FE09280AD15D4A1378042B03D999
:104A3000053B1370FEF7A7FE1470FEF7A4FE0328D3
:104A400001D0FEF7A0FE564A13781E2B03D805337B
:104A50001370FEF798FE23231370FEF794FE524B5B
:104A60001C78002C02D01A70FEF78DFE4F4E337862
:104A7000002B58D04E4D2B78002B0ED0021FD1B2F8
:104A800005290AD8591E06234B439B18494A9B0007
:104A90009B5898472C70FEF776FE474B1B78002BEF
:104AA00027D00438C4B2052C1ED83222100060432F
:104AB000424D434B2900C01804F060F82A78414B5E
:104AC000A400FF2A0BD000223F481B19A95CFF2934
:104AD0000AD0415C99540132042AF7D104E02D2216
:104AE0001A5500221B195A700022334B1A70FEF718
:104AF0004AFE364B1B78002B11D00438C1B2052971
:104B000006D8322251432E4809182C4804F036F8B2
:104B1000FCF73AFF00222D4B1A70FEF734FEFCF72B
:104B200095FEFEF730FE2A4D2B78002B00D1E3E0F6
:104B300003001D3B274E012B01D912280BD1002366
:104B40002B70FCF721FF3078FCF7B4FE3078FCF7CF
:104B5000B1FEFEF718FE3478182850D11E4F3D786C
:104B6000022D3DD12000FBF77FFC1C4B1B5CFD2B75
:104B7000E9D0013D41E0C046A806001090130010A6
:104B800063060010850000109606001062060010F3
:104B9000D8050010D90500109F06001098060010D7
:104BA000D3060010C0C200009B0600109A06001039
:104BB0009D06001070C40000A50600103B00001008
:104BC000080700102300001098C20000970600108C
:104BD000A006001028130010600600105F080010E7
:104BE000012DB0D92000FBF73FFCD24B5B191B18FD
:104BF000023B1B78FD2BBCD1023D3D70A3E7192879
:104C000015D1CD4B1B78002B70D12000FBF72CFC6D
:104C1000CA4FC84B3D785B191B5CFD2B01D1023597
:104C2000EBE7FBF737FC85428DD20135E5E721281C
:104C300040D1C24D2F78002F85D07B1EDBB2009370
:104C4000012F32D02000FBF70FFCBA4BDF193F18C1
:104C5000023F3B78FD2B28D120000099FBF746FF4F
:104C6000297830780239C9B2FBF740FF2B78013B35
:104C70002B702B78013BDBB22B70002B00D062E74E
:104C800037783800FBF7F0FBAA4C235CFF2B00D1F0
:104C900059E7012338002B70FBF7E6FB235CFD2B63
:104CA00000D050E7FB3B2B704DE720000099FBF74D
:104CB0001DFFDEE70B2808D1A04B1A78511C197094
:104CC00012212000FBF7BEFD3DE726280ED19C4BAC
:104CD0001C709C4B1A789C4B1A709C4B1A789C4BFE
:104CE0001A7001229B4B1A700023DCE7934B1A7851
:104CF000511C19700100E4E7974C2378002B00D178
:104D00006EE1964C23780093002B0BD00438C3B28D
:104D1000052B03D8924B8000C3589847002323707B
:104D2000FEF731FD8F4B1B78002B31D08E4B1D7859
:104D30002800FBF799FB04002800FBF7B1FE8B4F1E
:104D4000380003F074FF05002020FBF78DFB794E3F
:104D5000021B611E60198919801903F052FFFE239E
:104D6000009D3355380003F062FF854206D27A5D1C
:104D7000631CF3185A550135072DF3D10023794AE6
:104D80001370FEF7A9FA0122794B1A60FEF7FBFCBB
:104D9000784B1B78002B29D00438C4B2052C00D9DD
:104DA000A2E6A022520010006043734B614DC01870
:104DB000290003F0E3FE1F20FBF756FB2B5C6F4935
:104DC000A400FF2B0CD00123013C0C192818C25C55
:104DD000FF2A00D188E6E2540133052BF7D183E6A0
:104DE0002D230B5500230C1963707DE6644B197855
:104DF00000290BD00438C1B2052900D988E6A022C9
:104E0000520051435C4809184A487FE61E2803D1E6
:104E100001232370FEF7B7FC08280CD14B4B524AF4
:104E200019701378032B03D9043B1370FEF7ABFC06
:104E30001170FEF7A8FC02280CD10122434B1A7016
:104E4000494A13781B2B01D9FEF79DFC04331370DC
:104E5000FEF799FC042812D1434A1378002B01D0A5
:104E6000013B1370002337490B701378DB439B071A
:104E700001D0FEF788FC01230B70FEF784FC0628A6
:104E800013D1394A13781E2B01D801331370012135
:104E90002C4B19701178032208001040114201D0E8
:104EA000FEF771FC1870FEF76EFC122801D0052881
:104EB00068D101232B70274B2B4F1E783C78002E96
:104EC00021D01F4B1D4D18781F4BFD211A781D4B0B
:104ED00038701A701E4B1A781C4B1A702A78531CA3
:104EE0002B70FBF7AFFC2A782100531C38782B700D
:104EF000FBF7A8FC0023174A1370FCF745FDFEF7EB
:104F000023FAFEF740FC2000FBF7D6FA071E05D077
:104F10003000FBF7C1FE2E70FEF735FCFBF7BAFA46
:104F2000FF2800D13800054B18702000FCF7C2FCA8
:104F3000FEF729FC5F0800108C06001060060010C8
:104F4000D006001029130010D10600102A130010FB
:104F5000D2060010A20600109F060010A306001043
:104F6000B8C400009006001028130010630600105B
:104F70001C000010A50600109F0900106D00001015
:104F8000970600101D2811D1CA4B1878FBF76CFA50
:104F9000C94B1B5CFE2B04D10020FBF77DFEFEF706
:104FA000F2FB0120FBF778FEFEF7EDFB212807D18D
:104FB000C04B1878FBF774FDFCF7E6FCFEF7E3FB4B
:104FC000252804D10122BD4B1A70FEF7DCFB2628F0
:104FD00001D0FEF7D8FB0122B94B1A70FEF7D3FBC4
:104FE000B8490A78002A00D1C1E01E280DD1B64A7E
:104FF0000B701078B54A1070AE4C2078FCF75AFC54
:105000002078FCF757FCFEF7BEFB1D2809D10123D1
:105010002B70FBF73FFAFF2800D10020AC4B187033
:10502000EAE7122801D00B2812D1AA4B12201B78D4
:10503000002B00D098E00120FBF716FA0400202096
:10504000FBF712FA9C490200601803F0DAFDD3E77F
:10505000212825D12038FBF707FA04002020FBF790
:1050600003FA9C4D02002E78934B002E14D0661E3E
:105070009E19012C07D931000232A01E121B1818EC
:1050800003F07CFDB8E7013219193000121B03F060
:1050900075FD00232B70AFE7021B19191800EFE70D
:1050A0000A2823D88B4E202033780093FBF7DCF9B5
:1050B000009B0400804D002B0CD00120FBF7D4F99D
:1050C0000134461E221AA919281803F09AFD3B78CC
:1050D000AB5591E7020029007F4803F092FD3B7831
:1050E0002B70FF236B70FE3B337085E70F283BD896
:1050F0000120FBF7B9F900900220FBF7B5F9040095
:105100002020FBF7B1F90700009B6B4DE31A0393D6
:105110005B19020029001800049303F072FD039A42
:105120006119280003F02AFD009B6100DE19361B7F
:10513000C91A321B4919601903F020FD039B320084
:10514000581E0499401903F019FDA61EBA1C601ED2
:10515000121B7119401903F054FD00225F4B1B789C
:10516000AB555C4B1A7047E7FBF788FB44E75C4D97
:105170002B78002B00D1F7E05A4C2378002B0BD072
:105180000438C3B2052B03D8574B8000C358984747
:1051900000232370FEF7F7FA1E2803D101232370A2
:1051A000FEF7F1FA212847D1504B1B78002B3FD056
:1051B0004F4B1B78002B29D0FBF7B4F9FA220023C0
:1051C000920007000E0004F0F1F80B0005000C003F
:1051D000034303D1FBF7BAF9FEF7D5FA38003100E3
:1051E0006422002304F0E2F8D3B20A93002364227D
:1051F0000B9328000023210004F0FCF80A9B0B9C71
:10520000C0186141FBF754FBFEF7BDFAFBF78AF9C2
:10521000384B10221C7800239C4200D1063A04F03F
:10522000C5F80B000343D5D0FBF742FBFEF7ABFA02
:10523000FBF778F9FEF7A7FA1F2806D12E4B1B784B
:10524000022BC7D9FCF7CBFFC4E7132811D1FBF71A
:1052500069F904F057F900F017FD0022274B05F01B
:10526000C7FB04F013F9FBF723FBFBF76FF9FEF71D
:105270008AFA202806D1204B1B78012BAAD9FCF7EB
:10528000C8FFA7E7252809D1FBF74CF91C4B03C33E
:10529000FBF70EFBFBF75AF9FEF775FA262831D11A
:1052A000174B18685968FBF703FBFBF74FF9FEF73C
:1052B0006AFAC046281300105F080010A506001007
:1052C000970600108D0600108A060010890600104F
:1052D000600600108E06001061080010AC06001079
:1052E000A9060010AB0600101CC5000092190010A2
:1052F00021000010910600109319001000002440B6
:10530000B819001016281DD1CA4C2378012B01D9D9
:10531000FCF77FFFFBF7EAFA2378022B01D9FCF7B1
:105320005EFFFCF7F1FDC44B64201B78002B00D01E
:10533000C2480021FBF7BCFAFBF700FBFBF706F9BC
:10534000FEF721FA122801D9FEF71DFABC4B8000A6
:10535000C35898473B780A2B01D8FEF714FA122B52
:1053600001D1FEF710FA35E7B64F3B78002B3FD05E
:105370001E2803D100233B70FEF705FA132804D141
:105380001238FBF7C5FBFEF7FEF90F2804D10E38E3
:10539000FBF70CFBFEF7F7F9142804D10F38FBF7E5
:1053A000B7FBFEF7F0F9092804D10438FBF7FEFA41
:1053B000FEF7E9F9152804D10B38FBF7A9FBFEF736
:1053C000E2F9082804D10230FBF7F0FAFEF7DBF926
:1053D000162804D10238FBF79BFBFEF7D4F9072807
:1053E00001D0FEF7D0F90D30FBF7E0FAFEF7CBF96C
:1053F000954A1378002B00D1D6E0944B1B78002BF4
:105400001ED00438C4B2052C01D9FFF76DFB8022F1
:105410008F4B904D20022900C018520003F0AEFBC4
:1054200000232021A0008C4C2418EA5C21700A2A59
:1054300000D0227001330134042BF6D1FFF754FB66
:10544000864C217800290FD00438C0B2052807D82F
:10545000802201027E48520009187E4803F08EFB2C
:1054600000232370FEF78FF91E2802D11170FEF77A
:105470008AF9082809D17A4A1378002B01D1FEF75E
:1054800082F9013B1370FEF77EF902280BD1FBF77E
:10549000B3F8734D2C780134844201DBFEF773F9C5
:1054A0002C70FEF770F909280AD16D4A1378042B85
:1054B00003D9053B1370FEF766F91170FEF763F927
:1054C00003280ED1FBF798F8654D2C78A31D834275
:1054D00003DA05342C70FEF756F901382870FEF710
:1054E00052F9122803D1FBF727FBFEF74CF90F28DE
:1054F00006D1FBF721FB01225A4B1A70FEF743F944
:10550000212801D00D281BD1554E34782000FBF7FF
:105510004FF801340500E0B2FBF74AF80400FBF74E
:105520005DF8021B4B482118281803F027FB33783D
:10553000002B01D1FEF727F9013B3370FEF723F969
:105540000E281CD1FBF758F8012801D8FEF71BF9EB
:10555000434B18780130C0B2FBF72AF83D4D0400E8
:105560002B5C002B01D1FEF70EF9FBF737F8021B7D
:10557000601E6119401903F001FBFEF704F90C28C5
:1055800000D01DE5364B1878FBF712F80400FBF746
:1055900025F8304D021B601C6119401903F031FBE6
:1055A0000A232B55FEF7EFF8072803D101233370A8
:1055B000FEF7E9F808280AD12B4A2C481478137012
:1055C00001220A702A4A04701370FEF7DCF80928D9
:1055D00008D1254A254910781370012308702370DB
:1055E000FEF7D1F8042803D101232B70FEF7CBF886
:1055F000052805D101233B70FBF7CEFAFEF7C3F86F
:10560000062801D0FEF7BFF801231370FEF7BBF8A0
:10561000184B1B78002B01D0FEF7F0FDFEF747FE7C
:10562000089B00260027002B01D0FEF75BFCFEF74D
:10563000E3FBC04693190010210000101027000062
:10564000D0C40000A4060010A8060010A506001093
:1056500091130010850000108501001097060010BE
:105660009013001096060010890600108A0600109C
:10567000281300108D060010F8B54E4657464546D3
:10568000DE46A34BE0B54E00804689468A46760842
:105690009E421CDD9F4B9E4209DC06D05346002BE8
:1056A00000DCBAE09C4B9D4A09E00028F6D0424657
:1056B0004B464046494604F05DFA03000A001800D4
:1056C0001100F0BCBB46B246A946A046F8BD944BBB
:1056D0009E4200DDA4E0934B9E4200DC8FE001235C
:1056E0005B429B4642464B464046494605F080F9A0
:1056F00002000B0006000F0005F07AF904000D000F
:10570000894A8A4B05F074F9894A8A4B04F032FAC7
:1057100022002B0005F06CF9874A884B04F02AFA26
:1057200022002B0005F064F9854A864B04F022FA2A
:1057300022002B0005F05CF9834A844B04F01AFA2E
:1057400022002B0005F054F9814A824B04F012FA32
:1057500032003B0005F04CF97F4A804B06000F00F9
:105760002000290005F044F97D4A7E4B05F0ACFB92
:1057700022002B0005F03CF97B4A7C4B05F0A4FB92
:1057800022002B0005F034F9794A7A4B05F09CFB96
:1057900022002B0005F02CF9774A784B05F094FB9A
:1057A00022002B0005F024F90B00594602000131BC
:1057B0005CD059463000CC00390004F0DBF9424699
:1057C0004B4605F015F96E4D6E4B2D191C192268CC
:1057D000636805F079FB42464B4605F075FB020015
:1057E0000B002868696805F06FFB030050460A004B
:1057F000002800DB63E7802212068A185FE7624A0E
:10580000624B04F0B7F90022614B03F0BBFD0028A6
:1058100000D164E743464A4651E73F4B5D4A4EE7B5
:1058200000F014F95C4B04000D009E422FDC5B4B32
:105830009E4255DC02000B0004F09CF90022544B00
:1058400005F042FB802306000F000022DB0520004C
:10585000290004F08FF90B0002003900300004F039
:10586000C5FC0023804689469B463BE73000390053
:1058700004F080F942464B4605F0BAF802000B00EE
:105880004046494605F020FB03000A0017E7444B59
:105890009E421ADC0022434B05F016FB0022060054
:1058A0000F00404B2000290005F0A2F80022384BE1
:1058B00004F060F90B0002003900300004F096FC9F
:1058C0000223804689469B460CE70B0002003649BE
:1058D000002004F08BFC0323804689469B4601E7A9
:1058E00000222B4B05F0F0FA002206000F00284B97
:1058F0002000290004F03EF90B00020039003000BE
:1059000004F074FC0123804689469B46EAE6C046C3
:10591000FFFF0F440000F07F182D4454FB21F93F96
:10592000FFFFDB3FFFFF1F3E11DA22E33AAD903F5E
:10593000EB0D76244B7BA93F513DD0A0660DB13FC6
:105940006E204CC5CD45B73FFF8300922449C23F2E
:105950000D5555555555D53F2F6C6A2C44B4A2BFF3
:105960009AFDDE522DDEAD3F6D9A74AFF2B0B33FBB
:10597000711623FEC671BC3FC4EB98999999C93F33
:1059800038C5000058C500009C7500883CE4377E8F
:105990000000F03FFB21F9BFFFFFF23FFFFFE53FB3
:1059A000FF7F03400000F83F0000F0BFD0B5254A5C
:1059B0004B0086B05B08934222DD234A934209DD07
:1059C00002000B0005F080FA02000B001000190025
:1059D00006B0D0BD02AA00F02BFD03231840049AA4
:1059E000059B012813D0022822D0002819D0029844
:1059F00003990124009401F075FD02000B00E5E716
:105A00000022002300F0F4FF02000B00DEE700900C
:105A10000298039901F066FD80231B060200CB1853
:105A2000D4E70298039900F0E3FF02000B00CDE7F2
:105A30000298039900F0DCFF80231B060200CB18BC
:105A4000C4E7C046FB21E93FFFFFEF7F4B00590849
:105A50007047C046F8B504004A000B00080026490C
:105A6000520D5118270013291ADC002912DB234A92
:105A700026000A41100018401D00204307D0802056
:105A8000000308410024C0189043260005003000A0
:105A90002900F8BDDB0FD8074B1C28D00024F4E701
:105AA00033290DDD802226001D00D2009142EED167
:105AB00022002000190004F05DF806000D00E6E762
:105AC0000F4D2600AC46012562446D42D540AC46E0
:105AD00062461D002242DAD03322511A323A8A40FD
